:100000000C946F020C94A0020C94A0020C94A00219
:100010000C94A0020C94A0020C94A0020C94A002D8
:100020000C94A0020C94A0020C94A0020C94A002C8
:100030000C94A0020C94A0020C94A0020C94A002B8
:100040000C94A0020C94A0020C94A0020C94A002A8
:100050000C94812B0C94A0020C94A0020C94752D8E
:100060000C94A0020C94312F0C9421300C94A0021B
:100070000C94A0020C94A0020C94A0020C94A00278
:100080000C94A0020C94A0020C94A0020C94A00268
:100090000C94652F0C9460300C94A0020C94871380
:1000A0000C94A0020C94A0020C94A0020C94A00248
:1000B0000C94A0020C94A0020C94A0020C94A00238
:1000C0000C94A0020C94A0020C94A0020C94992F02
:1000D0000C949F300C94A0020C94CD2F0C94DE3025
:1000E0000C94A0029818AC18C218DE1802192C192A
:1000F0004B1982192D18BC1957187A18DD19F719E0
:1001000082188618A018B618D218F01820193F19AE
:10011000671A9B19B019BC196E18D119021AC12B94
:10012000C42BB72BBB2BFB2BC82BCC2BD22BD62B0A
:10013000DA2BE02BE42BE82BFB2BEE2BF22BF62B10
:10014000DF2CE42CE92CF32C6C2DFD2C052D0D2D32
:10015000172D212D2B2D3A2D442D6C2D4E2D582D44
:10016000622D687474703A2F2F6769746875622EF7
:10017000636F6D2F776865656C65722D6D6963724D
:100180006F666C7569646963732F6D6F746F722D20
:10019000636F6E74726F6C2E67697400302E322E2E
:1001A000706F73743200576865656C6572204C61BE
:1001B00062006D6F746F725F636F6E74726F6C004C
:1001C000302E31302E706F73743134000000090A04
:1001D00002080B0C0D0706030401000000000000DC
:1001E000000000000000000000000000000000000F
:1001F000000000000000000011100F0000000000CF
:1002000000000000000000000000000000000000EE
:10021000000001021020200808102040102040801B
:1002200002010201080402010102040810204080BA
:100230008040201008040201800402018040201048
:100240000804020108040201010204081020408091
:10025000010204081020408005050505070508086F
:100260000808020202020A0A080804040404010140
:100270000101010101010303030303030303040755
:1002800007070C0C0C0C0C0C0C0C020202020606EC
:100290000606060606060B0B0B0B0B0B0B0B0000E2
:1002A00020002300260029002C002F00320000012E
:1002B00000000301060109010000220025002800BA
:1002C0002B002E003100340002010000050108015E
:1002D0000B0100002100240027002A002D0030001F
:1002E000330001010000040107010A010C94C0144D
:1002F0000C94661B0C94582D0C944A1C0C94F62BF1
:100300000C94B4060C9402190C94B92A0C94D432AF
:100310000C94812E0C94D0150C94D5320C943A2D5B
:100320000C94A2020C94F0180C9405060C94F22B79
:100330000C94E3140C94E42C0C94932E0C94E42B66
:100340000C94D1190C94B8140C94DF2C0C94272421
:100350000C94AF020C94E02B0C94E2140C94F60273
:100360000C943E040C94C82B0C9406040C943F157A
:100370000C9482180C94C42B0C946E180C942D18A9
:100380000C94D5290C941D040C94AC020C94C12B34
:100390000C942D040C944B190C94CC2B0C943E050E
:1003A0000C94AE2E0C94772B0C9401040C946F12C9
:1003B0000C94C2180C94BB2B0C9412150C94DD19E0
:1003C0000C94D02E0C9420190C940D2D0C942B2DE4
:1003D0000C94D3140C94B72B0C947E2B0C94821A8F
:1003E0000C94B2020C94AB1C0C94B61B0C946003DE
:1003F0000C94E92C0C94052D0C94DA2B0C94BD0272
:100400000C940F040C942C190C94C9050C94111F16
:100410000C9406150C94EE2B0C944E2D0C94442D3C
:100420000C94671A0C9457180C94622D0C94740356
:100430000C949E310C94DE180C94BC190C94FD2C79
:100440000C94E82B0C94212D0C94021A0C94C824C3
:100450000C94DF200C94A41C0C9482190C94003092
:100460000C941E230C94F32C0C94FF1F0C94FA068E
:100470000C94F7190C94BB220C94AC180C94301FFC
:100480000C94172D0C94DB2E0C94400B0C945E0BEB
:100490000C949B190C9486030C94D62B0C94D22BA1
:1004A0000C9486180C94A0180C94B0190C949818FD
:1004B0000C9430050C943F190C94D5020C94B6188A
:1004C0000C94FB2B0C946C2D0C94D2180C94F00310
:1004D0000C947A180C946A03400BD0159E311124A9
:1004E0001FBECFEFD1E2DEBFCDBF00E00CBF14E0F6
:1004F000A0E0B2E0E6EDF9E600E00BBF02C0079035
:100500000D92A43FB107D9F71CE0A4EFB4E001C0FD
:100510001D92AA30B107E1F714E0CEEDD4E000E07F
:1005200006C022970109FE010BBF0E949334C83D0B
:10053000D10780E00807A9F70E9462120C94E93401
:100540000C94000040E850E060E070E0BC01625FA5
:100550007C4FCB01BA01089502970C94A202049734
:100560000C94A202E091FF07F09100080280F38151
:10057000E02DBC018FEF97E01994FC0120E030E002
:100580004789508D452B49F4F901EE0FFF1FE80F05
:10059000F91F708F678B822F08952F5F3F4F329620
:1005A0002430310569F78FEF0895FC018789908D1C
:1005B000892B59F0818D928D892B51F0838D948DEB
:1005C000892B91F482E090E005C080E090E002C0C9
:1005D00081E090E0DC01AA0FBB1FAE0FBF1F589651
:1005E0007C936E93579708958FEF08957F928F9223
:1005F0009F92AF92BF92CF92DF92EF92FF920F93B2
:100600001F93CF93DF937C01EB01942E8C016C013F
:1006100088E0C80ED11C712C812C5701A2E0AA0ED3
:10062000B11C9920A1F0F8018789908D009779F08D
:10063000DC01ED91FC91D70156964C9150E004807D
:10064000F581E02D9E01B5011995811113C00E5F52
:100650001F4F0C151D0529F7711023C0EA81FB817E
:1006600081818F708730E9F088248394911019C0BC
:10067000812C17C0F8018789908DDC01ED91FC91E8
:10068000AA81BB8114962C9130E04C895D896885E4
:1006900079850280F381E02D1995882E7724739453
:1006A000D6CF882DDF91CF911F910F91FF90EF90C2
:1006B000DF90CF90BF90AF909F908F907F900895E4
:1006C000623030F4FC01E60FF11D428380E00895B2
:1006D0008FEF0895623030F4FC01E60FF11D428384
:1006E00080E008958FEF0895FC0183819481009745
:1006F00059F0FB012081FC01E159FF4F2083FC01EF
:10070000E259FF4F21E0208380E008957F928F928D
:100710009F92AF92BF92CF92DF92EF92FF920F9390
:100720001F93CF93DF937C01EB01942E8C016C011E
:1007300086E0C80ED11C712C812C5701A2E0AA0EB4
:10074000B11C9920A1F0F8018789908D009779F06C
:10075000DC01ED91FC91D70156964C9150E004805C
:10076000F581E02D9E01B5011995811113C00E5F31
:100770001F4F0C151D0529F7711023C0EA81FB815D
:1007800081818F708730E9F088248394911019C09B
:10079000812C17C0F8018789908DDC01ED91FC91C7
:1007A000AA81BB8114962C9130E04C895D896885C3
:1007B00079850280F381E02D1995882E7724739432
:1007C000D6CF882DDF91CF911F910F91FF90EF90A1
:1007D000DF90CF90BF90AF909F908F907F900895C3
:1007E000FC0183819481892B51F081E0FB014081E0
:1007F000518162817381452B462B472B09F480E0A0
:100800000895FC01828193810C947417CF93DF9338
:10081000EC010E9401041C82DF91CF9108952130E8
:10082000310549F4DC01ED91FC910680F781E02D62
:10083000DA014C91199480E00895CF93DF93FC0185
:10084000452B39F4E901AA81BB8181E022819C9189
:10085000291380E0DF91CF9108952430310561F4B0
:10086000DC01ED91FC91DA012D913D914D915C916E
:100870000680F781E02D199480E00895CF93DF93EF
:10088000FC01452B39F4E901AA81BB8181E0228179
:100890009C91291380E0DF91CF9108950F931F93CE
:1008A000CF93DF938C01EB01BC01CE010E94973402
:1008B000C8010E949E34AC01BE01CB01BA01DF9198
:1008C000CF911F910F9108956115710581059105D3
:1008D00009F465C0DC01CB01F3E0880F991FAA1F62
:1008E000BB1FFA95D1F7009721E0A207B10520F4CC
:1008F00021E02093520942C0009728E0A207B105E9
:1009000058F422E020935209E3E0B695A795979515
:100910008795EA95D1F732C0009720E4A207B10588
:1009200058F423E02093520976E0B695A795979561
:1009300087957A95D1F722C00097A10521E0B207EB
:1009400040F424E020935209892F9A2FAB2FBB2724
:1009500015C00097A10524E0B20758F425E02093C4
:1009600052095AE0B695A795979587955A95D1F76C
:1009700005C085E0809352098FEF9FEF9093540953
:100980008093530980915309909154099093870063
:10099000809386008091520980618093810084EB6E
:1009A00096E0909351098093500981E080936F0005
:1009B0000895603428E372078105910509F44CC05D
:1009C00030F5603B24E072078105910509F444C0CD
:1009D00060F46C3221E0720781059105E9F1683518
:1009E000724081059105D1F537C0603C22E1720764
:1009F0008105910589F1603825E27207810591052D
:100A000059F1603679408105910541F525C0623183
:100A10002AE7720781059105F9F060F461152BE46E
:100A2000720781059105C1F0603870478105910515
:100A3000A9F412C0611521EE72078105910561F0DC
:100A4000611522EC720721E08207910529F06115FA
:100A500076498105910511F481E0089580E00895BB
:100A6000FC0183819481892B39F0FB0160817181C4
:100A7000828193810C94D90480E008950F931F9391
:100A8000FC0183819481892BB1F0FB01608171812C
:100A9000828193818B019C01085011092109310940
:100AA000003711052105310530F48AEF98E00E94E6
:100AB000881581E001C080E01F910F9108950F9388
:100AC0001F93CF93DF93EC011A86198600E010E0A4
:100AD0002B813C8189859A850217130760F4EF8189
:100AE000F885E00FF11F60810E945B179A87898764
:100AF0000F5F1F4FEDCF0E9473179A878987DF9191
:100B0000CF911F910F910895CF92DF92EF92FF92B4
:100B10000F931F93CF93DF93EC016A017B01411583
:100B200051056105710519F410926F0005C0483C2C
:100B300051056105710508F18E0106591F4FF80135
:100B400080819181A281B381C816D906EA06FB068D
:100B5000B1F0892B8A2B8B2B11F010926F00C701FB
:100B6000B6010E946404F801C082D182E282F3825D
:100B7000C759DF4F81E0888303C080E001C081E076
:100B8000DF91CF911F910F91FF90EF90DF90CF9069
:100B90000895FC0183819481009739F0FB01408125
:100BA0005181628173810C94840580E00895FF92E5
:100BB0000F931F93CF93DF93EC01F62E8C01095A0C
:100BC0001F4FF80180816817C9F0662359F0FE01B4
:100BD000E659FF4F60817181828193810E94640494
:100BE00060E003C010926F0061E089E00E94352C44
:100BF000F801F082CA5ADF4F81E0888381E0DF91FB
:100C0000CF911F910F91FF900895FC0183819481F2
:100C1000009721F0FB0160810C94D70580E00895D6
:100C2000FF920F931F93CF93DF938C01F62EEC016D
:100C3000C75ADF4F8881681749F08DE00E94352C34
:100C4000F882F801E85AFF4F81E0808381E0DF916C
:100C5000CF911F910F91FF9008950F931F93CF9302
:100C6000DF938C01FC01E257FC4F4081518162818E
:100C700073814F5F5F4F6F4F7F4F4083518362831C
:100C80007383FC01E95AFF4F8081882309F467C010
:100C9000F801E159FF4F8081F801EE56FC4F88239F
:100CA000D1F04081518162817381D801A75ABF4F31
:100CB0008C91882329F081E090E0A0E0B0E003C0AF
:100CC0008FEF9FEFDC01840F951FA61FB71F808356
:100CD0009183A283B38380819181A281B381E80152
:100CE000C05ADF4F488159816A817B8184179507FB
:100CF000A607B707A1F184179507A607B70714F44D
:100D000060E001C061E0C8010E94100661E08AE075
:100D10000E94352CF801EB59FF4F808191810E9490
:100D2000142E60E08AE00E94352C488159816A8146
:100D30007B81F801E75AFF4F8081882329F081E009
:100D400090E0A0E0B0E003C08FEF9FEFDC01840FE4
:100D5000951FA61FB71F88839983AA83BB83DF9142
:100D6000CF911F910F91089586EF94E00C942D067A
:100D70008F929F92AF92BF92CF92DF92EF92FF92AB
:100D8000CF93DF93EC016A017B01CB01BA01F7FE3F
:100D900009C00E9493339B01AC0160E074E284E7D8
:100DA00099EC08C00E9493339B01AC0160E074E2AF
:100DB00084E799E40E94FD320E9465334B015C0197
:100DC000C701B601662797FD63957727882799277E
:100DD000CE010E941006B501A401CE01DF91CF9192
:100DE000FF90EF90DF90CF90BF90AF909F908F904B
:100DF0000C948405FC0183819481009721F0FB0110
:100E000060810C94100680E0089586EF94E00E94C3
:100E1000A21662EB72E08AEF98E00E94CB15E1E83F
:100E2000F0E080E180831092800084E0809352099A
:100E300082E19AE790935409809353099093870035
:100E40008093860084E180830895DC01ED91FC911C
:100E50000280F381E02D41E050E019940F931F933D
:100E6000CF93DF93EC018B01E881F9816F5F7F4FB6
:100E70000280F381E02D41E050E01995E881F9818D
:100E80000280F381E02D41E050E0B801CE01DF9116
:100E9000CF911F910F911994CF93DF93EC011E8A8C
:100EA000188E1F8A1A8E198E1C8E1B8E1E8E1D8EFA
:100EB00089E892E09983888389E592E098A38F8FEF
:100EC0001BA21AA287E089A385E692E09DA38CA3CA
:100ED00018A61FA286E08EA381E792E09AA789A7B1
:100EE0001DA61CA682E08BA78DE792E09FA78EA788
:100EF0001AAA19AA81E088ABBE01615E7F4FCE01BC
:100F00000E94BD02E881F981BE016C5D7F4F0280C5
:100F1000F381E02DCE011995E881F981BE01675D6D
:100F20007F4F0280F381E02DCE011995E881F98190
:100F3000BE01625D7F4F0280F381E02DCE01DF9123
:100F4000CF9119940F931F93CF93DF93EC018B01F3
:100F5000E881F9816F5F7F4F0280F381E02D41E0EE
:100F600050E01995E881F9810280F381E02D41E09C
:100F700050E0B801CE01DF91CF911F910F911994EC
:100F8000CF93DF93EC011E8A188E1F8A1A8E198E5A
:100F90001C8E1B8E81E592E0998388838DE292E01E
:100FA0009E8F8D8F19A218A282E08F8F89E392E025
:100FB0009BA38AA31EA21DA283E08CA385E492E0DA
:100FC00098A78FA31BA61AA681E089A7BE01635E1E
:100FD0007F4FCE010E94D502E881F981BE016E5D8E
:100FE0007F4F0280F381E02DCE011995E881F981D0
:100FF000BE01695D7F4F0280F381E02DCE01DF915C
:10100000CF9119948F929F92AF92BF92CF92DF921D
:10101000EF92FF920F931F93CF93DF93EC018BE03E
:1010200092E09983888381E192E09B838A8387E1C0
:1010300092E09D838C83CE0184960E94C007FE01BE
:10104000E05BFF4F1182108213821282FE01EC5A84
:10105000FF4F87EF92E091838083CE0180599F4FAD
:101060000E944C07FE01ED55FF4F11821082138242
:101070001282FE01E955FF4F87EB92E09183808356
:10108000FE01E755FE4F11821082128214821382F4
:1010900088248A94982C92868186A12CBB24B394B0
:1010A000B682A582CE0187559F4F908787838E0198
:1010B0000C541E4FD8011C9211961C9211971D962C
:1010C0001C921E921C971F961C921E921E9753965E
:1010D0001C921E92529791961C921E929097559632
:1010E000FC93EE935497C8010E9474177E01BAE2F4
:1010F000EB1ABEEFFB0A8DE1C82E82E0D82EF70175
:10110000D182C08213830283C7010E94010485E259
:1011100092E0D7018D939C93FE01E652FE4F84EC42
:1011200099E091838083FE01E452FD4F1182108289
:1011300012821482138292868186B682A582CE01A3
:1011400084529E4F908787838E0109511D4FD8018D
:101150001C9211961C9211971D961C921E921C9720
:101160001F961C921E921E9753961C921E92529787
:1011700091961C921E9290975596FC93EE935497DD
:10118000C8010E9474177E01B7EFEB1ABCEFFB0A8F
:10119000F701D182C08213830283C7010E94010438
:1011A00081E992E0D7018D939C93FE01E35FFC4FB0
:1011B0001082C7010E94060489E992E0998388831E
:1011C0008FE992E09B838A8385EA92E09D838C83FA
:1011D000FE01E257FC4F1082118212821382CE561A
:1011E000DC4F188219821A821B8261E08DE00E9416
:1011F000FC2B61E089E00E94FC2B61E08AE00E9408
:10120000FC2B61E085E00E94FC2B61E086E00E94FF
:10121000FC2B61E087E00E94FC2B61E089E00E94EA
:10122000352C60E085E00E94352C60E086E00E946D
:10123000352C60E087E0DF91CF911F910F91FF90F7
:10124000EF90DF90CF90BF90AF909F908F900C94D5
:10125000352CEF92FF920F931F93CF93DF93CDB76F
:10126000DEB72A970FB6F894DEBF0FBECDBF8C0154
:10127000FC01E45BFF4FE080F180FC01E65BFF4F87
:1012800040815181B701CE0101960E94951AF80163
:10129000E25BFF4F60817181A801CE0101960E943F
:1012A0007F1E882319F02F81388504C0E12CF12C92
:1012B00020E030E0B901C7012A960FB6F894DEBFEE
:1012C0000FBECDBFDF91CF911F910F91FF90EF9097
:1012D0000895CF92DF92EF92FF920F93CF93DF9317
:1012E000CDB7DEB728970FB6F894DEBF0FBECDBFDF
:1012F000DC01CB016A017901BC01CD010E9486238A
:1013000029833A834B835C836D837E838F839887A5
:10131000F60160817181A701CE010196002319F0C9
:101320000E94B52902C00E94312828960FB6F89471
:10133000DEBF0FBECDBFDF91CF910F91FF90EF9039
:10134000DF90CF900895EF92FF920F93CF93DF93AA
:10135000CDB7DEB7A0970FB6F894DEBF0FBECDBFF6
:101360007C01FC01E25BFF4F8081918198A38F8F0C
:1013700001E09E012F5F3F4FAE01415E5F4F60E095
:1013800070E0CB010E9469098EE1FE013196D70120
:1013900001900D928A95E1F7A0960FB6F894DEBF02
:1013A0000FBECDBFDF91CF910F91FF90EF900895C9
:1013B000CF92DF92EF92FF920F931F93CF93DF9321
:1013C000CDB7DEB769970FB6F894DEBF0FBECDBFBD
:1013D0008C017B016901CE0101960E9415208823B2
:1013E00009F4ADC0A601B701CE010D960E941520EB
:1013F000882309F4A4C0EB81FC812181822F807CA9
:1014000009F092C02073203131F4EB85FC85808196
:10141000882339F00CC0203221F4EB85FC85C08094
:1014200008C0CC24C394222321F0C12C02C0CC24B8
:10143000C394D801ED91FC910190F081E02D4C2DE9
:10144000BE016F5F7F4FC801298F19958823D9F09E
:10145000EB81FC81448150E069857A858D899E8984
:101460000E94A734298D203131F4EB85FC858081E1
:10147000EF89F88D07C0203231F4EF89F88DAB8504
:10148000BC858C918083CC2009F44EC0AB81BC819B
:1014900011968C9111978F70873009F045C0EB85BC
:1014A000FC858081EF89F88D8083F8012689822F61
:1014B00090E0FC013196EE0FFF1FEE0FFF1FE00FD3
:1014C000F11FB183A083FC01EE0FFF1FEE0FFF1F82
:1014D000E00FF11F89819A81938382832F5FD80166
:1014E00056962C93E12CF12CD12CEC14FD04C4F471
:1014F000EB81FC8184818E9D802D112490E02D89CB
:101500003E89280F391F49855A85480F591F668122
:101510007781C8010E94D809BFEFEB1AFB0AE5CF1B
:10152000F80186898150868BCE0101960E94352074
:10153000882329F0CE010D960E94352059CF699657
:101540000FB6F894DEBF0FBECDBFDF91CF911F91D4
:101550000F91FF90EF90DF90CF9008954F925F92A0
:101560006F927F928F929F92AF92BF92CF92DF92B3
:10157000EF92FF920F931F93CF93DF93CDB7DEB718
:10158000A0970FB6F894DEBF0FBECDBF7C016C01F3
:101590008EE4C80ED11CF701E65BFF4F808091807E
:1015A0005701ECE4AE0EB11CF5010081118142E05F
:1015B00050E060E070E0CE0101960E94B7344981AE
:1015C0005A818416950640F062E070E0C8010E94DE
:1015D000B73489819A8104C000E010E080E090E097
:1015E0000115110521F4C7010E94A3090BC02C01AC
:1015F000380100E09701A601C301B2010E94690908
:10160000882389F3F501A080B180F6018081918162
:1016100098A38F8F01E09E012F5F3F4FAE01415E87
:101620005F4F60E070E0CB010E9469098EE1FE012E
:101630003196D50101900D928A95E1F7F60160810E
:101640007181F70114AA9501A701C7014E960E9466
:10165000D809A0960FB6F894DEBF0FBECDBFDF91BC
:10166000CF911F910F91FF90EF90DF90CF90BF909F
:10167000AF909F908F907F906F905F904F90089564
:1016800086EF94E00E94020886EF94E09093F504C0
:101690008093F4040895CF93DF93E091CC06F0910A
:1016A000CD06C281D38184EC99E00E94812EBC01D9
:1016B0008CEC96E0FE01DF91CF911994BF92CF920E
:1016C000DF92EF92FF920F931F93CF93DF931F92BE
:1016D000CDB7DEB78C017B018AEF98E00E94C01481
:1016E000B82E81E0E81AF108F8018481811101C067
:1016F000B482C12CD12CCE14DF04A4F48AEF98E07C
:101700000E94C0148983F8018481B81207C0BE0109
:101710006F5F7F4F828193810E949317FFEFCF1AF3
:10172000DF0AE9CF0F90DF91CF911F910F91FF90CA
:10173000EF90DF90CF90BF900895EF92FF920F93BC
:101740001F93CF93DF93CDB7DEB763970FB6F894AF
:10175000DEBF0FBECDBF8C012B8B1A8219828FEF9B
:101760009FEF9B878A872B835F834E837987688768
:101770005D834C83CE0101960E945F058CE79CE758
:10178000ACE7B0E08C879D87AE87BF878091BA00B9
:1017900086958A8BF80160818AEF98E00E94AB15EC
:1017A000BE016E5E7F4F8AEF98E00E94250743E0FE
:1017B00050E0BE01645F7F4F8AEF98E00E941215EF
:1017C000BE016F5F7F4F8AEF98E00E942E07BE0137
:1017D0006D5E7F4F8AEF98E00E9425078C819D8186
:1017E000998B888BBE01605F7F4F8AEF98E00E94E3
:1017F0002E078AEF98E00E94C815EC80FD80E11466
:10180000F10461F1F0E2EF16F10418F05FE1E52E6A
:10181000F12CF80160818AEF98E00E94AB15BE01BF
:101820006E5E7F4F8AEF98E00E9425076885798574
:10183000A7018AEF98E00E9412158AEF98E00E94B3
:10184000C815888599858E0D9F1D998788878C81FD
:101850009D818E199F099D838C83CFCFF801608174
:101860008AEF98E00E94AB15BE016E5E7F4F8AEF53
:1018700098E00E942507BE01665F7F4F8AEF98E0DF
:101880000E942E078AEF98E00E94C81563960FB653
:10189000F894DEBF0FBECDBFDF91CF911F910F91A6
:1018A000FF90EF9008956F927F928F929F92AF92E8
:1018B000BF92CF92DF92EF92FF920F931F93CF933D
:1018C000DF93CDB7DEB7A6970FB6F894DEBF0FBE95
:1018D000CDBFDC01FB0179012081213A09F4D8C296
:1018E00008F099C0213109F4BBC108F053C0283079
:1018F00009F473C138F5233009F44DC190F48D918A
:101900009C91213009F42DC108F03AC1DC01ED9120
:10191000FC910190F081E02D1995BC0180EC91E0E3
:101920002AC1253009F451C108F442C1263009F01A
:10193000BFC40E94BF2DD7016D937D938D939C935F
:10194000139763C42C3009F46FC130F42A3009F4C2
:1019500062C108F44DC164C12E3009F46FC108F4AE
:1019600066C12F3009F470C1203109F0A1C49B0178
:101970002F5F3F4F83819481820F931F94838383D2
:1019800001811281238134817901000F111F000F21
:10199000111F95C4253609F4DEC1B0F4213609F4CF
:1019A00097C150F4203409F46BC1213409F477C194
:1019B000203209F07DC423C2233609F48DC108F01A
:1019C000C0C180E290E0C1C1293609F412C260F4BE
:1019D000273609F4C5C108F0F2C1428161818AEF5E
:1019E00098E00E94A8155CC4203809F408C238F4B5
:1019F0002A3609F05DC48091BA008E7FFDC121387E
:101A000009F402C2203A09F053C48D919C910696C4
:101A10000E94AE0A52C4273E09F456C308F063C0C0
:101A2000213C09F4B4C208F041C0253A09F484C24B
:101A300060F4CD90DC90233A09F449C208F04CC21E
:101A4000C60106960E94A30938C4273A09F488C241
:101A500008F47FC2203C09F02BC48D919C918C012D
:101A60000A5A1F4FFC01E955FF4FC080D18060E04A
:101A700070E080E090E00E9486232B8F3C8F4D8F9A
:101A80005E8F6F8F78A389A39AA3AE014F5F5F4FDC
:101A9000B601CE014B960E94B5298AE1FE0131962E
:101AA000D80101900D928A95E1F707C4223E09F40E
:101AB000EEC248F4203E09F4D1C208F0DEC2223C56
:101AC00009F48AC2F5C3243E09F4ECC208F4E4C266
:101AD000253E09F4ECC2263E09F0EAC38D919C91A3
:101AE0000E942D06EAC32F3E09F482C3C8F42B3EA0
:101AF00009F45EC350F4293E09F4EBC208F051C367
:101B0000ED91FC91E257FC4FA9C38D919C912D3E24
:101B100009F451C308F068C3FC01E05AFF4F6CC3DD
:101B2000233F09F48FC360F48D919C91213F09F408
:101B30006FC308F07DC3418152816381748175C395
:101B4000253F09F499C308F48EC3263F09F4A3C3C3
:101B5000273F09F0ADC361818D919C910E941006D1
:101B6000A2C3DC01ED91FC910190F081E02D19956B
:101B7000BC0182EB91E00E944E048B017C019FC36B
:101B8000DC01ED91FC910190F081E02D1995BC01F3
:101B900086EA91E0F0CF8D919C91DC01ED91FC9172
:101BA0000190F081E02D1995BC018CE991E0E3CF23
:101BB0008D919C91DC01ED91FC910190F081E02DE3
:101BC0001995BC0182E691E0D6CF0E94CB2DF7019A
:101BD000608371838283938318C3618172816115ED
:101BE000710509F46AC380E090E00E94EE2D65C3A0
:101BF0002091060C3091070C8DB79EB72115310549
:101C000019F48A509C4002C0821B930BAA2797FDAF
:101C1000A095BA2FF5C2628181810E94FC2B4DC331
:101C200081810E946B2C3CC36281818123C28181AE
:101C30000E94942CF701918380838AC0628170E0B6
:101C400081810E94B92C39C39B012F5F3F4F838153
:101C50009481820F931F948383838181928175C0C5
:101C60009B012F5F3F4F83819481820F931F948349
:101C7000838381819281A381B4818C017D011FC303
:101C80009B012F5F3F4F85819681820F931F968323
:101C900085836181728143815481F89414C10381E9
:101CA0001481C180D2808D919C91DC011296ED91BE
:101CB000FC9113970190F081E02D02961995DC01BB
:101CC000CB017D01A801B601CD010E94B734F7C256
:101CD0008091BA008695E7C28D919C91DC011496A3
:101CE000ED91FC9115970190F081E02D04961995E6
:101CF0006B017C0108E0902E00E010E00C151D0542
:101D000008F0DDC2692D8AEF98E00E94AB158AEFDA
:101D100098E00E94C81581110FC05801BFEFAB1A9F
:101D2000BB0AF701E00FF11F908261E070E080E0F4
:101D300090E00E94EE2D85019394E8E79E12DECF9D
:101D4000BEC28AEF98E00E94B814D7018D939C938D
:101D500002E010E0B4C28AEF98E00E94C014A3C26F
:101D60001281D1808D919C91DC011496ED91FC91B2
:101D700015970190F081E02D04961995082FB92E42
:101D8000E82EF92E412F6D2D8AEF98E00E94A815BC
:101D9000A02EC02EDB2C0C2D0A198AEF98E00E9491
:101DA000B814892B31F08AEF98E00E94C014011713
:101DB00010F010E084C2F60181936F01ECCFCB01EB
:101DC000019604811581080F191F15830483C280B1
:101DD000D38061818AEF98E00E94AB15A601B8011B
:101DE0008AEF98E00E9412158AEF98E00E94C815C9
:101DF00064C28091BA0081608093BA005EC289EFAC
:101E000090E0A0E0B0E0FCC19B012F5F3F4F8481D8
:101E10009581820F931F95838483F1800D911C918E
:101E200042815381648175816801F7EFCF1AFCEF1D
:101E3000DF0AC6014BA35CA36DA37EA30E94060428
:101E4000C801835F9C4FDC01FC9224E64BA15CA19E
:101E50006DA17EA10E949D0B0E94BF2D4B015C01D4
:101E60007801B5EFEB1ABCEFFB0A0E94BF2D681991
:101E700079098A099B09683873418105910508F041
:101E800035C2D701ED91FC91808981112FC2EDCF30
:101E90008D919C9106960E942909009709F40DC224
:101EA0006B8F7C8F8D8F9E8FF89442E050E060E0C6
:101EB00070E0CE014B960E94C7344B8D5C8D62E082
:101EC00070E08D8D9E8D0E94C7347894F6C1C60156
:101ED00006960E94290951CE9B012F5F3F4F8381B7
:101EE0009481820F931F94838383618172818381A4
:101EF0009481F601EE5AFF4FA080B1803601B6E022
:101F00006B0E711C4601E4E58E0E911C01E09501FB
:101F1000A4010E946909182F882359F0D4016D91FA
:101F20007C91F60112AE9301A501C60184960E9430
:101F3000D809D7011C93B9C121E081819281A38185
:101F4000B481892B8A2B8B2B09F420E0F7012083A5
:101F5000ACC161817281838194810E94D904A0C146
:101F600061817281838194818B019C0108501109E8
:101F700021093109003711052105310530F48AEFB7
:101F800098E00E94881581E08EC180E08CC10D919F
:101F90001C91F801EB55FF4FE080F180F801ED5501
:101FA000FF4F40815181B701CE0101960E94951AE1
:101FB000A8014A5A5F4FF801E955FF4F60817181CE
:101FC000CE0101960E947F1E882319F00F8118858B
:101FD00076C1E12CF12C71C19B012F5F3F4F4381F2
:101FE0005481420F531F548343830D911C9161818F
:101FF0007281838194816801F6E5CF0ED11CF801CE
:10200000EB55FF4FA080B180CA010E94862329832F
:102010003A834B835C836D837E838F8398874801EB
:1020200027EA820E911CD4016D917C91A501CE010D
:1020300001960E94B529782E882369F0F401608109
:102040007181F801EA57FF4F10829601A501C60180
:102050004A960E94D809D7017C9227C11381028138
:10206000618185E00E94352C602F86E00E94352C2E
:10207000612F87E00E94352C20C18D919C91DC015D
:10208000ED91FC910190F081E02D199576CD8D9127
:102090009C910E94A21611C161818D919C910E9418
:1020A000D4150BC1ED91FC91EE56FC4FA5C04181BA
:1020B000528163817481ED91FC91EE56FC4F408317
:1020C000518362837383F9C0ED91FC91E257FC4F19
:1020D00093C081819281A381B48113E0880F991FFD
:1020E000AA1FBB1F1A95D1F70097F1E0AF07B10502
:1020F00020F421E02093520942C0009728E0A20773
:10210000B10558F422E020935209F3E0B695A79563
:1021100097958795FA95D1F732C00097E0E4AE071E
:10212000B10558F423E020935209E6E0B695A7954F
:1021300097958795EA95D1F722C00097A105F1E020
:10214000BF0740F424E020935209892F9A2FAB2F28
:10215000BB2715C00097A10524E0B20758F425E07D
:10216000209352096AE0B695A795979587956A9549
:10217000D1F705C085E0809352098FEF9FEF9093D0
:102180005409809353098091530990915409909375
:10219000870080938600809152098061809381003E
:1021A0008CC061817281838194810E94640485C0A6
:1021B00010926F0082C09C012E563C4FDC01A05A49
:1021C000BF4F8D919D910D90BC91A02D4181528169
:1021D00063817481840F951FA61FB71FF901808347
:1021E0009183A283B38369C0FC01EB59FF4F04C004
:1021F000ED91FC91E659FF4F80819181A281B381DD
:10220000F70180839183A283B38304E010E057C079
:102210004181528163817481FC01E159FF4F21E0CA
:102220002083FC01E259FF4F20830E94B80645C07D
:10223000FC01E159FF4F1082FC01E259FF4F21E000
:1022400020833BC08D919C91FC01EE56FC4F108287
:10225000118212821382FC01E05AFF4F1082118218
:10226000128213822AC041815281638174818D91CF
:102270009C910E94840514C08D919C91DC01A15910
:10228000BF4F21812C93FC01E259FF4F21E02083B5
:10229000F70110820AC061818D919C910E94D7053F
:1022A000D7018C9302C0F701808301E010E007C0E2
:1022B000E12CF12C0FEF1FEF02C000E010E0B8019D
:1022C000C701A6960FB6F894DEBF0FBECDBFDF9153
:1022D000CF911F910F91FF90EF90DF90CF90BF9023
:1022E000AF909F908F907F906F900895F801E45287
:1022F000FD4FE780F08403811481083F110510F041
:1023000007EF10E0C6010E940604D9CF0F931F9378
:10231000CF93DF93FC01CB01C381D481228124368A
:1023200011F4209759F420E030E04FEF5FEFBA014D
:10233000C901DF91CF911F910F910895A781B085B9
:102340009D0105811681AE01BD010E94530CAB01B8
:102350009C01EDCFCF93DF93CDB7DEB762970FB679
:10236000F894DEBF0FBECDBFE091CE06F091CF0650
:102370008089882309F47EC064EF74E08FE996E0D9
:102380000E9486119B01009711F420E030E0E4E602
:10239000EA8B1A8219824FEF5FEF5B874A87EB83E4
:1023A0003F832E83998788873D832C83CE010196B6
:1023B0000E945F058CE79CE7ACE7B0E08C879D87C7
:1023C000AE87BF878091D0069091D106DC01ED9158
:1023D000FC910280F381E02D43E050E0BE01645F98
:1023E0007F4F1995BE016F5F7F4F8091D00690910E
:1023F000D1060E94A2078091D0069091D106DC01FF
:10240000ED91FC910280F381E02D41E050E0BE01AE
:102410006E5E7F4F19958B81843641F58C819D814D
:10242000998B888BBE01605F7F4F8091D006909121
:10243000D1060E94A2074C815D814115510569F0CA
:102440008091D0069091D106DC01ED91FC916885D8
:1024500079850280F381E02D1995BE01665F7F4F7B
:102460008091D0069091D1060E94A2078CEC96E054
:102470000E940104E0910108F091020880898823FC
:10248000C1F064EF74E082ED97E00E948611AB0129
:10249000BC01CA016115710511F480E090E0AC0146
:1024A00024E683E098E00E949D0B8FEF97E00E9466
:1024B000060462960FB6F894DEBF0FBECDBFDF9163
:1024C000CF9108950E941F2E0E940507C0E0D0E31F
:1024D0000E94AA112097E1F30E940030F9CFCF9219
:1024E000DF92EF92FF920F931F93CF93DF931F9290
:1024F000CDB7DEB77C016B0100E010E00C151D05C7
:1025000084F484EC99E00E94AE2E8983BE016F5F53
:102510007F4FF701828193810E9493170F5F1F4FB6
:10252000EDCF0F90DF91CF911F910F91FF90EF9022
:10253000DF90CF9008951092F90881E08093F7081A
:102540001092F60861E084E10E94352C61E085E19B
:102550000E94352CE9EBF0E080818E7F80838081C2
:102560008D7F808388E48093B80085E48093BC00ED
:102570000895880F8093BA000895413208F03FC053
:102580009091F9089111FCCF91E09093F908209374
:10259000F7082FEF20938C081092D108240F209376
:1025A000D0089093F8089091F808880F892B8093B1
:1025B000F8088091F608813041F41092F608809175
:1025C000F8088093BB0085EC01C085EE8093BC00C9
:1025D0008091F9088130E1F38091D108841710F4DB
:1025E0004091D10822ED38E0FB01D9018A2F821BEE
:1025F000841718F48D918193F9CF842F089580E08A
:1026000008950F93413208F046C09091F908911156
:10261000FCCF92E09093F9080093F7089FEF909316
:102620008C081092D1084093D008FB0162ED78E04D
:10263000DB019A2F961B941718F491919D93F9CF73
:102640001092F8089091F808880F892B8093F80869
:102650008091F608813041F41092F6088091F808D4
:102660008093BB0085EC01C085EE8093BC002223E3
:1026700021F08091F9088230E1F380918C088F3F3E
:1026800061F080918C08803251F080918C08803309
:1026900041F483E007C081E005C080E003C082E030
:1026A00001C084E00F910895613298F42091F908F7
:1026B000243089F46093AE08FC0180EB98E0DC01E3
:1026C0002A2F281B261718F421912D93F9CF80E08B
:1026D000089581E0089582E008959093F30880932F
:1026E000F20808959093F5088093F408089585ED15
:1026F0008093BC008091BC0084FDFCCF1092F9084F
:10270000089585EC8093BC001092F90808951F92FB
:102710000F920FB60F9211240BB60F922F933F9387
:102720004F935F936F937F938F939F93AF93BF93D9
:10273000EF93FF938091B900887F803609F49CC0A5
:1027400068F5883209F45BC090F4803109F454C014
:1027500038F4882309F4F5C0883009F44DC0F5C079
:10276000883109F44CC0803209F45DC0EEC0803479
:1027700009F468C048F4803309F455C0883309F07F
:10278000E4C080938C08A8C0803509F44FC0883518
:1027900009F45DC0883409F0D8C0D5C0883909F47F
:1027A000C6C0A8F4883709F467C038F4883609F43D
:1027B00063C0803709F460C0C8C0883809F4B7C066
:1027C000803909F45FC0803809F0BFC05BC0803B2E
:1027D00009F485C038F4803A09F466C0883A09F4EF
:1027E0007EC0B3C0803C09F4A6C0883C09F4A3C0F5
:1027F000883B09F489C0A9C08091F80810C0909165
:10280000D1088091D008981770F5E091D10881E047
:102810008E0F8093D108F0E0EE52F74F80818093C5
:10282000BB0085EC85C080938C088DC0E091D108F9
:1028300081E08E0F8093D1088091BB00F0E0EE52D2
:10284000F74F80839091D1088091D0086DC0E091BE
:10285000D10881E08E0F8093D1088091BB00F0E019
:10286000EE52F74F80838091F70881116CC081E0B0
:102870008093F60884EA60C083E08093F9081092A0
:102880008D08CFCF80918D08803208F050C0E09144
:102890008D0881E08E0F80938D088091BB00F0E061
:1028A000E257F74F8083BDCF80918D08803230F49E
:1028B000E0918D08F0E0E257F74F10820E94771305
:1028C00060918D0870E0E091F208F091F3088EE8D5
:1028D00098E0199510928D080E94811336C084E00B
:1028E0008093F9081092AF081092AE08E091F408B6
:1028F000F091F50819958091AE08811105C081E02D
:102900008093AE081092B008E091AF0881E08E0F7E
:102910008093AF08F0E0E055F74F80818093BB00D3
:102920009091AF088091AE08981708F47ACF85E8A7
:102930008093BC000AC085EC8093BC001092F9081B
:1029400004C010928C080E947713FF91EF91BF9101
:10295000AF919F918F917F916F915F914F913F9137
:102960002F910F900BBE0F900FBE0F901F901895D8
:1029700080912E0990E020912F09821B91090895E2
:1029800020912F0980912E09281750F4E22FF0E0B2
:10299000E05DF64F808190E02F5F20932F0908952E
:1029A0008FEF9FEF0895E0912F0980912E09E8178E
:1029B00030F4F0E0E05DF64F808190E008958FEF15
:1029C0009FEF08950895E0910609F0910709309767
:1029D000E1F030912F0920912E093217B0F040E03C
:1029E000242F30E02617370754F4DC01A20FB31F61
:1029F0005C91D901A05DB64F5C934F5FF1CF10920F
:102A00002F0960932E09CB0119940895E0910809CC
:102A1000F0910909309729F010920C0910920B09D6
:102A200019940895CF92DF92EF92FF920F931F9324
:102A3000CF93DF937C01CB018A0120910A092223E5
:102A400089F0EB016B01C40ED51ECC15DD0569F0D4
:102A50006991D701ED91FC910190F081E02DC701C2
:102A60001995F3CF642F0E945413C801DF91CF91C1
:102A70001F910F91FF90EF90DF90CF900895CF932B
:102A8000DF931F92CDB7DEB7698320910A09222315
:102A9000D1F020910B09203240F021E030E0FC0120
:102AA0003383228380E090E015C080910C09E82FE9
:102AB000F0E0E35FF64F998190838F5F80930C097C
:102AC00080930B0905C061E0CE0101960E9454136A
:102AD00081E090E00F90DF91CF910895FC01138287
:102AE000128248EE53E060E070E0448355836683D1
:102AF00077838BEA92E091838083089510922F0967
:102B000010922E0910920C0910920B090C949B1232
:102B1000CF93DF93EC01862F0E94B91286E095E1F6
:102B20000E94721383EE94E10E946D13CE01DF9137
:102B3000CF910C947E15862F413208F040E260E37D
:102B400079E00E94BD1210922F0980932E090895FA
:102B500021E00C949B1581E080930A0960932D0974
:102B600010920C0910920B0908950F93062F21E083
:102B700040910B096DE079E080912D090E940113CD
:102B800010920C0910920B0910920A090F910895E6
:102B900061E00C94B51570930709609306090895D8
:102BA0008AEF98E00C946E15CF92DF92EF92FF922D
:102BB000CF93DF93EC01262FC62ED12CE12CF12CE4
:102BC000FC01EA5BFF4F83819481892B81F0B7017F
:102BD000A601485051096109710940375105610545
:102BE000710528F4622F8AEF98E00E948815C98A3F
:102BF000DA8AEB8AFC8ADF91CF91FF90EF90DF9029
:102C0000CF9008954F925F926F927F92AF92BF9252
:102C1000CF92DF92EF92FF920F931F93CF93DF93A8
:102C2000CDB7DEB7A6970FB6F894DEBF0FBECDBF07
:102C30008C01C62ED12CFC01E65BFF4F40805180F9
:102C400062807380730142E050E0B601CE010196CC
:102C50000E94B73449815A814416550648F0B6019E
:102C60006E5F7F4FC3010E94B73469817A8104C0CF
:102C7000E12CF12C60E070E0C801825B9F4F6C0199
:102C8000E114F10421F4C8010E94A30915C0C70191
:102C90000E94862329833A834B835C836D837E83E2
:102CA0008F839887F60160817181A801CE0101961A
:102CB0000E943128882339F3F801E45BFF4FE0805C
:102CC000F180F601A080B18060E070E080E090E0EB
:102CD0000E9486232F8F38A349A35AA36BA37CA3FA
:102CE0008DA39EA3AE014F5F5F4FB501CE014F96FE
:102CF0000E94B5298EE1FE013196D70101900D9217
:102D00008A95E1F7F60160817181F80114AA9701B3
:102D1000A801C8014E960E94D809A6960FB6F8944D
:102D2000DEBF0FBECDBFDF91CF911F910F91FF90FE
:102D3000EF90DF90CF90BF90AF907F906F905F90BB
:102D40004F900895CF92DF92EF92FF920F931F93CF
:102D5000CF93DF93CDB7DEB7A2970FB6F894DEBF5F
:102D60000FBECDBF8C01DC01ED91FC910190F08193
:102D7000E02D1995F801E05BFF4F6083718382833A
:102D80009383F801EC5BFF4F11830083F801E75B4D
:102D9000FF4F11830083F801E25BFF4F1183008333
:102DA0007801B6E0EB0EF11CC7010E94A30960E0B8
:102DB000C7010E940216D801ED91FC910190F081AB
:102DC000E02DC8011995F801ED55FF4F608371831F
:102DD00082839383F801EE56FF4F11830083F8013D
:102DE000E956FF4F11830083F801E456FF4F11832A
:102DF0000083F801EF55FF4F118300837801B6E59A
:102E0000EB0EF11CF801E955FF4FC080D18060E066
:102E100070E080E090E00E9486232B8F3C8F4D8FE6
:102E20005E8F6F8F78A389A39AA3AE014F5F5F4F28
:102E3000B601CE014B960E94B5298AE1FE0131967A
:102E4000D70101900D928A95E1F7F801E15AFF4F01
:102E500081E08083F801EB59FF4F44E150E060E0EE
:102E600070E04083518362837383F801EC59FF4F14
:102E70008083F801E759FF4F8083F801E259FF4F43
:102E8000808340E052EC61E070E084EC99E00E94C5
:102E90001D318CE08093B800A2960FB6F894DEBF87
:102EA0000FBECDBFDF91CF911F910F91FF90EF909B
:102EB000DF90CF9008958627682F62956827062EA9
:102EC000669566956025062E669560256770082EC6
:102ED000892F669507946795902D862706946795A8
:102EE0009025862708950895FC01A489B589129636
:102EF0001C92129714961C921E9213978FEF9FEFBD
:102F00001A969C938E931997138A128A108A118AA3
:102F10001786168611A210A28CE090E0938382831C
:102F2000178E168E0895AF92BF92CF92DF92EF92D6
:102F3000FF920F931F93CF93DF931F92CDB7DEB70E
:102F40008C016115710581F4CE010196D8011596A9
:102F50009C938E93149717969C938E93169719961D
:102F60009C938E93189707C0FC01758364836F5FF1
:102F70007F4F77836683D80114962D913C911597E6
:102F800016968D919C9117972817390709F057C00D
:102F90006DC2608180E090E00E945B17F801938B26
:102FA000828B0488F589E02D0780F085E02DD8011B
:102FB0001E968D919C911F979C012F5F3F4F1F96EE
:102FC0003C932E931E9714962D913C911597D90101
:102FD0002C91E80FF91F2083F80126853785848519
:102FE00095852817390709F00DC2068CF78DE02D5D
:102FF000CF010197D8015F969C938E935E973A9686
:10300000EE0FFF1FE00FF11F8081918113969C93BB
:103010008E931297D8011296ED91FC911397EF3091
:10302000F10508F450C2F8018481958101969583D9
:103030008483268137818217930709F417C2D80148
:103040001296ED91FC9113973197EE30F10508F04F
:10305000E7C1EE58FF4F0C944134D8015496ED91DE
:10306000FC915597F184E12CF286E18614968D91BE
:103070009C911597DC018C919701280F311DC90196
:1030800032872187D80152962D913C915397821710
:10309000930749F481E050968C9350971E968D913A
:1030A0009C911F9719C081E0F801818B17C0D8014E
:1030B0001C968D919C911D975496ED91FC9155977E
:1030C000258136812817390718F421E051962C9371
:1030D00021E0D80150962C9394838383F801848156
:1030E0009581019695838483268137818217930782
:1030F00009F496C1D8011496ED91FC911597808141
:103100008C3721F0F80113821282F0C1D801149695
:103110008D919C911597019615969C938E9314977B
:1031200016962D913C9117978217930709F47BC14E
:10313000D8011496ED91FC91159780818C3711F789
:10314000F801848195810196958384832681378156
:103150008217930709F46AC1D8011496ED91FC9186
:10316000159780818C3771F650961C92F8018481F6
:1031700095810196958384832681378182179307F1
:1031800009F45CC1D8015496ED91FC9155971182D8
:10319000108214968D919C911597DC018C9190E092
:1031A00091838083F801848195810196958384833E
:1031B000268137818217930709F443C1D8015496B9
:1031C000ED91FC91559714968D919C911597DC018A
:1031D0008C91B080A12C9501282BC901918380830B
:1031E000D80114968D919C911597019615969C93F4
:1031F0008E93149716962D913C91179782179307EB
:1032000009F422C1D8011496ED91FC9115978081A3
:10321000843681F08E3609F49DC0813609F072CF74
:10322000D8015496ED91FC915597828381E0509698
:103230008C9354CFD8015496ED91FC91559782838D
:10324000F801848195810196958384832681378155
:103250008217930709F4FBC0D80191961C921E9225
:1032600090971D961C921E921C971496ED91FC91BE
:103270001597808190E01D969C938E931C97F80182
:103280008481958101969583848326813781821775
:10329000930709F4DFC0D8011C96DC901C97C12C61
:1032A0001D96DC92CE921C971496ED91FC91159789
:1032B0008081F601E80FF11DCF011D96FC93EE937E
:1032C0001C975496ED91FC915597258136812817CE
:1032D000390718F481E051968C93D8015E96ED91F0
:1032E000FC915F97CF0101965F969C938E935E97BA
:1032F0003B96EE0FFF1FE00FF11F88E090E09183F7
:1033000080834FC0D80152968D919C9153970E9413
:103310007317F801938B828B0488F589E02D128650
:103320001186D80114968D919C911597DC018C9192
:1033300090E092878187F801848195810196958339
:103340008483268137818217930709F086CE89E02E
:1033500090E089C0D8015496ED91FC9155978283F5
:10336000F801848195810196958384832681378134
:103370008217930709F471C0D80114968D919C911E
:103380001597019615969C938E93149716962D91EA
:103390003C9117978217930709F089CE8BE090E054
:1033A00062C0F8018481958101969583848326818A
:1033B00037818217930709F453C0D8011F961C92D6
:1033C0001E921E9753961C921E9252971C968D9198
:1033D0009C911D971496ED91FC911597892B09F0FE
:1033E000D8CD31971596FC93EE93149765C0D8010C
:1033F0001496ED91FC911597608152968D919C9158
:103400005397CACDF8018481958101969583848371
:10341000268137818217930751F78EE090E023C011
:103420008CE090E005C081E090E01DC082E090E07B
:10343000D80113969C938E93129718C083E090E066
:1034400012C084E090E0F4CF85E090E00CC086E00C
:1034500090E0EECF87E090E006C08AE090E0E8CF11
:103460008DE090E0E5CFF80193838283D801149634
:103470008D919C91159718962D913C9119978217D3
:103480009307A1F512962D913C9113972D3031059C
:1034900069F51F961C921E921E9753961C921E92BF
:1034A00052971C962D913C911D97232BF9F401976F
:1034B00015969C938E9314975E96ED91FC915F9771
:1034C000CF01019798CDE058FF4F0C944134F8019B
:1034D0008481958101969583848326813781821723
:1034E000930709F00FCF88E090E0A2CF0F90DF9113
:1034F000CF911F910F91FF90EF90DF90CF90BF90F1
:10350000AF900895FC01A281B3819D01240F351F66
:1035100033832283FB01460F571FE417F50719F089
:1035200081918D93FACF81E00895FC0182E89AE1C0
:1035300091838083738362835583448317821682C9
:1035400011861086CF0108950F931F93CF93DF93B9
:10355000EC018A01E881F981309709F12E813F81E0
:10356000240F351F8C819D818217930750F4888525
:103570009985009711F48EE493E09987888780E01D
:1035800015C0CE01199581110AC0288539852115EC
:10359000310511F42AE533E03987288707C08E8189
:1035A0009F81800F911F9F838E8381E0DF91CF9158
:1035B0001F910F9108955F926F927F928F929F92C9
:1035C000AF92BF92CF92DF92EF92FF920F931F9331
:1035D000CF93DF93CDB7DEB762970FB6F894DEBF17
:1035E0000FBECDBF6C01802F0B87912F1C87522EF1
:1035F0002D87632E3E87742E4F87852E588B962EEF
:10360000698BB72F7A8B8C019801452D562D672D2C
:10361000782D892D9B2FA0E00E94873421F0FE0198
:1036200031967F0106C041E050E0BE01655F7F4FEB
:1036300034C05F01AE18BF089801452D562D672D87
:10364000782D892D9B2FA0E00E948734A9F0802F30
:10365000806881939801452D562D672D782D892DF1
:103660009B2F07E00E9462348901542E652E762E2E
:10367000872E982EB92FDDCF1B861C861D861E86B1
:103680001F86188A198A1A8AF5013197EE0DFF1DD7
:1036900080818F778083A501B701C6010E94A41A9B
:1036A00062960FB6F894DEBF0FBECDBFDF91CF910B
:1036B0001F910F91FF90EF90DF90CF90BF90AF9050
:1036C0009F908F907F906F905F9008958F929F92C0
:1036D000AF92BF92CF92DF92EF92FF920F931F9320
:1036E000FA01DB0114962C91223099F028F4213054
:1036F000E9F48080912C0FC0243081F02830B1F49F
:1037000080809180A280B380C480D580E680F780DD
:103710001CC080809180A12CB12C04C0808091803D
:10372000A280B380C12CD12C76010FC0FC01208572
:1037300031852115310511F423E633E0DC011996BA
:103740003C932E93189780E006C084019501A60152
:10375000B7010E94DB1A1F910F91FF90EF90DF904D
:10376000CF90BF90AF909F908F9008950F931F932D
:10377000CF93FA01DB0114962C912230D9F068F432
:10378000213091F50081102F110F110B212F312FB6
:10379000C12FB12FA12F712F36C02430B1F02830A6
:1037A00019F50081118122813381C481B581A681FF
:1037B000778129C011810081212F220F220B322F06
:1037C000C22FB22FA22F722F1EC040815181628161
:1037D00073818A019B01770F440B542FBA01C42FC8
:1037E000B42FA42F742F0FC0FC0120853185211523
:1037F000310511F423E633E0DC0119963C932E9356
:10380000189780E005C04C2F5B2F6A2F0E94DB1AAF
:10381000CF911F910F910895DF92EF92FF920F9336
:103820001F93CF93DF93FC01D22EE32EF42ED52FDE
:10383000C62FB72F98014D2D5E2D6F2D7D2F8C2F0C
:103840009B2FA0E00E94873464F401E00E9447347B
:103850002095309540955095609570958095909500
:103860000AC098014D2D5E2D6F2D7D2F8C2F9B2F23
:1038700001E00E94473489019A01AB01BC01CF01EC
:103880000E94DB1ADF91CF911F910F91FF90EF9073
:10389000DF9008950F931F93CF93FA01DB011496E5
:1038A0002C912230D9F068F4213091F50081102F4D
:1038B000110F110B212F312FC12FB12FA12F712FDC
:1038C00036C02430B1F0283019F5008111812281F1
:1038D0003381C481B581A681778129C0118100819E
:1038E000212F220F220B322FC22FB22FA22F722F85
:1038F0001EC040815181628173818A019B01770FD3
:10390000440B542FBA01C42FB42FA42F742F0FC00F
:10391000FC01208531852115310511F423E633E0C2
:10392000DC0119963C932E93189780E005C04C2F2C
:103930005B2F6A2F0E940C1CCF911F910F9108954D
:1039400044E050E00C94A41ABA010C94A01C48E086
:1039500050E00C94A41ABA010C94A71C8F929F9269
:10396000AF92BF92CF92DF92EF92FF920F931F938D
:10397000FC01A62F49015A01A50160E070E080E03A
:1039800090E003E00E944734022F242F0A2B132FCC
:10399000352FAB01BC01CF010E94DB1A1F910F91A3
:1039A000FF90EF90DF90CF90BF90AF909F908F905F
:1039B0000895FB0121812F702330A1F088F024307D
:1039C00021F0283020F462E00EC061E00CC0FC0160
:1039D000208531852115310561F425E733E009C0E3
:1039E00060E001C065E0208130E040E050E00C94F0
:1039F000AE1CFC013187208780E008952F923F9212
:103A00004F925F926F927F928F929F92AF92BF92EE
:103A1000CF92DF92EF92FF920F931F93CF93DF939A
:103A2000CDB7DEB72B970FB6F894DEBF0FBECDBF74
:103A30007C016B015A01DB0111963C91232F207C04
:103A4000203409F41CC1203811F0211132C181E069
:103A50008B87832F8F7090E0FC01EE0FFF1FE95FD3
:103A6000FB4F40805180F6014381442331F0F50142
:103A7000E40FF11D47FDFA9502C0FE013B96203888
:103A800049F4D501AD90BC9041E0A114B10409F412
:103A900040E04B8730733031B9F018F4332339F0FC
:103AA000E1C03032B1F0303309F4CBC0DBC0A11437
:103AB000B10409F0CBC0F70180859185009709F02A
:103AC000FFC088E893E0FCC08081882309F4DEC051
:103AD000BDC08080912C8114910409F4D7C0203896
:103AE00081F0D60115962C9130E02815390548F45F
:103AF000F70180859185009709F0E2C08FE993E096
:103B0000DFC005970CF072C0F601208130E040E084
:103B100050E062E0C7010E94AE1C882309F4D5C0C2
:103B2000D60111968C918F70833031F43401660C7C
:103B3000771C660C771C29C0843039F43401A3E06B
:103B4000660C771CAA95E1F720C0FE0131961F0193
:103B50008AE0DF011D928A95E9F78501612C712CBD
:103B6000A801B601C101F2011995882309F4ADC07D
:103B7000D60114968C91080F111DBFEF6B1A7B0AAA
:103B80006814790468F36F807884830120E030E062
:103B900040E050E060E070E0C7010E94DB1A88233B
:103BA00009F493C0F70180819181892B51F4A3011D
:103BB00060E070E0C7010E94A41A882309F485C060
:103BC00065C000E010E0A501B601C701F20119953A
:103BD000882309F47AC0D60114968C91A80EB11CE2
:103BE0000F5F1F4F0815190570F350C000E010E07B
:103BF000B601C7010E94D91C882309F466C0F601EA
:103C00008181982F907C9038D1F48F7090E0059747
:103C10000297A8F4D5014D915C91B601C701F2015C
:103C20001995882309F451C0D60114968C91A80ED9
:103C3000B11C0F5F1F4F08151905D0F227C0A50151
:103C4000ECCF9081D6018C91981320C0B601C701AA
:103C50000E94D91C8823C9F1A501B601C701F20150
:103C6000199534C0D70118968D919C91199700979A
:103C700011F485E793E0F7019187808726C04E5FB6
:103C80005F4FD501ED91FC91309711F481E01EC09A
:103C900019958111FBCFF70120853185211531055B
:103CA00011F427EB33E0D70119963C932E93189724
:103CB0000DC0FC0180859185009711F485E793E0A4
:103CC000D70119969C938E93189780E02B960FB688
:103CD000F894DEBF0FBECDBFDF91CF911F910F9142
:103CE000FF90EF90DF90CF90BF90AF909F908F901C
:103CF0007F906F905F904F903F902F900895EF923C
:103D0000FF920F931F93CF93DF93CDB7DEB72C971E
:103D10000FB6F894DEBF0FBECDBF7C01CE01019679
:103D20000E941520811102C081E041C06B817C811D
:103D3000FB0181818F7049855A85883071F5FA01C0
:103D4000008111810115110569F1F801A081B1818E
:103D50001296ED91FC911397309721F0B801C701AD
:103D6000199513C014966D917C911597FB01818173
:103D7000807C803821F4A8014E5F5F4F03C0F801BA
:103D800042815381C7010E94FE1C811102C080E064
:103D90000EC0F80104811581D5CFC7010E94FE1C19
:103DA0008823A9F3CE0101960E943520BBCF2C9623
:103DB0000FB6F894DEBF0FBECDBFDF91CF911F913C
:103DC0000F91FF90EF900895CF92DF92EF92FF92C4
:103DD0000F931F93CF93DF93EC016B017A018A015C
:103DE00020E030E040E050E060E070E00E94DB1A4C
:103DF000882369F0A701B601CE01DF91CF911F9111
:103E00000F91FF90EF90DF90CF900C94A41A80E078
:103E1000DF91CF911F910F91FF90EF90DF90CF90A6
:103E20000895FB01BA0144812181207C203811F0E2
:103E300050E002C04FEF5FEF6115710561F0FB01CB
:103E400020E030E02417350741F0A191AA2329F0A2
:103E50002F5F3F4FF7CF20E030E0A9010C94E41E24
:103E6000FA01309729F440E050E060E070E01FC0B4
:103E7000DB0111962C911197207C4081211113C0F8
:103E8000242F30E02F5F3F4F14966C9170E0621743
:103E9000730748F4FC01208531852115310549F46B
:103EA00026EC33E006C050E0BF016F5F7F4F0C94FB
:103EB000E41EDC0119963C932E93189780E0089538
:103EC0006F927F928F929F92AF92BF92CF92DF922A
:103ED000EF92FF920F931F93CF93DF93CDB7DEB78F
:103EE0002A970FB6F894DEBF0FBECDBF7C014B0101
:103EF0003A01CE0101965C018AE0F50111928A95A2
:103F0000E9F7C5010E947F1E811104C029853A8509
:103F1000F70154C0CF80D884860120E030E040E033
:103F200050E060E070E0C7010E94DB1A882309F4CA
:103F300051C0F701208131812115310539F4A601E5
:103F400060E070E0C7010E94A41A44C0F7018681B6
:103F500097818C0D9D1D448155814817590750F458
:103F600080859185009711F48EE493E0F7019187A5
:103F700080872FC03A832983F701828193819C83B4
:103F80008B83DE82CD8218861F821A861986A30152
:103F9000B401C5010E947F1E4F815885F70126811B
:103FA0003781240F351F378326832B813C81338350
:103FB000228329853A854C155D0519F431872087C0
:103FC00009C02115310511F42AED33E0F7013187DD
:103FD000208780E02A960FB6F894DEBF0FBECDBFD3
:103FE000DF91CF911F910F91FF90EF90DF90CF90D5
:103FF000BF90AF909F908F907F906F900895FB013E
:10400000668177816115710549F4FC012085318550
:104010002115310529F42EEE33E002C00C94601F07
:10402000FC013187208780E00895FC01DB0171836A
:10403000608373836283158214825783468312964A
:104040008C911297480F511D5187408713968C9180
:104050001397480F511D87FD5A955387428781E07A
:104060009C91911101C080E00895FC01A281B3816F
:104070008C91882309F460C0CD01089693838283D4
:1040800018968C911897811108C0468157816081DC
:104090007181CF010E9415204FC014963C91149756
:1040A000832F90E011965C911197452F4073403318
:1040B00091F419962C9119972073203361F412967C
:1040C0002C91129780859185821B91099187808719
:1040D00080E090E010C0252F207C49F4403259F454
:1040E00015968C911597839FC001112404C0203828
:1040F00011F482E090E011962C911197207331F425
:10410000248135812F5F3F4F358324831A962C916C
:104110001A97AC01420F511D80859185840F951F20
:10412000918780871B962C91820F911D27FD9A9570
:104130009387828781E0089580E00895EF92FF924F
:104140000F931F93CF93DF9300D01F92CDB7DEB7AD
:104150007C01DC0112960D911C911397D7011296E8
:10416000ED91FC911397808190E0A0E0B0E084177E
:104170009507A607B70721F481818F70883099F4DD
:10418000C70149835A836B837C830E943520F701E2
:104190008281938149815A816B817C81801791074B
:1041A000E9F680E001C081E00F900F900F900F9032
:1041B000DF91CF911F910F91FF90EF900895DC0157
:1041C0001296ED91FC9113974E0F5F1F13965C931F
:1041D0004E9312976115710539F0DB01E417F5076D
:1041E00019F081918D93FACF81E00895CF93DF93F9
:1041F000EC018C819D81892B51F48E819F810097E8
:1042000011F489E194E09F838E8380E018C0E881F7
:10421000F98141E050E0CE01199581110AC02E814B
:104220003F812115310511F42AE533E03F832E83C8
:1042300006C02C813D81215031093D832C83DF91C3
:10424000CF9108957F928F929F92AF92BF92CF921B
:10425000DF92EF92FF920F931F93CF93DF931F9202
:10426000CDB7DEB78C014B01BE016F5F7F4F0E945F
:10427000F620782E8823E9F1898187FD05C0C82EB4
:10428000D12CE12CF12C37C08F77C82ED12CE12C0A
:10429000F12C87E0A82EB12CBE016F5F7F4FC801C3
:1042A0000E94F620882329F18981482F4F7750E01A
:1042B00060E070E00A2C04C0440F551F661F771F92
:1042C0000A94D2F7C42AD52AE62AF72A87FF13C010
:1042D00087E0A80EB11CE3E2AE16B104E9F6F801DE
:1042E00086819781009711F487E294E0F801978323
:1042F0008683712C05C0F401C082D182E282F382F0
:10430000872D0F90DF91CF911F910F91FF90EF902C
:10431000DF90CF90BF90AF909F908F907F90089547
:10432000EF92FF920F931F93CF93DF93CDB7DEB73A
:104330002C970FB6F894DEBF0FBECDBFFC01628193
:104340007381DB0111968C91982F9F709830A9F59D
:104350000084F185E02D008111810115110509F41A
:1043600068C0F80116820190F081E02DE480F580AC
:10437000D80112964D915C911397B701CE01019629
:104380000E941520F801828193819A878987C8014C
:1043900006969C878B87D70111968C91807C8038FC
:1043A00021F4C80102969A878987CE0101960E945E
:1043B0009021F80104811581D0CF982F907C61F471
:1043C000982F9073903129F482859385DC011C929B
:1043D00010C085FF0EC008C0903859F5A085B18582
:1043E0001D921C9285FF25C00284F385E02D10826A
:1043F00020C0DB0111964C9111974F7080859185FB
:1044000016962D913C911797473029F4BC01C901AC
:104410000E9426220EC0FB01448150E02115310587
:1044200021F0B9010E94A73404C060E070E00E944E
:10443000B0342C960FB6F894DEBF0FBECDBFDF911F
:10444000CF911F910F91FF90EF900895CF93DF933D
:10445000CDB7DEB72C970FB6F894DEBF0FBECDBF39
:10446000AB01BC01CE0101960E941520882349F0C2
:10447000CE0101960E949021CE0101960E94352026
:10448000F5CF2C960FB6F894DEBF0FBECDBFDF91EF
:10449000CF910895EF92FF920F931F93CF93DF93E5
:1044A000CDB7DEB760970FB6F894DEBF0FBECDBFB5
:1044B0008C017A016115710501F5DC018D919C91EA
:1044C0008F5D9042D1F0F1E1EF16F10470F040E120
:1044D00050E0BE016F5F7F4FC8010E944A228823CF
:1044E000E9F1E0E1EE1AF108EECFA701BE016F5F3E
:1044F0007F4FC8010E944A2231C0D80114968D9185
:104500009C9115978E159F0568F416968D919C9138
:104510001797009711F489E194E0F8019783868357
:1045200080E01CC0D801ED91FC91A701C80119954C
:10453000F80181110DC0268137812115310511F453
:104540002AE533E0D80117963C932E93169706C0C0
:10455000248135812E193F093583248360960FB657
:10456000F894DEBF0FBECDBFDF91CF911F910F91A9
:10457000FF90EF900895CF92DF92EF92FF920F930A
:104580001F93CF93DF9300D01F92CDB7DEB78C017E
:104590006B017A01BE016F5F7F4F0E942221882349
:1045A00009F43FC049815A816B817C819A012F5F58
:1045B0003F4FC901A0E0B0E084179507A607B707F1
:1045C00040F4F801868197810097E9F487E394E04D
:1045D0001AC0F6018181807C803841F4F80186811F
:1045E0009781009781F486E494E00DC0F601848100
:1045F00090E08217930760F4F80186819781009715
:1046000011F488E594E0F8019783868380E009C07F
:10461000B701C8010E944A22E981FA81EE0DFF1D0F
:1046200010820F900F900F900F90DF91CF911F91FC
:104630000F91FF90EF90DF90CF900895CF92DF928F
:10464000EF92FF920F931F93CF93DF9300D01F92AF
:10465000CDB7DEB78C017B01D42EC52EBE016F5FB6
:104660007F4F0E942221882309F443C049815A8147
:104670006B817C814F3F51056105710509F030F573
:104680009A012F5F3F4FC901A0E0B0E08417950762
:10469000A607B70740F4F801868197810097E9F4EF
:1046A00087E394E01AC0F7018181807C803841F46F
:1046B000F80186819781009781F486E494E00DC02B
:1046C000F701848190E08217930760F4F8018681F6
:1046D0009781009711F488E694E0F8019783868328
:1046E00080E007C0ED2DFC2D4193BF01C8010E9461
:1046F0004A220F900F900F900F90DF91CF911F9152
:104700000F91FF90EF90DF90CF900895CF93DF93BC
:10471000CDB7DEB728970FB6F894DEBF0FBECDBF7A
:104720002FED30E23A8329838B839C836D837E83D4
:1047300018861F823A81AC0180E0988528960FB6D2
:10474000F894DEBF0FBECDBFDF91CF9108953F92A9
:104750004F925F926F927F928F929F92AF92BF9291
:10476000CF92DF92EF92FF920F931F93CF93DF933D
:104770001F92CDB7DEB75C017B01C12CD12C312C4F
:10478000412C512C612C712C812C912C10E0BE01FC
:104790006F5F7F4FC5010E94F620E82F882309F440
:1047A00042C0F9812F2F2F7730E040E050E060E0E9
:1047B00070E080E090E00C2D0E944734322A432ABA
:1047C000542A652A762A872A982A192BF7FF15C0BA
:1047D00087E0C80ED11CA6E4CA16D104C1F6F501C3
:1047E00086819781009711F487E294E0D5011796AE
:1047F0009C938E931697E0E016C0D7013C921196D9
:104800004C92119712965C92129713966C92139792
:1048100014967C92149715968C92159716969C92E6
:10482000169717961C938E2F0F90DF91CF911F91A3
:104830000F91FF90EF90DF90CF90BF90AF909F903F
:104840008F907F906F905F904F903F9008958F92E0
:104850009F92AF92BF92CF92DF92EF92FF920F930F
:104860001F93CF93DF93CDB7DEB728970FB6F89499
:10487000DEBF0FBECDBF4C017B018A01BE016F5F61
:104880007F4F0E94A723F82F882309F46DC0D7011A
:1048900014968C91823061F140F4813009F044C06B
:1048A0002981D8012C9330E029C0843051F188301F
:1048B000D9F529813A814B815C816D817E818F811F
:1048C0009885D8012C9311963C93119712964C938E
:1048D000129713965C93139714966C9314971596EE
:1048E0007C93159716968C93169717969C9324C0D5
:1048F00029813A81D8012C9311963C9340E050E0F5
:104900000EC029813A814B815C81D8012C9311968C
:104910003C93119712964C93129713965C9360E018
:1049200070E080E090E008C0F401868197810097F4
:10493000A9F483E693E012C0A980BA80CB80DC8022
:10494000ED80FE800F8118850E947E3469F0F401AD
:1049500086819781009711F487E794E0D401179638
:104960009C938E931697F0E08F2F28960FB6F894AD
:10497000DEBF0FBECDBFDF91CF911F910F91FF9092
:10498000EF90DF90CF90BF90AF909F908F90089561
:104990004F925F926F927F928F929F92AF92BF924F
:1049A000CF92DF92EF92FF920F931F93CF93DF93FB
:1049B000CDB7DEB728970FB6F894DEBF0FBECDBFD8
:1049C0004C018B017A01BE016F5F7F4F0E94A723CC
:1049D000E82F882309F474C0D80114964C9189817A
:1049E0009A815B81DC804830D9F4D7018C93119691
:1049F0009C93119712965C9312971396DC921397DF
:104A00008D8114968C9314978E8115968C9315979F
:104A10008F8116968C931697888517968C9350C025
:104A20008C01252F3D2D5801C52E28013901770C09
:104A30004408542C3201423089F04430F1F04130C6
:104A400019F5D7018C93282F382F330F330B432FB1
:104A5000532F632F732F832F932F1EC0D7018C9357
:104A600011969C93282F392F492F440F440B542F14
:104A7000642F742F842F942F0FC0D7010D931D9393
:104A80002D933C9313971CC0F40186819781009766
:104A900089F483E693E00EC0E42CF42C042D142D4D
:104AA0000E947E3469F0F40186819781009711F4A9
:104AB00087E794E0D40117969C938E931697E0E0D5
:104AC0008E2F28960FB6F894DEBF0FBECDBFDF91B4
:104AD000CF911F910F91FF90EF90DF90CF90BF90FB
:104AE000AF909F908F907F906F905F904F900895C0
:104AF000AF92BF92CF92DF92EF92FF920F931F93EC
:104B0000CF93DF9300D01F92CDB7DEB78C017B012E
:104B10006A015901F9011082FB011082FA01108229
:104B2000118212821382BE016F5F7F4F0E94222189
:104B300081110AC0F80124813581232BF9F481E029
:104B4000F501808380E01AC009811A812B813C81A4
:104B5000011511052105310591F3B901A801E3E023
:104B60007695679557954795EA95D1F7F601408375
:104B70005183628373830770F70100830F900F9056
:104B80000F900F90DF91CF911F910F91FF90EF90B9
:104B9000DF90CF90BF90AF9008950F931F93CF9366
:104BA000DF9300D01F92CDB7DEB78C016130B1F03A
:104BB00050F06230B1F0653019F544E050E01AC0B1
:104BC000998197FF28C041E050E0BE016F5F7F4FA1
:104BD000C8010E944A228111F3CF1DC048E050E075
:104BE00009C0BE016F5F7F4F0E942221882399F088
:104BF00049815A8160E070E0C8010E944A220BC0DE
:104C0000FC0186819781009711F489E894E0F8010E
:104C10009783868380E00F900F900F900F90DF9125
:104C2000CF911F910F9108958F929F92AF92BF9253
:104C3000EF92FF920F931F93CF93DF9300D01F92B9
:104C4000CDB7DEB78C017B01BE016F5F7F4F0E9445
:104C50002221882359F198E0F801D70101900D92A3
:104C60009A95E1F749815A816B817C81F7018480B3
:104C70009580A12CB12C84169506A606B70660F483
:104C8000F80186819781009711F48BE994E0F8018F
:104C90009783868380E00AC0F70155834483F80137
:104CA00024813581241B350B358324830F900F908D
:104CB0000F900F90DF91CF911F910F91FF90EF9088
:104CC000BF90AF909F908F9008954F925F926F9298
:104CD0007F928F929F92AF92BF92CF92DF92EF928C
:104CE000FF920F931F93CF93DF93CDB7DEB76297F9
:104CF0000FB6F894DEBF0FBECDBF8C017A01FA016A
:104D0000A281B38111962C911197822F807C8034DF
:104D100009F4DBC0803809F4CDC081117EC1322F87
:104D20003F70832F90E0FC01EE0FFF1FEE52FB4F10
:104D3000C080D1802073203151F018F4222369F013
:104D4000AEC0203289F0203309F482C0A8C0F70138
:104D50002285338581E0F9018083F7014085518503
:104D6000BD01C801F60157C1F701A284B3846230C6
:104D700009F04EC005970CF04BC0BE016F5F7F4F2E
:104D8000C8010E941426882309F454C18D819E8194
:104D9000892B11F1F5018081D70112966D917C91DB
:104DA0001397FB0195818917B8F4DB0114969C9148
:104DB000F70140855185989F400D511D1124CE016A
:104DC0000196F6011995882329F0D5018C918F5F02
:104DD0008C93DCCF80E001C081E02B813C81D80145
:104DE00013963C932E9312972F81388517963C93F8
:104DF0002E9316974D815E81452B09F41BC1211519
:104E0000310511F423EB34E0F8013783268311C117
:104E1000F7014085518514969C911497F501808186
:104E200015962C91821758F0D80116968D919C9169
:104E30001797009709F0D2C083EB94E0CFC021E030
:104E4000280F2083989F400D511D1124F70124C085
:104E5000F701428553858C91DA018C933730C9F480
:104E60000280F381E02D448150E060E070E0F701C2
:104E7000808591850E94B034D70118966D917C9100
:104E800019971296ED91FC911397868197810E9454
:104E90002622F701408551856281738162CFD80156
:104EA00016968D919C911797009709F097C085E70A
:104EB00093E094C0D80116968D919C911797009716
:104EC00009F08CC086E494E089C04084518452018A
:104ED000B2E0AB0EB11CF20180819181892B21F4EB
:104EE000C8010E94CD25A6C0623099F5BE016F5F52
:104EF0007F4FC8010E941426882309F49BC0D70164
:104F000012966D917C911397D201ED91FC91A501C0
:104F1000CE010196199581110EC0F80126813781C5
:104F20002115310511F422EC34E0D80117963C9399
:104F30002E9316977FC02D813E81232B01F72B8165
:104F40003C81F801338322832F8138853783268380
:104F500071C0613071F170F06530B9F544E050E036
:104F6000BE016F5F7F4FC8010E944A22F4E0CF2E3E
:104F7000D12C38C0CE0101963C01C12CD12C43016B
:104F80009FEFC91AD90AABE0CA16D10409F451C07F
:104F900041E050E0B301C8010E944A22882309F48D
:104FA00048C0BFEF6B1A7B0AF401808187FDE7CF11
:104FB0001BC048E050E0BE016F5F7F4FC8010E94F8
:104FC0004A22A8E0CA2ED12C0DC0D80116968D9188
:104FD0009C911797009711F489E894E0F801978362
:104FE000868327C0882331F18FED90E29C878B87E1
:104FF000CE0101969E878D87D88ACF861A8A198A14
:10500000D70112966D917C911397D201ED91FC918D
:10501000A501CE010B9619950DC0F80186819781E7
:10502000009711F485E793E0D80117969C938E932F
:10503000169780E062960FB6F894DEBF0FBECDBF24
:10504000DF91CF911F910F91FF90EF90DF90CF9064
:10505000BF90AF909F908F907F906F905F904F9098
:1050600008952F923F924F925F926F927F928F920C
:105070009F92AF92BF92CF92DF92EF92FF920F93E7
:105080001F93CF93DF93CDB7DEB7AB970FB6F894EE
:10509000DEBF0FBECDBF7C015E0129E1A20EB11CB7
:1050A00088E0D5011D928A95E9F7CE010D960E9400
:1050B0001520412C512C320122242394312CD7016C
:1050C00014968D919C911597892B09F4E4C09E014B
:1050D0002B5D3F4FAE014F5D5F4FBE016A5D7F4F5D
:1050E000C7010E947825811104C08DA18111D3C010
:1050F000D0C049A15AA16BA17CA1CE010D960E94FE
:105100009E2081119FC089A19AA1ABA1BCA1841549
:105110009505A605B70508F490C0CF84D888EF851B
:10512000F88981818F70883009F401C1CE010D9614
:105130000E9435208F8598898C159D0581F7442420
:105140004A94542C320129A13AA14BA15CA12FA36E
:1051500038A749A75AA7241535054605570508F469
:105160006CC0D70114968D909C901597BEA1BBA7DB
:10517000ED89FE89C080D180F70184819581C114B9
:10518000D10409F456C08816990609F052C0F601F8
:10519000A081B181ED91FC911197309749F00BA559
:1051A0002FA138A549A55AA5B601C701199539C03F
:1051B00014960D911C911597D8018C9190E0A0E068
:1051C000B0E02FA138A549A55AA582179307A407D7
:1051D000B50749F5D60112964D915C911397B80128
:1051E000CE0101960E941520F601828193819A8753
:1051F0008987C60106969C878B87D80111968C916A
:10520000807C803821F4C60102969A87898721E044
:10521000F6012683AE014F5F5F4F6BA5C7010E9469
:1052200065268823B1F1D6011496CD90DC901597B0
:10523000A3CF8816990609F042CF6EA1C7010E943C
:10524000CD2525C0EF85F88981818073C9F48989CE
:105250009A8980349105A0F4FC0163E0F695E79506
:105260006A95E1F7EA0DFB1D87709927910102C04D
:10527000220F331F8A95E2F7C9019081982B908302
:10528000AE01435F5F4F6EA1C7010E946526811189
:1052900016CF80E051C0C988DA88EF85F88911817E
:1052A000CE010D960E9435208111F5CF107341F487
:1052B000EF85F8899081992319F0BFEFCB1ADB0AAB
:1052C000960153E0369527955A95E1F7F501A5012A
:1052D000420F531FE417F50721F091919F3FD1F33F
:1052E00016C0F501E20FF31F608170E0B7E0CB223A
:1052F000DD2448E050E04C195D092FEF30E002C09A
:10530000359527954A95E2F76217730771F0F70113
:10531000268137812115310511F428E833E0D701C2
:1053200017963C932E93169707C081E005C04080E6
:10533000512C612C712C07CFAB960FB6F894DEBFC1
:105340000FBECDBFDF91CF911F910F91FF90EF90D6
:10535000DF90CF90BF90AF909F908F907F906F9095
:105360005F904F903F902F900895EF92FF920F9390
:105370001F93CF93DF931F921F92CDB7DEB78C019F
:105380007B01BA01C70149835A830E9426224981C1
:105390005A81B701C8010F900F90DF91CF911F91F3
:1053A0000F91FF90EF900C943128CF92DF92EF9203
:1053B000FF920F931F93CF93DF93CDB7DEB72A975A
:1053C0000FB6F894DEBF0FBECDBF8C017B01FB0191
:1053D000C680D780BE016F5F7F4F49875A870E9482
:1053E000142649855A85882349F1F70186819781DA
:1053F000892B61F4F80186819781009711F48EEE74
:1054000093E0F8019783868380E018C0F7018181DB
:105410008073B601803229F4CE0101960E94B5292D
:1054200004C0CE0101960E9431282B813C81F801F5
:10543000338322832F813885378326832A960FB6BC
:10544000F894DEBF0FBECDBFDF91CF911F910F91BA
:10545000FF90EF90DF90CF900895AF92BF92CF92E0
:10546000DF92EF92FF920F931F93CF93DF93CDB70D
:10547000DEB728970FB6F894DEBF0FBECDBF7B0115
:10548000BE016F5F7F4F0E94A723F82F882309F486
:105490005EC0E981AA80BB80CC80DD800E811F8147
:1054A000B8852E2F217030E040E050E060E070E0E1
:1054B00080E090E0A0E00E94873441F12E2F3A2D49
:1054C0004B2D5C2D6D2D702F812F9B2F01E00E94A5
:1054D00062342095D7012C93309511963C93119707
:1054E000409512964C931297509513965C93139790
:1054F000609514966C931497709515967C931597F8
:10550000809516968C93169790951FC02E2F3A2D46
:105510004B2D5C2D6D2D702F812F9B2F01E00E9454
:105520006234D7012C9311963C93119712964C93A9
:10553000129713965C93139714966C931497159681
:105540007C93159716968C93169717969C938F2F8E
:1055500028960FB6F894DEBF0FBECDBFDF91CF9176
:105560001F910F91FF90EF90DF90CF90BF90AF9081
:1055700008957F928F929F92AF92BF92CF92DF92C7
:10558000EF92FF920F931F93CF93DF93CDB7DEB7C8
:1055900028970FB6F894DEBF0FBECDBF4C018B012C
:1055A0007A01BE016F5F7F4F0E942D2AF82F88235A
:1055B00009F484C0D80114968C918230B1F188F43A
:1055C000813009F058C08981D7018C93782EE82F5B
:1055D000EE0FEE0B4E2F5E2F6E2F7E2F8E2F9E2FF7
:1055E00052C0843091F1883009F045C07980EA8159
:1055F0004B815C816D817E818F819885D7017C9202
:105600001196EC93119712964C93129713965C9304
:10561000139714966C93149715967C93159716967A
:105620008C93169717969C932EC08981EA81D70197
:105630008C931196EC93782E4E2F440F440B542FDD
:10564000642F742F842F942F1EC009811A812B81FF
:105650003C81D7010D931D932D933C931397702E8E
:10566000E12FA901330F000B102F9801602F702F2D
:10567000802F902F08C0F401868197810097C1F494
:1056800083E693E015C0A980BA80CB80DC80ED80F2
:10569000FE80BF811885272D3E2F0B2F0E947E3460
:1056A00069F0F40186819781009711F487E794E00F
:1056B000D40117969C938E931697F0E08F2F28961F
:1056C0000FB6F894DEBF0FBECDBFDF91CF911F9113
:1056D0000F91FF90EF90DF90CF90BF90AF909F9091
:1056E0008F907F90089544E050E00C944A22BA01D4
:1056F0000C94732B48E050E00C944A22BA010C94AD
:105700007A2B1F920F920FB60F9211240BB60F92A5
:105710002F933F934F935F936F937F938F939F93B9
:10572000AF93BF93EF93FF93E0915009F09151092C
:105730001995FF91EF91BF91AF919F918F917F91BB
:105740006F915F914F913F912F910F900BBE0F90F2
:105750000FBE0F901F90189590E0FC013197E1313A
:10576000F10508F048C0E157FF4F0C944134809197
:1057700080008F7703C0809180008F7D80938000B0
:10578000089584B58F7702C084B58F7D84BD089558
:105790008091B0008F7703C08091B0008F7D80939F
:1057A000B0000895809190008F7707C0809190009D
:1057B0008F7D03C080919000877F80939000089533
:1057C0008091A0008F7707C08091A0008F7D03C0DB
:1057D0008091A000877F8093A00008958091200190
:1057E0008F7707C0809120018F7D03C080912001B9
:1057F000877F809320010895CF93DF9390E0FC0191
:10580000EE5EFD4F2491FC01E85AFD4F8491882300
:1058100049F190E0880F991FFC01EE52FD4FA591D0
:10582000B49188549D4FFC01C591D4919FB76111EB
:1058300008C0F8948C91209582238C9388818223D0
:105840000AC0623051F4F8948C91322F3095832342
:105850008C938881822B888304C0F8948C91822B4E
:105860008C939FBFDF91CF9108950F931F93CF9398
:10587000DF931F92CDB7DEB7282F30E0F901E45354
:10588000FE4F8491F901EE5EFD4F1491F901E85A43
:10589000FD4F04910023C9F0882321F069830E9401
:1058A000AC2B6981E02FF0E0EE0FFF1FE854FD4FB5
:1058B000A591B4919FB7F8948C91611103C0109594
:1058C000812301C0812B8C939FBF0F90DF91CF91DB
:1058D0001F910F910895CF93DF93282F30E0F901A6
:1058E000E453FE4F8491F901EE5EFD4FD491F9012E
:1058F000E85AFD4FC491CC2391F081110E94AC2B4A
:10590000EC2FF0E0EE0FFF1FE256FD4FA591B49192
:105910002C912D2381E090E021F480E002C080E012
:1059200090E0DF91CF910895863308F0865320915F
:105930007B00982F9870277F922B90937B00877025
:105940002091060290E4299F90011124822B8093DC
:105950007C0080917A00806480937A0080917A0044
:1059600086FDFCCF809178002091790090E0922B09
:1059700008951F93CF93DF93182FEB0161E00E94EE
:10598000FC2B209711F460E004C0CF3FD10539F41F
:1059900061E0812FDF91CF911F910C94352CE12F85
:1059A000F0E0E453FE4F449150E0FA013197E131C9
:1059B000F10508F091C0E056FF4F0C94413484B5D6
:1059C000806884BDC7BD8DC084B5806284BDC8BDFC
:1059D00088C080918000806880938000D093890087
:1059E000C09388007EC08091800080628093800098
:1059F000D0938B00C0938A0074C08091B0008068FF
:105A00008093B000C093B3006CC08091B0008062FE
:105A10008093B000C093B40064C08091900080680F
:105A200080939000D0939900C09398005AC08091C1
:105A30009000806280939000D0939B00C0939A0066
:105A400050C080919000886080939000D0939D001A
:105A5000C0939C0046C08091A00080688093A00005
:105A60008091A0008F7B8093A000D093A900C09369
:105A7000A80037C08091A00080628093A000D093DE
:105A8000AB00C093AA002DC08091A00088608093D5
:105A9000A000D093AD00C093AC0023C08091200142
:105AA000806880932001D0932901C093280119C0F8
:105AB00080912001806280932001D0932B01C093BC
:105AC0002A010FC080912001886080932001D0932B
:105AD0002D01C0932C0105C0C038D1050CF058CF62
