:100000000C943B010C9468010C9468010C946801F9
:100010000C9468010C9468010C9468010C946801BC
:100020000C9468010C9468010C9468010C946801AC
:100030000C9468010C9468010C9468010C9468019C
:100040000C9468010C9468010C9468010C9468018C
:100050000C9468010C9468010C9468010C941010C5
:100060000C9468010C947B130C94C3140C946801D9
:100070000C9468010C9468010C9468010C9468015C
:100080000C9468010C9468010C9468010C9468014C
:100090000C94BB130C9402150C9468010C94B90ACF
:1000A0000C9468010C9468010C9468010C9468012C
:1000B0000C9468010C9468010C9468010C9468011C
:1000C0000C9468010C9468010C9468010C94FB1367
:1000D0000C9441150C9468010C943B140C948015FD
:1000E0000C946801302E31312E706F7374323000F1
:1000F000626173655F6E6F64655F727063005768FD
:1001000065656C6572204C616200302E31312E7055
:100110006F7374323000687474703A2F2F6769748B
:100120006875622E636F6D2F776865656C65722DDB
:100130006D6963726F666C7569646963732F626160
:1001400073655F6E6F64655F7270632E67697400BC
:1001500000002100240027002A002D003000330079
:1001600001010000040107010A010000220025002E
:1001700028002B002E003100340002010000050190
:1001800008010B01000020002300260029002C009C
:100190002F003200000100000301060109010505DE
:1001A0000505070508080808020202020A0A0808ED
:1001B000040404040101010101010101030303031B
:1001C00003030303040707070C0C0C0C0C0C0C0CAA
:1001D0000202020206060606060606060B0B0B0BBB
:1001E0000B0B0B0B010210202008081020401020E0
:1001F00040800201020108040201010204081020EB
:1002000040808040201008040201800402018040E8
:100210002010080402010804020101020408102051
:10022000408001020408102040800000090A0208F2
:100230000B0C0D0706030401000000000000000085
:1002400000000000000000000000000000000000AE
:1002500000000000000011100F000000000000006E
:10026000000000000000000000000000000000008E
:10027000B3013309F01611241FBECFEFD1E2DEBF68
:10028000CDBF00E00CBF12E0A0E0B2E0E6EFF0E38B
:1002900000E00BBF02C007900D92A236B107D9F75C
:1002A0001BBE17E0A2E6B2E001C01D92A83EB10756
:1002B000E1F712E0C6E7D2E004C02297FE010E94F7
:1002C0007518C037D107C9F70E94B4080C94791883
:1002D0000C940000FB01DC0105900D920020E1F779
:1002E0000895FC0105900020E9F7809590958E0F08
:1002F0009F1F089504970E948201089502970E940B
:1003000082010895AC0145575E4F20E830E0B90105
:10031000CA010895BC01E091E803F091E90302806D
:10032000F381E02D88EE93E019950895DC01ED91BD
:10033000FC910280F381E02D41E050E01995089591
:10034000FC01828193810E94870C08950F931F9373
:100350008C01FC01828193810E94870CF801148238
:100360001F910F910895AF92BF92CF92DF92EF92BB
:10037000FF920F931F938BE192E09093630280931F
:10038000620281E292E0909365028093640287E2C8
:1003900092E0909367028093660210926903109234
:1003A000680310926A0310926C0310926B03AA24E4
:1003B000AA94BA2CB0927203A092710380E091E0EB
:1003C00090936E0380936D0398E6E92E92E0F92EE8
:1003D000F0927003E0926F038AEF9FEFE80EF91E30
:1003E00003E713E0109273031092740310928003DA
:1003F00010927F0310928203109281031092860361
:1004000010928503109294031092930388E693E070
:100410009093880380938703C8010E94870C85E32B
:10042000C82E82E0D82ED0929603C09295031093E6
:10043000980300939703C8010E94870C8DE292E015
:1004400090939603809395038CE597E090939A039D
:10045000809399031092BC031092BB031092BD03CA
:100460001092BF031092BE03B092C503A092C403C2
:1004700080E290E09093C1038093C0038BE993E006
:100480009093C3038093C20306EC13E01092C6035B
:100490001092C7031092D3031092D2031092D50387
:1004A0001092D4031092D9031092D8031092E7034C
:1004B0001092E6038BEB93E09093DB038093DA03D7
:1004C000C8010E94870CD092E903C092E803109300
:1004D000EB030093EA03C8010E94870C8DE392E0CE
:1004E0009093E9038093E8031092EC0388EE93E085
:1004F0000E94A60189E092E09093630280936202D9
:100500000696909365028093640206969093670224
:1005100080936602F0926E04E0926D041F910F9139
:10052000FF90EF90DF90CF90BF90AF900895AF9283
:10053000BF92CF92DF92EF92FF920F931F93DF93C0
:10054000CF930F92CDB7DEB76C017B0100E010E0D6
:100550005E010894A11CB11C0DC08CE597E00E94BF
:1005600077168983F60182819381B5010E94A60CDA
:100570000F5F1F4F0E151F0584F30F90CF91DF9172
:100580001F910F91FF90EF90DF90CF90BF90AF90B1
:1005900008958F929F92BF92CF92DF92EF92FF9237
:1005A0000F931F93DF93CF930F92CDB7DEB77C01EC
:1005B0006B0189EB94E00E94D608B82E0894C1081C
:1005C000D108F7018481882309F4B48200E010E0A7
:1005D0004E010894811C911C10C089EB94E00E948C
:1005E000D6088983F7018481B81629F48281938122
:1005F000B4010E94A60C0F5F1F4F0C151D056CF374
:100600000F90CF91DF911F910F91FF90EF90DF90AE
:10061000CF90BF909F908F900895EF92FF920F938D
:100620001F938C01F62EE72ECB01B8010E946A01C0
:10063000C8010E947101BC018F2D9E2D1F910F9149
:10064000FF90EF9008950F931F93CF93DF93EC01EA
:100650001A86198600E010E00CC0EF81F885E00FE3
:10066000F11FC90160810E946C0C9A8789870F5F16
:100670001F4F8B819C8129853A850817190768F3DC
:10068000C9010E94860C89879A87DF91CF911F91BB
:100690000F910895CF92DF92EF92FF920F931F93E5
:1006A000DF93CF93CDB7DEB763970FB6F894DEBF75
:1006B0000FBECDBF6C012B8B198618868FEF9FEF75
:1006C0009A8B898B2A875E874D87788B6F875C87AB
:1006D0004B8728E0E22EF12CEC0EFD1EC7010E9494
:1006E00023038091000290910102A0910202B09137
:1006F00003028C839D83AE83BF838091BA0086956D
:10070000898389EB94E0F60160810E94C30889EB3C
:1007100094E08E010F5F1F4FB8010E94960189EB94
:1007200094E0BE016C5F7F4F43E050E00E944A09B5
:1007300089EB94E0BE01675F7F4F41E050E00E948B
:100740004A0989EB94E0B70141E050E00E944A0970
:1007500089EB94E0BE016D5E7F4F0E9496018B8510
:100760009C859B838A8389EB94E0BE016D5F7F4FFC
:1007700041E050E00E944A0989EB94E0BE016E5FBF
:100780007F4F41E050E00E944A0989EB94E00E94CB
:10079000BE09F02EE12E29C08A014032510510F029
:1007A0000FE110E089EB94E0F60160810E94C3083C
:1007B00089EB94E06F2D7E2D0E9496016F857889DC
:1007C00089EB94E0A8010E944A0989EB94E00E9419
:1007D000BE098F859889800F911F988B8F878B8595
:1007E0009C85801B910B9C878B874B855C85411575
:1007F000510591F689EB94E0F60160810E94C308EF
:1008000089EB94E0BE016F5F7F4F0E94960189EBF8
:1008100094E0BE016E5E7F4F41E050E00E944A09C5
:1008200089EB94E0BE016F5E7F4F41E050E00E9493
:100830004A0989EB94E00E94BE0963960FB6F894CA
:10084000DEBF0FBECDBFCF91DF911F910F91FF9003
:10085000EF90DF90CF9008958F929F92AF92BF92CA
:10086000CF92DF92EF92FF920F931F93CF93DF937C
:10087000DC0158016901EB0186018881803209F4AD
:100880005AC1813208F040C0883009F4E3C0893091
:10089000E0F4833009F4A6C0843050F4813009F4C8
:1008A00086C00D90BC91A02D823008F08EC072C021
:1008B000853009F4BCC0853008F4ABC0863009F43B
:1008C000B9C0873009F061C0BDC08D3009F4F8C0EF
:1008D0008E3068F48A3009F4E4C08A3008F4C6C067
:1008E0008B3009F4E4C08C3009F04FC0E4C08F3085
:1008F00009F4F0C08F3008F4E7C0803109F4F8C083
:10090000813109F042C008C1863609F4BCC187367E
:10091000F8F4813609F46DC1823670F4813409F43B
:1009200034C1823418F4803481F50AC1823409F468
:1009300055C1803651F557C1833609F467C18336F6
:1009400008F45BC1843609F491C18536F1F493C192
:10095000803809F4F6C1813860F4883609F4CBC1D7
:10096000883608F49CC1893609F4DFC18A3669F4F7
:10097000E2C1823809F431C2823808F4EFC1803A0A
:1009800009F432C2813A09F43DC2EE24FF24CFEFCC
:10099000DFEF46C2ED91FC9111970190F081E02DBF
:1009A000CD011995AB01BC0184EE90E028C0ED911A
:1009B000FC91A081B1812D913C91CF01F901199554
:1009C000AB01BC0180EF90E01AC0ED91FC91119752
:1009D0000190F081E02DCD011995AB01BC018EEFA6
:1009E00090E00DC0ED91FC91A081B1812D913C91E1
:1009F000CF01F9011995AB01BC018AE091E00E9499
:100A00000D03562F282F392FC9017C01252F372F91
:100A100036C2ED91FC91A081B1812D913C91CF0125
:100A2000F9011995AB01BC0186E191E0E8CF0E9484
:100A3000661002C00E945810F8016083718382839F
:100A4000938388C189819A81009709F4E6C10E9445
:100A5000E510E3C149815A814115510509F4DDC111
:100A6000BA0180E090E00E948C101FC08091E407E2
:100A70009091E507009729F42DB73EB7285E3740DF
:100A800004C02DB73EB7281B390BC901AA2797FD13
:100A9000A095BA2FF80180839183A283B383780154
:100AA0005AC189816A810E9465127601B7C1898124
:100AB0000E944B13EEC089816A810E941813ADC158
:100AC00089810E9451119BC06A81898170E00E94D6
:100AD0008511EBCFFB013196828193818E0F9F1F91
:100AE0009383828389819181F601808391838AC077
:100AF000FB013196228133812E0F3F1F33832283E6
:100B000089819181A22FB3819C01220F331F220F73
:100B1000331F7D01E90184C1FB01319682819381FC
:100B20008E0F9F1F93838283718153816981482F28
:100B3000952F842F64C189EF90E0A0E0B0E005C15B
:100B4000FB013196848195818E0F9F1F958384834D
:100B500049815A8122813381F894FC0111C080813E
:100B6000F999FECF1FBA52BD41BD80BD0FB6F894B2
:100B7000FA9AF99A0FBE4F5F5F4F3196215030407D
:100B80002115310561F7789448C1FB0131960D902C
:100B9000BC91A02D19810181C281D3811296ED9162
:100BA000FC9113970190F081E02DCD0102961995EB
:100BB0007C01412F502F9A01FC01AE010BC0F99925
:100BC000FECF32BD21BDF89A80B581932F5F3F4F94
:100BD000415050404115510591F722C18FEF9FE0E0
:100BE000A0E0B0E0B2C089EB94E069810E94DE0928
:100BF00014C18091BA0086954CC080E290E0F80163
:100C0000918380837601C2E0D0E00AC10D90BC914F
:100C1000A02D1496ED91FC9115970190F081E02D97
:100C2000CD01049619957C016B01C0E0D0E018E07D
:100C3000CC15DD0508F0F4C089EB94E0612F0E942B
:100C4000C30889EB94E00E94BE09882359F4F70198
:100C5000EC0FFD1F1083219661E070E080E090E0D2
:100C60000E948C101F5F183719F7DAC089EB94E0E7
:100C70000E94CD08C4CF89EB94E00E94D608F6010B
:100C80008083760109C089EB94E069814A810E94E2
:100C9000CF09F80180837601C1E0D0E0C1C00D909A
:100CA000BC91A02DD980CA801496ED91FC91159726
:100CB0000190F081E02DCD01049619957B018C0106
:100CC000780189EB94E06D2D4C2D0E94CF09E8014D
:100CD00010E008C089EB94E00E94D6081C1540F48F
:100CE00089931F5F89EB94E00E94CD08892B91F7CF
:100CF000C12FD0E095C0FB013196038114810E0F06
:100D00001F1F14830383E180F28089EB94E06981E3
:100D10000E94C30889EB94E0B801A7010E944A0928
:100D200089EB94E00E94BE09C0CE8091BA00816038
:100D30008093BA00BACE8091BA008E7F8093BA00B9
:100D40006CC089E190E0A0E0B0E0F801808391837D
:100D5000A283B3837601C4E0D0E062C0FB01319688
:100D6000038114810E0F1F1F14830383AD90BC9069
:100D7000F980E180D280C48036E8832E31E0932E62
:100D80008A0C9B1CC4010E94A601F501E657FE4F88
:100D9000F082CF014E2D5D2D602F7C2D24E60E9428
:100DA0004A030E9458107B018C01E501C857DE4FB1
:100DB0000E9458106E197F09800B910B685873417F
:100DC0008040904008F03FC0E881F9818189882304
:100DD000B1F1C4010E94A601EBCF8D919C918A577D
:100DE0009E4F0E94A60161CE0D90BC91A02DED9169
:100DF000FC9111970190F081E02DCD0119957C01B6
:100E0000262F05CE8CE597E040E052EC61E070E0E3
:100E10000E94BF158CE08093B8007801C0E0D0E05C
:100E2000BE01C701DF91CF911F910F91FF90EF900D
:100E3000DF90CF90BF90AF909F908F900895808962
:100E4000882309F4B5CF20E631E0A20EB31EF501E8
:100E5000808191812CEF3FEFA20EB31EF5014081FE
:100E600051818C019A01E9012831310510F0C7E167
:100E7000D0E0C4010E94A60178012C2F3D2FE9018A
:100E8000CFCFEF92FF920F931F93DF93CF93CDB706
:100E9000DEB762970FB6F894DEBF0FBECDBFE0910C
:100EA0009703F09198038189882309F422C1CF0127
:100EB000E5C020916B0330916C0380916A03843606
:100EC000C1F421153105A9F080916F039091700351
:100ED000BC01A9019C0100916D0310916E038DE688
:100EE00094E00E942C04AC01892B39F460E070E09E
:100EF00004C060E070E040E050E024E629838FEF1A
:100F00009FEF9A8B898B198618862A877E876D8733
:100F1000588B4F877C876B8758E0E52EF12CEC0EC1
:100F2000FD1EC7010E9423038091000290910102DF
:100F3000A0910202B09103028C839D83AE83BF8394
:100F4000E0919903F0919A03A081B18112962D91BD
:100F50003C911397CF01BE016C5F7F4F43E050E09F
:100F6000F90119950091990310919A03D801ED9117
:100F7000FC910280F381E02DC801BE01675F7F4FC5
:100F800041E050E01995D801ED91FC910280F38188
:100F9000E02DC801B70141E050E01995E0919903B7
:100FA000F0919A03A081B18112962D913C911397F3
:100FB000CF01BE016F5F7F4F41E050E0F90119950D
:100FC0008A85843619F0833709F054C0009199035B
:100FD00010919A038B859C859B838A83D801ED9120
:100FE000FC910280F381E02DC801BE016D5F7F4F4F
:100FF00041E050E01995D801ED91FC910280F38118
:10100000E02DC801BE016E5F7F4F41E050E01995B1
:101010004B855C854115510579F0E0919903F0917C
:101020009A03A081B1816F85788912962D913C91A8
:101030001397CF01F90119950091990310919A0323
:10104000D801ED91FC910280F381E02DC801BE0131
:101050006E5E7F4F41E050E01995D801ED91FC9113
:101060000280F381E02DC801BE016F5E7F4F41E039
:1010700050E0199580919703909198030E94870CF6
:10108000E091EA03F091EB0381898823B9F12CC048
:101090002091BE033091BF038091BD038436C9F413
:1010A00021153105B1F08091C2039091C303BC01B9
:1010B000A9019C010091C0031091C1038DE694E049
:1010C0000E942C04FC019B01892B39F420E030E0C4
:1010D00004C020E030E0E0E0F0E0BF01A9018CEEC8
:1010E00093E024E60E944A0388EE93E00E94A60162
:1010F00008C08089882309F0DCCEC2CF808988238C
:1011000039F662960FB6F894DEBF0FBECDBFCF9111
:10111000DF911F910F91FF90EF9008958CE597E07C
:1011200040E052EC61E070E00E94BF158CE08093DB
:10113000B80089EB94E06AE871E00E942E090895F6
:101140000F931F93E0919503F09196030281138111
:101150008CE597E00E944616BC0185E993E0F80112
:1011600019951F910F910895CF93DF930E94EF106F
:101170000E948E08CAE7D4E10E9441072097E1F35C
:101180000E947A14F9CF81E08093B40460939104B3
:101190001092B2041092B30408952091900430E0AC
:1011A00080918F04281B3109C901089540918F0453
:1011B00080919004481718F02FEF3FEF0AC0E42FFA
:1011C000F0E0E159FB4F8081282F30E04F5F4093E2
:1011D0008F04C9010895E0918F0480919004E8176D
:1011E00018F0EFEFFFEF06C0F0E0E159FB4F808110
:1011F000E82FF0E0CF0108950895AC012091B704E5
:101200003091B80421153105E1F090918F0480915F
:1012100090049817B0F090E008C0FA01EA0FFB1FA5
:101220008081A159BB4F8C939F5FA92FB0E0A61777
:10123000B7079CF310928F0460939004CB01F901DF
:1012400019950895E091B504F091B604309729F00E
:101250001092B2041092B304199508957093B804D3
:101260006093B70408951092BC041092BB0488EEFA
:1012700093E0A0E0B0E08093BD049093BE04A093FF
:10128000BF04B093C00485E492E09093BA048093C5
:10129000B9040895CF92DF92EF92FF920F931F93BC
:1012A000CF93DF937C016B018A018091B404882382
:1012B000A1F0C0E0D0E00DC0D701ED91FC91D601C6
:1012C000AC0FBD1F0190F081E02DC7016C91199505
:1012D0002196C017D10780F304C0CB01642F0E9470
:1012E000940AC801DF91CF911F910F91FF90EF9069
:1012F000DF90CF900895DF93CF930F92CDB7DEB7F5
:10130000FC0169838091B4048823C9F08091B304FF
:10131000803238F081E090E09383828320E030E0F7
:1013200015C08091B204E82FF0E0EE56FB4F998192
:1013300090838F5F8093B2048093B30405C0CE0185
:10134000019661E00E94940A21E030E0C9010F900B
:10135000CF91DF9108950F93062F8091910462E958
:1013600074E04091B30421E00E943F0A1092B2045D
:101370001092B3041092B4040F91089561E00E949A
:10138000AB090895413208F040E2862F6FE674E021
:101390000E94F60910928F0480939004089521E032
:1013A0000E94C209089510928F0410929004109226
:1013B000B2041092B3040E944E0C08950F931F9331
:1013C0008C01862F0E94F20982E299E00E94B40A01
:1013D0008DEF98E00E94AF0AC8010E94D3091F91C7
:1013E0000F910895880F8093BA000895382F4132E5
:1013F00010F040E042C08091C5048823E1F791E0FD
:101400009093C5042093C7048FEF80933205109208
:10141000ED0441504093EE044F5F9093C6048091D9
:10142000C604330F832B8093C6048091C804813097
:1014300041F41092C8048091C6048093BB0085ECEF
:1014400001C085EE8093BC008091C5048130E1F33A
:101450008091ED04841710F44091ED0420E030E019
:101460000AC0FB01E20FF31FD901A353BB4F8C91BC
:1014700080832F5F3F4F2417A0F3842F08950F938D
:101480001F93582F122F413210F081E04AC08091F3
:10149000C5048823E1F782E08093C5040093C70464
:1014A0008FEF809332051092ED044093EE04ADEC83
:1014B000B4E0FB0102C081918D938E2F861B8417AF
:1014C000D0F31092C6048091C604550F852B8093EB
:1014D000C6048091C804813041F41092C804809100
:1014E000C6048093BB0085EC01C085EE8093BC00F0
:1014F000112321F08091C5048230E1F380913205FF
:101500008F3F11F480E00DC080913205803211F4DC
:1015100082E007C080913205803311F084E001C081
:1015200083E01F910F910895482F613210F081E000
:1015300008958091C504843011F082E0089560938D
:101540001005AFEEB4E0842F9C01F90102C0819137
:101550008D938E2F841B8617D0F380E0089590938F
:10156000CC048093CB0408959093CA048093C9045B
:1015700008951F920F920FB60F920BB60F9211247F
:101580002F933F934F935F936F937F938F939F938B
:10159000AF93BF93EF93FF938091B90090E0887F62
:1015A00090708036910509F4F2C081369105CCF532
:1015B0008832910509F47BC089329105B4F48031F9
:1015C000910509F46FC0813191053CF4009709F44D
:1015D00047C1089709F04FC165C08831910509F4EA
:1015E00066C0809709F047C182C08034910509F434
:1015F000A4C08134910544F48033910509F482C07C
:10160000C89709F038C189C08035910509F489C0AF
:101610008835910509F496C08834910509F02BC1ED
:10162000AEC08839910509F413C189399105ECF4EC
:101630008837910509F4ABC0893791054CF4883699
:10164000910509F4A4C08037910509F014C19FC029
:101650008838910509F4FCC08039910509F49DC0D2
:101660008038910509F007C198C0803B910509F4C5
:10167000C6C0813B91054CF4803A910509F49FC0A6
:10168000883A910509F0F7C0BAC0803C910509F489
:10169000E3C0883C910509F4DFC0883B910509F05F
:1016A000EAC0C2C08091C6048093BB00CFC09091B5
:1016B000ED048091EE04981768F49091ED04E92F01
:1016C000F0E0E353FB4F80818093BB009F5F9093DA
:1016D000ED04BCC08091C704882309F44BC085ED9C
:1016E0008093BC008091BC0084FDFCCFC2C080E22E
:1016F0008093320585ED8093BC008091BC0084FD11
:10170000FCCFB7C080E38093320585ED8093BC00A9
:101710008091BC0084FDFCCFACC088E3809332058F
:101720009BC08091ED049091BB00E82FF0E0E35363
:10173000FB4F90838F5F8093ED049091ED04809137
:10174000EE0482C08091ED049091BB00E82FF0E0A0
:10175000E353FB4F90838F5F8093ED048091C70428
:10176000882341F085ED8093BC008091BC0084FD0E
:10177000FCCF7FC081E08093C80484EA6EC085ED11
:101780008093BC008091BC0084FDFCCF72C083E0DC
:101790008093C5041092310559C080913105803283
:1017A00008F056C0809131059091BB00E82FF0E021
:1017B000EF5EFA4F90838F5F8093310547C0809131
:1017C0003105803230F4E0913105F0E0EF5EFA4F00
:1017D000108285ED8093BC008091BC0084FDFCCF1D
:1017E0001092C50460913105E091CB04F091CC04D6
:1017F00081E195E070E01995109231052DC084E0EB
:101800008093C50410920F0510921005E091C90451
:10181000F091CA04199580911005882329F481E07C
:10182000809310051092EF0490910F05E92FF0E0DE
:10183000E151FB4F80818093BB009F5F90930F0528
:1018400090910F0580911005981710F485EC01C058
:1018500085E88093BC000FC085EC8093BC0009C074
:101860001092320585ED8093BC008091BC0084FD10
:10187000FCCF1092C504FF91EF91BF91AF919F9162
:101880008F917F916F915F914F913F912F910F9029
:101890000BBE0F900FBE0F901F9018951092C504AD
:1018A00081E08093C7041092C80484E161E00E9443
:1018B000181385E161E00E941813E9EBF0E08081E4
:1018C0008E7F808380818D7F808388E48093B800C1
:1018D00085E48093BC0008959C012627822F829581
:1018E0008227082E869586958025082E8695802548
:1018F0008770022E232F869507948795302D2827F1
:101900000694879530252827C90108950895FC017C
:10191000A489B58912961C92129714961C921E9255
:1019200013978FEF9FEF1A969C938E931997138AB4
:10193000128A108A118A1786168611A210A28CE0CC
:1019400090E093838283178E168E0895AF92BF9294
:10195000CF92DF92EF92FF920F931F93DF93CF937B
:101960000F92CDB7DEB78C016115710581F4CE0100
:101970000196D80115969C938E93149717969C9375
:101980008E93169719969C938E93189707C0FC0117
:10199000758364836F5F7F4F77836683D801149666
:1019A0002D913C91159716968D919C91179728171C
:1019B000390709F04BC0EDC288309105DCF4833063
:1019C000910509F41CC18430910564F481309105BE
:1019D00009F4E5C0823091050CF0FBC0892B09F4B5
:1019E000DAC022C08530910509F446C106970CF093
:1019F0006FC122C18B30910509F422C28C30910550
:101A000044F48930910509F4F6C10A970CF00CC230
:101A1000BFC18D30910509F426C28D3091050CF4BB
:101A2000A6C00E9709F478C2D80114968D919C91A6
:101A30001597019615969C938E93149716962D9153
:101A40003C9117978217930709F4A3C2F80182818A
:101A500093818730910509F466C188309105BCF403
:101A60008330910509F4D7C08430910544F4813066
:101A7000910509F4A6C0029709F05AC2B6C0853094
:101A8000910509F40BC106970CF02EC1E7C08B300D
:101A9000910509F44EC08C3091053CF489309105D4
:101AA000D1F00A970CF0CCC17FC18D30910509F4BB
:101AB000E6C18D3091050CF466C00E9709F038C26E
:101AC000FFC1D8015496ED91FC915597828381E036
:101AD00050968C934CC0F801A489B58919968C91C5
:101AE000199719961C9219971A968C931A978481B4
:101AF0009581FC01208119968D919C911A97820FF6
:101B0000911D1A969C938E931997F8012289338917
:101B10008217930749F481E0808B86859785149618
:101B20009C938E93139723C081E0D80151968C9398
:101B30001EC0D8015496ED91FC9155971C962D919D
:101B40003C911D97858196818217930718F481E057
:101B500051968C9381E0F801808B0488F589E02D03
:101B6000D8011C968D919C911D9794838383F801D5
:101B7000848195810196958384832681378182179C
:101B8000930709F4D5C1D8011496ED91FC911597EE
:101B900080818C3721F0F8011382128235C2D8017E
:101BA00014968D919C911597019615969C938E9302
:101BB000149716962D913C9117978217930709F465
:101BC000BAC1D8011496ED91FC91159780818C379C
:101BD00011F7F8018481958101969583848326818C
:101BE00037818217930709F4A9C1D8011496ED91A2
:101BF000FC91159780818C3771F650961C92F801F4
:101C0000848195810196958384832681378182170B
:101C1000930709F49BC1F801A489B58911961C9218
:101C20001E9284819581FC01808190E0DC90CC241F
:101C30008C299D298D939C93D80114968D919C910C
:101C40001597019615969C938E93149716962D9141
:101C50003C9117978217930709F47BC1F801A48977
:101C6000B58984819581FC01808190E0BC90AA2493
:101C70008A299B298D939C93D80114968D919C91D0
:101C80001597019615969C938E93149716962D9101
:101C90003C9117978217930709F45EC1D8011496F7
:101CA000ED91FC9115978081843661F0853620F4A2
:101CB000813609F070CF05CF8E3609F4AFC0833777
:101CC00009F069CFD8015496ED91FC915597828324
:101CD000F8018481958101969583848326813781DB
:101CE0008217930709F43BC1D80191961C921E926A
:101CF00090971D961C921E921C971496ED91FC9144
:101D0000159780811C968C931C971D961C92F80148
:101D100084819581019695838483268137818217FA
:101D2000930709F41FC1D8011C96FC901C97EE2460
:101D30001D96FC92EE921C971496ED91FC911597CE
:101D400080819701280F311D1D963C932E931C977F
:101D50005496ED91FC915597858196818217930752
:101D600018F481E051968C93F801868D978D0B962F
:101D7000FC01EE0FFF1FE00FF11F28E030E0318380
:101D800020830A97D8015F969C938E935E976BC0D1
:101D9000F80184819581019695838483268137811A
:101DA0008217930709F4E1C0D80152968D919C9156
:101DB00053970E94860CF801938B828BA489B58976
:101DC0001A961C921E92199719968C91199719962A
:101DD0001C9219971A968C931A9784819581FC010D
:101DE000208119968D919C911A97820F911D1A96B8
:101DF0009C938E931997D80114968D919C91159769
:101E0000019615969C938E93149716962D913C915E
:101E100017978217930709F05ECEAAC0D80154968F
:101E2000ED91FC9155978283F8018481958101960B
:101E300095838483268137818217930709F49BC099
:101E4000D80114968D919C911597019615969C93A7
:101E50008E93149716962D913C911797821793079E
:101E600009F067CE8BC0F801848195810196958336
:101E70008483268137818217930709F482C0D801B1
:101E80001F961C921E921E9753961C921E9252975A
:101E90001C968D919C911D971496ED91FC91159730
:101EA000892B59F431971596FC93EE9314975E960F
:101EB000ED91FC915F97319790C080E090E009C070
:101EC000D8011496ED91FC91159752968D919C91A5
:101ED000539760810E946C0CF801938B828B26854E
:101EE00037850488F589E02D0780F085E02DE20F25
:101EF000F31FD80114968D919C911597DC018C915C
:101F000080832F5F3F4FF80137872687848595852B
:101F10002817390709F45CC0F8018481958101967E
:101F200095838483268137818217930749F62CC0D5
:101F30008CE090E005C081E090E028C082E090E075
:101F4000D80113969C938E93129723C083E090E060
:101F50001DC084E090E0F4CF85E090E017C086E0FB
:101F600090E0EECF87E090E011C088E090E0E8CF0D
:101F700089E090E00BC08AE090E0E2CF8BE090E057
:101F800005C08DE090E0DCCF8EE090E0F801938317
:101F90008283D80114962D913C91159718968D91B6
:101FA0009C9119972817390779F512968D919C9174
:101FB00013970D9749F5F80117861686138A128A2A
:101FC00084859585892B01F5215030403583248304
:101FD000068CF78DE02D3197D8015F96FC93EE9338
:101FE0005E973B96EE0FFF1FE00FF11F80819181FE
:101FF00013969C938E931297F80182819381873078
:10200000910509F0D9CC83CE0F90CF91DF911F912C
:102010000F91FF90EF90DF90CF90BF90AF90089519
:102020001F920F920FB60F9211242F933F938F930D
:102030009F93AF93BF938091370590913805A091FE
:102040003905B0913A0530913B050196A11DB11DAE
:10205000232F2D5F2D3720F02D570196A11DB11D87
:1020600020933B058093370590933805A09339055D
:10207000B0933A058091330590913405A0913505D0
:10208000B09136050196A11DB11D80933305909343
:102090003405A0933505B0933605BF91AF919F915C
:1020A0008F913F912F910F900FBE0F901F90189519
:1020B0008FB7F89420913705309138054091390554
:1020C00050913A058FBFB901CA0108959FB7F8949E
:1020D00020913305309134054091350550913605F6
:1020E00086B5A89B06C08F3F21F02F5F3F4F4F4F13
:1020F0005F4F9FBF542F432F322F2227280F311DB0
:10210000411D511D82E0220F331F441F551F8A9528
:10211000D1F7B901CA0108959B01AC017FB7F894CA
:102120008091330590913405A0913505B091360525
:1021300066B5A89B05C06F3F19F00196A11DB11DA2
:102140007FBFBA2FA92F982F8827860F911DA11D19
:10215000B11D62E0880F991FAA1FBB1F6A95D1F7B6
:10216000BC012DC0FFB7F8948091330590913405E0
:10217000A0913505B0913605E6B5A89B05C0EF3FA7
:1021800019F00196A11DB11DFFBFBA2FA92F982FDD
:1021900088278E0F911DA11DB11DE2E0880F991FA8
:1021A000AA1FBB1FEA95D1F7861B970B885E934049
:1021B000C8F2215030404040504068517C4F2115BA
:1021C00031054105510571F60895019739F0880FE1
:1021D000991F880F991F02970197F1F70895789436
:1021E00084B5826084BD84B5816084BD85B582601C
:1021F00085BD85B5816085BDEEE6F0E080818160BA
:102200008083E1E8F0E010828081826080838081B9
:1022100081608083E0E8F0E0808181608083E1EB91
:10222000F0E0808184608083E0EBF0E08081816079
:102230008083E1E9F0E08081826080838081816039
:102240008083E0E9F0E0808181608083E1EAF0E072
:10225000808182608083808181608083E0EAF0E019
:10226000808181608083E1E2F1E08081826080830F
:10227000808181608083E0E2F1E080818160808301
:10228000EAE7F0E0808184608083808182608083DF
:102290008081816080838081806880831092C1000A
:1022A0000895382F863308F0365320917B00832F12
:1022B00086958695869590E08170907043E0880FB2
:1022C000991F4A95E1F7277F282B20937B003770D1
:1022D000809104028295880F880F807C832B8093E5
:1022E0007C0080917A00806480937A0080917A00EB
:1022F00086FDFCCF2091780040917900942F80E0FA
:1023000030E0282B392BC90108951F93CF93DF9319
:10231000182FEB0161E00E946512209709F4CAC0F2
:10232000CF3FD10509F4C9C0E12FF0E0E65DFD4FD4
:102330008491893009F466C08A30B0F48430F1F1B8
:10234000853040F4823059F1833070F5813009F0E6
:10235000AEC020C0873009F443C0883008F048C0C0
:10236000863009F0A4C034C08D3009F478C08E30B6
:1023700038F48B3009F45AC08C3008F066C04CC079
:10238000803109F480C0813109F487C08F3009F0B1
:102390008EC06FC084B5806884BDC7BD92C084B54F
:1023A000806284BDC8BD8DC08091800080688093AC
:1023B0008000D0938900C093880083C08091800002
:1023C000806280938000D0938B00C0938A0079C094
:1023D0008091B00080688093B000C093B30071C05A
:1023E0008091B00080628093B000C093B40069C057
:1023F00080919000806880939000D0939900C09362
:1024000098005FC080919000806280939000D0938C
:102410009B00C0939A0055C0809190008860809383
:102420009000D0939D00C0939C004BC08091A00071
:1024300080688093A0008091A0008F7B8093A00093
:10244000D093A900C093A8003CC08091A0008062F6
:102450008093A000D093AB00C093AA0032C08091BB
:10246000A00088608093A000D093AD00C093AC0022
:1024700028C080912001806880932001D093290199
:10248000C09328011EC080912001806280932001AA
:10249000D0932B01C0932A0114C080912001886041
:1024A00080932001D0932D01C0932C010AC0C03825
:1024B000D1051CF4812F60E002C0812F61E00E94F1
:1024C0001813DF91CF911F910895CF93DF93482F79
:1024D00050E0CA018C519E4FFC01349142565E4F30
:1024E000FA018491882369F190E0880F991FFC011B
:1024F000E05BFE4FA591B491FC01E659FE4FC591FA
:10250000D491662351F42FB7F8948C91932F909522
:1025100089238C93888189230BC0623061F42FB7A3
:10252000F8948C91932F909589238C938881832B99
:1025300088832FBF06C09FB7F8948C91832B8C9310
:102540009FBFDF91CF910895893009F449C08A3047
:10255000A0F4843051F1853040F4823079F1833039
:1025600000F5813009F063C026C0873079F18830EA
:1025700098F5863009F05BC025C08D3009F442C063
:102580008E3028F48B30B1F18C30C0F52DC0803105
:1025900009F442C0813109F445C08F3009F047C0C9
:1025A00037C0809180008F7703C0809180008F7D3D
:1025B00080938000089584B58F7702C084B58F7DA5
:1025C00084BD08958091B0008F7703C08091B000E2
:1025D0008F7D8093B0000895809190008F7707C021
:1025E000809190008F7D03C080919000877F8093C1
:1025F000900008958091A0008F7707C08091A0007F
:102600008F7D03C08091A000877F8093A0000895F4
:10261000809120018F7703C0809120018F7D80936E
:102620002001089580912001877F809320010895E3
:10263000FF920F931F93F62E482F50E0CA01865D3C
:102640009D4FFC012491CA018C519E4FFC011491B5
:1026500042565E4FFA0104910023C9F0222319F07B
:10266000822F0E94A412E02FF0E0EE0FFF1FE65928
:10267000FE4FA591B4919FB7F894FF2021F48C915F
:102680001095812302C08C91812B8C939FBF1F9149
:102690000F91FF9008950F931F93482F50E0CA01A8
:1026A000865D9D4FFC012491CA018C519E4FFC0117
:1026B000049142565E4FFA011491112319F420E05F
:1026C00030E015C0222319F0822F0E94A412812F1E
:1026D00090E0880F991F8C579E4FFC01A591B491F3
:1026E0008C9120E030E0802311F021E030E0C9013E
:1026F0001F910F9108951F920F920FB60F920BB674
:102700000F9211242F933F934F938F939F93EF93A7
:10271000FF938091C00082FD1DC04091C6002091B2
:102720007C0530917D052F5F3F4F2F733070809176
:102730007E0590917F052817390771F0E0917C059F
:10274000F0917D05E45CFA4F408330937D05209342
:102750007C0502C08091C600FF91EF919F918F91FF
:102760004F913F912F910F900BBE0F900FBE0F9086
:102770001F90189508951F920F920FB60F920BB6E7
:102780000F9211242F933F934F938F939F93EF9327
:10279000FF938091C80082FD1DC04091CE00209122
:1027A0000406309105062F5F3F4F2F7330708091E4
:1027B0000606909107062817390771F0E091040684
:1027C000F0910506EC53FA4F4083309305062093B1
:1027D000040602C08091CE00FF91EF919F918F91EE
:1027E0004F913F912F910F900BBE0F900FBE0F9006
:1027F0001F90189508951F920F920FB60F920BB667
:102800000F9211242F933F934F938F939F93EF93A6
:10281000FF938091D00082FD1DC04091D600209191
:102820008C0630918D062F5F3F4F2F733070809153
:102830008E0690918F062817390771F0E0918C066B
:10284000F0918D06E45BF94F408330938D06209321
:102850008C0602C08091D600FF91EF919F918F91DD
:102860004F913F912F910F900BBE0F900FBE0F9085
:102870001F90189508951F920F920FB60F920BB6E6
:102880000F9211242F933F934F938F939F93EF9326
:10289000FF938091300182FD1DC04091360120914F
:1028A0001407309115072F5F3F4F2F7330708091C1
:1028B0001607909117072817390771F0E091140750
:1028C000F0911507EC52F94F408330931507209390
:1028D000140702C080913601FF91EF919F918F9173
:1028E0004F913F912F910F900BBE0F900FBE0F9005
:1028F0001F901895E0916807F0916907E05CFF4F21
:102900008191919120813181821B930B8F73907003
:10291000892B11F00E94A008E0918A07F0918B07A3
:10292000E05CFF4F8191919120813181821B930B5B
:102930008F739070892B11F00E94BA13E091AC074D
:10294000F091AD07E05CFF4F819191912081318141
:10295000821B930B8F739070892B11F00E94FA13D6
:10296000E091CE07F091CF07E05CFF4F819191910C
:1029700020813181821B930B8F739070892B11F012
:102980000E943A1408951F920F920FB60F920BB641
:102990000F9211242F933F938F939F93EF93FF9365
:1029A0002091C0053091C1058091C2059091C30569
:1029B0002817390731F48091C1008F7D8093C100C1
:1029C00014C0E091C205F091C305E058FA4F208190
:1029D0008091C2059091C30501968F73907090937A
:1029E000C3058093C2052093C600FF91EF919F918C
:1029F0008F913F912F910F900BBE0F900FBE0F90B4
:102A00001F9018951F920F920FB60F920BB60F9250
:102A100011242F933F938F939F93EF93FF932091D4
:102A200048063091490680914A0690914B06281736
:102A3000390731F48091C9008F7D8093C90014C09B
:102A4000E0914A06F0914B06E85FF94F20818091B2
:102A50004A0690914B0601968F73907090934B06A7
:102A600080934A062093CE00FF91EF919F918F9122
:102A70003F912F910F900BBE0F900FBE0F901F90A4
:102A800018951F920F920FB60F920BB60F9211244A
:102A90002F933F938F939F93EF93FF932091D006B3
:102AA0003091D1068091D2069091D306281739072C
:102AB00031F48091D1008F7D8093D10014C0E091DA
:102AC000D206F091D306E057F94F20818091D206CB
:102AD0009091D30601968F7390709093D306809354
:102AE000D2062093D600FF91EF919F918F913F9155
:102AF0002F910F900BBE0F900FBE0F901F90189547
:102B00001F920F920FB60F920BB60F9211242F93B4
:102B10003F938F939F93EF93FF93209158073091AA
:102B2000590780915A0790915B072817390731F4AC
:102B3000809131018F7D8093310114C0E0915A075B
:102B4000F0915B07E85EF84F208180915A079091E1
:102B50005B0701968F73907090935B0780935A0781
:102B600020933601FF91EF919F918F913F912F918B
:102B70000F900BBE0F900FBE0F901F901895AF9245
:102B8000BF92DF92EF92FF920F931F93CF93DF9349
:102B9000EC017A018B01DD24403081EE580780E0A2
:102BA000680780E0780711F0DD24D39491E0A92E26
:102BB000B12CEC89FD89DD2069F0C50108A002C0B7
:102BC000880F991F0A94E2F7808360E079E08DE333
:102BD00090E005C0108260E874E88EE190E0A80102
:102BE00097010E9451182150304040405040569566
:102BF00047953795279580E12030380720F0DD2074
:102C000011F0DD24D6CFE889F9893083EA89FB8980
:102C1000208319A2EE89FF89408121E030E0C901BB
:102C20000C8C02C0880F991F0A94E2F7482B40834E
:102C3000EE89FF894081C9010D8C02C0880F991F60
:102C40000A94E2F7482B4083EE89FF894081C9014D
:102C50000E8C02C0880F991F0A94E2F7482B40831C
:102C6000EE89FF8980810F8C02C0220F331F0A94E6
:102C7000E2F7209528232083DF91CF911F910F91B8
:102C8000FF90EF90DF90BF90AF900895DC011C960D
:102C9000ED91FC911D97E05CFF4F21913191808176
:102CA0009181281B390B2F733070C9010895DC0105
:102CB0001C96ED91FC911D97E05CFF4F20813181C6
:102CC000E054F040DF01AE5BBF4F8D919C911197B6
:102CD0002817390719F42FEF3FEF07C08D919C910A
:102CE000E80FF91F8081282F30E0C9010895DC0129
:102CF0001C96ED91FC911D97E05CFF4F2081318186
:102D0000E054F040DF01AE5BBF4F8D919C91119775
:102D10002817390719F42FEF3FEF10C08D919C91C0
:102D20001197E80FF91F20818D919C9111970196C1
:102D30008F73907011969C938E9330E0C901089523
:102D4000DC0191968C919197882339F05496ED91FE
:102D5000FC915597808186FFF9CF91961C9208953A
:102D6000CF93DF93EC01EE85FF85E05CFF4F208180
:102D70003181E054F0402F5F3F4F2F733070DF01FF
:102D8000AE5BBF4F8D919C91119728173907D1F3F6
:102D9000E05CFF4F80819181E054F040E80FF91F23
:102DA0006083EE85FF85E05CFF4F31832083EE89F1
:102DB000FF89208181E090E00F8C02C0880F991F6D
:102DC0000A94E2F7282B208381E089A3EC89FD890E
:102DD00080818064808381E090E0DF91CF910895CD
:102DE0001F9310925F0710925E0728EE33E040E0D9
:102DF00050E020936007309361074093620750933F
:102E0000630765E572E070935D0760935C078CE390
:102E100095E0909369078093680780E895E0909328
:102E20006B0780936A0785EC90E090936D07809321
:102E30006C0784EC90E090936F0780936E0780ECB2
:102E400090E0909371078093700781EC90E09093ED
:102E500073078093720782EC90E0909375078093DC
:102E6000740786EC90E0909377078093760714E0E0
:102E700010937807B3E0B0937907A7E0A0937A079F
:102E8000F5E0F0937B07E1E0E0937C071092810787
:102E90001092800720938207309383074093840722
:102EA0005093850770937F0760937E0784EC95E0CD
:102EB00090938B0780938A0788E096E090938D0724
:102EC00080938C078DEC90E090938F0780938E0712
:102ED0008CEC90E0909391078093900788EC90E0C1
:102EE000909393078093920789EC90E090939507D5
:102EF000809394078AEC90E09093970780939607CD
:102F00008EEC90E0909399078093980710939A071E
:102F1000B0939B07A0939C07F0939D07E0939E07B7
:102F20001092A3071092A2072093A4073093A5073D
:102F30004093A6075093A7077093A1076093A0073B
:102F40008CE496E09093AD078093AC0780E996E01F
:102F50009093AF078093AE0785ED90E09093B10713
:102F60008093B00784ED90E09093B3078093B2070D
:102F700080ED90E09093B5078093B40781ED90E0E9
:102F80009093B7078093B60782ED90E09093B907CE
:102F90008093B80786ED90E09093BB078093BA07C3
:102FA0001093BC07B093BD07A093BE07F093BF0773
:102FB000E093C0071092C5071092C4072093C6077C
:102FC0003093C7074093C8075093C9077093C3074E
:102FD0006093C20784ED96E09093CF078093CE076D
:102FE00088E197E09093D1078093D00785E391E043
:102FF0009093D3078093D20784E391E09093D50711
:103000008093D40780E391E09093D7078093D6070D
:1030100081E391E09093D9078093D80782E391E010
:103020009093DB078093DA0786E391E09093DD07C6
:103030008093DC071093DE07B093DF07A093E007CF
:10304000F093E107E093E2071F9108950895CF926E
:10305000DF92EF92FF920F931F93CF93DF937C0148
:103060006B018A01C0E0D0E00FC0D6016D916D0107
:10307000D701ED91FC910190F081E02DC7011995E8
:10308000C80FD91F015010400115110571F7CE016D
:10309000DF91CF911F910F91FF90EF90DF90CF9034
:1030A0000895A1E21A2EAA1BBB1BFD010DC0AA1F89
:1030B000BB1FEE1FFF1FA217B307E407F50720F0A1
:1030C000A21BB30BE40BF50B661F771F881F991F1C
:1030D0001A9469F760957095809590959B01AC0165
:1030E000BD01CF010895EE0FFF1F0590F491E02D73
:0630F0001994F894FFCFD3
:1030F6007C7C7C0001000000008201FEFF00007E57
:1031060001FCFF00007A0100000000261800000004
:1031160000261800000000261800000000A00197F5
:103126000200000000A001261800000000A601C948
:1031360002000000007B094A09CD08D608EB08FC0E
:103146000800000000B0162718461677165716A076
:02315600160061
:00000001FF
