:100000000C9495000C94BD000C94BD000C94BD00A4
:100010000C94BD000C94BD000C94BD000C94BD006C
:100020000C94BD000C94BD000C94BD000C94BD005C
:100030000C94BD000C94BD000C94BD000C94BD004C
:100040000C94EF2C0C94BD000C94712F0C94BF2FCA
:100050000C94BD000C94BD000C94BD000C94BD002C
:100060000C94E2130C94BD00302E31312E706F735E
:10007000743134006F70656E5F64726F7000476139
:100080007564694C61627300302E322E706F737428
:10009000313700687474703A2F2F6769746875621D
:1000A0002E636F6D2F776865656C65722D6D696362
:1000B000726F666C7569646963732F6F70656E2DFE
:1000C00064726F702E6769740000000000240027BE
:1000D000002A0000000000250028002B000000007E
:1000E000002300260029000404040404040404027C
:1000F00002020202020303030303030102040810C5
:100100002040800102040810200102040810200091
:1001100000000700020100000304060000000000C8
:100120000000000026055C122B3111241FBECFEF0A
:10013000D8E0DEBFCDBF13E0A0E0B1E0E2E7F4E637
:1001400002C005900D92AE3FB107D9F717E0AEEFB0
:10015000B3E001C01D92A039B107E1F711E0CAE296
:10016000D1E004C02297FE010E94FC31C432D107C5
:10017000C9F70E94DD110C9437320C940000EF9205
:10018000FF920F93DF93CF93CDB7DEB760970FB693
:10019000F894DEBF0FBECDBFA82F002309F461C0C5
:1001A0007E010894E11CF11C88E0F70111928A9508
:1001B000E9F729833A834B835C836D837E83AF8326
:1001C000988780E2801BE82FFF27E7FDF0954D819F
:1001D0005E816F817885181684F01D861E861F86C5
:1001E000188A882799278E1B9F0B04C076956795E0
:1001F000579547958A95D2F728C0202F332727FD9A
:100200003095DB01CA01022E04C0B695A7959795DB
:1002100087950A94D2F78D879E87AF87B88B04C0E5
:10022000440F551F661F771FEA95D2F789819A817F
:10023000AB81BC8104C0B695A795979587952A9503
:10024000D2F7482B592B6A2B7B2B49875A876B8710
:100250007C8729853A854B855C856D857E85AF8554
:1002600098898A2F60960FB6F894DEBF0FBECDBF77
:10027000CF91DF910F91FF90EF900895EF92FF9251
:100280000F93DF93CF93CDB7DEB760970FB6F89497
:10029000DEBF0FBECDBFA82F002309F461C07E01D1
:1002A0000894E11CF11C88E0F70111928A95E9F7A6
:1002B00029833A834B835C836D837E83AF839887E6
:1002C00080E2801BE82FFF27E7FDF09549815A81E6
:1002D0006B817C81181684F019861A861B861C8611
:1002E000882799278E1B9F0B04C0440F551F661F3C
:1002F000771F8A95D2F728C0202F332727FD309506
:10030000DB01CA01022E04C0880F991FAA1FBB1F60
:100310000A94D2F789879A87AB87BC8704C0769501
:10032000679557954795EA95D2F78D819E81AF8164
:10033000B88504C0880F991FAA1FBB1F2A95D2F742
:10034000482B592B6A2B7B2B4D875E876F87788BC9
:1003500029853A854B855C856D857E85AF85988935
:100360008A2F60960FB6F894DEBF0FBECDBFCF9137
:10037000DF910F91FF90EF900895FB01DC01059054
:100380000D920020E1F70895FC0105900020E9F7A7
:10039000809590958E0F9F1F0895FB01DC0102C090
:1003A00001900D9241505040D8F70895DC0101C0F2
:1003B0006D9341505040E0F70895A0E0B0E0E3EEC7
:1003C000F1E00C940A327C01EB018A01690109C059
:1003D000CE012196F6010995F70181937F01015025
:1003E000104001151105A1F7CDB7DEB7E8E00C9478
:1003F0002632A0E0B0E0EFEFF1E00C940A32EC011D
:100400007B018A01690109C0CE012196F701619142
:100410007F01F60109950150104001151105A1F762
:10042000CDB7DEB7E8E00C9426329C01F999FECFF7
:1004300032BD21BDF89A80B508959C01F999FECF8F
:100440001FBA32BD21BD60BD0FB6F894FA9AF99A71
:100450000FBE089504970E943202089502970E94E9
:1004600032020895AC0140575E4F20E830E0B901F8
:10047000CA010895BC01E0918905F0918A050280C6
:10048000F381E02D89E895E009950895DC01ED916F
:10049000FC910280F381E02D41E050E00995089540
:1004A000DC0157968D919C915897892B19F480E027
:1004B00090E00AC059968D919C915A97892B11F022
:1004C0008FEF089581E090E0FC01EE0FFF1FEA0F2F
:1004D000FB1F708F678B0895DC0157968D919C915F
:1004E0005897892B19F480E090E013C059968D91AC
:1004F0009C915A97892B19F481E090E00AC05B9691
:100500008D919C915C97892B11F08FEF089582E07B
:1005100090E0FC01EE0FFF1FEA0FFB1F708F678B4F
:1005200008952F923F925F926F927F928F929F9247
:10053000AF92BF92CF92DF92EF92FF920F931F93F1
:10054000CF93DF937C018B01742E42E0842E912C9B
:10055000880E991E562E612EEC01DD24CC2434E049
:10056000A32EB12CA80EB91E772069F1AF89B88DE2
:10057000109749F18D919C911197F7014689FC01E3
:1005800024803580CD01B40150E0252D362DF101B8
:1005900009958823C1F0AF89B88D8D919C911197F1
:1005A000F801608571854489558922813381F9017B
:1005B0002481FC01C280D380CD0130E0F601099591
:1005C000D82ECC24C3942296CA15DB0569F6CC201C
:1005D00069F4D8011296ED91FC91139781818F7087
:1005E000873021F0472D711041E0D42E8D2DDF9101
:1005F000CF911F910F91FF90EF90DF90CF90BF9020
:10060000AF909F908F907F906F905F903F902F90D2
:100610000895FC01623010F08FEF0895E60FF11D90
:10062000428380E00895CF93DF93EC01DA01243018
:10063000310511F080E00AC0E881F9812D913D91EA
:100640004D915C910680F781E02D0995DF91CF9166
:100650000895DC01F901452B11F020E00AC020E0EB
:100660000280F381E02D12969C918081981709F405
:1006700021E0822F0895DF92EF92FF920F931F9354
:10068000CF93DF93FB01DC011396CD91DC9114979E
:100690002097E1F0E080F18002811381C801B70169
:1006A00020E030E040E050E00E94D431882374F034
:1006B000DD24C801B7012E893F89488D598D0E94DC
:1006C000AC31181624F0DD24D39401C0DD248D2D27
:1006D000DF91CF911F910F91FF90EF90DF900895E0
:1006E000DF92EF92FF920F931F93CF93DF93FB0163
:1006F000DC011396CD91DC9114972097E1F0E08016
:10070000F180028113816B8D7C8D8D8D9E8DA80172
:1007100097010E94AC31181674F0DD24C801B701AE
:1007200028A139A14AA15BA10E94AC31181624F07E
:10073000DD24D39401C0DD248D2DDF91CF911F9155
:100740000F91FF90EF90DF9008952F923F925F926C
:100750006F927F928F929F92AF92BF92CF92DF92D1
:10076000EF92FF920F931F93CF93DF937C018B0146
:10077000742E62E0862E912C880E991E502E612ECA
:10078000EC01DD24CC2456E0A52EB12CA80EB91E18
:10079000772069F1AF89B88D109749F18D919C91BF
:1007A0001197F7014689FC0124803580CD01B40101
:1007B00050E0252D362DF10109958823C1F0AF8930
:1007C000B88D8D919C911197F80160857185448950
:1007D000558922813381F9012481FC01C280D380B3
:1007E000CD0130E0F6010995D82ECC24C394229691
:1007F000CA15DB0569F6CC2069F4D8011296ED9193
:10080000FC91139781818F70873021F0472D7110F3
:1008100041E0D42E8D2DDF91CF911F910F91FF904C
:10082000EF90DF90CF90BF90AF909F908F907F9090
:100830006F905F903F902F900895FC01623010F010
:100840008FEF0895E60FF11D428380E00895CF9366
:10085000DF93EC01DA012430310511F080E00AC0A9
:10086000E881F9812D913D914D915C910680F78150
:10087000E02D0995DF91CF910895DC01F901452B19
:1008800011F020E00AC020E00280F381E02D1296F2
:100890009C918081981709F421E0822F0895FB0133
:1008A000DC0113968D919C911497892B11F420E013
:1008B0000AC020E080819181A281B3810097A105C7
:1008C000B10509F021E0822F0895FB01DC011396A8
:1008D0008D919C911497892B09F484C0608171815A
:1008E000828193816034B8E37B07B0E08B07B0E08E
:1008F0009B0709F475C0613428E3720720E0820782
:1009000020E0920708F039C0603BA4E07A07A0E03D
:100910008A07A0E09A0709F463C0613BB4E07B0753
:10092000B0E08B07B0E09B0780F46C3221E07207E7
:1009300020E0820720E0920709F452C06855724017
:100940008040904009F04EC04BC0603CB2E17B0754
:10095000B0E08B07B0E09B0709F442C0603825E2A5
:10096000720720E0820720E0920709F439C0605640
:10097000794080409040B1F533C06231BAE77B07DF
:10098000B0E08B07B0E09B0759F163312AE77207AB
:1009900020E0820720E0920770F46030ABE47A0731
:1009A000A0E08A07A0E09A07D9F06058704780401D
:1009B0009040C1F415C0603021EE720720E082073C
:1009C00020E0920769F06030A2EC7A07A1E08A0784
:1009D000A0E09A0729F0605076498040904011F4D9
:1009E00081E0089580E00895FB01DC0113968D916C
:1009F0009C911497892BA9F02081318142815381E8
:100A0000DA01C9010897A109B10980379105A1054B
:100A1000B10538F48FE596E0622F0E94071381E05C
:100A2000089580E00895FC01828193810E9433172C
:100A300008950F931F938C01FC01828193810E9482
:100A40003317F80114821F910F9108958F929F928E
:100A5000AF92BF92CF92DF92EF92FF920F931F93CC
:100A60008BEE92E09093FF038093FE0381EF92E080
:100A7000909301048093000487EF92E09093030425
:100A8000809302041092380410923E0410923D04A8
:100A90008DEF92E0909323048093220485E093E00D
:100AA0009093400480933F041092430410924204B8
:100AB00082E08093410481E193E090934504809328
:100AC0004404109248041092470483E08093460443
:100AD0008DE193E090934A048093490410924D0471
:100AE00010924C0481E080934B048FE394E0909348
:100AF0003A048093390484E494E090933C04809316
:100B00003B048091390490913A04892B19F4E0E078
:100B1000F0E011C080913B0490913C04892B19F4C2
:100B2000E1E0F0E008C080913D0490913E04892B03
:100B300051F4E2E0F0E0EE0FFF1FE250FC4F89E4D9
:100B400094E094AF83AF10924F0410924E04109231
:100B500051041092500489E793E0909353048093DA
:100B600052041092740489E293E090935F0480939E
:100B70005E0429E734E081E393E090937A04809364
:100B8000790410927D0410927C0482E080937B04AF
:100B90008DE393E090937F0480937E04109282040F
:100BA0001092810481E08093800430937604209336
:100BB00075042B5F3F4F3093780420937704109295
:100BC000840410928304109286041092850481EBB1
:100BD00093E09093880480938704F9EDEF2EF4E07E
:100BE000FF2E1092DA041092D9041092DB041092B6
:100BF000DD041092DC0488248A94982C9092E304FB
:100C00008092E204E0E5CE2ED12CD092DF04C09297
:100C1000DE0489E894E09093E1048093E004870186
:100C2000055F1F4F1092E4041092E5041092F10446
:100C30001092F0041092F3041092F2041092F70450
:100C40001092F6041092050510920405F092F90432
:100C5000E092F804C8010E94331771E5A72E73E0F3
:100C6000B72EB0920705A0920605109309050093D0
:100C70000805C8010E94331789E493E090930705A3
:100C8000809306058AE697E090930B0580930A050A
:100C900010925D0510925C0510925E051092600541
:100CA00010925F059092660580926505D09262056C
:100CB000C092610583E390E0E80EF91EF0926405AE
:100CC000E092630507E615E010926705109268054B
:100CD00010927405109273051092760510927505A6
:100CE00010927A0510927905109288051092870566
:100CF0008CE595E090937C0580937B05C8010E946C
:100D00003317B0928A05A092890510938C05009341
:100D10008B05C8010E94331789E593E090938A05FB
:100D20008093890510928D0589E895E00E94190548
:100D300089ED92E09093FF038093FE0306969093D3
:100D400001048093000406969093030480930204A8
:100D50008EEF93E090931406809313061F910F91EA
:100D6000FF90EF90DF90CF90BF90AF909F908F90CB
:100D70000895AF92BF92CF92DF92EF92FF920F93BE
:100D80001F93DF93CF930F92CDB7DEB76C017B013A
:100D900000E010E05E010894A11CB11C0DC08AE6C1
:100DA00097E00E94B2308983F60182819381B50178
:100DB0000E9452170F5F1F4F0E151F0584F30F90EF
:100DC000CF91DF911F910F91FF90EF90DF90CF9027
:100DD000BF90AF9008958F929F92BF92CF92DF9273
:100DE000EF92FF920F931F93DF93CF930F92CDB7A4
:100DF000DEB77C016B018FE596E00E94FF11B82EF3
:100E00000894C108D108F7018481882309F4B482C9
:100E100000E010E04E010894811C911C10C08FE589
:100E200096E00E94FF118983F7018481B81629F4A6
:100E300082819381B4010E9452170F5F1F4F0C15DE
:100E40001D056CF30F90CF91DF911F910F91FF90D3
:100E5000EF90DF90CF90BF909F908F900895EF928A
:100E6000FF920F931F938C01F62EE72ECB01B80152
:100E70000E94BD01C8010E94C401BC018F2D9E2D9E
:100E80001F910F91FF90EF9008950F931F93CF93B1
:100E9000DF93EC011A86198600E010E00CC0EF81A8
:100EA000F885E00FF11FC90160810E9418179A8729
:100EB00089870F5F1F4F8B819C8129853A85081791
:100EC000190768F3C9010E94321789879A87DF9151
:100ED000CF911F910F910895CF92DF92EF92FF92E1
:100EE0000F931F93DF93CF93CDB7DEB763970FB602
:100EF000F894DEBF0FBECDBF6C012B8B1986188610
:100F00008FEF9FEF9A8B898B2A875E874D87788B2F
:100F10006F875C874B87B8E0EB2EF12CEC0EFD1E43
:100F2000C7010E9445078091000190910101A091A5
:100F30000201B09103018C839D83AE83BF838091B6
:100F4000BA00869589838FE596E0F60160810E945C
:100F5000EC118FE596E08E010F5F1F4FB8010E94E4
:100F600046028FE596E0BE016C5F7F4F43E050E0A4
:100F70000E9473128FE596E0BE01675F7F4F41E0EC
:100F800050E00E9473128FE596E0B70141E050E017
:100F90000E9473128FE596E0BE016D5E7F4F0E9446
:100FA00046028B859C859B838A838FE596E0BE01F4
:100FB0006D5F7F4F41E050E00E9473128FE596E035
:100FC000BE016E5F7F4F41E050E00E9473128FE5DB
:100FD00096E00E94E712F02EE12E29C08A014032ED
:100FE000510510F00FE110E08FE596E0F601608109
:100FF0000E94EC118FE596E06F2D7E2D0E94460237
:101000006F8578898FE596E0A8010E9473128FE5BD
:1010100096E00E94E7128F859889800F911F988B28
:101020008F878B859C85801B910B9C878B874B853D
:101030005C854115510591F68FE596E0F6016081DA
:101040000E94EC118FE596E0BE016F5F7F4F0E941A
:1010500046028FE596E0BE016E5E7F4F41E050E0B4
:101060000E9473128FE596E0BE016F5E7F4F41E0F4
:1010700050E00E9473128FE596E00E94E71263969B
:101080000FB6F894DEBF0FBECDBFCF91DF911F9199
:101090000F91FF90EF90DF90CF9008958F929F92E5
:1010A000AF92BF92CF92DF92EF92FF920F93DF93B6
:1010B000CF93CDB7DEB760970FB6F894DEBF0FBE03
:1010C000CDBF6B017C014A015901C701B6010E94E5
:1010D000591C29873A874B875C876D877E878F8766
:1010E000988BDE011196FE01399688E001900D92F1
:1010F0008150E1F7CE010196F401608171810023F6
:1011000021F0A5010E94172603C0A5010E9480249A
:1011100060960FB6F894DEBF0FBECDBFCF91DF91C2
:101120000F91FF90EF90DF90CF90BF90AF909F9086
:101130008F9008958F929F92AF92BF92CF92DF923D
:10114000EF92FF920F93DF93CF93CDB7DEB7609707
:101150000FB6F894DEBF0FBECDBF6B017C014A0114
:101160005901C701B6010E94591C29873A874B874C
:101170005C876D877E878F87988BDE011196FE01D5
:10118000399688E001900D928150E1F7CE010196E9
:10119000F40160817181002321F0A5010E941726CE
:1011A00003C0A5010E94802460960FB6F894DEBFAC
:1011B0000FBECDBFCF91DF910F91FF90EF90DF90E9
:1011C000CF90BF90AF909F908F9008958F929F92F5
:1011D000AF92BF92CF92DF92EF92FF920F931F9345
:1011E000DF93CF93CDB7DEB768970FB6F894DEBF25
:1011F0000FBECDBF7C018B0169014E010894811C9B
:10120000911CC4010E94B71A882309F4B0C08DE074
:10121000A82EB12CAC0EBD1EC501B801A6010E94BE
:10122000B71A882309F4A3C0EB81FC818181282FA0
:1012300030E0807C09F090C08901007310700031AB
:10124000110531F4EB85FC858081882341F00BC0CA
:101250000032110521F4EB85FC85D08006C0DD2429
:101260000115110511F4DD24D394D701ED91FC9102
:101270000190F081E02DC701B4014D2D099588231F
:10128000B1F0EB81FC81448169857A858D899E89E5
:1012900050E00E94CD010031110519F00032110516
:1012A00031F4EF89F88DAB85BC858C918083DD208E
:1012B00009F452C02B813C81F90181818F70873004
:1012C00009F04AC0AF89B88DEB85FC8580818C938D
:1012D000D7015696EC915697F0E03196EE0FFF1F2E
:1012E000EE0FFF1FEE0DFF1D318320835696EC910C
:1012F0005697F0E0EE0FFF1FEE0FFF1FEE0DFF1DE4
:1013000089819A819383828356968C9156978F5FB9
:1013100056968C9300E010E0CD2CDD2416C0EB81B6
:10132000FC818481809F802D112490E066817781EB
:1013300049855A85480F591F2D893E89280F391F25
:10134000C7010E94E6080F5F1F4F0C151D053CF3F7
:10135000F70186898150868BC4010E94D61A8823A2
:1013600031F0C5010E94D61A882309F05DCF689636
:101370000FB6F894DEBF0FBECDBFCF91DF911F91A6
:101380000F91FF90EF90DF90CF90BF90AF909F9024
:101390008F900895CF92DF92EF92FF920F931F9359
:1013A000DF93CF93CDB7DEB72A970FB6F894DEBFA1
:1013B0000FBECDBF8C01045B1F4FF801C080D180F0
:1013C000529142918F017E010894E11CF11CC701EA
:1013D000B6010E94AB260C5F1F4FF801608171813E
:1013E0000E541040C701A8010E94B92B882329F48C
:1013F000CC24DD2480E090E002C08F819885BC0180
:10140000C6012A960FB6F894DEBF0FBECDBFCF91AE
:10141000DF911F910F91FF90EF90DF90CF90089593
:101420004F925F926F927F928F929F92AF92BF92F4
:10143000CF92DF92EF92FF920F931F93DF93CF93A0
:10144000CDB7DEB7C657D0400FB6F894DEBF0FBE9B
:10145000CDBFDC01380149015B012401FB01808122
:10146000853609F445C2863608F05EC08C3009F432
:1014700061C18D3058F5853009F40BC1863098F480
:10148000823009F4D4C0833038F4882309F4B3C01F
:10149000813009F0AAC0BDC0833009F4D6C08430C1
:1014A00009F0A3C0E0C0883009F413C1893038F4D2
:1014B000863009F4F7C0873009F097C0FFC08A3042
:1014C00009F429C18B3008F030C110C1803409F40F
:1014D00093C18134B0F48F3009F445C1803138F4C0
:1014E0008D3009F42DC18E3009F07FC032C18131B9
:1014F00009F466C1813108F447C1803209F075C032
:1015000070C1813609F4ADC1823638F4813409F4F2
:1015100089C1823409F069C09FC1833609F4B1C121
:10152000843608F0E0C1A3C1853A09F4BDC3863A08
:1015300078F5813809F445C28238B0F4883609F468
:1015400019C2893638F4863609F4DAC1873609F0CB
:101550004CC0E1C18A3609F42EC28A3608F425C28D
:10156000803809F042C03DC1813A09F41CC3823A77
:1015700030F4823809F46BC2803AB9F56FC2833A0D
:1015800009F458C3CD90DC90843A08F059C32FC3B6
:10159000813E09F4DAC4823EA0F4803C09F437C4E9
:1015A000813C30F4863A09F48FC3873AF1F417C4CA
:1015B000823C09F479C4823C08F44DC4803EA9F40D
:1015C000B6C4843E09F4D7C4853E30F4823E09F4A3
:1015D000C1C4833E51F4C5C4863E09F4F8C4863EB6
:1015E00008F4EFC4873E09F41AC5AA24BB24EE24EC
:1015F000EA94FE2C38C5ED91FC91A081B1812D912A
:101600003C91CF01F9010995AB01BC0188E690E05E
:1016100037C0ED91FC91A081B1812D913C91CF011A
:10162000F9010995AB01BC0184E790E029C0ED9177
:10163000FC91A081B1812D913C91CF01F9010995D7
:10164000AB01BC018EE790E01BC0ED91FC91A08145
:10165000B1812D913C91CF01F9010995AB01BC01FC
:1016600088E890E00DC0ED91FC91A081B1812D91B1
:101670003C91CF01F9010995AB01BC0183E990E0F0
:101680000E942F07282F392FC9015C01262F372FE1
:1016900026C50E94452DD4016D937D938D939C9317
:1016A000139707C00E94372DF401608371838283F2
:1016B0009383540184E0E82EF12CD5C4DB0111960C
:1016C0008D919C911297009709F4CAC40E94C42D71
:1016D000C7C4FB01418152814115510509F4C0C4C1
:1016E000BA0180E090E00E946B2D1DC080918C07B4
:1016F00090918D07009729F42DB73EB720593740B8
:1017000004C02DB73EB7281B390BC901AA2797FD86
:10171000A095BA2F6AC0DB0111968C911197129691
:101720006C910E948B2E54019CC4FB0181810E940C
:101730001E2FC7C2FB01818162810E94CA2EF3CF96
:10174000DB0111968C910E94092EF4019183808314
:1017500019C0DB0112966C91129711968C9170E072
:101760000E942B2E7DC4FB013196828193818E0FC6
:101770009F1F93838283DB0111968C919181F401E9
:1017800080839183540179C0AB014F5F5F4FDA01D1
:1017900012962D913C911397240F351F13963C936D
:1017A0002E931297FB018181FA019181A22FB381BF
:1017B0009C01220F331F220F331F5D01790153C497
:1017C000FB013196828193818E0F9F1F93838283C9
:1017D00071815381D50111966C91482F952F842FDB
:1017E000B1C389E490E0A0E0B0E0F201808391838E
:1017F000A283B38352015ECFFB0131966481758170
:101800006E0F7F1F75836483F89442815381D501E5
:1018100011968D919C9112972DE132E00E94F90171
:1018200078941EC40D90BC91A02DFB010181128102
:10183000E380F4801296ED91FC9113970190F08172
:10184000E02DCD01029609955C01B801A70125E1C3
:1018500032E00E94DD0107C48FEF93E0A0E0B0E02A
:10186000C4CF8091BA008695D4018C9347C080E2A2
:1018700090E0F40191838083520112E0E12EF12C7B
:10188000F2C30D90BC91A02D1496ED91FC9115978B
:101890000190F081E02DCD01049609955C016B016A
:1018A000EE24FF2418E0EC14FD0408F0DCC38FE5FF
:1018B00096E0612F0E94EC118FE596E00E94E712FE
:1018C000882369F4F501EE0DFF1D10830894E11CD7
:1018D000F11C61E070E080E090E00E946B2D1F5FE2
:1018E000183709F7C0C38FE596E00E94F6116BC365
:1018F0008FE596E00E94FF11F201808354018BC3B3
:101900008FE596E0DB0111966C91119712964C9140
:101910000E94F812F1CF0D90BC91A02DFB01D18057
:10192000C2801496ED91FC9115970190F081E02D05
:10193000CD01049609957B018C0158018FE596E055
:101940006D2D4C2D0E94F812780110E00AC08FE531
:1019500096E00E94FF111C1550F4D7018D937D0174
:101960001F5F8FE596E00E94F611892B81F7E12E2B
:10197000FF2479C3FB013196038114810E0F1F1FD1
:1019800014830383E180F2808FE596E0FB0161819F
:101990000E94EC118FE596E0B801A7010E94731236
:1019A0008FE596E00E94E712BECE8091BA0081607A
:1019B0008093BA0055C38091BA008E7F8093BA009D
:1019C000B2CEFB013196038114810E0F1F1F1483C9
:1019D00003838D909C90DB011196FC90E180D28076
:1019E000C480BBE8AB2EB1E0BB2EA80CB91CC5016E
:1019F0000E941905F401E157FE4FF082CF014E2DF0
:101A00005D2D602F7C2D24E60E946C070E94372DEF
:101A10007B018C01ADE8CA2EA1E0DA2EC80CD91CDE
:101A20000E94372D6E197F09800B910B6858734106
:101A30008040904008F035C3D601ED91FC9181893A
:101A4000882309F42AC3C5010E941905E9CF8D91A5
:101A50009C9185579E4F0E94190565CECD90DC90D4
:101A6000F6E08F2E912C8C0C9D1CF601E05BFF4F55
:101A7000E38000811181F280CE01019660E070E088
:101A800042E050E025E132E00E94DD0149815A81C7
:101A90000417150728F420E030E0A0E0B0E00DC006
:101AA0008F2D9E2D62E070E025E132E00E94DD0185
:101AB000A981BA818F2D9E2D9C012115310561F0E0
:101AC000A6014C5A5F4FBD01822F932F940100E075
:101AD0000E944E08882329F5E4E5F0E0CE0EDF1ED3
:101AE000D6018D919C91ECEAFFEFCE0EDF1E9C8318
:101AF0008B83EDE1EE2EF12CEC0EFD1E60E070E02C
:101B000080E090E0AE014D5F5F4F970101E00E94E1
:101B10004E08D6011696F7018EE101900D92815084
:101B2000E1F7F601EE5AFF4F1081B18024E530E075
:101B3000C20ED31ED6018D919C91ECEAFFEFCE0E22
:101B4000DF1E9C838B837BE3E72EF12CEC0EFD1EC6
:101B500060E070E080E090E0AE014D5F5F4F970184
:101B600001E00E944E08212F3B2DC901DC01F70145
:101B70008EE101900D928150E1F724E530E0C20E34
:101B8000D31ED6016D917C91ECEAFFEFCE0EDF1EE5
:101B9000D601DA961C92C6018496A401212F3B2D12
:101BA0000E94E6085DC28D919C9106960E94CA092A
:101BB000009709F455C26D837E838F839887F894CC
:101BC00080E090E0BE016B5F7F4F42E050E02DE18E
:101BD00032E00E94F9016F8178854D815E8182E05B
:101BE00090E02DE132E00E94F901789439C2E4E5F9
:101BF000F0E0CE0EDF1ED6018D919C919C838B83ED
:101C000069E5E62EF12CEC0EFD1E60E070E080E050
:101C100090E0AE014D5F5F4F970101E00E944E08DA
:101C2000D601AE54B040F7018EE101900D92815083
:101C3000E1F716C28D919C9106960E94CA0922CDA9
:101C4000FB013196828193818E0F9F1F9383828344
:101C5000DB0111966C91718122E530E0C20ED31E3A
:101C6000D601AD90BC902EEA3FEFC20ED31E54E5D4
:101C7000E52EF12CEC0CFD1C9381A701950101E0F0
:101C80000E944E08182F882309F44EC1D7016D9188
:101C90007C91F60112AEC6018496A50126E030E0E3
:101CA000C20ED31E96013EC1F4011082FB01818158
:101CB0009281A381B4810097A105B10509F4AAC15D
:101CC00081E0D2018C93A6C1FB0121813281438145
:101CD00054812034F8E33F07F0E04F07F0E05F075E
:101CE00009F46BC1213488E3380780E0480780E0BD
:101CF000580708F03AC0203B94E0390790E04907C4
:101D000090E0590709F459C1213BA4E03A07A0E04B
:101D10004A07A0E05A0780F42C32B1E03B07B0E05C
:101D20004B07B0E05B0709F448C1285532404040FA
:101D3000504009F031C141C1203CF2E13F07F0E0E1
:101D40004F07F0E05F0709F438C1203885E2380713
:101D500080E0480780E0580709F42FC12056394039
:101D60004040504009F018C128C12231AAE73A0783
:101D7000A0E04A07A0E05A0709F41FC12331BAE7DF
:101D80003B07B0E04B07B0E05B0780F42030EBE4AA
:101D90003E07E0E04E07E0E05E0709F40EC1205880
:101DA00030474040504009F0F7C007C1203081EE75
:101DB000380780E0480780E0580709F4FEC020306B
:101DC00092EC390791E0490790E0590709F4F5C012
:101DD000205036494040504009F0DEC0EEC0DB01E3
:101DE00011962D913D914D915C911497DA01C901A5
:101DF0000897A109B10980379105A105B10508F03F
:101E0000CBC08FE596E0622F0E940713D6C0ED90FD
:101E1000FC9029E830E0E20EF31ED7018D919C91F1
:101E20009C838B8349E0C42ED12CCC0EDD1E60E058
:101E300070E080E090E0AE014D5F5F4F960101E001
:101E40000E949A08D701D397F6018AE001900D927B
:101E50008150E1F705C10D911C9109571F4FF80101
:101E6000A080B18033E1E32EF12CEC0EFD1ED801F1
:101E70005E914E918D01C701B5010E94AB260C5FAA
:101E80001F4FF8016081718103531040C701A80101
:101E90000E94B92B882329F4AA24BB2420E030E037
:101EA0001EC1298D3A8D1BC1FB0131968281938120
:101EB0008E0F9F1F93838283ED90FC90DB01119620
:101EC0006C91718127E830E0E20EF31ED701CD90CE
:101ED000DC9029E73FEFE20EF31EA70147575F4F63
:101EE0009381960101E00E949A08182F8823E1F05F
:101EF00089E890E0E80EF91ED7016D917C91EDEE36
:101F0000FFEFEE0EFF1ED7011C92EAE8FFEFEE0E88
:101F1000FF1EC701805A9F4FA60126E530E0E20E62
:101F2000F31E97010E94E608D2011C9373C00D9026
:101F3000BC91A02DED91FC9111970190F081E02DC5
:101F4000CD0109955C01262FA2CB8D919C910E9419
:101F5000CB15E9CB8D919C91FB0161810E94991574
:101F6000E2CBAD90BC9020E132E0A20EB31E25E0A2
:101F7000E22EF12C78C0FB013196E280F380EE0E68
:101F8000FF1EF382E2820D911C91DB0111968D916F
:101F90009C911297059711F080E010C0D801A05FC6
:101FA000BD4F20E030E0F701E20FF31F80818D93F9
:101FB0002F5F3F4F25303105B1F781E0F20180837B
:101FC00029C088E290E0D2018D939C9355CC8D90EE
:101FD0009C90FB01E580F68007811085C801B70160
:101FE00020E030E040E050E00E94D43187FD2BC07B
:101FF000DD24C801B701D40156962D913D914D9134
:102000005C9159970E94AC31181614F0DD24D394DA
:10201000F201D082520191E0E92EF12C24C08D9082
:102020009C90DB011196ED90FD900D911C91149701
:10203000F401638D748D858D968DA80197010E94A2
:10204000AC31181614F4DD24E3CFDD24C801B70148
:10205000D40190962D913D914D915C919397D2CF63
:102060005201EE24FF24B701C501CA58DF4F0FB655
:10207000F894DEBF0FBECDBFCF91DF911F910F91BE
:10208000FF90EF90DF90CF90BF90AF909F908F9098
:102090007F906F905F904F9008958089882309F416
:1020A000BFCC25E631E0820E931ED4018C911196AF
:1020B0009C91ECEFFFEF8E0E9F1ED4014C91119678
:1020C0005C917C019A0189012834310510F007E404
:1020D00010E0C5010E9419055701202F312F790109
:1020E000C2CFEF92FF920F931F93DF93CF93CDB7A1
:1020F000DEB762970FB6F894DEBF0FBECDBFE0919A
:102100000805F09109058189882309F422C1CF01CE
:10211000E5C02091DC043091DD048091DB0484363D
:10212000C1F421153105A9F08091E0049091E104FA
:10213000BC01A9019C010091DE041091DF0483E140
:1021400096E00E94100AAC01892B39F460E070E03F
:1021500004C060E070E040E050E024E629838FEFA7
:102160009FEF9A8B898B198618862A877E876D87C1
:10217000588B4F877C876B8798E0E92EF12CEC0E0B
:10218000FD1EC7010E944507809100019091010149
:10219000A0910201B09103018C839D83AE83BF8324
:1021A000E0910A05F0910B05A081B18112962D9165
:1021B0003C911397CF01BE016C5F7F4F43E050E02D
:1021C000F901099500910A0510910B05D801ED91CF
:1021D000FC910280F381E02DC801BE01675F7F4F53
:1021E00041E050E00995D801ED91FC910280F38126
:1021F000E02DC801B70141E050E00995E0910A05E2
:10220000F0910B05A081B18112962D913C9113970D
:10221000CF01BE016F5F7F4F41E050E0F9010995AA
:102220008A85843619F0833709F054C000910A0575
:1022300010910B058B859C859B838A83D801ED913A
:10224000FC910280F381E02DC801BE016D5F7F4FDC
:1022500041E050E00995D801ED91FC910280F381B5
:10226000E02DC801BE016E5F7F4F41E050E009954F
:102270004B855C854115510579F0E0910A05F09197
:102280000B05A081B1816F85788912962D913C91C3
:102290001397CF01F901099500910A0510910B05DB
:1022A000D801ED91FC910280F381E02DC801BE01BF
:1022B0006E5E7F4F41E050E00995D801ED91FC91B1
:1022C0000280F381E02DC801BE016F5E7F4F41E0C7
:1022D00050E0099580910805909109050E943317F7
:1022E000E0918B05F0918C0581898823B9F12CC090
:1022F00020915F053091600580915E058436C9F4B8
:1023000021153105B1F08091630590916405BC0100
:10231000A9019C01009161051091620583E196E09D
:102320000E94100AFC019B01892B39F420E030E067
:1023300004C020E030E0E0E0F0E0BF01A9018DE85A
:1023400095E024E60E946C0789E895E00E94190553
:1023500008C08089882309F0DCCEC2CF8089882319
:1023600039F662960FB6F894DEBF0FBECDBFCF919F
:10237000DF911F910F91FF90EF9008958EEF93E002
:102380000E94CB158FE596E06AE372E00E94571237
:1023900008950F931F93E0910605F09107050281C0
:1023A00013818AE697E00E948130BC0186E095E0C7
:1023B000F80109951F910F910895CF93DF930E9423
:1023C000CE2D0E94BE11CCEADFE20E947110209750
:1023D000E1F30E94AC2FF9CF81E080935A0660931D
:1023E0003706109258061092590608952091360625
:1023F00030E080913506281B3109C90108954091CC
:10240000350680913606481718F02FEF3FEF0AC0C7
:10241000E42FF0E0EB5EF94F8081282F30E04F5F32
:1024200040933506C9010895E0913506809136063E
:10243000E81718F0EFEFFFEF06C0F0E0EB5EF94FA2
:102440008081E82FF0E0CF0108950895AC0120913C
:102450005D0630915E0621153105E1F0909135065B
:10246000809136069817B0F090E008C0FA01EA0FA4
:10247000FB1F8081AB5EB94F8C939F5FA92FB0E0AB
:10248000A617B7079CF31092350660933606CB016A
:10249000F90109950895E0915B06F0915C0630978B
:1024A00029F01092580610925906099508957093D4
:1024B0005E0660935D0608951092620610926106B2
:1024C00088EE93E0A0E0B0E080936306909364060A
:1024D000A0936506B093660681E693E0909360064C
:1024E00080935F060895CF92DF92EF92FF920F9351
:1024F0001F93CF93DF937C016B018A0180915A0671
:102500008823A1F0C0E0D0E00DC0D701ED91FC918F
:10251000D601AC0FBD1F0190F081E02DC7016C9179
:1025200009952196C017D10780F304C0CB01642F11
:102530000E94BD13C801DF91CF911F910F91FF90B1
:10254000EF90DF90CF900895DF93CF930F92CDB7A8
:10255000DEB7FC01698380915A068823C9F0809117
:102560005906803238F081E090E09383828320E046
:1025700030E015C080915806E82FF0E0E85CF94F94
:10258000998190838F5F809358068093590605C088
:10259000CE01019661E00E94BD1321E030E0C90147
:1025A0000F90CF91DF9108950F93062F80913706FA
:1025B00068E376E04091590621E00E94681310928A
:1025C00058061092590610925A060F91089561E02C
:1025D0000E94D4120895413208F040E2862F65E14E
:1025E00076E00E941F1310923506809336060895F8
:1025F00021E00E94EB1208951092350610923606E3
:1026000010925806109259060E94731508950F9360
:102610001F938C01862F0E941B138BE492E10E9472
:10262000DD1386E292E10E94D813C8010E94FC12D9
:102630001F910F910895880F8093BA000895382F45
:10264000413210F040E042C080916B068823E1F7F0
:1026500091E090936B0620936D068FEF8093D806E0
:10266000109293064150409394064F5F90936C06EE
:1026700080916C06330F832B80936C0680916E06DD
:10268000813041F410926E0680916C068093BB00FD
:1026900085EC01C085EE8093BC0080916B06813093
:1026A000E1F380919306841710F44091930620E0A3
:1026B00030E00AC0FB01E20FF31FD901AD58B94F5A
:1026C0008C9180832F5F3F4F2417A0F3842F0895B0
:1026D0000F931F93582F122F413210F081E04AC000
:1026E00080916B068823E1F782E080936B0600936C
:1026F0006D068FEF8093D806109293064093940650
:10270000A3E7B6E0FB0102C081918D938E2F861B5B
:102710008417D0F310926C0680916C06550F852BB0
:1027200080936C0680916E06813041F410926E06A3
:1027300080916C068093BB0085EC01C085EE809390
:10274000BC00112321F080916B068230E1F380916F
:10275000D8068F3F11F480E00DC08091D8068032FA
:1027600011F482E007C08091D806803311F084E034
:1027700001C083E01F910F910895482F613210F03E
:1027800081E0089580916B06843011F082E0089515
:102790006093B606A5E9B6E0842F9C01F90102C05A
:1027A00081918D938E2F841B8617D0F380E008953E
:1027B00090937206809371060895909370068093AB
:1027C0006F0608951F920F920FB60F9211242F9348
:1027D0003F934F935F936F937F938F939F93AF93A9
:1027E000BF93EF93FF938091B90090E0887F907042
:1027F0008036910509F4F2C081369105CCF5883216
:10280000910509F47BC089329105B4F480319105BA
:1028100009F46FC0813191053CF4009709F447C178
:10282000089709F04FC165C08831910509F466C069
:10283000809709F047C182C08034910509F4A4C093
:102840008134910544F48033910509F482C0C8971E
:1028500009F038C189C08035910509F489C08835EF
:10286000910509F496C08834910509F02BC1AEC0DA
:102870008839910509F413C189399105ECF4883739
:10288000910509F4ABC0893791054CF48836910560
:1028900009F4A4C08037910509F014C19FC088389D
:1028A000910509F4FCC08039910509F49DC0803878
:1028B000910509F007C198C0803B910509F4C6C095
:1028C000813B91054CF4803A910509F49FC0883A08
:1028D000910509F0F7C0BAC0803C910509F4E3C046
:1028E000883C910509F4DFC0883B910509F0EAC0F6
:1028F000C2C080916C068093BB00CFC090919306BC
:1029000080919406981768F490919306E92FF0E06F
:10291000ED58F94F80818093BB009F5F90939306A1
:10292000BCC080916D06882309F44BC085ED80936F
:10293000BC008091BC0084FDFCCFC2C080E28093CB
:10294000D80685ED8093BC008091BC0084FDFCCF4F
:10295000B7C080E38093D80685ED8093BC0080915A
:10296000BC0084FDFCCFACC088E38093D8069BC03C
:10297000809193069091BB00E82FF0E0ED58F94F5D
:1029800090838F5F80939306909193068091940635
:1029900082C0809193069091BB00E82FF0E0ED5843
:1029A000F94F90838F5F8093930680916D06882303
:1029B00041F085ED8093BC008091BC0084FDFCCF8C
:1029C0007FC081E080936E0684EA6EC085ED8093BF
:1029D000BC008091BC0084FDFCCF72C083E080937A
:1029E0006B061092D70659C08091D706803208F046
:1029F00056C08091D7069091BB00E82FF0E0E954D3
:102A0000F94F90838F5F8093D70647C08091D70698
:102A1000803230F4E091D706F0E0E954F94F1082AB
:102A200085ED8093BC008091BC0084FDFCCF1092AA
:102A30006B066091D706E0917106F091720687EB04
:102A400096E070E009951092D7062DC084E080933F
:102A50006B061092B5061092B606E0916F06F091E3
:102A6000700609958091B606882329F481E0809349
:102A7000B606109295069091B506E92FF0E0EB5658
:102A8000F94F80818093BB009F5F9093B506909132
:102A9000B5068091B606981710F485EC01C085E85C
:102AA0008093BC000FC085EC8093BC0009C01092DD
:102AB000D80685ED8093BC008091BC0084FDFCCFDE
:102AC00010926B06FF91EF91BF91AF919F918F9103
:102AD0007F916F915F914F913F912F910F900FBE1A
:102AE0000F901F90189510926B0681E080936D06F1
:102AF00010926E0682E161E00E94CA2E83E161E0DD
:102B00000E94CA2EE9EBF0E080818E7F8083808175
:102B10008D7F808388E48093B80085E48093BC0037
:102B200008959C01F999FECF32BD21BDF89A80B578
:102B300008950F931F93DF93CF9300D000D0CDB7AC
:102B4000DEB78C0170E080E090E069837A838B834C
:102B50009C83F8012189328943895489E0911703C4
:102B6000F0911803C8018A5B9F4FBE016F5F7F4FD2
:102B7000099589819A81AB81BC81F801818B928B07
:102B8000A38BB48B0F900F900F900F90CF91DF918C
:102B90001F910F9108958F929F92BF92CF92DF92D3
:102BA000EF92FF920F931F93DF93CF93CDB7DEB7D2
:102BB000CE55D0400FB6F894DEBF0FBECDBF6C012E
:102BC000DC01ED91FC910190F081E02D0995F60179
:102BD000E05BFF4F6083718382839383F601EC5B3C
:102BE000FF4FD182C082F601E75BFF4FD182C082E6
:102BF000F601E25BFF4FD182C082E4E5F0E0CE0E49
:102C0000DF1ED6018D919C91ECEAFFEFCE0EDF1E08
:102C10009C838B8365E0E62EF12CEC0EFD1E60E0BC
:102C200070E080E090E0AE014D5F5F4F970101E002
:102C30000E944E08D6011696F7018EE101900D9282
:102C40008150E1F756E0852E912C8C0C9D1CF601ED
:102C5000E05BFF4FF380E28000811181CE0101969D
:102C600060E070E042E050E021E935E10E94DD01E2
:102C700049815A810417150728F4A0E0B0E020E04C
:102C800030E00BC0C70162E070E021E935E10E944D
:102C9000DD01A981BA81C7019C012115310561F0CF
:102CA000A6014C5A5F4FBD01822F932F940100E083
:102CB0000E944E08882329F524E530E0C20ED31E79
:102CC000D6018D919C91ECEAFFEFCE0EDF1E9C8326
:102CD0008B8343E2E42EF12CEC0EFD1E60E070E0ED
:102CE00080E090E0AE014D5F5F4F970101E00E94F0
:102CF0004E08D6011696F7018EE101900D92815093
:102D0000E1F7F601EE5AFF4F1081B18024E530E083
:102D1000C20ED31ED6018D919C91ECEAFFEFCE0E30
:102D2000DF1E9C838B8331E4E32EF12CEC0EFD1E21
:102D300060E070E080E090E0AE014D5F5F4F970192
:102D400001E00E944E08212F3B2DC901DC01F70153
:102D50008EE101900D928150E1F724E530E0C20E42
:102D6000D31ED6016D917C91ECEAFFEFCE0EDF1EF3
:102D7000D601DA961C92C6018496A401212F3B2D20
:102D80000E94E608D601ED91FC910190F081E02DC2
:102D9000C6010995F601EB57FF4F6083718382836B
:102DA0009383F601E258FF4FD182C082F601ED57BE
:102DB000FF4FD182C082E7E5F0E0CE0EDF1E80E05B
:102DC00090E0A0E0B0E0F60180839183A283B3831A
:102DD00029EA3FEFC20ED31EF601838D948DA58D97
:102DE000B68D2CE530E0C20ED31EF60180839183B0
:102DF000A283B3838AE697E040E052EC61E070E0A2
:102E00000E94FA2F8CE08093B800C25ADF4F0FB6B1
:102E1000F894DEBF0FBECDBFCF91DF911F910F9110
:102E2000FF90EF90DF90CF90BF909F908F9008958C
:102E30009C012627822F82958227082E86958695CB
:102E40008025082E869580258770022E232F869553
:102E500007948795302D28270694879530252827B5
:102E6000C90108950895FC01A489B58912961C92A0
:102E7000129714961C921E9213978FEF9FEF1A963B
:102E80009C938E931997138A128A108A118A178637
:102E9000168611A210A28CE090E093838283178E95
:102EA000168E0895AF92BF92CF92DF92EF92FF926B
:102EB0000F931F93DF93CF930F92CDB7DEB78C01A3
:102EC0006115710581F4CE010196D80115969C9388
:102ED0008E93149717969C938E93169719969C939E
:102EE0008E93189707C0FC01758364836F5F7F4FD3
:102EF00077836683D80114962D913C911597169689
:102F00008D919C9117972817390709F04BC0E8C29B
:102F100088309105DCF48330910509F41CC18430BC
:102F2000910564F48130910509F4E5C08230910582
:102F30000CF0FBC0892B09F4DAC022C08530910562
:102F400009F446C106970CF06AC122C18B30910585
:102F500009F41DC28C30910544F48930910509F4BF
:102F6000F1C10A970CF007C2BAC18D30910509F47E
:102F700021C28D3091050CF4A6C00E9709F473C2DE
:102F8000D80114968D919C911597019615969C9356
:102F90008E93149716962D913C911797821793074D
:102FA00009F49EC2F801828193818730910509F46A
:102FB00061C188309105BCF48330910509F4D7C014
:102FC0008430910544F48130910509F4A6C002973C
:102FD00009F055C2B6C08530910509F40BC10697BA
:102FE0000CF029C1E7C08B30910509F44EC08C303C
:102FF00091053CF489309105D1F00A970CF0C7C1D6
:103000007AC18D30910509F4E1C18D3091050CF440
:1030100066C00E9709F033C2FAC1D8015496ED91FB
:10302000FC915597828381E050968C934CC0F801B7
:10303000A489B58919968C91199719961C9219979C
:103040001A968C931A9784819581FC012081199698
:103050008D919C911A97820F911D1A969C938E9335
:103060001997F801228933898217930749F481E07F
:10307000808B8685978514969C938E93139723C097
:1030800081E0D80151968C931EC0D8015496ED91E1
:10309000FC9155971C962D913C911D9785819681A9
:1030A0008217930718F481E051968C9381E0F80120
:1030B000808B0488F589E02DD8011C968D919C9118
:1030C0001D9794838383F80184819581019695836C
:1030D0008483268137818217930709F4D0C1D801F0
:1030E0001496ED91FC91159780818C3721F0F801B1
:1030F0001382128230C2D80114968D919C9115973B
:10310000019615969C938E93149716962D913C914B
:1031100017978217930709F4B5C1D8011496ED915A
:10312000FC91159780818C3711F7F8018481958186
:10313000019695838483268137818217930709F44A
:10314000A4C1D8011496ED91FC91159780818C371C
:1031500071F650961C92F8018481958101969583B1
:103160008483268137818217930709F496C1F80179
:10317000A489B58911961C921E9284819581FC01C7
:10318000808190E0DC90CC248C299D298D939C93A8
:10319000D80114968D919C911597019615969C9344
:1031A0008E93149716962D913C911797821793073B
:1031B00009F476C1F801A489B58984819581FC015F
:1031C000808190E0BC90AA248A299B298D939C93AE
:1031D000D80114968D919C911597019615969C9304
:1031E0008E93149716962D913C91179782179307FB
:1031F00009F459C1D8011496ED91FC91159780817D
:10320000843639F08E3609F4B0C0813609F06FCFBC
:1032100004CFD8015496ED91FC9155978283F80123
:1032200084819581019695838483268137818217D5
:10323000930709F43BC1D80191961C921E92909776
:103240001D961C921E921C971496ED91FC91159759
:1032500080811C968C931C971D961C92F80184818A
:103260009581019695838483268137818217930700
:1032700009F41FC1D8011C96FC901C97EE241D96E2
:10328000FC92EE921C971496ED91FC91159780811B
:103290009701280F311D1D963C932E931C97549631
:1032A000ED91FC915597858196818217930718F4CB
:1032B00081E051968C93F801868D978D0B96FC01D9
:1032C000EE0FFF1FE00FF11F28E030E03183208375
:1032D0000A97D8015F969C938E935E976BC0F80116
:1032E0008481958101969583848326813781821715
:1032F000930709F4E1C0D80152968D919C915397A0
:103300000E943217F801938B828BA489B5891A9693
:103310001C921E92199719968C91199719961C92C6
:1033200019971A968C931A9784819581FC012081B4
:1033300019968D919C911A97820F911D1A969C93C4
:103340008E931997D80114968D919C91159701969B
:1033500015969C938E93149716962D913C911797E2
:103360008217930709F063CEAAC0D8015496ED9155
:10337000FC9155978283F80184819581019695830C
:103380008483268137818217930709F49BC0D80173
:1033900014968D919C911597019615969C938E93FA
:1033A000149716962D913C9117978217930709F061
:1033B0006CCE8BC0F80184819581019695838483BE
:1033C000268137818217930709F482C0D8011F969E
:1033D0001C921E921E9753961C921E9252971C96F8
:1033E0008D919C911D971496ED91FC911597892BC9
:1033F00059F431971596FC93EE9314975E96ED91E0
:10340000FC915F97319790C080E090E009C0D801AF
:103410001496ED91FC91159752968D919C9153972E
:1034200060810E941817F801938B828B268537855F
:103430000488F589E02D0780F085E02DE20FF31F69
:10344000D80114968D919C911597DC018C91808305
:103450002F5F3F4FF801378726878485958528178A
:10346000390709F45CC0F801848195810196958340
:103470008483268137818217930749F62CC08CE01C
:1034800090E005C081E090E028C082E090E0D801A3
:1034900013969C938E93129723C083E090E01DC0F7
:1034A00084E090E0F4CF85E090E017C086E090E003
:1034B000EECF87E090E011C088E090E0E8CF89E0AF
:1034C00090E00BC08AE090E0E2CF8BE090E005C096
:1034D0008DE090E0DCCF8EE090E0F8019383828372
:1034E000D80114962D913C91159718968D919C9129
:1034F00019972817390779F512968D919C91139792
:103500000D9749F5F80117861686138A128A848565
:103510009585892B01F52150304035832483068C15
:10352000F78DE02D3197D8015F96FC93EE935E976F
:103530003B96EE0FFF1FE00FF11F808191811396E4
:103540009C938E931297F801828193818730910525
:1035500009F0DECC83CE0F90CF91DF911F910F91B8
:10356000FF90EF90DF90CF90BF90AF900895FC0157
:10357000DB017183608373836283158214825783B6
:10358000468312968C911297480F511D51874087A0
:1035900013968C911397992787FD9095480F591F83
:1035A000538742878C91811181E00895CF93DF93F7
:1035B000DC011296ED91FC9113978081882309F428
:1035C00089C0EF0128961396DC93CE9312978085DD
:1035D000882311F5ED91FC91119716962D913C9150
:1035E00017971396FC93EE93129715961C921E92C2
:1035F00014978281280F311D19963C932E931897AA
:103600008381992787FD9095280F391F1B963C933E
:103610002E931A9780E05EC094818181282F30E03C
:10362000B901607370706033710591F489818073A2
:10363000803371F4228118968D919C911997821B89
:10364000910919969C938E93189740E050E01AC008
:10365000492F50E0C901807C9070009771F460326E
:10366000710559F4858190E09A01289FA001299F56
:10367000500D389F500D112405C08038910511F46C
:1036800042E050E08181807349F414968D919C91C1
:103690001597019615969C938E9314971296ED911B
:1036A000FC9113978281480F511D18962D913C91E2
:1036B0001997240F351F19963C932E9318978381E1
:1036C000992787FD9095280F391F1B963C932E93C1
:1036D0001A9781E0DF91CF910895CF92DF92EF9218
:1036E000FF920F931F93CF93DF93EC017A018B012D
:1036F000CA80DB80EA81FB81808190E0A0E0B0E0BD
:103700008E159F05A007B10731F481818F70883035
:1037100011F081E009C0CE010E94D61A8A819B81F6
:103720008C159D0539F780E0DF91CF911F910F91A6
:10373000FF90EF90DF90CF900895CF93DF93FC013F
:10374000EB01A281B381CD01840F951F9383828306
:103750006115710529F407C08D918993415050403E
:1037600041155105C9F781E0DF91CF910895CF92BE
:10377000DF92EF92FF920F931F93DF93CF93CDB71A
:10378000DEB760970FB6F894DEBF0FBECDBF8C01D9
:103790007A016115710519F5DC018D919C918D59A6
:1037A0009B4179F41CC0C801B60140E150E00E9481
:1037B000B71B882309F445C0E0EFFFEFEE0EFF1EB4
:1037C00004C06E010894C11CD11CF1E1EF16F10494
:1037D00050F7C801B601A7010E94B71B32C0D8013B
:1037E00014968D919C9115978E159F0560F41696F1
:1037F0008D919C911797009711F484E091E0F80166
:103800009783868314C0D801ED91FC91C801A7016C
:103810001995882371F4F80186819781009711F436
:1038200082E191E0D80117969C938E93169780E0E1
:1038300008C0F801848195818E199F09958384833E
:1038400081E060960FB6F894DEBF0FBECDBFCF917A
:10385000DF911F910F91FF90EF90DF90CF9008952F
:10386000CF93DF93EC018C819D81892B39F48E817C
:103870009F81009789F484E091E00EC0E881F9818E
:10388000CE0141E050E01995882351F48E819F814B
:10389000009711F482E191E09F838E8380E006C05F
:1038A0008C819D8101979D838C8381E0DF91CF91F5
:1038B0000895DF93CF93CDB7DEB728970FB6F8946E
:1038C000DEBF0FBECDBF18861F826D837E838B83C4
:1038D0009C832DE93BE13A8329839A815C81392FCE
:1038E000482F8F81988528960FB6F894DEBF0FBEBB
:1038F000CDBFCF91DF9108956F927F928F929F926B
:10390000AF92BF92CF92DF92EF92FF920F931F93ED
:10391000DF93CF930F92CDB7DEB75C013B014E0131
:103920000894811C911CB4010E94301C882309F466
:103930004EC08981282F30E040E050E087FD03C071
:1039400079018A013DC09FE7E92EF12C012D112D4F
:10395000E222F3220423152387E0C82ED12C13C0C2
:1039600087E090E0C80ED91E93E2C916D10459F43D
:10397000F50186819781009711F48BE191E0F501C3
:103980009783868324C0C501B4010E94301C88231C
:10399000F1F02981822F90E0A0E0B0E08F77907065
:1039A000A070B0700C2C04C0880F991FAA1FBB1FF9
:1039B0000A94D2F7E82AF92A0A2B1B2B27FDD0CF2D
:1039C000F301E082F1820283138381E001C080E091
:1039D0000F90CF91DF911F910F91FF90EF90DF90AB
:1039E000CF90BF90AF909F908F907F906F900895F1
:1039F0002F923F924F925F926F927F928F929F92FF
:103A0000AF92BF92CF92DF92EF92FF920F931F93EC
:103A1000DF93CF930F92CDB7DEB75C017B01992482
:103A20008824772466245524442433242224CC2457
:103A3000DD2414C087E090E0C80ED91E96E4C916B4
:103A4000D10461F4F50186819781009711F48BE12F
:103A500091E0F5019783868380E029C0C501BE010E
:103A60006F5F7F4F0E94301C882309F11981212F3D
:103A70002F7730E040E050E060E070E080E090E0E0
:103A80000C2D0E943E01922A832A742A652A562A06
:103A9000472A382A292A17FDCDCFF7019082818243
:103AA00072826382548245823682278281E00F903F
:103AB000CF91DF911F910F91FF90EF90DF90CF900A
:103AC000BF90AF909F908F907F906F905F904F903E
:103AD0003F902F900895AF92BF92CF92DF92EF92D6
:103AE000FF920F931F93DF93CF9300D00F92CDB728
:103AF000DEB77C015B016A018901F9011082FB01DB
:103B00001082FA011082118212821382BE016F5F4D
:103B10007F4F0E947C1C882351F4F701848195819A
:103B2000892B19F481E0F801808380E019C0898134
:103B30009A81AB81BC810097A105B10599F323E07F
:103B4000B695A795979587952A95D1F7F601808325
:103B50009183A283B38389818770F501808381E09B
:103B60000F900F900F900F90CF91DF911F910F91B9
:103B7000FF90EF90DF90CF90BF90AF900895EF92BD
:103B8000FF920F931F93DF93CF9300D00F92CDB787
:103B9000DEB78C016130C1F0613028F06230C9F0CD
:103BA000653059F523C07E010894E11CF11CC80161
:103BB000B70141E050E00E94B71B882341F18981A1
:103BC00087FDF5CF81E024C060E070E048E050E080
:103BD00011C0BE016F5F7F4F0E947C1C8823B9F02B
:103BE00049815A81C80160E070E004C060E070E083
:103BF00044E050E00E94B71B0BC0FC018681978116
:103C0000009711F48BE291E0F8019783868380E0BE
:103C10000F900F900F900F90CF91DF911F910F9108
:103C2000FF90EF900895EF92FF920F931F93DF9311
:103C3000CF9300D00F92CDB7DEB78C017B01BE01D0
:103C40006F5F7F4F0E947C1C882361F1D701F801D0
:103C500088E001900D928150E1F749815A816B8192
:103C60007C81F70184819581A0E0B0E084179507FD
:103C7000A607B70760F4F80186819781009711F4D1
:103C80008DE391E0F8019783868380E00BC0F70114
:103C900055834483F80184819581841B950B95831A
:103CA000848381E00F900F900F900F90CF91DF9160
:103CB0001F910F91FF90EF9008956F927F928F92D6
:103CC0009F92AF92BF92CF92DF92EF92FF920F93AB
:103CD0001F93DF93CF93CDB7DEB762970FB6F894FB
:103CE000DEBF0FBECDBF7C015A01FA01A281B381B4
:103CF00011968C91119790E09C01207C30702034BB
:103D0000310509F4C3C02038310509F4B6C0232BAE
:103D100009F05AC19C012F703070F901EE0FFF1F9E
:103D2000E753FC4F808091808073907080319105C3
:103D300069F0813191051CF4892B71F045C1803205
:103D4000910591F0C09709F03FC18BC0FA0122851F
:103D5000338581E0F9018083F50140855185C701F4
:103D6000BD01F40119959DC0623009F052C02530A3
:103D700031050CF04EC0DA011A96CD90DC901B97FD
:103D8000C7018E010F5F1F4FB8010E94131E8823C9
:103D9000C1F426C18481989FC0011124D5011896D1
:103DA0004D915C911997480F591FC801BF01F4014B
:103DB0001995882311F440E013C0F60180818F5FCC
:103DC00080838D819E81892B51F0D6019C91D501F4
:103DD0001296ED91FC91139785819817D8F241E0E6
:103DE0008B819C81F701938382832F813885378370
:103DF00026838D819E81892B09F4F3C0211531051D
:103E000011F425E531E0D70117963C932E931697D0
:103E1000E7C0F501628573854085518514962C9124
:103E20001497FB01908115968C91981768F0D70133
:103E300016968D919C911797009711F485E591E066
:103E4000F70197838683CCC09F5FDB019C939150E1
:103E5000F50162817381929FC0011124480F591F9F
:103E60000AC0FA01228533858C91D9018C93628135
:103E7000738140855185C70174CFF7018681978191
:103E8000009709F0A8C087E791E0A5C0FA018084F7
:103E90009184D4018D919C91892B29F4C7010E94B2
:103EA000BF1D482F9EC052E0652E712C680C791CF6
:103EB000623069F5C7018E010F5F1F4FB8010E9484
:103EC000131E882309F48CC0F50162817381D4012B
:103ED000ED91FC91C801A3011995882349F4F701DC
:103EE00086819781009709F076C089E891E073C0D8
:103EF0008D819E81892B41F78B819C81F701938372
:103F000082838F8198859783868341E06AC0613080
:103F100011F1613018F06530B1F529C0CC24DD24F1
:103F20008E01075F1F4F0894C11CD11CFBE0CF1608
:103F3000D10409F455C0C701B80141E050E00E9426
:103F4000B71B882309F44CC0D8018C9187FF25C08A
:103F50000F5F1F4FE8CFC701BE01675F7F4F48E08B
:103F600050E00E94B71B48E0C42ED12C14C0C701FA
:103F7000BE01675F7F4F44E050E00E94B71B34E012
:103F8000C32ED12C08C0F70186819781009719F5BF
:103F90008BE291E020C0882319F118861F82DE820F
:103FA000CD82CE0109969C838B838DE99BE19A8318
:103FB0008983F50162817381D401ED91FC91CE0179
:103FC0000196A30119956DCFF7018681978100971E
:103FD00011F484E691E0D70117969C938E9316977F
:103FE00040E0842F62960FB6F894DEBF0FBECDBFBF
:103FF000CF91DF911F910F91FF90EF90DF90CF90C5
:10400000BF90AF909F908F907F906F9008958F9208
:104010009F92AF92BF92CF92DF92EF92FF920F9357
:104020001F93DF93CF93CDB7DEB728970FB6F894E1
:10403000DEBF0FBECDBF4B01BE016F5F7F4F0E9441
:10404000F81C8823B1F1A980BA80CB80DC80ED8098
:10405000FE800F811885C50181709070892BC1F099
:104060009501A601B701C80101E00E94BF0020959B
:10407000F4012083309531834095428350955383DA
:1040800060956483709575838095868390950FC045
:104090009501A601B701C80101E00E94BF00F4012B
:1040A000208331834283538364837583868397831C
:1040B00081E028960FB6F894DEBF0FBECDBFCF913A
:1040C000DF911F910F91FF90EF90DF90CF90BF9005
:1040D000AF909F908F90089544E050E00E94B71BEE
:1040E000089548E050E00E94B71B08952F923F9238
:1040F0004F925F926F927F928F929F92AF92BF92F8
:10410000CF92DF92EF92FF920F931F93DF93CF93A3
:10411000CDB7DEB728970FB6F894DEBF0FBECDBF80
:104120005C018B016A01BE016F5F7F4F0E94F81C2A
:10413000882309F49AC0D80114966C91683049F428
:1041400039802A809B808C807D806E805F8048844F
:104150004EC0E980FA800B811C81D801C701BB0FDA
:10416000880B982FDC013E2C2F2C902E812E782E40
:10417000682E582E482E6230C9F0633020F461302A
:1041800009F04CC006C06430E9F0683009F046C060
:104190002EC0F601E0827E2D8E2D880F880B682FB1
:1041A000982F582F482F382F282F40C0D601ED9236
:1041B000FC929701330F220B322F7E2D8F2D622F11
:1041C000922F11C0C701D801F60180839183A28389
:1041D000B3839C01AD01550F220B322FA9017E2D17
:1041E000892F6A2F912F522F422F322F1FC0D601B5
:1041F0003C9211962C92119712969C9212971396BC
:104200008C92139714967C92149715966C9215972E
:1042100016965C92169717964C9218C0F5018681F7
:1042200097810097E1F489E991E019C0731581F451
:10423000821571F4691561F4981551F4571541F41C
:10424000461531F4351521F4241511F481E00DC023
:10425000F50186819781009711F48BEA91E0D501F1
:1042600017969C938E93169780E028960FB6F89435
:10427000DEBF0FBECDBFCF91DF911F910F91FF9099
:10428000EF90DF90CF90BF90AF909F908F907F90F6
:104290006F905F904F903F902F900895CF92DF9254
:1042A000EF92FF920F931F93DF93CF93CDB7DEB7BB
:1042B00028970FB6F894DEBF0FBECDBF6C018B01FF
:1042C0007A01BE016F5F7F4F0E94F81C882309F4BA
:1042D0006CC0F8016481623081F0633018F46130A1
:1042E000B9F505C0643091F0683091F51FC089813F
:1042F000F7018083082F10E006C089819A81F701B9
:10430000918380838C0120E030E00BC089819A8109
:10431000AB81BC81F70180839183A283B3838C013D
:104320009D0140E050E060E070E01AC009811A8110
:104330002B813C814D815E816F817885F7010083FF
:10434000118322833383448355836683778308C034
:10435000F60186819781009721F589E991E021C0D6
:1043600089818017B9F48A818117A1F48B81821722
:1043700089F48C81831771F48D81841759F48E81AF
:10438000851741F48F81861729F48885871711F4E2
:1043900081E00BC0F60186819781009711F48BEACA
:1043A00091E0F6019783868380E028960FB6F89413
:1043B000DEBF0FBECDBFCF91DF911F910F91FF9058
:1043C000EF90DF90CF900895CF92DF92EF92FF921F
:1043D0000F931F93DF93CF93CDB7DEB728970FB618
:1043E000F894DEBF0FBECDBF6C017B018A01BE0118
:1043F0006F5F7F4F0E940720882309F490C0D70188
:1044000014966C916230D1F0633020F4613009F081
:1044100057C006C06430F9F0683009F051C031C0AF
:104420008981F8018083682F982F990F990BE92FC4
:10443000792F592F492F392F292F4AC089819A81E5
:10444000D8018D939C939C01330F220B322F682F40
:10445000E22F722F12C089819A81AB81BC81F80151
:1044600080839183A283B3839C01AD01550F220BFE
:10447000322FA901682FEA2F7B2F522F422F322F84
:1044800027C069819A81EB817C815D814E813F816A
:104490002885D8016C9311969C9311971296EC93F2
:1044A000129713967C93139714965C931497159612
:1044B0004C93159716963C93169717962C9308C015
:1044C000F60186819781009721F589E991E021C065
:1044D00089818617B9F48A818917A1F48B818E1797
:1044E00089F48C81871771F48D81851759F48E8139
:1044F000841741F48F81831729F48885821711F47A
:1045000081E00DC0F60186819781009711F48BEA56
:1045100091E0D60117969C938E93169780E028968B
:104520000FB6F894DEBF0FBECDBFCF91DF911F91C4
:104530000F91FF90EF90DF90CF900895BA010E9405
:104540006C200895BA010E9471200895CF92DF92E5
:10455000EF92FF920F931F93DF93CF9300D00F92B0
:10456000CDB7DEB78C017B01D42EC52EBE016F5FA7
:104570007F4F0E947C1C882309F457C029813A810F
:104580004B815C812F3F31054105510559F050F0B9
:10459000D80116968D919C9117970097B1F48DEBE9
:1045A00091E013C0F9013196CF01A0E0B0E082178D
:1045B0009307A407B50768F4D80116968D919C91CE
:1045C0001797009711F48CEC91E0F801978386839C
:1045D00021C0D70111968C91807C803841F4F8017C
:1045E00086819781009789F487E791E00EC0D70113
:1045F00014968C9190E08E179F0770F4F8018681D5
:104600009781009711F48DEB91E0D80117969C9358
:104610008E93169780E009C08D2D9C2DFC0121936F
:10462000C801BF01A9010E94B71B0F900F900F9006
:104630000F90CF91DF911F910F91FF90EF90DF903E
:10464000CF900895CF92DF92EF92FF920F931F9336
:10465000DF93CF9300D00F92CDB7DEB77C018B01F3
:10466000D42EC52EBE016F5F7F4F0E947C1C882315
:10467000D1F029813A814B815C81F9013196CF01DA
:10468000A0E0B0E082179307A407B50770F4D70144
:1046900016968D919C911797009711F48CEC91E0F0
:1046A000F7019783868320E030C0D80111968C9162
:1046B000807C803841F4F70186819781009789F4E6
:1046C00087E791E00EC0D80114968C9190E08E1788
:1046D0009F0768F4F70186819781009711F48BEDAD
:1046E00091E0D70117969C938E931697DCCF0D2DF2
:1046F0001C2DC701B801A9010E94B71B282F898171
:104700009A81080F191FF8011082822F0F900F90C5
:104710000F900F90CF91DF911F910F91FF90EF902D
:10472000DF90CF900895CF92DF92EF92FF920F9398
:104730001F93DF93CF93CDB7DEB72C970FB6F894C6
:10474000DEBF0FBECDBFDC0112964D915C91139779
:10475000FA018181282F30E0C9018F70907008978D
:1047600009F044C01896ED91FC911997E080F18012
:104770006E010894C11CD11C35C0D70116961C923D
:104780001697ED91FC9111970481158112964D9128
:104790005C911397C601B8010E94B71AF701828194
:1047A00093819A87898786E090E0E80EF91EFC865F
:1047B000EB86AAEFBFEFEA0EFB1EF8018181807C39
:1047C000803851F482E090E0E80EF91EFA86E9861E
:1047D000AEEFBFEFEA0EFB1EC6010E949323F70166
:1047E000E480F580E114F10441F651C0C901807CF8
:1047F00090700097B1F5C901807390708031910578
:1048000031F41A96ED91FC911B97108205C080320D
:104810009105C1F1C097B1F1FA0181818F702681B4
:104820003781873041F418966D917C911997C901B1
:104830000E9456242CC018968C91189719969C911A
:10484000DA0114964C912115310529F0B90150E097
:104850000E94CD011CC060E070E050E00E94D601D3
:1048600016C08038910599F41896ED91FC9119972E
:1048700011821082C901807390708032910511F00D
:10488000C09729F41A96ED91FC911B9710822C96F3
:104890000FB6F894DEBF0FBECDBFCF91DF911F9151
:1048A0000F91FF90EF90DF90CF9008950F931F939B
:1048B000DF93CF93CDB7DEB72C970FB6F894DEBF5A
:1048C0000FBECDBF9C01AB018E010F5F1F4FC80112
:1048D000B9010E94B71A882341F0C8010E949323AE
:1048E000C8010E94D61A8823C1F72C960FB6F894F7
:1048F000DEBF0FBECDBFCF91DF911F910F91089505
:104900002F923F924F925F926F927F928F929F92DF
:10491000AF92BF92CF92DF92EF92FF920F931F93CD
:10492000DF93CF93CDB7DEB7A9970FB6F894DEBF6C
:104930000FBECDBF4C01B7E0EB2EF12CEC0EFD1EEF
:1049400088E0D7011D928A95E9F78E01015F1F4F1C
:10495000C8010E94B71A44245524320108A719A798
:10496000EAC0C401BE016F5F7F4FAE014D5F5F4F74
:104970009E012E5F3F4F0E946B1D882329F48A8180
:10498000882309F0E0C031C14B815C816D817E815B
:1049900088A599A50E946D1B882309F0A1C08B8171
:1049A0009C81AD81BE8184159505A605B70508F4E7
:1049B00092C0C988DA88E989FA8981818F70883044
:1049C00071F088A599A50E94D61A89899A898C15B3
:1049D0009D0589F744244A94542C320105C08081F6
:1049E000482E552466247724AB80BC80CD80DE80A1
:1049F000A414B504C604D70408F46DC0F4012480DF
:104A00003580F981FFA3EF89F88DE080F18057C0F0
:104A1000D701ED91FC91A081B181109741F0C401C3
:104A2000B701A60195010FA1FD01199540C00481B0
:104A30001581F801808190E0A0E0B0E08A159B0527
:104A4000AC05BD05B9F5D70112964D915C91139750
:104A5000CE014B96B8010E94B71AF701828193816B
:104A60009CA38BA326E030E0E20EF31EFEA2EDA293
:104A70008AEF9FEFE80EF91ED80111968C91807C89
:104A8000803851F4E2E0F0E0EE0EFF1EFCA2EBA253
:104A90002EEF3FEFE20EF31EE1E0D7011696EC9306
:104AA000C4016FA1AE01455E5F4F0E945D1E882369
:104AB00009F49BC0D7011496ED90FC901597E11472
:104AC000F10409F4ACC0F4018481958128163906FB
:104AD00009F49ECFA4C0C40169810E94BF1D28C0F3
:104AE000E989FA8981818073E9F48B899C89803412
:104AF0009105C0F4FC01A3E0F695E795AA95E1F7CE
:104B000027E030E02C0F3D1FE20FF31F87709070FD
:104B100021E030E002C0220F331F8A95E2F7808146
:104B2000822B8083C401698148A559A50E945D1E1E
:104B3000882309F45AC0D40114968D919C9115973D
:104B4000892B09F00ECFFFE0CF2ED12CCC0EDD1E2D
:104B5000EB88FC88E989FA891181C6010E94D61A7E
:104B60008823B1F7107341F4E989FA898081882399
:104B700019F00894E11CF11CA701E3E05695479554
:104B8000EA95E1F720E030E0DE01179608C0FD016C
:104B9000E20FF31F80818F3FE1F42F5F3F4F241717
:104BA0003507A8F3A40FB51F4C9150E0B7E0EB22F6
:104BB000FF2428E030E02E193F098FEF90E002C07B
:104BC000959587952A95E2F74817590711F481E0E2
:104BD0000DC0F40186819781009711F48BEE91E06E
:104BE000D40117969C938E93169780E0A9960FB6E2
:104BF000F894DEBF0FBECDBFCF91DF911F910F9113
:104C0000FF90EF90DF90CF90BF90AF909F908F90EC
:104C10007F906F905F904F903F902F900895F40198
:104C2000848195812816390609F085CF54CFCF921B
:104C3000DF92EF92FF920F931F938C017B016A0129
:104C4000CB01BA010E945624C801B701A6010E94F7
:104C500080241F910F91FF90EF90DF90CF900895E7
:104C60008F929F92AF92BF92CF92DF92EF92FF927C
:104C70000F931F93DF93CF93CDB7DEB728970FB66F
:104C8000F894DEBF0FBECDBF7C018B015A01FB0142
:104C9000968087806E010894C11CD11CB6010E94C9
:104CA000131E882379F0F80186819781892B61F49E
:104CB000F70186819781009711F482E092E0F70175
:104CC0009783868320E01CC0F80181818073803245
:104CD00039F4C601692D782DA5010E94172606C05A
:104CE000C601692D782DA5010E948024282F8B8173
:104CF0009C81F701938382838F8198859783868334
:104D0000822F28960FB6F894DEBF0FBECDBFCF918D
:104D1000DF911F910F91FF90EF90DF90CF90BF90A8
:104D2000AF909F908F900895CF93DF93FC01EB019C
:104D3000A281B381CD01840F951F9383828304C028
:104D400089918D934150504041155105C9F781E03B
:104D5000DF91CF910895FC0111861086178216828B
:104D6000558344837383628384E996E291838083CD
:104D7000CF0108950F931F93CF93DF93EC018A0126
:104D8000E881F9813097F1F08E819F81840F951F22
:104D90002C813D812817390738F48885998500973B
:104DA00069F48BE192E00AC0CE011995882351F491
:104DB00088859985009711F487E292E09987888722
:104DC00080E007C08E819F81800F911F9F838E831B
:104DD00081E0DF91CF911F910F910895AF92BF9223
:104DE000CF92DF92EF92FF920F931F93DF93CF93B7
:104DF000CDB7DEB762970FB6F894DEBF0FBECDBF5A
:104E00005C01B02F0B87A12F1C87F22F2D87E32F7A
:104E10003E87342F4F87252F588B962F698B872FEE
:104E20007A8B4F2F5E2F632F722F192F982F802F81
:104E30008A2B8F2B8E2B832B822B812B892B39F066
:104E4000EE24FF246E010894C11CD11C19C0C501B9
:104E5000BE01655F7F4F41E050E032C0F601EE0DCC
:104E6000FF1D8B2F806880832B2F3A2F812F07E027
:104E70000E94BF00B22FA32F182F0894E11CF11C31
:104E80008B2F8A2B842B852B862B872B812B892B91
:104E900029F7BB87AC874D875E876F87788B198B27
:104EA0009A8B0894E108F108F601EE0DFF1D0894B5
:104EB000E11CF11C80818F778083C501B601A701B9
:104EC0000E94BA2662960FB6F894DEBF0FBECDBF21
:104ED000CF91DF911F910F91FF90EF90DF90CF90D6
:104EE000BF90AF9008950F931F93CF93DF93EC0182
:104EF000F901DA01CB0197FD0BC09801AF01BD01AB
:104F000001E00E943E0189019A01AB01BC0113C07E
:104F10009801AF01BD0101E00E943E0189019A01A3
:104F2000AB01009510952095309540955095682FD0
:104F30006095792F7095CE010E94EE26DF91CF917A
:104F40001F910F91089544E050E00E94BA26089501
:104F500048E050E00E94BA2608957F928F929F9277
:104F6000AF92BF92CF92DF92EF92FF920F931F9377
:104F70004C01762E59016A01A60160E070E080E0E4
:104F800090E003E00E943E01FC012729C401890151
:104F90009A01AB01BF010E94EE261F910F91FF9075
:104FA000EF90DF90CF90BF90AF909F908F907F90C9
:104FB0000895FC01DB0111968C91119790E08F70A0
:104FC00090708330910549F084309105B4F08430BD
:104FD000910529F008973CF404C065E00FC061E03A
:104FE0000DC062E00BC080859185009711F480E3CD
:104FF00092E09187808780E0089560E02C9130E016
:1050000040E050E0CF010E94AD2708952F923F92DB
:105010004F925F926F927F928F929F92AF92BF92C8
:10502000CF92DF92EF92FF920F931F93DF93CF9374
:10503000CDB7DEB761970FB6F894DEBF0FBECDBF18
:105040002C013B01598B488BDB0111968C91482F29
:1050500050E09A01207C30702034310509F481C180
:105060002038310521F02115310509F095C181E085
:105070008983BA016F707070FB01EE0FFF1FE5525C
:10508000FC4F808191819F878E87D30113968C91ED
:10509000882319F4FE01319608C0E82FFF27E7FDA9
:1050A000F09588899989E80FF91F2038310561F456
:1050B000A889B9890D90BC91A02DB98BA88B1982B4
:1050C000AB2B11F081E08983CA018073907080312D
:1050D000910561F1813191051CF4892B41F034C1B6
:1050E00080329105D1F1C09709F02EC11AC1E8892B
:1050F000F989EF2B59F4D20118968D919C9119974B
:10510000009709F02AC183E492E027C1C201B301EC
:105110000E94D927882309F43DC1C201B3014889FF
:1051200059892E853F85F901199513C080818823FF
:1051300009F43AC1C201B3010E94D927882309F4B6
:1051400029C1C201B30148895989AE85BF85FD01D6
:105150001995882309F429C127C18081E82FF0E03F
:10516000FD87EC87309709F41FC12038310581F0A5
:10517000D30115968C9190E08E179F0748F4F201A9
:1051800080859185009709F000C18AE592E0FDC015
:10519000653071050CF083C0F301208130E040E000
:1051A00050E0C20162E00E94AD27882309F4F2C0FA
:1051B000D30111968C9190E08F709070833091059F
:1051C00039F42C843D84220C331C220C331C30C057
:1051D000049741F42C843D8483E0220C331C8A958F
:1051E000E1F726C0FE0132968AE0DF011D928A9522
:1051F000E9F7E888F98800E010E03E2E8F2E832D35
:10520000982DB301A701EE85FF851995882309F430
:10521000C1C0D30114968C910F5F1F4FEC85FD85A3
:105220000E171F0718F4E80EF11CE9CF2884398403
:10523000C201810120E030E040E050E060E070E039
:105240000E94EE26882309F4A5C0D2018D919C917D
:10525000892B39F4C20160E070E0A1010E94BA26F6
:1052600078CF00E010E0C201B30148895989EE858A
:10527000FF851995882309F48DC0D30114968C916C
:105280000F5F1F4FEC85FD850E171F0708F08CC0C0
:1052900028893989280F311D398B288BE4CF00E00C
:1052A00010E0C201B3010E94D927882309F472C01B
:1052B000D30111968C91282F30E0C901807C907029
:1052C0008038910591F42F70307025503040223095
:1052D000310558F4E889F98940815181C201B3014F
:1052E0002E853F85F901199508C0C201B30148898F
:1052F0005989AE85BF85FD011995882309F44AC0F7
:10530000F30184810F5F1F4F2C853D850217130722
:1053100008F04AC048895989480F511D598B488B5C
:10532000C0CF9081D3018C919817F1F5C201B301E0
:105330000E94D927882371F1C201B3014889598994
:10534000EE85FF85199505CFD20118968D919C9118
:105350001997009711F480E392E0F201918780871A
:1053600019C0A889B989ED91FC9111973097E1F0A6
:105370001296C201AD0119958823B1F4F20180851E
:105380009185009711F482E792E0D20119969C93DF
:105390008E93189780E009C0F2018085918500976F
:1053A000A1F780E392E0F1CF81E061960FB6F89427
:1053B000DEBF0FBECDBFCF91DF911F910F91FF9048
:1053C000EF90DF90CF90BF90AF909F908F907F90A5
:1053D0006F905F904F903F902F9008954F925F9203
:1053E0006F927F928F929F92AF92BF92CF92DF92F5
:1053F000EF92FF920F931F93CF93DF93EC012B015A
:105400003A018A0120E030E040E050E060E070E0E6
:105410000E94EE26882329F0CE01B201A3010E944A
:10542000BA26DF91CF911F910F91FF90EF90DF90FF
:10543000CF90BF90AF909F908F907F906F905F9034
:105440004F9008950F931F93CF93DF93EC01FB01CF
:10545000DA0184818230C1F0833020F4813009F098
:1054600046C006C08430D1F0883009F040C029C061
:105470008C91082F182F110F110BE12F312F412F75
:10548000512F612F712F3DC08D919C919C01330F45
:10549000220B322F8C01E22F322F0EC08D919D9165
:1054A0000D90BC91A02D9C01AD01550F220B322F08
:1054B000A9018C01EA2F3B2F422F522F622F722F0E
:1054C00020C00C9111961C9111971296EC91129795
:1054D00013963C91139714964C91149715965C91E2
:1054E000159716966C91169717967C910AC0888529
:1054F0009985009711F481E892E09987888780E088
:1055000004C0CE012E2F0E94EE26DF91CF911F9175
:105510000F9108958F929F92AF92BF92CF92DF9298
:10552000EF92FF920F931F93CF93DF93EC01FB0158
:10553000DA018481823071F0833018F4813089F58A
:1055400005C0843069F0883061F515C08C91882ED3
:10555000992403C08D919C914C01AA24BB2407C0BF
:105560008D919D910D90BC91A02D4C015D01CC249D
:10557000DD24760120C08C9011969C901197129694
:10558000AC9012971396BC9013971496CC901497E6
:105590001596DC9015971696EC9016971796FC903A
:1055A0000AC088859985009711F481E892E099876F
:1055B000888780E007C0CE0184019501A601B7016C
:1055C0000E94EE26DF91CF911F910F91FF90EF90F7
:1055D000DF90CF90BF90AF909F908F9008950F93E2
:1055E0001F93CF93DF93EC01FB01DA0184818230BA
:1055F000C1F0833020F4813009F046C006C0843009
:10560000D1F0883009F040C029C08C91082F182FA4
:10561000110F110BE12F312F412F512F612F712FBE
:105620003DC08D919C919C01330F220B322F8C0138
:10563000E22F322F0EC08D919D910D90BC91A02D27
:105640009C01AD01550F220B322FA9018C01EA2FCD
:105650003B2F422F522F622F722F20C00C91119698
:105660001C9111971296EC91129713963C911397F7
:1056700014964C91149715965C91159716966C910B
:10568000169717967C910AC088859985009711F422
:1056900081E892E09987888780E004C0CE012E2FB0
:1056A0000E947327DF91CF911F910F910895BA0146
:1056B0000E94A8270895BA010E94A3270895CF93B6
:1056C000DF93DC01EB01FA014115510529F460E09B
:1056D00070E040E050E01EC08981807CB9F42081F8
:1056E00030E02F5F3F4F8C8190E08217930770F47A
:1056F00018968D919C911997009711F483E992E087
:1057000019969C938E93189780E006C04191CD0125
:10571000BF0150E00E94EE29DF91CF910895CF9311
:10572000DF93EC01FB019A014481B9018181807C06
:10573000803819F4AFEFBFEF02C0A42FB0E02115FD
:10574000310519F440E050E00EC040E050E002C0E6
:105750004F5F5F4F4A175B0730F4F901E40FF51F05
:1057600080818823A9F7CE010E94EE29DF91CF9195
:105770000895CF92DF92EF92FF920F931F93DF93E2
:10578000CF93CDB7DEB72C970FB6F894DEBF0FBE20
:10579000CDBF7C018E010F5F1F4FC8010E94B71A59
:1057A000882309F445C06801AB81BC8111968C91B6
:1057B00011978F70E985FA85883069F5008111812C
:1057C00026C0D801ED91FC9122813381211531054C
:1057D00029F0C701B801F901199514C00480F581B9
:1057E000E02D8181807C803821F4A8014E5F5F4FDD
:1057F00005C0D80112964D915C911397C701BF0166
:105800000E9406288823B1F0F80104811581011552
:105810001105B9F607C0C701BD01AF010E940628F6
:10582000882341F0C6010E94D61A882309F0BCCF14
:1058300081E001C080E02C960FB6F894DEBF0FBE69
:10584000CDBFCF91DF911F910F91FF90EF90DF902F
:10585000CF9008952F923F924F925F926F927F92D6
:105860008F929F92AF92BF92CF92DF92EF92FF9270
:105870000F931F93DF93CF93CDB7DEB72E970FB65D
:10588000F894DEBF0FBECDBF3C017C876B875E877F
:105890004D871E010894211C311C8AE0F1011192F0
:1058A0008A95E9F7C1016B857C854D855E850E94EF
:1058B000B92B882319F489859A855BC04F80588459
:1058C000C301820120E030E040E050E060E070E0A1
:1058D0000E94EE26882309F44FC0F30140815181D4
:1058E0004115510541F4C30160E070E0A2010E943E
:1058F000BA26482F42C0F30186819781840D951DF9
:10590000248135812817390738F4808591850097DF
:1059100081F58BE192E02DC05A834983F3018281A6
:1059200093819C838B835E824D8218861F821A86A8
:105930001986C1016B857C854D855E850E94B92BDA
:10594000482FF301868197812F813885820F931F1D
:10595000978386838B819C819383828389859A85B3
:10596000918780872415350541F0009711F487EA67
:1059700092E0F3019187808740E0842F2E960FB646
:10598000F894DEBF0FBECDBFCF91DF911F910F9175
:10599000FF90EF90DF90CF90BF90AF909F908F904F
:1059A0007F906F905F904F903F902F900895DC0113
:1059B000FB01668177816115710571F418968D91EF
:1059C0009C911997009711F48BEB92E019969C9398
:1059D0008E93189780E008950E942A2C08951F92B4
:1059E0000F920FB60F9211242F933F938F939F9393
:1059F000AF93BF938091DD069091DE06A091DF0604
:105A0000B091E0063091E1060196A11DB11D232F52
:105A10002D5F2D3720F02D570196A11DB11D20932C
:105A2000E1068093DD069093DE06A093DF06B09337
:105A3000E0068091D9069091DA06A091DB06B0913C
:105A4000DC060196A11DB11D8093D9069093DA065C
:105A5000A093DB06B093DC06BF91AF919F918F912D
:105A60003F912F910F900FBE0F901F9018958FB7F9
:105A7000F8942091DD063091DE064091DF065091CA
:105A8000E0068FBFB901CA0108959FB7F89420912D
:105A9000D9063091DA064091DB065091DC0686B5D6
:105AA000A89B06C08F3F21F02F5F3F4F4F4F5F4FA6
:105AB0009FBF542F432F322F2227280F311D411D06
:105AC000511D82E0220F331F441F551F8A95D1F7C5
:105AD000B901CA0108959B01AC017FB7F894809188
