:100000000C947C010C94AD010C94AD010C94AD01E9
:100010000C94AD010C94AD010C94AD010C94AD01A8
:100020000C94AD010C94AD010C94AD010C94AD0198
:100030000C94AD010C94AD010C94AD010C94AD0188
:100040000C94AD010C94AD010C94AD010C94AD0178
:100050000C94AD010C94AD010C94AD010C94DF0E29
:100060000C94AD010C9439130C946F130C94AD01E6
:100070000C94AD010C94AD010C94AD010C94AD0148
:100080000C94AD010C94AD010C94AD010C94AD0138
:100090000C94AD010C94AD010C94AD010C94870A45
:1000A0000C94AD010C94AD010C94AD010C94AD0118
:1000B0000C94AD010C94AD010C94AD010C94AD0108
:1000C0000C94AD010C94AD010C94AD010C94AD01F8
:1000D0000C94AD010C94AD010C94AD010C94AD01E8
:1000E0000C94AD01F50C090D1F0D3B0D5F0D890D35
:1000F000A80DDF0D8A0C190EB40CD70C3A0E540E55
:10010000DF0CE30CFD0C130D2F0D4D0D7D0D9C0D23
:10011000C40EF80D0D0E190ECB0C2E0E5F0E3710FF
:100120003C1041104B105510CE105F1067106F102F
:10013000791083108D109C10A610CE10B010BA103C
:10014000C410F010F310E210E610EC102A11F710B2
:10015000FB100111051109110F11131117112A11AB
:100160001D1121112511687474703A2F2F6769745D
:100170006875622E636F6D2F776865656C65722D8B
:100180006D6963726F666C7569646963732F626110
:1001900073655F6E6F64655F7270632E676974006C
:1001A000302E31312E706F737431390057686565A8
:1001B0006C6572204C616200626173655F6E6F6492
:1001C000655F72706300302E31312E706F73743141
:1001D000390000000A0B02090C0D0E080703040188
:1001E000000000000000000000000000000000000F
:1001F00000000000000000000000000000001211DC
:1002000010000000000000000000000000000000DE
:10021000000000000000000001021020200808106B
:100220002040102040800201020108040201010266
:10023000040810204080804020100804020180043F
:10024000020180402010080402010804020101029A
:100250000408102040800102040810204080050599
:100260000505070508080808020202020A0A08082C
:10027000040404040101010101010101030303035A
:1002800003030303040707070C0C0C0C0C0C0C0CE9
:100290000202020206060606060606060B0B0B0BFA
:1002A0000B0B0B0B000020002300260029002C0064
:1002B0002F003200000100000301060109010000C7
:1002C0002200250028002B002E00310034000201FE
:1002D0000000050108010B01000021002400270097
:1002E0002A002D0030003300010100000401070145
:1002F0000A0118039709A31311241FBECFEFD1E2FF
:10030000DEBFCDBF00E00CBF12E0A0E0B2E0E8E04D
:10031000F9E200E00BBF02C007900D92A436B107CE
:10032000D9F726E0A4E6B2E001C01D92AF3BB207C8
:10033000E1F712E0C8EFD2E000E006C02297010921
:10034000FE010BBF0E943714C23FD10780E00807AF
:10035000A9F70E9444080C9482140C94000040E811
:1003600050E060E070E0BC0165597D4FCB01BA01FF
:10037000089502970C94AF0104970C94AF01E0919B
:10038000CC04F091CD040280F381E02DBC018CEC13
:1003900094E01994FC01828193810C94D10BCF934A
:1003A000DF93EC010E94CA011C82DF91CF91089576
:1003B0000F931F93CF93DF938C01EB01BC01CE0110
:1003C0000E944014C8010E944714AC01BE01CB0139
:1003D000BA01DF91CF911F910F91089508950F9366
:1003E0001F93CF93DF93EC011A86198600E010E08B
:1003F0002B813C8189859A850217130760F4EF8170
:10040000F885E00FF11F60810E94B80B9A878987F9
:100410000F5F1F4FEDCF0E94D00B9A878987DF9126
:10042000CF911F910F91089526E040E052EC61E0DA
:1004300070E08EE196E00E94D7128CE08093B800C5
:100440006FEB71E081E595E00C949209DC01ED9190
:10045000FC910280F381E02D41E050E019940F936C
:100460001F93CF93DF93EC018B01E881F9816F5FDC
:100470007F4F0280F381E02D41E050E01995E88143
:10048000F9810280F381E02D41E050E0B801CE0116
:10049000DF91CF911F910F911994FC01E15DFE4F07
:1004A0000190F081E02D2189222359F0835D9E4F38
:1004B000DC01ED91FC910190F081E02D199580E037
:1004C000089580890895FC01E15DFE4F0190F0815F
:1004D000E02D2189222331F0835D9E4F0E94CF01C0
:1004E00080E00895808908950F931F93CF93DF9341
:1004F000EC018B01E881F9816F5F7F4F0280F3810E
:10050000E02D41E050E01995E881F9810280F38106
:10051000E02D41E050E0B801CE01DF91CF911F9175
:100520000F911994EF92FF920F931F93CF93DF9344
:10053000CDB7DEB762970FB6F894DEBF0FBECDBF62
:100540007C012A8B8FEF9FEF9B878A871A83098311
:100550002B835F834E83798768875D834C83CE01CD
:1005600001960E94EF018CE79CE7ACE7B0E08C8736
:100570009D87AE87BF87D7018D919C91DC01ED915E
:10058000FC910280F381E02D43E050E0BE01645F06
:100590007F4F1995BE016F5F7F4FF7018081918179
:1005A0000E947402D7018D919C91DC01ED91FC9128
:1005B0000280F381E02D41E050E0BE016E5E7F4F8E
:1005C00019958B81843611F0833729F58C819D81B3
:1005D000998B888BBE01605F7F4FD7018D919C9175
:1005E0000E9474024C815D814115510561F0F70153
:1005F00080819181DC01ED91FC9168857985028093
:10060000F381E02D1995BE01665F7F4FF701808170
:1006100091810E94740262960FB6F894DEBF0FBEFD
:10062000CDBFDF91CF911F910F91FF90EF90089573
:100630004F925F926F927F928F929F92AF92BF92F2
:10064000CF92DF92EF92FF920F931F93CF93DF939E
:10065000C6E6D2E08BE092E09983888388E6E82EB4
:1006600082E0F82E81E192E0D7018D939C930AE617
:1006700012E087E192E0F80191838083ECE6F3E0F9
:100680001182108210926E031092700310926F0309
:1006900044244A94542C5092760340927503612C62
:1006A0007724739470927203609271038CE692E0E7
:1006B000909374038093730337E7A32E33E0B32E34
:1006C000D5011C9210927803109284031092830338
:1006D000109286031092850310928A031092890368
:1006E0001092980310929703F0938C03E0938B037E
:1006F000C5010E94D10B49E9C42E43E0D42E5DE12F
:10070000852E52E0952EF60191828082B0929C0354
:10071000A0929B03C6010E94CA0185E292E0D60125
:100720008D939C938EE196E090939E0380939D031E
:10073000EFE9F4E0118210821092A1041092A30458
:100740001092A2045092A9044092A8047092A504A9
:100750006092A4048FE993E09093A7048093A60489
:100760006AEAA62E64E0B62ED5011C921092AB0464
:100770001092B7041092B6041092B9041092B80403
:100780001092BD041092BC041092CB041092CA04C3
:10079000F093BF04E093BE04C5010E94D10B7CEC32
:1007A000C72E74E0D72EF60191828082B092CF04DA
:1007B000A092CE04C6010E94CA018DE292E0D60149
:1007C0008D939C931092D004C6010E94CF0185E3C3
:1007D00092E0998388838BE392E0F7019183808391
:1007E00081E492E0D8018D939C93D0936502C093ED
:1007F0006402DF91CF911F910F91FF90EF90DF90F6
:10080000CF90BF90AF909F908F907F906F905F90B0
:100810004F900895CF93DF93E0919903F0919A035D
:10082000C281D3818EE196E00E94C511BC0189E9A5
:1008300093E0FE01DF91CF911994BF92CF92DF92A6
:10084000EF92FF920F931F93CF93DF931F92CDB739
:10085000DEB78C017B0181E595E00E948708B82E08
:1008600081E0E81AF108F8018481811101C0B482A5
:10087000C12CD12CCE14DF04A4F481E595E00E94B4
:1008800087088983F8018481B81207C0BE016F5FB1
:100890007F4F828193810E94F00BFFEFCF1ADF0A16
:1008A000E9CF0F90DF91CF911F910F91FF90EF90C3
:1008B000DF90CF90BF900895EF92FF920F931F9318
:1008C000CF93DF93CDB7DEB763970FB6F894DEBF53
:1008D0000FBECDBF8C012B8B1A8219828FEF9FEF39
:1008E0009B878A872B835F834E83798768875D83A5
:1008F0004C83CE0101960E94EF018CE79CE7ACE7A8
:10090000B0E08C879D87AE87BF878091BA008695BF
:100910008A8BF801608181E595E00E947209BE0131
:100920006E5E7F4F81E595E00E94260243E050E035
:10093000BE01645F7F4F81E595E00E94D908BE014A
:100940006F5F7F4F81E595E00E942F02BE016D5ED3
:100950007F4F81E595E00E9426028C819D81998BD5
:10096000888BBE01605F7F4F81E595E00E942F027A
:1009700081E595E00E948F09EC80FD80E114F1048F
:1009800061F1F0E2EF16F10418F0EFE1EE2EF12C38
:10099000F801608181E595E00E947209BE016E5EFA
:1009A0007F4F81E595E00E94260268857985A70141
:1009B00081E595E00E94D90881E595E00E948F09C4
:1009C000888599858E0D9F1D998788878C819D814B
:1009D0008E199F099D838C83CFCFF801608181E5BB
:1009E00095E00E947209BE016E5E7F4F81E595E041
:1009F0000E942602BE01665F7F4F81E595E00E945E
:100A00002F0281E595E00E948F0963960FB6F89456
:100A1000DEBF0FBECDBFDF91CF911F910F91FF9031
:100A2000EF9008958F929F92AF92BF92CF92DF92F4
:100A3000EF92FF920F931F93CF93DF9300D01F92FB
:100A4000CDB7DEB7DC01FB0169012081203209F45A
:100A50001FC208F055C0283009F409C110F5233031
:100A600009F4D2C090F48D919C91213009F4B2C068
:100A700008F0BFC0DC01ED91FC910190F081E02D08
:100A80001995BC0186EC91E0AFC0253009F4D6C0C1
:100A900008F4C7C0263009F4D9C0273009F4DFC0F4
:100AA00054C22D3009F40AC180F42A3009F4FDC083
:100AB00008F4E8C02B3009F4FDC02C3009F045C221
:100AC000628181810E94641145C22F3009F400C106
:100AD00008F4F8C0203109F407C1213109F035C20A
:100AE0009B012F5F3F4F83819481820F931F9483DB
:100AF000838381819281A381B4818C016D012CC299
:100B0000263609F46BC1D8F5213609F41EC128F543
:100B1000213409F4FCC0A8F4203409F016C29B016A
:100B20002F5F3F4F85819681820F931F9683858328
:100B30006181728143815481F8940E946014789499
:100B400009C2223409F4FCC0203609F0FEC16181DB
:100B500081E595E00E944F09FDC1233609F4FFC0ED
:100B600008F4F7C0243609F42FC1253609F0EDC189
:100B700081E595E00E948708F601808337C120381F
:100B800009F486C178F4283609F462C108F431C149
:100B9000293609F477C12A3609F0D7C18091BA0005
:100BA0008E7F73C1223809F4BFC108F47DC1203A99
:100BB00009F4C1C1213A09F0C8C126E040E052EC75
:100BC00061E070E08EE196E00E94D7128CE08093A5
:100BD000B800C0C1DC01ED91FC910190F081E02DE5
:100BE0001995BC0188EB91E00E94D8018B016C0142
:100BF000B3C1DC01ED91FC910190F081E02D1995DC
:100C0000BC018CEA91E0F0CF8D919C91DC01ED91DB
:100C1000FC910190F081E02D1995BC0180EA91E0F2
:100C2000E3CF8D919C91DC01ED91FC910190F081DD
:100C3000E02D1995BC0186E691E0D6CF0E94350FD4
:100C4000F60160837183828393832BC10E94290FF5
:100C5000D6016D937D938D939C93139722C18181CF
:100C60009281009709F476C10E94800F73C161815F
:100C700072816115710509F46DC180E090E00E94F8
:100C8000580F68C12091BB063091BC068DB79EB746
:100C90002115310519F48F5B964002C0821B930B1E
:100CA000AA2797FDA095BA2FF7C0628181810E9483
:100CB0002B1150C181810E949A1196C081810E949E
:100CC000EC0F49C0628170E081810E94111042C125
:100CD0009B012F5F3F4F83819481820F931F9483E9
:100CE00083838181928174C09B012F5F3F4F8381F9
:100CF0009481820F931F94838383018112812381C6
:100D000034816901000F111F000F111F25C10381DC
:100D10001481E180F2808D919C91DC011296ED911D
:100D2000FC9113970190F081E02D02961995DC015A
:100D3000CB016D01A801B701CD010E9450140CC177
:100D40008FEF9FE0A0E0B0E0A7C08091BA00869549
:100D50004BC080E290E0F601918380833CC08D918E
:100D60009C91DC011496ED91FC9115970190F08116
:100D7000E02D049619957B016C01F8E09F2E00E0B0
:100D800010E00E151F0508F0E7C0692D81E595E01C
:100D90000E94720981E595E00E948F0981110FC0C0
:100DA0005801BFEFAB1ABB0AF601E00FF11F9082AA
:100DB00061E070E080E090E00E94580F850193941C
:100DC000E8E79E12DECFC8C081E595E00E947F086B
:100DD000D6018D939C9302E010E0BEC042816181F8
:100DE00081E595E00E946F09D6018C9301E010E047
:100DF000B3C0B280F1808D919C91DC011496ED918D
:100E0000FC9115970190F081E02D04961995182F0B
:100E1000092FC82ED92E4B2D6F2D81E595E00E940C
:100E20006F09A12EE12EF02E0E2D0A1981E595E015
:100E30000E947F08892B31F081E595E00E948708A8
:100E40000B1510F010E088C0F70181937F01ECCF03
:100E5000CB01019604811581080F191F15830483A6
:100E6000E280F380618181E595E00E947209A7012B
:100E7000B80181E595E00E94D90881E595E00E94DE
:100E80008F0968C08091BA0081608093BA0062C007
:100E900089EF90E0A0E0B0E0F60180839183A28327
:100EA000B38304E010E058C09B012F5F3F4F848163
:100EB0009581820F931F958384831181CD90DC905F
:100EC00042815381648175817601FAE9EF1AFDEF61
:100ED000FF0AC70149835A836B837C830E94CF0139
:100EE000C60186599D4FDC011C9324E649815A8135
:100EF0006B817C810E945C040E94290F4B015C0184
:100F00008601075C1E4F0E94290F681979098A091A
:100F10009B09683873418105910588F5C8010E94D5
:100F2000630281112CC0EFCF8D919C918A599D4F06
:100F30000E94CF010FC08D919C91DC01ED91FC913D
:100F40000190F081E02D199551CEC12CD12C0FEFDD
:100F50001FEF02C000E010E0B801C6010F900F9033
:100F60000F900F90DF91CF911F910F91FF90EF9015
:100F7000DF90CF90BF90AF909F908F900895F60133
:100F8000E75CFD4FC780D08403811481083F1105C1
:100F900010F007EF10E0C7010E94CF01DDCF0F93E3
:100FA0001F93CF93DF93FC01CB01C381D4812281B6
:100FB000243611F4209759F420E030E04FEF5FEF32
:100FC000BA01C901DF91CF911F910F910895A781B7
:100FD000B0859D0105811681AE01BD010E941205FB
:100FE000AB019C01EDCF0F931F938CE692E00E9422
:100FF0004D02882301F18CE692E00E944D02882385
:10100000D1F064E672E08CE693E00E94CF07AB017A
:10101000BC01CA016115710511F480E090E0AC01DA
:1010200000E010E024E68DE993E00E94920289E955
:1010300093E00E94CA018FE993E00E946302882333
:1010400001F18FE993E00E9463028823D1F064E606
:1010500072E08FE994E00E94CF07AB01BC01CA01A6
:101060006115710511F480E090E0AC0124E680ED9B
:1010700094E00E945C048CEC94E01F910F910C941E
:10108000CF011F910F9108950E948A0F0E94EE01D7
:101090000E941402C2EFD1E10E94F3072097E1F30E
:1010A0000E94F211F9CFCF92DF92EF92FF920F934D
:1010B0001F93CF93DF931F92CDB7DEB77C016B01F7
:1010C00000E010E00C151D0584F48EE196E00E940E
:1010D000DE118983BE016F5F7F4FF70182819381AB
:1010E0000E94F00B0F5F1F4FEDCF0F90DF91CF915C
:1010F0001F910F91FF90EF90DF90CF900895809116
:10110000850590E020918605821B91090895209124
:10111000860580918505281750F4E22FF0E0E95705
:10112000FA4F808190E02F5F2093860508958FEF1E
:101130009FEF0895E091860580918505E81730F4CA
:10114000F0E0E957FA4F808190E008958FEF9FEF2C
:1011500008950895E0915D05F0915E053097E1F006
:1011600030918605209185053217B0F040E0242F9C
:1011700030E02617370754F4DC01A20FB31F5C914F
:10118000D901A957BA4F5C934F5FF1CF10928605F2
:1011900060938505CB0119940895E0915F05F09166
:1011A0006005309729F0109263051092620519943A
:1011B0000895CF92DF92EF92FF920F931F93CF93F8
:1011C000DF937C01CB018A0120916105222389F004
:1011D000EB016B01C40ED51ECC15DD0569F06991DC
:1011E000D701ED91FC910190F081E02DC701199597
:1011F000F3CF642F0E94540AC801DF91CF911F9151
:101200000F91FF90EF90DF90CF900895CF93DF93F1
:101210001F92CDB7DEB76983209161052223D1F0FB
:1012200020916205203240F021E030E0FC01338360
:10123000228380E090E015C080916305E82FF0E004
:10124000EC59FA4F998190838F5F80936305809367
:10125000620505C061E0CE0101960E94540A81E05A
:1012600090E00F90DF91CF910895FC0113821282DC
:1012700048EE53E060E070E04483558366837783F3
:1012800087E492E0918380830895109286051092FE
:10129000850510926305109262050C949B09CF930B
:1012A000DF93EC01862F0E94B9098DEC98E00E9433
:1012B000720A8AEA98E00E946D0ACE01DF91CF910E
:1012C0000C944509862F413208F040E267E875E04A
:1012D0000E94BD091092860580938505089521E03E
:1012E0000C94620981E080936105609384051092FB
:1012F00063051092620508950F93062F21E0409137
:10130000620564E675E0809184050E94010A1092EE
:10131000630510926205109261050F91089561E0D6
:101320000C947C0970935E0560935D05089581E5DA
:1013300095E00C9435091092140681E08093120612
:101340001092110661E084E10E94641161E085E180
:101350000E946411E9EBF0E080818E7F80838081C0
:101360008D7F808388E48093B80085E48093BC00FF
:101370000895880F8093BA000895413208F03FC065
:10138000909114069111FCCF91E090931406209354
:1013900012062FEF2093A7051092EC05240F20933F
:1013A000EB059093130690911306880F892B809379
:1013B000130680911106813041F41092110680913C
:1013C00013068093BB0085EC01C085EE8093BC00C2
:1013D000809114068130E1F38091EC05841710F4BC
:1013E0004091EC052DEE35E0FB01D9018A2F821BDF
:1013F000841718F48D918193F9CF842F089580E09C
:1014000008950F93413208F046C09091140691114F
:10141000FCCF92E090931406009312069FEF9093F6
:10142000A7051092EC054093EB05FB016DEE75E00E
:10143000DB019A2F961B941718F491919D93F9CF85
:101440001092130690911306880F892B8093130630
:1014500080911106813041F410921106809113069B
:101460008093BB0085EC01C085EE8093BC002223F5
:1014700021F0809114068230E1F38091A7058F3F1F
:1014800061F08091A705803251F08091A7058033EB
:1014900041F483E007C081E005C080E003C082E042
:1014A00001C084E00F910895613298F420911406F0
:1014B000243089F46093C905FC018BEC95E0DC01D4
:1014C0002A2F281B261718F421912D93F9CF80E09D
:1014D000089581E0089582E0089590930E06809328
:1014E0000D0608959093100680930F06089585EDDC
:1014F0008093BC008091BC0084FDFCCF1092140648
:10150000089585EC8093BC001092140608951F92F4
:101510000F920FB60F9211240BB60F922F933F9399
:101520004F935F936F937F938F939F93AF93BF93EB
:10153000EF93FF938091B900887F803609F49CC0B7
:1015400068F5883209F45BC090F4803109F454C026
:1015500038F4882309F4F5C0883009F44DC0F5C08B
:10156000883109F44CC0803209F45DC0EEC080348B
:1015700009F468C048F4803309F455C0883309F091
:10158000E4C08093A705A8C0803509F44FC0883512
:1015900009F45DC0883409F0D8C0D5C0883909F491
:1015A000C6C0A8F4883709F467C038F4883609F44F
:1015B00063C0803709F460C0C8C0883809F4B7C078
:1015C000803909F45FC0803809F0BFC05BC0803B40
:1015D00009F485C038F4803A09F466C0883A09F401
:1015E0007EC0B3C0803C09F4A6C0883C09F4A3C007
:1015F000883B09F489C0A9C08091130610C090915E
:10160000EC058091EB05981770F5E091EC0581E011
:101610008E0F8093EC05F0E0E351FA4F80818093C8
:10162000BB0085EC85C08093A7058DC0E091EC05DB
:1016300081E08E0F8093EC058091BB00F0E0E351D8
:10164000FA4F80839091EC058091EB056DC0E0919D
:10165000EC0581E08E0F8093EC058091BB00F0E0FB
:10166000E351FA4F80838091120681116CC081E0B2
:101670008093110684EA60C083E080931406109280
:10168000A805CFCF8091A805803208F050C0E09126
:10169000A80581E08E0F8093A8058091BB00F0E043
:1016A000E755FA4F8083BDCF8091A805803230F492
:1016B000E091A805F0E0E755FA4F10820E94770A02
:1016C0006091A80570E0E0910D06F0910E0689EAA0
:1016D00095E019951092A8050E94810A36C084E011
:1016E000809314061092CA051092C905E0910F0666
:1016F000F091100619958091C905811105C081E00E
:101700008093C9051092CB05E091CA0581E08E0F48
:101710008093CA05F0E0E553FA4F80818093BB00C7
:101720009091CA058091C905981708F47ACF85E889
:101730008093BC000AC085EC8093BC001092140614
:1017400004C01092A7050E94770AFF91EF91BF9104
:10175000AF919F918F917F916F915F914F913F9149
:101760002F910F900BBE0F900FBE0F901F901895EA
:101770008627682F62956827062E669566956025F0
:10178000062E669560256770082E892F669507944A
:101790006795902D8627069467959025862708954E
:1017A0000895FC01A489B58912961C92129714968B
:1017B0001C921E9213978FEF9FEF1A969C938E9315
:1017C0001997138A128A108A118A1786168611A20F
:1017D00010A28CE090E093838283178E168E08957A
:1017E000AF92BF92CF92DF92EF92FF920F931F932F
:1017F000CF93DF931F92CDB7DEB78C0161157105D2
:1018000081F4CE010196D80115969C938E9314977E
:1018100017969C938E93169719969C938E93189770
:1018200007C0FC01758364836F5F7F4F7783668396
:10183000D80114962D913C91159716968D919C91F7
:1018400017972817390709F057C06DC2608180E0EB
:1018500090E00E94B80BF801938B828B0488F58985
:10186000E02D0780F085E02DD8011E968D919C918A
:101870001F979C012F5F3F4F1F963C932E931E97FF
:1018800014962D913C911597D9012C91E80FF91FD1
:101890002083F801268537858485958528173907A3
:1018A00009F00DC2068CF78DE02DCF010197D8010C
:1018B0005F969C938E935E973A96EE0FFF1FE00F14
:1018C000F11F8081918113969C938E931297D8017A
:1018D0001296ED91FC911397EF30F10508F450C288
:1018E000F8018481958101969583848326813781CF
:1018F0008217930709F417C2D8011296ED91FC9153
:1019000013973197EE30F10508F0E7C1EE58FF4F1D
:101910000C943114D8015496ED91FC915597F184B3
:10192000E12CF286E18614968D919C911597DC014D
:101930008C919701280F311DC90132872187D80169
:1019400052962D913C9153978217930749F481E069
:1019500050968C9350971E968D919C911F9719C00D
:1019600081E0F801818B17C0D8011C968D919C9164
:101970001D975496ED91FC91559725813681281736
:10198000390718F421E051962C9321E0D8015096A4
:101990002C9394838383F8018481958101969583A8
:1019A0008483268137818217930709F496C1D80171
:1019B0001496ED91FC91159780818C3721F0F801F8
:1019C00013821282F0C1D80114968D919C911597C3
:1019D000019615969C938E93149716962D913C9193
:1019E00017978217930709F47BC1D8011496ED91DC
:1019F000FC91159780818C3711F7F80184819581CE
:101A0000019695838483268137818217930709F491
:101A10006AC1D8011496ED91FC91159780818C379D
:101A200071F650961C92F8018481958101969583F8
:101A30008483268137818217930709F45CC1D8011A
:101A40005496ED91FC9155971182108214968D91C8
:101A50009C911597DC018C9190E091838083F80133
:101A600084819581019695838483268137818217AD
:101A7000930709F443C1D8015496ED91FC91559711
:101A800014968D919C911597DC018C91B080A12CBE
:101A90009501282BC90191838083D80114968D91DB
:101AA0009C911597019615969C938E931497169674
:101AB0002D913C9117978217930709F422C1D80101
:101AC0001496ED91FC9115978081843681F08E36C5
:101AD00009F49DC0813609F072CFD8015496ED917A
:101AE000FC915597828381E050968C9354CFD80116
:101AF0005496ED91FC9155978283F80184819581EC
:101B0000019695838483268137818217930709F490
:101B1000FBC0D80191961C921E9290971D961C9224
:101B20001E921C971496ED91FC911597808190E080
:101B30001D969C938E931C97F80184819581019644
:101B400095838483268137818217930709F4DFC048
:101B5000D8011C96DC901C97C12C1D96DC92CE926D
:101B60001C971496ED91FC9115978081F601E80F72
:101B7000F11DCF011D96FC93EE931C975496ED91A9
:101B8000FC915597258136812817390718F481E093
:101B900051968C93D8015E96ED91FC915F97CF01A1
:101BA00001965F969C938E935E973B96EE0FFF1F78
:101BB000E00FF11F88E090E0918380834FC0D8014F
:101BC00052968D919C9153970E94D00BF801938B64
:101BD000828B0488F589E02D12861186D80114962F
:101BE0008D919C911597DC018C9190E09287818773
:101BF000F8018481958101969583848326813781BC
:101C00008217930709F086CE89E090E089C0D80159
:101C10005496ED91FC9155978283F80184819581CA
:101C2000019695838483268137818217930709F46F
:101C300071C0D80114968D919C91159701961596B7
:101C40009C938E93149716962D913C91179782171B
:101C5000930709F089CE8BE090E062C0F80184819F
:101C60009581019695838483268137818217930716
:101C700009F453C0D8011F961C921E921E975396CA
:101C80001C921E9252971C968D919C911D971496B2
:101C9000ED91FC911597892B09F0D8CD31971596C8
:101CA000FC93EE93149765C0D8011496ED91FC91C6
:101CB0001597608152968D919C915397CACDF801EA
:101CC000848195810196958384832681378182174B
:101CD000930751F78EE090E023C08CE090E005C0C0
:101CE00081E090E01DC082E090E0D80113969C93C3
:101CF0008E93129718C083E090E012C084E090E0C9
:101D0000F4CF85E090E00CC086E090E0EECF87E075
:101D100090E006C08AE090E0E8CF8DE090E0E5CF6B
:101D2000F80193838283D80114968D919C91159725
:101D300018962D913C91199782179307A1F5129649
:101D40002D913C9113972D30310569F51F961C920A
:101D50001E921E9753961C921E9252971C962D917E
:101D60003C911D97232BF9F4019715969C938E9324
:101D700014975E96ED91FC915F97CF01019798CDF6
:101D8000E058FF4F0C943114F8018481958101963D
:101D900095838483268137818217930709F00FCFBB
:101DA00088E090E0A2CF0F90DF91CF911F910F912B
:101DB000FF90EF90DF90CF90BF90AF9008951F926B
:101DC0000F920FB60F9211242F933F938F939F93EF
:101DD000AF93BF938091160690911706A0911806B5
:101DE000B09119063091150623E0230F2D3720F40A
:101DF0000196A11DB11D05C026E8230F0296A11D65
:101E0000B11D209315068093160690931706A09394
:101E10001806B093190680911A0690911B06A0919E
:101E20001C06B0911D060196A11DB11D80931A06D6
:101E300090931B06A0931C06B0931D06BF91AF9113
:101E40009F918F913F912F910F900FBE0F901F90F8
:101E500018952FB7F8946091160670911706809127
:101E60001806909119062FBF08953FB7F8948091F6
:101E70001A0690911B06A0911C06B0911D0626B56E
:101E8000A89B05C02F3F19F00196A11DB11D3FBFB2
:101E90006627782F892F9A2F620F711D811D911D42
:101EA00042E0660F771F881F991F4A95D1F7089562
:101EB000CF92DF92EF92FF92CF93DF936B017C0181
:101EC0000E94350FEB01C114D104E104F10489F043
:101ED0000E940E140E94350F6C1B7D0B683E7340F0
:101EE00090F381E0C81AD108E108F108C851DC4F2D
:101EF000EACFDF91CF91FF90EF90DF90CF900895E0
:101F0000019739F0880F991F880F991F0297019741
:101F1000F1F70895789484B5826084BD84B58160BA
:101F200084BD85B5826085BD85B5816085BDEEE6E1
:101F3000F0E0808181608083E1E8F0E010828081C0
:101F400082608083808181608083E0E8F0E080812E
:101F500081608083E1EBF0E0808184608083E0EB4E
:101F6000F0E0808181608083E1E9F0E0808182603F
:101F70008083808181608083E0E9F0E080818160FE
:101F80008083E1EAF0E080818260808380818160EB
:101F90008083E0EAF0E0808181608083E1E2F1E02B
:101FA000808182608083808181608083E0E2F1E0D3
:101FB000808181608083EAE7F0E0808184608083B3
:101FC000808182608083808181608083808180685D
:101FD00080831092C1000895863308F086532091C3
:101FE0007B00982F9870277F922B90937B008770AF
:101FF0002091060290E4299F90011124822B809366
:102000007C0080917A00806480937A0080917A00CD
:1020100086FDFCCF809178002091790090E0922B92
:1020200008951F93CF93DF93182FEB0161E00E9477
:102030002B11209711F460E004C0CF3FD10539F493
:1020400061E0812FDF91CF911F910C946411E12FFA
:10205000F0E0EE52FE4F449150E0FA013197E23148
:10206000F10508F09BC0E157FF4F0C94311484B583
:10207000806884BDC7BD97C084B5806284BDC8BD7B
:1020800092C080918000806880938000D093890006
:10209000C093880088C08091800080628093800017
:1020A000D0938B00C0938A007EC0809180008860AE
:1020B00080938000D0938D00C0938C0074C0809179
:1020C000B00080688093B000C093B3006CC0809172
:1020D000B00080628093B000C093B40064C080916F
:1020E0009000806880939000D0939900C0939800EE
:1020F0005AC080919000806280939000D0939B00A2
:10210000C0939A0050C080919000886080939000A6
:10211000D0939D00C0939C0046C08091A000806831
:102120008093A0008091A0008F7B8093A000D0932B
:10213000A900C093A80037C08091A000806280935E
:10214000A000D093AB00C093AA002DC08091A00046
:1021500088608093A000D093AD00C093AC0023C0F2
:1021600080912001806880932001D0932901C09341
:10217000280119C080912001806280932001D093B2
:102180002B01C0932A010FC08091200188608093A9
:102190002001D0932D01C0932C0105C0C038D1057A
:1021A0000CF04ECF48CFDF91CF911F91089590E072
:1021B000FC013197E231F10508F04CC0EF55FF4FBB
:1021C0000C943114809180008F7703C0809180003F
:1021D0008F7D80938000089580918000877FF9CF64
:1021E00084B58F7702C084B58F7D84BD08958091BA
:1021F000B0008F7703C08091B0008F7D8093B000D6
:102200000895809190008F7707C0809190008F7D16
:1022100003C080919000877F809390000895809103
:10222000A0008F7707C08091A0008F7D03C08091B0
:10223000A000877F8093A0000895809120018F7770
:1022400007C0809120018F7D03C080912001877F8E
:10225000809320010895CF93DF9390E0FC01E85E26
:10226000FD4F2491FC01E25AFD4F8491882349F1EE
:1022700090E0880F991FFC01E852FD4FA591B491A1
:1022800082549D4FFC01C591D4919FB7611108C044
:10229000F8948C91209582238C93888182230AC0A4
:1022A000623051F4F8948C91322F309583238C93C3
:1022B0008881822B888304C0F8948C91822B8C9324
:1022C0009FBFDF91CF9108950F931F93CF93DF931B
:1022D0001F92CDB7DEB7282F30E0F901EE52FE4F46
:1022E0008491F901E85EFD4F1491F901E25AFD4F26
:1022F00004910023C9F0882321F069830E94D7103C
:102300006981E02FF0E0EE0FFF1FE254FD4FA59131
:10231000B4919FB7F8948C91611103C010958123FB
:1023200001C0812B8C939FBF0F90DF91CF911F91A4
:102330000F910895CF93DF93282F30E0F901EE52EB
:10234000FE4F8491F901E85EFD4FD491F901E25A04
:10235000FD4FC491CC2391F081110E94D710EC2F36
:10236000F0E0EE0FFF1FEC55FD4FA591B4912C91BD
:102370002D2381E090E021F480E002C080E090E035
:10238000DF91CF9108950E943B14FC01818D228D35
:1023900090E0805C9F4F821B91098F73992708956D
:1023A000FC01918D828D981731F0828DE80FF11D1F
:1023B000858D90E008958FEF9FEF0895FC01918D3A
:1023C000828D981761F0828DDF01A80FB11D5D9697
:1023D0008C91928D9F5F9F73928F90E008958FEF05
:1023E0009FEF089589E993E1892B41F08AE094E019
:1023F000892B21F00E949913811125C080E090E083
:10240000892B41F080E090E0892B21F00E940000B0
:1024100081111CC080E090E0892B41F080E090E0C9
:10242000892B21F00E940000811113C080E090E010
:10243000892BA1F080E090E0892B81F00E940000C0
:1024400081110AC008950E940A04D8CF0E9400009A
:10245000E1CF0E940000EACF0C9400000895FC0137
:10246000848DDF01A80FB11DA35ABF4F2C91848D1D
:1024700090E001968F739927848FA689B7892C9352
:10248000A089B1898C9180648C93938D848D9813ED
:1024900006C00288F389E02D80818F7D80830895B6
:1024A000CF93DF93EC01888D8823C9F0EA89FB89FB
:1024B000808185FD05C0A889B9898C9186FD0FC0F2
:1024C0000FB607FCF5CF808185FFF2CFA889B989C7
:1024D0008C9185FFEDCFCE010E942F12E7CFDF91C7
:1024E000CF910895CF92DF92FF920F931F93CF93D6
:1024F000DF931F92CDB7DEB76C01DC015B969C9138
:102500005B975C968C915C97981307C05096ED9101
:10251000FC915197808185FD32C0F601038D10E05A
:102520000F5F1F4F0F731127F02EF601848DF812E5
:1025300011C00FB607FCF9CFD6015096ED91FC9172
:102540005197808185FFF1CFC60169830E942F12C8
:102550006981EBCF838DE80FF11DE35AFF4F608354
:10256000D6015B960C935B975296ED91FC91539735
:1025700080818062808381E058968C930DC0D60163
:102580005696ED91FC91579760835096ED91FC9192
:10259000519780818064808381E090E00F90DF918B
:1025A000CF911F910F91FF90DF90CF900895BF9230
:1025B000CF92DF92EF92FF92CF93DF93EC016A010B
:1025C0007B01B22EE889F98982E08083411581EE92
:1025D000580761057105A1F060E079E08DE390E0B6
:1025E000A70196010E940F14215031094109510998
:1025F0005695479537952795211580E1380798F02E
:10260000E889F989108260E874E88EE190E0A7011A
:1026100096010E940F142150310941095109569524
:10262000479537952795EC85FD853083EE85FF85A9
:102630002083188EEC89FD89B082EA89FB8980812C
:1026400080618083EA89FB89808188608083EA8950
:10265000FB89808180688083EA89FB8980818F7D06
:102660008083DF91CF91FF90EF90DF90CF90BF906C
:1026700008951F920F920FB60F9211240BB60F926E
:102680002F938F939F93EF93FF93E0912E06F091FA
:102690002F068081E0913406F091350682FD12C04C
:1026A0009081809137068F5F8F7320913806821753
:1026B00051F0E0913706F0E0E25EF94F958F80939C
:1026C000370601C08081FF91EF919F918F912F91EB
:1026D0000F900BBE0F900FBE0F901F9018951F927A
:1026E0000F920FB60F9211240BB60F922F933F93B8
:1026F0004F935F936F937F938F939F93AF93BF930A
:10270000EF93FF938EE196E00E942F12FF91EF91DD
:10271000BF91AF919F918F917F916F915F914F91F9
:102720003F912F910F900BBE0F900FBE0F901F90F7
:1027300018958EE196E00E94C51121E0892B09F4DD
:1027400020E0822F0895109221061092200688EE34
:1027500093E0A0E0B0E08093220690932306A0933C
:102760002406B093250687E592E090931F06809398
:102770001E0685EC90E090932B0680932A0684EC4D
:1027800090E090932D0680932C0680EC90E090933F
:102790002F0680932E0681EC90E090933106809373
:1027A000300682EC90E0909333068093320686ECFC
:1027B00090E090933506809334061092370610927D
:1027C00038061092390610923A060895CF92DF9299
:1027D000EF92FF920F931F93CF93DF936C017A01D7
:1027E000EB01E60EF71E00E010E0CE15DF0561F00C
:1027F0006991D601ED91FC910190F081E02DC60127
:102800001995080F191FF1CFC801DF91CF911F91C2
:102810000F91FF90EF90DF90CF9008950895A1E27F
:102820001A2EAA1BBB1BFD010DC0AA1FBB1FEE1F4A
:10283000FF1FA217B307E407F50720F0A21BB30B95
:10284000E40BF50B661F771F881F991F1A9469F711
:1028500060957095809590959B01AC01BD01CF016D
:102860000895EE0FFF1F0590F491E02D1994079045
:10287000F691E02D199481E090E0F8940C94821484
:10288000FB01DC0105900D920020E1F70895FC01A9
:1028900005900020E9F7809590958E0F9F1F089571
:1028A000DC01CB01FC01F999FECF06C0F2BDE1BD10
:1028B000F89A319600B40D9241505040B8F70895FF
:1028C000DC01A40FB51F4150504048F0CB01840FEC
:1028D000951F2E910E94711441505040D0F70895D9
:1028E000262FF999FECF92BD81BDF89A019700B4C9
:1028F000021639F01FBA20BD0FB6F894FA9AF99A69
:082900000FBE0895F894FFCF0B
:102908000000BF0680000100000000C311000000A5
:1029180000C31100000000C31100000000CA01C379
:102928001100000000CA01530800000000CF011D7B
:102938000400000000AF01FEFF0000B901FCFF0029
:1029480000BC01000000000609D9087F0887089A22
:1029580008A908000000007212E613C511DE11D0A4
:0429680011501200F8
:00000001FF
