:100000000C94B6000C94DE000C94DE000C94DE0020
:100010000C94DE000C94DE000C94DE000C94DE00E8
:100020000C94DE000C94DE000C94DE000C94DE00D8
:100030000C94DE000C94BA290C94DE000C94DE00C3
:100040000C941E2B0C94DE000C949A2C0C94DD2C3A
:100050000C94DE000C94DE000C94DE000C94DE00A8
:100060000C94C5110C94DE00D216E616FC16181777
:100070003C1766178517BC176716F6179116B41646
:1000800017183118BC16C016DA16F0160C172A17F6
:100090005A177917A118D517EA17F617A8160B18CB
:1000A0003C18687474703A2F2F6769746875622EF3
:1000B000636F6D2F776865656C65722D6D6963720E
:1000C0006F666C7569646963732F6D6F746F722DE1
:1000D000636F6E74726F6C2E67697400302E322EEF
:1000E000706F73743200576865656C6572204C617F
:1000F00062006D6F746F725F636F6E74726F6C000D
:10010000302E31302E706F737431340000000007D0
:1001100000020100000304060000000000000000CF
:10012000010204081020408001020408102001028E
:10013000040810200404040404040404020202025B
:100140000202030303030303000000002300260050
:10015000290000000000250028002B0000000000FE
:10016000240027002A007E090A14992D11241FBE9D
:10017000CFEFD8E0DEBFCDBF13E0A0E0B1E0E4E018
:10018000F0E602C005900D92A43FB107D9F717E041
:10019000A4EFB3E001C01D92AC3AB107E1F711E062
:1001A000CCE6D1E004C02297FE010E945E2FC63645
:1001B000D107C9F70E94A0100C9400300C940000E5
:1001C00040E850E060E070E0BC0162557E4FCB013A
:1001D000BA01089502970C94E00004970C94E00093
:1001E000E0919F05F091A0050280F381E02DBC0114
:1001F0008FE995E00994FC0120E030E04789508DBB
:10020000452B49F4F901EE0FFF1FE80FF91F708F1E
:10021000678B822F08952F5F3F4F32962430310530
:1002200069F78FEF0895FC018789908D892B59F02C
:10023000818D928D892B51F0838D948D892B91F432
:1002400082E090E005C080E090E002C081E090E0B4
:10025000DC01AA0FBB1FAE0FBF1F58967C936E9395
:10026000579708958FEF08957F928F929F92AF9244
:10027000BF92CF92DF92EF92FF920F931F93CF9393
:10028000DF937C01EB01942E8C016C0188E0C80E99
:10029000D11C712C812C5701A2E0AA0EB11C99200F
:1002A000A1F0F8018789908D009779F0DC01ED913C
:1002B000FC91D70156964C9150E00480F581E02DD9
:1002C0009E01B5010995811113C00E5F1F4F0C15DA
:1002D0001D0529F7711023C0EA81FB8181818F7090
:1002E0008730E9F088248394911019C0812C17C0BD
:1002F000F8018789908DDC01ED91FC91AA81BB8189
:1003000014962C9130E04C895D896885798502804E
:10031000F381E02D0995882E77247394D6CF882D0C
:10032000DF91CF911F910F91FF90EF90DF90CF90D1
:10033000BF90AF909F908F907F900895623030F47F
:10034000FC01E60FF11D428380E008958FEF0895D0
:10035000623030F4FC01E60FF11D428380E0089525
:100360008FEF0895FC0183819481009759F0FB0180
:100370002081FC01E159FF4F2083FC01E259FF4F2E
:1003800021E0208380E008957F928F929F92AF9228
:10039000BF92CF92DF92EF92FF920F931F93CF9372
:1003A000DF937C01EB01942E8C016C0186E0C80E7A
:1003B000D11C712C812C5701A2E0AA0EB11C9920EE
:1003C000A1F0F8018789908D009779F0DC01ED911B
:1003D000FC91D70156964C9150E00480F581E02DB8
:1003E0009E01B5010995811113C00E5F1F4F0C15B9
:1003F0001D0529F7711023C0EA81FB8181818F706F
:100400008730E9F088248394911019C0812C17C09B
:10041000F8018789908DDC01ED91FC91AA81BB8167
:1004200014962C9130E04C895D896885798502802D
:10043000F381E02D0995882E77247394D6CF882DEB
:10044000DF91CF911F910F91FF90EF90DF90CF90B0
:10045000BF90AF909F908F907F900895FC01838113
:100460009481892B51F081E0FB01408151816281AF
:100470007381452B462B472B09F480E00895FC013E
:10048000828193810C94AE15CF93DF93EC010E948F
:100490003F021C82DF91CF9108952130310549F44C
:1004A000DC01ED91FC910680F781E02DDA014C91A1
:1004B000099480E00895CF93DF93FC01452B39F434
:1004C000E901AA81BB8181E022819C91291380E00E
:1004D000DF91CF9108952430310561F4DC01ED9175
:1004E000FC91DA012D913D914D915C910680F7814F
:1004F000E02D099480E00895CF93DF93FC01452B14
:1005000039F4E901AA81BB8181E022819C91291300
:1005100080E0DF91CF9108950F931F93CF93DF93E6
:100520008C01EB01BC01CE010E94AE2FC8010E94DC
:10053000B52FAC01BE01CB01BA01DF91CF911F9164
:100540000F910895611571058105910509F465C044
:10055000DC01CB01F3E0880F991FAA1FBB1FFA959E
:10056000D1F7009721E0A207B10520F421E0209304
:10057000F20642C0009728E0A207B10558F422E035
:100580002093F206E3E0B695A79597958795EA95AF
:10059000D1F732C0009720E4A207B10558F423E058
:1005A0002093F20676E0B695A795979587957A956C
:1005B000D1F722C00097A10521E0B20740F424E062
:1005C0002093F206892F9A2FAB2FBB2715C00097D7
:1005D000A10524E0B20758F425E02093F2065AE082
:1005E000B695A795979587955A95D1F705C085E05B
:1005F0008093F2068FEF9FEF9093F4068093F306BB
:100600008091F3069091F406909387008093860082
:100610008091F20680618093810082EF94E0909354
:10062000F1068093F00681E080936F0008956034B6
:1006300028E372078105910509F44CC030F5603B51
:1006400024E072078105910509F444C060F46C321E
:1006500021E0720781059105E9F168357240810555
:100660009105D1F537C0603C22E172078105910503
:1006700089F1603825E272078105910559F16036EC
:1006800079408105910541F525C062312AE772075D
:1006900081059105F9F060F461152BE4720781057D
:1006A0009105C1F06038704781059105A9F412C029
:1006B000611521EE72078105910561F0611522EC4B
:1006C000720721E08207910529F0611576498105BD
:1006D000910511F481E0089580E00895FC01838183
:1006E0009481892B39F0FB01608171818281938132
:1006F0000C94170380E008950F931F93FC018381EE
:100700009481892BB1F0FB01608171818281938199
:100710008B019C010850110921093109003711058D
:100720002105310530F48AE996E00E94C21381E088
:1007300001C080E01F910F9108950F931F93CF93F5
:10074000DF93EC011A86198600E010E02B813C81D2
:1007500089859A850217130760F4EF81F885E00F09
:10076000F11F60810E9495159A8789870F5F1F4F3F
:10077000EDCF0E94AD159A878987DF91CF911F91A8
:100780000F910895CF92DF92EF92FF920F931F93F4
:10079000CF93DF93EC016A017B014115510561059F
:1007A000710519F410926F0005C0483C51056105B0
:1007B000710508F18E0106591F4FF8018081918162
:1007C000A281B381C816D906EA06FB06B1F0892BCF
:1007D0008A2B8B2B11F010926F00C701B6010E947B
:1007E000A202F801C082D182E282F382C759DF4FB0
:1007F00081E0888303C080E001C081E0DF91CF9178
:100800001F910F91FF90EF90DF90CF900895FC0122
:1008100083819481009739F0FB014081518162818D
:1008200073810C94C20380E00895FF920F931F938D
:10083000CF93DF93EC01F62E8C01095A1F4FF8017C
:1008400080816817C9F0662359F0FE01E659FF4F11
:1008500060817181828193810E94A20260E003C065
:1008600010926F0061E089E00E94432AF801F08253
:10087000CA5ADF4F81E0888381E0DF91CF911F91D9
:100880000F91FF900895FC0183819481009721F0DE
:10089000FB0160810C94150480E00895FF920F9392
:1008A0001F93CF93DF938C01F62EEC01C75ADF4FD5
:1008B0008881681749F08DE00E94432AF882F80188
:1008C000E85AFF4F81E0808381E0DF91CF911F9153
:1008D0000F91FF9008950F931F93CF93DF938C0197
:1008E000FC01E25DFD4F40815181628173814F5F68
:1008F0005F4F6F4F7F4F4083518362837383FC014F
:10090000E95AFF4F8081882309F467C0F801E15953
:10091000FF4F8081F801EE5CFD4F8823D1F04081CC
:10092000518162817381D801A75ABF4F8C9188236E
:1009300029F081E090E0A0E0B0E003C08FEF9FEFEE
:10094000DC01840F951FA61FB71F80839183A283AC
:10095000B38380819181A281B381E801C05ADF4FC6
:10096000488159816A817B8184179507A607B7075B
:10097000A1F184179507A607B70714F460E001C03A
:1009800061E0C8010E944E0461E08AE00E94432AAF
:10099000F801EB59FF4F808191810E94BD2B60E0EF
:1009A0008AE00E94432A488159816A817B81F8014B
:1009B000E75AFF4F8081882329F081E090E0A0E092
:1009C000B0E003C08FEF9FEFDC01840F951FA61FDF
:1009D000B71F88839983AA83BB83DF91CF911F912F
:1009E0000F91089586EF93E00C946B048F929F9281
:1009F000AF92BF92CF92DF92EF92FF92CF93DF93AD
:100A0000EC016A017B01CB01BA01F7FE09C00E942B
:100A1000AE2E9B01AC0160E074E284E799EC08C063
:100A20000E94AE2E9B01AC0160E074E284E799E481
:100A30000E94182E0E94802E4B015C01C701B60156
:100A4000662797FD6395772788279927CE010E940F
:100A50004E04B501A401CE01DF91CF91FF90EF903C
:100A6000DF90CF90BF90AF909F908F900C94C20377
:100A7000FC0183819481009721F0FB0160810C943B
:100A80004E0480E0089586EF93E00E94DC1460EF4E
:100A900070E08AE996E00E940514E1E8F0E080E168
:100AA00080831092800084E08093F20682E19AE7CE
:100AB0009093F4068093F3069093870080938600CA
:100AC00084E180830895DC01ED91FC910280F38143
:100AD000E02D41E050E009940F931F93CF93DF93F3
:100AE000EC018B01E881F9816F5F7F4F0280F38118
:100AF000E02D41E050E00995E881F9810280F38121
:100B0000E02D41E050E0B801CE01DF91CF911F917F
:100B10000F910994CF93DF93EC011E8A188E1F8AE0
:100B20001A8E198E1C8E1B8E1E8E1D8E89E891E0EA
:100B30009983888389E591E098A38F8F1BA21AA2DD
:100B400087E089A385E691E09DA38CA318A61FA248
:100B500086E08EA381E791E09AA789A71DA61CA62F
:100B600082E08BA78DE791E09FA78EA71AAA19AA0A
:100B700081E088ABBE01615E7F4FCE010E94FB0029
:100B8000E881F981BE016C5D7F4F0280F381E02D29
:100B9000CE010995E881F981BE01675D7F4F028032
:100BA000F381E02DCE010995E881F981BE01625DF6
:100BB0007F4F0280F381E02DCE01DF91CF91099428
:100BC0000F931F93CF93DF93EC018B01E881F981A1
:100BD0006F5F7F4F0280F381E02D41E050E0099587
:100BE000E881F9810280F381E02D41E050E0B80115
:100BF000CE01DF91CF911F910F910994CF93DF9395
:100C0000EC011E8A188E1F8A1A8E198E1C8E1B8E5E
:100C100081E591E0998388838DE291E09E8F8D8FAD
:100C200019A218A282E08F8F89E391E09BA38AA387
:100C30001EA21DA283E08CA385E491E098A78FA358
:100C40001BA61AA681E089A7BE01635E7F4FCE0175
:100C50000E941301E881F981BE016E5D7F4F028021
:100C6000F381E02DCE010995E881F981BE01695D2E
:100C70007F4F0280F381E02DCE01DF91CF91099467
:100C80008F929F92AF92BF92CF92DF92EF92FF929C
:100C90000F931F93CF93DF93EC018BE091E0998347
:100CA000888381E191E09B838A8387E191E09D8342
:100CB0008C83CE0184960E94FE05FE01E05BFF4F0F
:100CC0001182108213821282FE01EC5AFF4F87EFCD
:100CD00091E091838083CE0180599F4F0E948A05C5
:100CE000FE01ED55FF4F1182108213821282FE0128
:100CF000E955FF4F87EB91E091838083FE01E75038
:100D0000FF4F1182108212821482138288248A94E7
:100D1000982C9286818610E5A12EB12CB682A582F0
:100D2000CE0187559F4F908787838E010C5F1E4FA2
:100D3000D8011C9211961C9211971D961C921E921E
:100D40001C971F961C921E921E9753961C921E92E1
:100D5000529791961C921E9290975596FC93EE9303
:100D60005497C8010E94AE157E01BAEDEB1ABEEF92
:100D7000FB0A8DE1C82E81E0D82EF701D182C08216
:100D800013830283C7010E943F0285E291E0D701ED
:100D90008D939C93FE01E65DFE4F8EEF96E091836E
:100DA0008083FE01E458FE4F118210821282148269
:100DB000138292868186B682A582CE01845D9E4F83
:100DC000908787838E0109571E4FD8011C92119678
:100DD0001C9211971D961C921E921C971F961C9296
:100DE0001E921E9753961C921E92529791961C9299
:100DF0001E9290975596FC93EE935497C8010E94CB
:100E0000AE157E01B7E5EB1ABEEFFB0AF701D18202
:100E1000C08213830283C7010E943F0281E991E0EF
:100E2000D7018D939C93FE01E355FE4F1082C701BD
:100E30000E94440289E991E0998388838FE991E0D7
:100E40009B838A8385EA91E09D838C83FE01E25D2A
:100E5000FD4F1082118212821382CE5CDD4F188208
:100E600019821A821B8261E08DE00E940A2A61E0E9
:100E700089E00E940A2A61E08AE00E940A2A61E071
:100E800085E00E940A2A61E086E00E940A2A61E069
:100E900087E00E940A2A61E089E00E94432A60E01C
:100EA00085E00E94432A60E086E00E94432A60E0D9
:100EB00087E0DF91CF911F910F91FF90EF90DF902E
:100EC000CF90BF90AF909F908F900C94432AEF9259
:100ED000FF920F931F93CF93DF93CDB7DEB72A977F
:100EE0000FB6F894DEBF0FBECDBF8C01FC01E45BF2
:100EF000FF4FE080F180FC01E65BFF4F40815181B4
:100F0000B701CE0101960E94CF18F801E25BFF4FB6
:100F100060817181A801CE0101960E94B91C8823CD
:100F200019F02F81388504C0E12CF12C20E030E04D
:100F3000B901C7012A960FB6F894DEBF0FBECDBF28
:100F4000DF91CF911F910F91FF90EF900895CF9275
:100F5000DF92EF92FF920F93CF93DF93CDB7DEB77F
:100F600028970FB6F894DEBF0FBECDBFDC01CB01D2
:100F70006A017901BC01CD010E94C02129833A8315
:100F80004B835C836D837E838F839887F6016081BA
:100F90007181A701CE010196002319F00E94EF276D
:100FA00002C00E946B2628960FB6F894DEBF0FBED3
:100FB000CDBFDF91CF910F91FF90EF90DF90CF9059
:100FC0000895EF92FF920F93CF93DF93CDB7DEB7E3
:100FD000A0970FB6F894DEBF0FBECDBF7C01FC0119
:100FE000E25BFF4F8081918198A38F8F01E09E018A
:100FF0002F5F3F4FAE01415E5F4F60E070E0CB017D
:101000000E94A7078EE1FE013196D70101900D9253
:101010008A95E1F7A0960FB6F894DEBF0FBECDBF5C
:10102000DF91CF910F91FF90EF900895CF92DF92D3
:10103000EF92FF920F931F93CF93DF93CDB7DEB75D
:1010400069970FB6F894DEBF0FBECDBF8C017B0150
:101050006901CE0101960E944F1E882309F4ADC09C
:10106000A601B701CE010D960E944F1E882309F4F8
:10107000A4C0EB81FC812181822F807C09F092C089
:101080002073203131F4EB85FC858081882339F091
:101090000CC0203221F4EB85FC85C08008C0CC2434
:1010A000C394222321F0C12C02C0CC24C394D801C4
:1010B000ED91FC910190F081E02D4C2DBE016F5F10
:1010C0007F4FC801298F09958823D9F0EB81FC81D6
:1010D000448150E069857A858D899E890E94BE2F62
:1010E000298D203131F4EB85FC858081EF89F88DE5
:1010F00007C0203231F4EF89F88DAB85BC858C9127
:101100008083CC2009F44EC0AB81BC8111968C91B8
:1011100011978F70873009F045C0EB85FC85808181
:10112000EF89F88D8083F8012689822F90E0FC01F9
:101130003196EE0FFF1FEE0FFF1FE00FF11FB1837F
:10114000A083FC01EE0FFF1FEE0FFF1FE00FF11F4A
:1011500089819A81938382832F5FD80156962C933D
:10116000E12CF12CD12CEC14FD04C4F4EB81FC81B6
:1011700084818E9D802D112490E02D893E89280F39
:10118000391F49855A85480F591F66817781C801E3
:101190000E941608BFEFEB1AFB0AE5CFF80186891B
:1011A0008150868BCE0101960E946F1E882329F004
:1011B000CE010D960E946F1E59CF69960FB6F89416
:1011C000DEBF0FBECDBFDF91CF911F910F91FF907A
:1011D000EF90DF90CF9008954F925F926F927F9241
:1011E0008F929F92AF92BF92CF92DF92EF92FF9237
:1011F0000F931F93CF93DF93CDB7DEB7A0970FB6B2
:10120000F894DEBF0FBECDBF7C016C018EE4C80E2A
:10121000D11CF701E65BFF4F808091805701ECE421
:10122000AE0EB11CF5010081118142E050E060E09A
:1012300070E0CE0101960E94CE2F49815A8184161A
:10124000950640F062E070E0C8010E94CE2F8981CF
:101250009A8104C000E010E080E090E001151105E3
:1012600021F4C7010E94E1070BC02C01380100E006
:101270009701A601C301B2010E94A707882389F341
:10128000F501A080B180F6018081918198A38F8FB4
:1012900001E09E012F5F3F4FAE01415E5F4F60E076
:1012A00070E0CB010E94A7078EE1FE013196D501C7
:1012B00001900D928A95E1F7F60160817181F70145
:1012C00014AA9501A701C7014E960E941608A09680
:1012D0000FB6F894DEBF0FBECDBFDF91CF911F9147
:1012E0000F91FF90EF90DF90CF90BF90AF909F90C5
:1012F0008F907F906F905F904F90089586EF93E06E
:101300000E94400686EF93E09093F5038093F403E8
:101310000895CF93DF93E0911C05F0911D05C281E4
:10132000D3818EEF96E00E94032CBC018CE195E006
:10133000FE01DF91CF910994BF92CF92DF92EF929D
:10134000FF920F931F93CF93DF931F92CDB7DEB71A
:101350008C017B018AE996E00E94FA12B82E81E0A6
:10136000E81AF108F8018481811101C0B482C12C0E
:10137000D12CCE14DF04A4F48AE996E00E94FA127C
:101380008983F8018481B81207C0BE016F5F7F4F67
:10139000828193810E94CD15FFEFCF1ADF0AE9CF3A
:1013A0000F90DF91CF911F910F91FF90EF90DF9001
:1013B000CF90BF900895EF92FF920F931F93CF931A
:1013C000DF93CDB7DEB763970FB6F894DEBF0FBEDD
:1013D000CDBF8C012B8B1A8219828FEF9FEF9B87D9
:1013E0008A872B835F834E83798768875D834C83ED
:1013F000CE0101960E949D038CE79CE7ACE7B0E02C
:101400008C879D87AE87BF878091BA0086958A8B2F
:10141000F80160818AE996E00E94E513BE016E5EE4
:101420007F4F8AE996E00E94630543E050E0BE01E9
:10143000645F7F4F8AE996E00E944C13BE016F5FA4
:101440007F4F8AE996E00E946C05BE016D5E7F4F7A
:101450008AE996E00E9463058C819D81998B888B37
:10146000BE01605F7F4F8AE996E00E946C058AE9C1
:1014700096E00E940214EC80FD80E114F10461F119
:10148000F0E2EF16F10418F05FE1E52EF12CF8011F
:1014900060818AE996E00E94E513BE016E5E7F4F8F
:1014A0008AE996E00E94630568857985A7018AE943
:1014B00096E00E944C138AE996E00E940214888507
:1014C00099858E0D9F1D998788878C819D818E19A6
:1014D0009F099D838C83CFCFF80160818AE996E0D4
:1014E0000E94E513BE016E5E7F4F8AE996E00E947E
:1014F0006305BE01665F7F4F8AE996E00E946C0536
:101500008AE996E00E94021463960FB6F894DEBF53
:101510000FBECDBFDF91CF911F910F91FF90EF9044
:1015200008956F927F928F929F92AF92BF92CF92C7
:10153000DF92EF92FF920F931F93CF93DF93CDB77C
:10154000DEB7A6970FB6F894DEBF0FBECDBFDC01A5
:10155000FB0179012081213A09F4D8C208F099C031
:10156000213109F4BBC108F053C0283009F473C11C
:1015700038F5233009F44DC190F48D919C912130C0
:1015800009F42DC108F03AC1DC01ED91FC91019004
:10159000F081E02D0995BC0180E091E02AC1253061
:1015A00009F451C108F442C1263009F0BFC40E94B9
:1015B000682BD7016D937D938D939C93139763C490
:1015C0002C3009F46FC130F42A3009F462C108F4F8
:1015D0004DC164C12E3009F46FC108F466C12F30CB
:1015E00009F470C1203109F0A1C49B012F5F3F4F66
:1015F00083819481820F931F94838383018112815D
:10160000238134817901000F111F000F111F95C430
:10161000253609F4DEC1B0F4213609F497C150F43F
:10162000203409F46BC1213409F477C1203209F068
:101630007DC423C2233609F48DC108F0C0C180E205
:1016400090E0C1C1293609F412C260F4273609F4CA
:10165000C5C108F0F2C1428161818AE996E00E9429
:10166000E2135CC4203809F408C238F42A3609F0C1
:101670005DC48091BA008E7FFDC1213809F402C299
:10168000203A09F053C48D919C9106960E94EC0873
:1016900052C4273E09F456C308F063C0213C09F444
:1016A000B4C208F041C0253A09F484C260F4CD9078
:1016B000DC90233A09F449C208F04CC2C6010696F0
:1016C0000E94E10738C4273A09F488C208F47FC2AF
:1016D000203C09F02BC48D919C918C010A5A1F4F1C
:1016E000FC01E955FF4FC080D18060E070E080E0F0
:1016F00090E00E94C0212B8F3C8F4D8F5E8F6F8FAB
:1017000078A389A39AA3AE014F5F5F4FB601CE01C4
:101710004B960E94EF278AE1FE013196D801019095
:101720000D928A95E1F707C4223E09F4EEC248F40F
:10173000203E09F4D1C208F0DEC2223C09F48AC27C
:10174000F5C3243E09F4ECC208F4E4C2253E09F4D2
:10175000ECC2263E09F0EAC38D919C910E946B0475
:10176000EAC32F3E09F482C3C8F42B3E09F45EC3DA
:1017700050F4293E09F4EBC208F051C3ED91FC91FD
:10178000E25DFD4FA9C38D919C912D3E09F451C39B
:1017900008F068C3FC01E05AFF4F6CC3233F09F413
:1017A0008FC360F48D919C91213F09F46FC308F0C1
:1017B0007DC3418152816381748175C3253F09F4E2
:1017C00099C308F48EC3263F09F4A3C3273F09F049
:1017D000ADC361818D919C910E944E04A2C3DC0136
:1017E000ED91FC910190F081E02D0995BC0182EF13
:1017F00090E00E948C028B017C019FC3DC01ED9183
:10180000FC910190F081E02D0995BC0186EE90E0FD
:10181000F0CF8D919C91DC01ED91FC910190F081D4
:10182000E02D0995BC018CED90E0E3CF8D919C916A
:10183000DC01ED91FC910190F081E02D0995BC0156
:1018400082EA90E0D6CF0E94742BF7016083718307
:101850008283938318C3618172816115710509F4D4
:101860006AC380E090E00E94972B65C32091A8078F
:101870003091A9078DB79EB72115310519F48C5AFF
:10188000974002C0821B930BAA2797FDA095BA2F01
:10189000F5C2628181810E940A2A4DC381810E9422
:1018A000792A3CC36281818123C281810E94A22A5C
:1018B000F701918380838AC0628170E081810E94F8
:1018C000BF2A39C39B012F5F3F4F83819481820FD1
:1018D000931F948383838181928175C09B012F5FC5
:1018E0003F4F83819481820F931F948383838181EF
:1018F0009281A381B4818C017D011FC39B012F5F65
:101900003F4F85819681820F931F968385836181E6
:10191000728143815481F89414C103811481C18080
:10192000D2808D919C91DC011296ED91FC911397E0
:101930000190F081E02D02960995DC01CB017D013B
:10194000A801B601CD010E94CE2FF7C28091BA0046
:101950008695E7C28D919C91DC011496ED91FC91E6
:1019600015970190F081E02D049609956B017C019B
:1019700008E0902E00E010E00C151D0508F0DDC217
:10198000692D8AE996E00E94E5138AE996E00E94B3
:10199000021481110FC05801BFEFAB1ABB0AF70147
:1019A000E00FF11F908261E070E080E090E00E9423
:1019B000972B85019394E8E79E12DECFBEC28AE999
:1019C00096E00E94F212D7018D939C9302E010E002
:1019D000B4C28AE996E00E94FA12A3C21281D180B1
:1019E0008D919C91DC011496ED91FC9115970190DD
:1019F000F081E02D04960995082FB92EE82EF92ED6
:101A0000412F6D2D8AE996E00E94E213A02EC02E90
:101A1000DB2C0C2D0A198AE996E00E94F212892B20
:101A200031F08AE996E00E94FA12011710F010E0F6
:101A300084C2F60181936F01ECCFCB010196048142
:101A40001581080F191F15830483C280D38061811B
:101A50008AE996E00E94E513A601B8018AE996E0BA
:101A60000E944C138AE996E00E94021464C280919D
:101A7000BA0081608093BA005EC289E490E0A0E081
:101A8000B0E0FCC19B012F5F3F4F84819581820FA5
:101A9000931F95838483F1800D911C914281538122
:101AA000648175816801F7E5CF1AFEEFDF0AC60190
:101AB0004BA35CA36DA37EA30E944402C80183557F
:101AC0009E4FDC01FC9224E64BA15CA16DA17EA19E
:101AD0000E94DB090E94682B4B015C017801B5E58F
:101AE000EB1ABEEFFB0A0E94682B681979098A0974
:101AF0009B09683873418105910508F035C2D7010B
:101B0000ED91FC91808981112FC2EDCF8D919C9137
:101B100006960E946707009709F40DC26B8F7C8FB1
:101B20008D8F9E8FF89442E050E060E070E0CE012F
:101B30004B960E94DE2F4B8D5C8D62E070E08D8DA8
:101B40009E8D0E94DE2F7894F6C1C60106960E94F3
:101B5000670751CE9B012F5F3F4F83819481820F96
:101B6000931F948383836181728183819481F601C1
:101B7000EE5AFF4FA080B1803601B6E06B0E711CAB
:101B80004601E4E58E0E911C01E09501A4010E943E
:101B9000A707182F882359F0D4016D917C91F60185
:101BA00012AE9301A501C60184960E941608D701C2
:101BB0001C93B9C121E081819281A381B481892BD9
:101BC0008A2B8B2B09F420E0F7012083ACC16181C3
:101BD0007281838194810E941703A0C16181728107
:101BE000838194818B019C010850110921093109DD
:101BF000003711052105310530F48AE996E00E948D
:101C0000C21381E08EC180E08CC10D911C91F8015E
:101C1000EB55FF4FE080F180F801ED55FF4F40811B
:101C20005181B701CE0101960E94CF18A8014A5AEE
:101C30005F4FF801E955FF4F60817181CE01019638
:101C40000E94B91C882319F00F81188576C1E12CF8
:101C5000F12C71C19B012F5F3F4F43815481420F93
:101C6000531F548343830D911C9161817281838141
:101C700094816801F6E5CF0ED11CF801EB55FF4FBA
:101C8000A080B180CA010E94C02129833A834B837E
:101C90005C836D837E838F839887480127EA820E59
:101CA000911CD4016D917C91A501CE0101960E94F9
:101CB000EF27782E882369F0F40160817181F801A3
:101CC000EA57FF4F10829601A501C6014A960E946D
:101CD0001608D7017C9227C113810281618185E0BA
:101CE0000E94432A602F86E00E94432A612F87E0EA
:101CF0000E94432A20C18D919C91DC01ED91FC91C1
:101D00000190F081E02D099576CD8D919C910E94F6
:101D1000DC1411C161818D919C910E940E140BC144
:101D2000ED91FC91EE5CFD4FA5C041815281638134
:101D30007481ED91FC91EE5CFD4F40835183628391
:101D40007383F9C0ED91FC91E25DFD4F93C08181F9
:101D50009281A381B48113E0880F991FAA1FBB1F32
:101D60001A95D1F70097F1E0AF07B10520F421E013
:101D70002093F20642C0009728E0A207B10558F46C
:101D800022E02093F206F3E0B695A7959795879504
:101D9000FA95D1F732C00097E0E4AE07B10558F4E8
:101DA00023E02093F206E6E0B695A79597958795F0
:101DB000EA95D1F722C00097A105F1E0BF0740F4F2
:101DC00024E02093F206892F9A2FAB2FBB2715C052
:101DD0000097A10524E0B20758F425E02093F2060D
:101DE0006AE0B695A795979587956A95D1F705C04E
:101DF00085E08093F2068FEF9FEF9093F406809337
:101E0000F3068091F3069091F406909387008093F7
:101E100086008091F2068061809381008CC0618190
:101E20007281838194810E94A20285C010926F000A
:101E300082C09C012E5C3D4FDC01A05ABF4F8D91AA
:101E40009D910D90BC91A02D41815281638174813F
:101E5000840F951FA61FB71FF90180839183A2836A
:101E6000B38369C0FC01EB59FF4F04C0ED91FC91B5
:101E7000E659FF4F80819181A281B381F701808370
:101E80009183A283B38304E010E057C04181528163
:101E900063817481FC01E159FF4F21E02083FC0143
:101EA000E259FF4F20830E94F60445C0FC01E1592E
:101EB000FF4F1082FC01E259FF4F21E020833BC01D
:101EC0008D919C91FC01EE5CFD4F1082118212827B
:101ED0001382FC01E05AFF4F10821182128213829A
:101EE0002AC041815281638174818D919C910E94AD
:101EF000C20314C08D919C91DC01A159BF4F218177
:101F00002C93FC01E259FF4F21E02083F70110825E
:101F10000AC061818D919C910E941504D7018C9318
:101F200002C0F701808301E010E007C0E12CF12C32
:101F30000FEF1FEF02C000E010E0B801C701A69646
:101F40000FB6F894DEBF0FBECDBFDF91CF911F91CA
:101F50000F91FF90EF90DF90CF90BF90AF909F9048
:101F60008F907F906F900895F801E458FE4FE780BE
:101F7000F084038114810834110510F007E410E0A7
:101F8000C6010E944402D9CF0F931F93CF93DF93D2
:101F9000FC01CB01C381D4812281243611F4209726
:101FA00059F420E030E04FEF5FEFBA01C901DF9153
:101FB000CF911F910F910895A781B0859D01058153
:101FC0001681AE01BD010E94910AAB019C01EDCFCB
:101FD000CF93DF93CDB7DEB762970FB6F894DEBF2D
:101FE0000FBECDBFE0911E05F0911F0580898823AB
:101FF00009F47EC064EF73E08FEE94E00E94C40F9A
:102000009B01009711F420E030E0E4E6EA8B1A82AD
:1020100019824FEF5FEF5B874A87EB833F832E8305
:10202000998788873D832C83CE0101960E949D036A
:102030008CE79CE7ACE7B0E08C879D87AE87BF87D5
:102040008091200590912105DC01ED91FC910280A9
:10205000F381E02D43E050E0BE01645F7F4F0995BE
:10206000BE016F5F7F4F80912005909121050E94F6
:10207000E0058091200590912105DC01ED91FC9116
:102080000280F381E02D41E050E0BE016E5E7F4FA3
:1020900009958B81843641F58C819D81998B888B44
:1020A000BE01605F7F4F80912005909121050E94C5
:1020B000E0054C815D814115510569F08091200555
:1020C00090912105DC01ED91FC9168857985028074
:1020D000F381E02D0995BE01665F7F4F8091200559
:1020E000909121050E94E0058CE195E00E943F025D
:1020F000E091A105F091A20580898823C1F064EFE9
:1021000073E082E795E00E94C40FAB01BC01CA01F5
:102110006115710511F480E090E0AC0124E683EADA
:1021200095E00E94DB098FE995E00E9444026296E7
:102130000FB6F894DEBF0FBECDBFDF91CF910895EB
:102140000E94C82B0E944305C4EDDCE20E94E80F08
:102150002097E1F30E94D42CF9CFCF92DF92EF9237
:10216000FF920F931F93CF93DF931F92CDB7DEB7EC
:102170007C016B0100E010E00C151D0584F48EEF6E
:1021800096E00E94302C8983BE016F5F7F4FF7017C
:10219000828193810E94CD150F5F1F4FEDCF0F906D
:1021A000DF91CF911F910F91FF90EF90DF90CF9033
:1021B00008951092990681E08093970610929606F2
:1021C00061E082E10E94432A61E083E10E94432AA8
:1021D000E9EBF0E080818E7F808380818D7F80833A
:1021E00088E48093B80085E48093BC000895880F4C
:1021F0008093BA000895413208F03FC0909199064B
:102200009111FCCF91E090939906209397062FEFC0
:1022100020932C0610927106240F20937006909341
:10222000980690919806880F892B80939806809144
:102230009606813041F4109296068091980680931C
:10224000BB0085EC01C085EE8093BC0080919906AF
:102250008130E1F380917106841710F4409171068A
:1022600022E736E0FB01D9018A2F821B841718F47C
:102270008D918193F9CF842F089580E008950F9375
:10228000413208F046C0909199069111FCCF92E03E
:1022900090939906009397069FEF90932C061092C7
:1022A000710640937006FB0162E776E0DB019A2F2E
:1022B000961B941718F491919D93F9CF109298065C
:1022C00090919806880F892B8093980680919606A6
:1022D000813041F410929606809198068093BB005D
:1022E00085EC01C085EE8093BC00222321F0809113
:1022F00099068230E1F380912C068F3F61F0809146
:102300002C06803251F080912C06803341F483E01A
:1023100007C081E005C080E003C082E001C084E026
:102320000F910895613298F420919906243089F430
:1023300060934E06FC0180E596E0DC012A2F281B05
:10234000261718F421912D93F9CF80E0089581E0AC
:10235000089582E0089590939306809392060895DD
:102360009093950680939406089585ED8093BC0024
:102370008091BC0084FDFCCF10929906089585ECF5
:102380008093BC001092990608951F920F920FB689
:102390000F9211242F933F934F935F936F937F93EB
:1023A0008F939F93AF93BF93EF93FF938091B90067
:1023B000887F803609F49CC068F5883209F45BC0D8
:1023C00090F4803109F454C038F4882309F4F5C03E
:1023D000883009F44DC0F5C0883109F44CC0803212
:1023E00009F45DC0EEC0803409F468C048F480335D
:1023F00009F455C0883309F0E4C080932C06A8C0C6
:10240000803509F44FC0883509F45DC0883409F07F
:10241000D8C0D5C0883909F4C6C0A8F4883709F4F3
:1024200067C038F4883609F463C0803709F460C0A7
:10243000C8C0883809F4B7C0803909F45FC0803853
:1024400009F0BFC05BC0803B09F485C038F4803A16
:1024500009F466C0883A09F47EC0B3C0803C09F430
:10246000A6C0883C09F4A3C0883B09F489C0A9C070
:102470008091980610C0909171068091700698170F
:1024800070F5E091710681E08E0F80937106F0E0A7
:10249000EE58F94F80818093BB0085EC85C0809316
:1024A0002C068DC0E091710681E08E0F809371063D
:1024B0008091BB00F0E0EE58F94F80839091710657
:1024C000809170066DC0E091710681E08E0F80935F
:1024D00071068091BB00F0E0EE58F94F8083809147
:1024E000970681116CC081E08093960684EA60C0F3
:1024F00083E08093990610922D06CFCF80912D0610
:10250000803208F050C0E0912D0681E08E0F80935C
:102510002D068091BB00F0E0E25DF94F8083BDCFD6
:1025200080912D06803230F4E0912D06F0E0E25DDE
:10253000F94F10820E94B51160912D0670E0E09174
:102540009206F09193068EE296E0099510922D0680
:102550000E94BF1136C084E08093990610924F0606
:1025600010924E06E0919406F0919506099580919F
:102570004E06811105C081E080934E0610925006F0
:10258000E0914F0681E08E0F80934F06F0E0E05B14
:10259000F94F80818093BB0090914F0680914E0649
:1025A000981708F47ACF85E88093BC000AC085ECC0
:1025B0008093BC001092990604C010922C060E94D1
:1025C000B511FF91EF91BF91AF919F918F917F9145
:1025D0006F915F914F913F912F910F900FBE0F9090
:1025E0001F9018958091CE0690E02091CF06821B17
:1025F000910908952091CF068091CE06281750F4B6
:10260000E22FF0E0E053F94F808190E02F5F2093BC
:10261000CF0608958FEF9FEF0895E091CF06809148
:10262000CE06E81730F4F0E0E053F94F808190E0F7
:1026300008958FEF9FEF08950895E091A606F09119
:10264000A7063097E1F03091CF062091CE063217E1
:10265000B0F040E0242F30E02617370754F4DC01B7
:10266000A20FB31F5C91D901A053B94F5C934F5F88
:10267000F1CF1092CF066093CE06CB010994089556
:10268000E091A806F091A906309729F01092AC06C7
:102690001092AB0609940895CF92DF92EF92FF92C9
:1026A0000F931F93CF93DF937C01CB018A0120917D
:1026B000AA06222389F0EB016B01C40ED51ECC15AE
:1026C000DD0569F06991D701ED91FC910190F081F0
:1026D000E02DC7010995F3CF642F0E949211C80124
:1026E000DF91CF911F910F91FF90EF90DF90CF90EE
:1026F0000895CF93DF931F92CDB7DEB76983209102
:10270000AA062223D1F02091AB06203240F021E02E
:1027100030E0FC013383228380E090E015C080919B
:10272000AC06E82FF0E0E355F94F998190838F5F75
:102730008093AC068093AB0605C061E0CE010196A4
:102740000E94921181E090E00F90DF91CF91089567
:10275000FC011382128248EE53E060E070E0448393
:102760005583668377838BEA91E091838083089514
:102770001092CF061092CE061092AC061092AB06C5
:102780000C94D910CF93DF93EC01862F0E94F710A1
:1027900080E493E10E94B0118DE193E10E94AB11BE
:1027A000CE01DF91CF910C94B813862F413208F0FF
:1027B00040E260ED76E00E94FB101092CF0680931D
:1027C000CE06089521E00C94D51381E08093AA06EB
:1027D0006093CD061092AC061092AB0608950F934D
:1027E000062F21E04091AB066DEA76E08091CD06A0
:1027F0000E943F111092AC061092AB061092AA06EE
:102800000F91089561E00C94EF137093A706609305
:10281000A60608958AE996E00C94A813CF92DF9259
:10282000EF92FF92CF93DF93EC01262FC62ED12C8F
:10283000E12CF12CFC01EA5BFF4F83819481892B11
:1028400081F0B701A601485051096109710940376B
:1028500051056105710528F4622F8AE996E00E940E
:10286000C213C98ADA8AEB8AFC8ADF91CF91FF9082
:10287000EF90DF90CF9008954F925F926F927F928A
:10288000AF92BF92CF92DF92EF92FF920F931F937E
:10289000CF93DF93CDB7DEB7A6970FB6F894DEBF20
:1028A0000FBECDBF8C01C62ED12CFC01E65BFF4FC5
:1028B0004080518062807380730142E050E0B60135
:1028C000CE0101960E94CE2F49815A8144165506A9
:1028D00048F0B6016E5F7F4FC3010E94CE2F698121
:1028E0007A8104C0E12CF12C60E070E0C801825BC9
:1028F0009F4F6C01E114F10421F4C8010E94E1072B
:1029000015C0C7010E94C02129833A834B835C8391
:102910006D837E838F839887F60160817181A80122
:10292000CE0101960E946B26882339F3F801E45BFF
:10293000FF4FE080F180F601A080B18060E070E0A0
:1029400080E090E00E94C0212F8F38A349A35AA3B2
:102950006BA37CA38DA39EA3AE014F5F5F4FB50118
:10296000CE014F960E94EF278EE1FE013196D701EE
:1029700001900D928A95E1F7F60160817181F8016D
:1029800014AA9701A801C8014E960E941608A6969F
:102990000FB6F894DEBF0FBECDBFDF91CF911F9170
:1029A0000F91FF90EF90DF90CF90BF90AF907F900E
:1029B0006F905F904F900895CF92DF92EF92FF92C9
:1029C0000F931F93CF93DF93CDB7DEB7A2970FB6C8
:1029D000F894DEBF0FBECDBF8C01DC01ED91FC9100
:1029E0000190F081E02D0995F801E05BFF4F6083D5
:1029F000718382839383F801EC5BFF4F1183008323
:102A0000F801E75BFF4F11830083F801E25BFF4FA2
:102A1000118300837801B6E0EB0EF11CC7010E9420
:102A2000E10760E0C7010E943C14D801ED91FC91E0
:102A30000190F081E02DC8010995F801ED55FF4F97
:102A40006083718382839383F801EE56FF4F118375
:102A50000083F801E956FF4F11830083F801E45623
:102A6000FF4F11830083F801EF55FF4F118300835F
:102A70007801B6E5EB0EF11CF801E955FF4FC08077
:102A8000D18060E070E080E090E00E94C0212B8F58
:102A90003C8F4D8F5E8F6F8F78A389A39AA3AE0171
:102AA0004F5F5F4FB601CE014B960E94EF278AE140
:102AB000FE013196D70101900D928A95E1F7F80158
:102AC000E15AFF4F81E08083F801EB59FF4F44E169
:102AD00050E060E070E04083518362837383F801CB
:102AE000EC59FF4F8083F801E759FF4F8083F801CD
:102AF000E259FF4F808340E052EC61E070E08EEFDE
:102B000096E00E94182D8CE08093B800A2960FB634
:102B1000F894DEBF0FBECDBFDF91CF911F910F9113
:102B2000FF90EF90DF90CF9008958627682F6295F1
:102B30006827062E669566956025062E66956025A3
:102B40006770082E892F669507946795902D8627C4
:102B5000069467959025862708950895FC01A48919
:102B6000B58912961C92129714961C921E92139776
:102B70008FEF9FEF1A969C938E931997138A128A60
:102B8000108A118A1786168611A210A28CE090E096
:102B900093838283178E168E0895AF92BF92CF9241
:102BA000DF92EF92FF920F931F93CF93DF931F92C9
:102BB000CDB7DEB78C016115710581F4CE010196A8
:102BC000D80115969C938E93149717969C938E9389
:102BD000169719969C938E93189707C0FC017583DE
:102BE00064836F5F7F4F77836683D80114962D913E
:102BF0003C91159716968D919C9117972817390738
:102C000009F057C06DC2608180E090E00E94951588
:102C1000F801938B828B0488F589E02D0780F0857D
:102C2000E02DD8011E968D919C911F979C012F5FDE
:102C30003F4F1F963C932E931E9714962D913C91D7
:102C40001597D9012C91E80FF91F2083F8012685EB
:102C50003785848595852817390709F00DC2068CBC
:102C6000F78DE02DCF010197D8015F969C938E934D
:102C70005E973A96EE0FFF1FE00FF11F8081918162
:102C800013969C938E931297D8011296ED91FC9116
:102C90001397EF30F10508F450C2F8018481958153
:102CA000019695838483268137818217930709F4DF
:102CB00017C2D8011296ED91FC9113973197EE301F
:102CC000F10508F0E7C1EC5CFF4F0C945C2FD801D4
:102CD0005496ED91FC915597F184E12CF286E186B2
:102CE00014968D919C911597DC018C919701280F7A
:102CF000311DC90132872187D80152962D913C910F
:102D000053978217930749F481E050968C9350971C
:102D10001E968D919C911F9719C081E0F801818BBF
:102D200017C0D8011C968D919C911D975496ED91DA
:102D3000FC915597258136812817390718F421E031
:102D400051962C9321E0D80150962C939483838341
:102D5000F80184819581019695838483268137814A
:102D60008217930709F496C1D8011496ED91FC914E
:102D7000159780818C3721F0F80113821282F0C1FF
:102D8000D80114968D919C911597019615969C9358
:102D90008E93149716962D913C911797821793074F
:102DA00009F47BC1D8011496ED91FC9115978081AF
:102DB0008C3711F7F801848195810196958384837E
:102DC000268137818217930709F46AC1D8011496C6
:102DD000ED91FC91159780818C3771F650961C927D
:102DE000F8018481958101969583848326813781BA
:102DF0008217930709F45CC1D8015496ED91FC91B8
:102E000055971182108214968D919C911597DC0133
:102E10008C9190E091838083F80184819581019663
:102E200095838483268137818217930709F443C1F0
:102E3000D8015496ED91FC91559714968D919C91E3
:102E40001597DC018C91B080A12C9501282BC9012C
:102E500091838083D80114968D919C91159701964A
:102E600015969C938E93149716962D913C911797D7
:102E70008217930709F422C1D8011496ED91FC91B1
:102E800015978081843681F08E3609F49DC0813695
:102E900009F072CFD8015496ED91FC915597828339
:102EA00081E050968C9354CFD8015496ED91FC91CB
:102EB00055978283F8018481958101969583848357
:102EC000268137818217930709F4FBC0D8019196B8
:102ED0001C921E9290971D961C921E921C971496FF
:102EE000ED91FC911597808190E01D969C938E93B7
:102EF0001C97F801848195810196958384832681AE
:102F000037818217930709F4DFC0D8011C96DC9043
:102F10001C97C12C1D96DC92CE921C971496ED91B5
:102F2000FC9115978081F601E80FF11DCF011D96E8
:102F3000FC93EE931C975496ED91FC915597258147
:102F400036812817390718F481E051968C93D801FF
:102F50005E96ED91FC915F97CF0101965F969C93F1
:102F60008E935E973B96EE0FFF1FE00FF11F88E0F8
:102F700090E0918380834FC0D80152968D919C91AF
:102F800053970E94AD15F801938B828B0488F589C5
:102F9000E02D12861186D80114968D919C9115977B
:102FA000DC018C9190E092878187F8018481958182
:102FB000019695838483268137818217930709F0D0
:102FC00086CE89E090E089C0D8015496ED91FC91BD
:102FD00055978283F8018481958101969583848336
:102FE000268137818217930709F471C0D80114969E
:102FF0008D919C911597019615969C938E9314979D
:1030000016962D913C9117978217930709F089CE58
:103010008BE090E062C0F8018481958101969583F0
:103020008483268137818217930709F453C0D8011E
:103030001F961C921E921E9753961C921E92529798
:103040001C968D919C911D971496ED91FC9115976E
:10305000892B09F0D8CD31971596FC93EE931497F0
:1030600065C0D8011496ED91FC9115976081529638
:103070008D919C915397CACDF801848195810196D9
:1030800095838483268137818217930751F78EE0D9
:1030900090E023C08CE090E005C081E090E01DC08E
:1030A00082E090E0D80113969C938E93129718C0FB
:1030B00083E090E012C084E090E0F4CF85E090E0FF
:1030C0000CC086E090E0EECF87E090E006C08AE09A
:1030D00090E0E8CF8DE090E0E5CFF8019383828324
:1030E000D80114968D919C91159718962D913C912D
:1030F000199782179307A1F512962D913C9113977A
:103100002D30310569F51F961C921E921E9753961D
:103110001C921E9252971C962D913C911D97232B29
:10312000F9F4019715969C938E9314975E96ED9102
:10313000FC915F97CF01019798CDEE5BFF4F0C9408
:103140005C2FF80184819581019695838483268183
:1031500037818217930709F00FCF88E090E0A2CF64
:103160000F90DF91CF911F910F91FF90EF90DF9023
:10317000CF90BF90AF900895FC01A281B3819D01D3
:10318000240F351F33832283FB01460F571FE4179B
:10319000F50719F081918D93FACF81E00895FC0134
:1031A0008CEB98E19183808373836283558344839E
:1031B0001782168211861086CF0108950F931F93F0
:1031C000CF93DF93EC018A01E881F981309709F10F
:1031D0002E813F81240F351F8C819D81821793079B
:1031E00050F488859985009711F48EE492E09987D0
:1031F000888780E015C0CE01099581110AC0288515
:1032000039852115310511F42AE532E039872887FF
:1032100007C08E819F81800F911F9F838E8381E0E5
:10322000DF91CF911F910F9108955F926F927F92DE
:103230008F929F92AF92BF92CF92DF92EF92FF92C6
:103240000F931F93CF93DF93CDB7DEB762970FB67F
:10325000F894DEBF0FBECDBF6C01802F0B87912F7E
:103260001C87522E2D87632E3E87742E4F87852E06
:10327000588B962E698BB72F7A8B8C019801452D30
:10328000562D672D782D892D9B2FA0E00E94A22F0F
:1032900021F0FE0131967F0106C041E050E0BE0101
:1032A000655F7F4F34C05F01AE18BF089801452DA0
:1032B000562D672D782D892D9B2FA0E00E94A22FDF
:1032C000A9F0802F806881939801452D562D672D98
:1032D000782D892D9B2F07E00E947D2F8901542E88
:1032E000652E762E872E982EB92FDDCF1B861C8655
:1032F0001D861E861F86188A198A1A8AF50131973B
:10330000EE0DFF1D80818F778083A501B701C60177
:103310000E94DE1862960FB6F894DEBF0FBECDBFD6
:10332000DF91CF911F910F91FF90EF90DF90CF90A1
:10333000BF90AF909F908F907F906F905F90089517
:103340008F929F92AF92BF92CF92DF92EF92FF92B5
:103350000F931F93FA01DB0114962C91223099F000
:1033600028F42130E9F48080912C0FC0243081F0C2
:103370002830B1F480809180A280B380C480D58051
:10338000E680F7801CC080809180A12CB12C04C005
:1033900080809180A280B380C12CD12C76010FC097
:1033A000FC01208531852115310511F423E632E039
:1033B000DC0119963C932E93189780E006C0840197
:1033C0009501A601B7010E9415191F910F91FF9059
:1033D000EF90DF90CF90BF90AF909F908F90089527
:1033E0000F931F93CF93FA01DB0114962C91223097
:1033F000D9F068F4213091F50081102F110F110BD5
:10340000212F312FC12FB12FA12F712F36C0243082
:10341000B1F0283019F50081118122813381C481F6
:10342000B581A681778129C011810081212F220FCA
:10343000220B322FC22FB22FA22F722F1EC040811B
:103440005181628173818A019B01770F440B542F54
:10345000BA01C42FB42FA42F742F0FC0FC012085F4
:1034600031852115310511F423E632E0DC0119968E
:103470003C932E93189780E005C04C2F5B2F6A2F4A
:103480000E941519CF911F910F910895DF92EF922D
:10349000FF920F931F93CF93DF93FC01D22EE32E65
:1034A000F42ED52FC62FB72F98014D2D5E2D6F2DE1
:1034B0007D2F8C2F9B2FA0E00E94A22F64F401E0AF
:1034C0000E94622F2095309540955095609570959B
:1034D000809590950AC098014D2D5E2D6F2D7D2F02
:1034E0008C2F9B2F01E00E94622F89019A01AB0172
:1034F000BC01CF010E941519DF91CF911F910F914F
:10350000FF90EF90DF9008950F931F93CF93FA01F0
:10351000DB0114962C912230D9F068F4213091F51A
:103520000081102F110F110B212F312FC12FB12F1F
:10353000A12F712F36C02430B1F0283019F5008149
:10354000118122813381C481B581A681778129C00F
:1035500011810081212F220F220B322FC22FB22F77
:10356000A22F722F1EC040815181628173818A0116
:103570009B01770F440B542FBA01C42FB42FA42FF3
:10358000742F0FC0FC01208531852115310511F400
:1035900023E632E0DC0119963C932E93189780E0E5
:1035A00005C04C2F5B2F6A2F0E94461ACF911F91A6
:1035B0000F91089544E050E00C94DE18BA010C9489
:1035C000DA1A48E050E00C94DE18BA010C94E11AC3
:1035D0008F929F92AF92BF92CF92DF92EF92FF9223
:1035E0000F931F93FC01A62F49015A01A50160E02A
:1035F00070E080E090E003E00E94622F022F242F11
:103600000A2B132F352FAB01BC01CF010E941519D6
:103610001F910F91FF90EF90DF90CF90BF90AF90F0
:103620009F908F900895FB0121812F702330A1F08E
:1036300088F0243021F0283020F462E00EC061E0F0
:103640000CC0FC01208531852115310561F425E789
:1036500032E009C060E001C065E0208130E040E078
:1036600050E00C94E81AFC013187208780E008952F
:103670002F923F924F925F926F927F928F929F9282
:10368000AF92BF92CF92DF92EF92FF920F931F9370
:10369000CF93DF93CDB7DEB72B970FB6F894DEBF8D
:1036A0000FBECDBF7C016B015A01DB0111963C912D
:1036B000232F207C203409F41CC1203811F0211163
:1036C00032C181E08B87832F8F7090E0FC01EE0F79
:1036D000FF1FE95FFC4F40805180F6014381442386
:1036E00031F0F501E40FF11D47FDFA9502C0FE012E
:1036F0003B96203849F4D501AD90BC9041E0A1142F
:10370000B10409F440E04B8730733031B9F018F45C
:10371000332339F0E1C03032B1F0303309F4CBC09B
:10372000DBC0A114B10409F0CBC0F70180859185FD
:10373000009709F0FFC088E892E0FCC080818823F0
:1037400009F4DEC0BDC08080912C8114910409F47D
:10375000D7C0203881F0D60115962C9130E028157D
:10376000390548F4F70180859185009709F0E2C09A
:103770008FE992E0DFC005970CF072C0F60120815E
:1037800030E040E050E062E0C7010E94E81A882380
:1037900009F4D5C0D60111968C918F70833031F425
:1037A0003401660C771C660C771C29C0843039F410
:1037B0003401A3E0660C771CAA95E1F720C0FE0156
:1037C00031961F018AE0DF011D928A95E9F7850194
:1037D000612C712CA801B601C101F2010995882361
:1037E00009F4ADC0D60114968C91080F111DBFEFDE
:1037F0006B1A7B0A6814790468F36F8078848301FC
:1038000020E030E040E050E060E070E0C7010E945E
:103810001519882309F493C0F70180819181892BC0
:1038200051F4A30160E070E0C7010E94DE18882314
:1038300009F485C065C000E010E0A501B601C7012C
:10384000F2010995882309F47AC0D60114968C9167
:10385000A80EB11C0F5F1F4F0815190570F350C05B
:1038600000E010E0B601C7010E94131B882309F491
:1038700066C0F6018181982F907C9038D1F48F70CA
:1038800090E005970297A8F4D5014D915C91B6019F
:10389000C701F2010995882309F451C0D601149695
:1038A0008C91A80EB11C0F5F1F4F08151905D0F29F
:1038B00027C0A501ECCF9081D6018C91981320C030
:1038C000B601C7010E94131B8823C9F1A501B601E7
:1038D000C701F201099534C0D70118968D919C91CA
:1038E0001997009711F485E792E0F7019187808797
:1038F00026C04E5F5F4FD501ED91FC91309711F4DA
:1039000081E01EC009958111FBCFF701208531852B
:103910002115310511F427EB32E0D70119963C93BC
:103920002E9318970DC0FC0180859185009711F4A6
:1039300085E792E0D70119969C938E93189780E0C3
:103940002B960FB6F894DEBF0FBECDBFDF91CF919F
:103950001F910F91FF90EF90DF90CF90BF90AF90AD
:103960009F908F907F906F905F904F903F902F909F
:103970000895EF92FF920F931F93CF93DF93CDB7EC
:10398000DEB72C970FB6F894DEBF0FBECDBF7C011B
:10399000CE0101960E944F1E811102C081E041C0FC
:1039A0006B817C81FB0181818F7049855A858830CC
:1039B00071F5FA01008111810115110569F1F80114
:1039C000A081B1811296ED91FC911397309721F06F
:1039D000B801C701099513C014966D917C91159794
:1039E000FB018181807C803821F4A8014E5F5F4F0C
:1039F00003C0F80142815381C7010E94381B811125
:103A000002C080E00EC0F80104811581D5CFC70146
:103A10000E94381B8823A9F3CE0101960E946F1ED5
:103A2000BBCF2C960FB6F894DEBF0FBECDBFDF9193
:103A3000CF911F910F91FF90EF900895CF92DF9259
:103A4000EF92FF920F931F93CF93DF93EC016B01E3
:103A50007A018A0120E030E040E050E060E070E070
:103A60000E941519882369F0A701B601CE01DF91E4
:103A7000CF911F910F91FF90EF90DF90CF900C941A
:103A8000DE1880E0DF91CF911F910F91FF90EF90B2
:103A9000DF90CF900895FB01BA0144812181207C01
:103AA000203811F050E002C04FEF5FEF6115710553
:103AB00061F0FB0120E030E02417350741F0A191CF
:103AC000AA2329F02F5F3F4FF7CF20E030E0A90174
:103AD0000C941E1DFA01309729F440E050E060E09C
:103AE00070E01FC0DB0111962C911197207C408162
:103AF000211113C0242F30E02F5F3F4F14966C919B
:103B000070E06217730748F4FC01208531852115A8
:103B1000310549F426EC32E006C050E0BF016F5F8A
:103B20007F4F0C941E1DDC0119963C932E93189721
:103B300080E008956F927F928F929F92AF92BF9292
:103B4000CF92DF92EF92FF920F931F93CF93DF9369
:103B5000CDB7DEB72A970FB6F894DEBF0FBECDBF44
:103B60007C014B013A01CE0101965C018AE0F5012E
:103B700011928A95E9F7C5010E94B91C811104C010
:103B800029853A85F70154C0CF80D884860120E08A
:103B900030E040E050E060E070E0C7010E9415199D
:103BA000882309F451C0F7012081318121153105A5
:103BB00039F4A60160E070E0C7010E94DE1844C03D
:103BC000F701868197818C0D9D1D44815581481791
:103BD000590750F480859185009711F48EE492E0A6
:103BE000F701918780872FC03A832983F70182816B
:103BF00093819C838B83DE82CD8218861F821A86F6
:103C00001986A301B401C5010E94B91C4F815885D2
:103C1000F70126813781240F351F378326832B81B7
:103C20003C813383228329853A854C155D0519F43F
:103C30003187208709C02115310511F42AED32E0C2
:103C4000F7013187208780E02A960FB6F894DEBF0F
:103C50000FBECDBFDF91CF911F910F91FF90EF90DD
:103C6000DF90CF90BF90AF909F908F907F906F909C
:103C70000895FB01668177816115710549F4FC01A6
:103C8000208531852115310529F42EEE32E002C060
:103C90000C949A1DFC013187208780E00895FC0177
:103CA000DB0171836083738362831582148257837F
:103CB000468312968C911297480F511D5187408769
:103CC00013968C911397480F511D87FD5A95538772
:103CD000428781E09C91911101C080E00895FC0130
:103CE000A281B3818C91882309F460C0CD0108962C
:103CF0009383828318968C911897811108C046810E
:103D0000578160817181CF010E944F1E4FC0149670
:103D10003C911497832F90E011965C911197452F59
:103D20004073403391F419962C91199720732033E6
:103D300061F412962C91129780859185821B9109CE
:103D40009187808780E090E010C0252F207C49F487
:103D5000403259F415968C911597839FC001112418
:103D600004C0203811F482E090E011962C91119754
:103D7000207331F4248135812F5F3F4F35832483B5
:103D80001A962C911A97AC01420F511D808591858E
:103D9000840F951F918780871B962C91820F911D10
:103DA00027FD9A959387828781E0089580E00895A2
:103DB000EF92FF920F931F93CF93DF9300D000D029
:103DC000CDB7DEB77C01DC0112960D911C911397E3
:103DD000D7011296ED91FC911397808190E0A0E0BD
:103DE000B0E084179507A607B70721F481818F708B
:103DF000883099F4C70149835A836B837C830E947E
:103E00006F1EF7018281938149815A816B817C8188
:103E100080179107E9F680E001C081E00F900F90D4
:103E20000F900F90DF91CF911F910F91FF90EF9026
:103E30000895DC011296ED91FC9113974E0F5F1FD0
:103E400013965C934E9312976115710539F0DB015F
:103E5000E417F50719F081918D93FACF81E0089569
:103E6000CF93DF93EC018C819D81892B51F48E815E
:103E70009F81009711F489E193E09F838E8380E016
:103E800018C0E881F98141E050E0CE010995811127
:103E90000AC02E813F812115310511F42AE532E057
:103EA0003F832E8306C02C813D81215031093D8303
:103EB0002C83DF91CF9108957F928F929F92AF9242
:103EC000BF92CF92DF92EF92FF920F931F93CF9307
:103ED000DF931F92CDB7DEB78C014B01BE016F5F40
:103EE0007F4F0E94301F782E8823E9F1898187FD5A
:103EF00005C0C82ED12CE12CF12C37C08F77C82EED
:103F0000D12CE12CF12C87E0A82EB12CBE016F5FE3
:103F10007F4FC8010E94301F882329F18981482FD3
:103F20004F7750E060E070E00A2C04C0440F551F4A
:103F3000661F771F0A94D2F7C42AD52AE62AF72AE1
:103F400087FF13C087E0A80EB11CE3E2AE16B104F0
:103F5000E9F6F80186819781009711F487E293E0F2
:103F6000F80197838683712C05C0F401C082D18249
:103F7000E282F382872D0F90DF91CF911F910F91F5
:103F8000FF90EF90DF90CF90BF90AF909F908F9079
:103F90007F900895EF92FF920F931F93CF93DF933B
:103FA000CDB7DEB72C970FB6F894DEBF0FBECDBFEE
:103FB000FC0162817381DB0111968C91982F9F70B7
:103FC0009830A9F50084F185E02D0081118101155B
:103FD000110509F468C0F80116820190F081E02D06
:103FE000E480F580D80112964D915C911397B7014A
:103FF000CE0101960E944F1EF801828193819A871B
:104000008987C80106969C878B87D70111968C916A
:10401000807C803821F4C80102969A878987CE0176
:1040200001960E94CA1FF80104811581D0CF982FF4
:10403000907C61F4982F9073903129F48285938558
:10404000DC011C9210C085FF0EC008C0903859F5E5
:10405000A085B1851D921C9285FF25C00284F38541
:10406000E02D108220C0DB0111964C9111974F700A
:104070008085918516962D913C911797473029F4AC
:10408000BC01C9010E9460200EC0FB01448150E0C8
:104090002115310521F0B9010E94BE2F04C060E056
:1040A00070E00E94C72F2C960FB6F894DEBF0FBEAB
:1040B000CDBFDF91CF911F910F91FF90EF900895A9
:1040C000CF93DF93CDB7DEB72C970FB6F894DEBF52
:1040D0000FBECDBFAB01BC01CE0101960E944F1EA9
:1040E000882349F0CE0101960E94CA1FCE01019695
:1040F0000E946F1EF5CF2C960FB6F894DEBF0FBE50
:10410000CDBFDF91CF910895EF92FF920F931F9350
:10411000CF93DF93CDB7DEB760970FB6F894DEBFCD
:104120000FBECDBF8C017A016115710501F5DC016F
:104130008D919C9189519F41D1F0F1E1EF16F104ED
:1041400070F040E150E0BE016F5F7F4FC8010E94F8
:1041500084208823E9F1E0E1EE1AF108EECFA7010F
:10416000BE016F5F7F4FC8010E94842031C0D8011B
:1041700014968D919C9115978E159F0568F416964F
:104180008D919C911797009711F489E193E0F801C4
:104190009783868380E01CC0D801ED91FC91A70134
:1041A000C8010995F80181110DC0268137812115BB
:1041B000310511F42AE532E0D80117963C932E938D
:1041C000169706C0248135812E193F093583248333
:1041D00060960FB6F894DEBF0FBECDBFDF91CF91D2
:1041E0001F910F91FF90EF900895CF92DF92EF9281
:1041F000FF920F931F93CF93DF9300D000D0CDB7E2
:10420000DEB78C016B017A01BE016F5F7F4F0E94A8
:104210005C1F882309F43FC049815A816B817C81EE
:104220009A012F5F3F4FC901A0E0B0E084179507C6
:10423000A607B70740F4F801868197810097E9F453
:1042400087E393E01AC0F6018181807C803841F4D5
:10425000F80186819781009781F486E493E00DC090
:10426000F601848190E08217930760F4F80186815B
:104270009781009711F488E593E0F801978386838E
:1042800080E009C0B701C8010E948420E981FA8159
:10429000EE0DFF1D10820F900F900F900F90DF9189
:1042A000CF911F910F91FF90EF90DF90CF900895E5
:1042B000CF92DF92EF92FF920F931F93CF93DF93F2
:1042C00000D000D0CDB7DEB78C017B01D42EC52E37
:1042D000BE016F5F7F4F0E945C1F882309F443C0BB
:1042E00049815A816B817C814F3F51056105710580
:1042F00009F030F59A012F5F3F4FC901A0E0B0E00F
:1043000084179507A607B70740F4F80186819781BF
:104310000097E9F487E393E01AC0F7018181807C7C
:10432000803841F4F80186819781009781F486E412
:1043300093E00DC0F701848190E08217930760F449
:10434000F80186819781009711F488E693E0F801DF
:104350009783868380E007C0ED2DFC2D4193BF013C
:10436000C8010E9484200F900F900F900F90DF9152
:10437000CF911F910F91FF90EF90DF90CF90089514
:10438000CF93DF93CDB7DEB728970FB6F894DEBF93
:104390000FBECDBF29E13FE13A8329838B839C8304
:1043A0006D837E8318861F823A81AC0180E09885F8
:1043B00028960FB6F894DEBF0FBECDBFDF91CF9128
:1043C00008953F924F925F926F927F928F929F9249
:1043D000AF92BF92CF92DF92EF92FF920F931F9313
:1043E000CF93DF931F92CDB7DEB75C017B01C12C69
:1043F000D12C312C412C512C612C712C812C912CE5
:1044000010E0BE016F5F7F4FC5010E94301FE82F93
:10441000882309F442C0F9812F2F2F7730E040E044
:1044200050E060E070E080E090E00C2D0E94622F90
:10443000322A432A542A652A762A872A982A192B4F
:10444000F7FF15C087E0C80ED11CA6E4CA16D10438
:10445000C1F6F50186819781009711F487E293E018
:10446000D50117969C938E931697E0E016C0D7015E
:104470003C9211964C92119712965C921297139659
:104480006C92139714967C92149715968C921597AC
:1044900016969C92169717961C938E2F0F90DF916D
:1044A000CF911F910F91FF90EF90DF90CF90BF9031
:1044B000AF909F908F907F906F905F904F903F90C4
:1044C00008958F929F92AF92BF92CF92DF92EF9218
:1044D000FF920F931F93CF93DF93CDB7DEB728974B
:1044E0000FB6F894DEBF0FBECDBF4C017B018A0131
:1044F000BE016F5F7F4F0E94E121F82F882309F4EE
:104500006DC0D70114968C91823061F140F48130F6
:1045100009F044C02981D8012C9330E029C08430AF
:1045200051F18830D9F529813A814B815C816D81C7
:104530007E818F819885D8012C9311963C93119799
:1045400012964C93129713965C93139714966C9350
:10455000149715967C93159716968C931697179625
:104560009C9324C029813A81D8012C9311963C93C5
:1045700040E050E00EC029813A814B815C81D80136
:104580002C9311963C93119712964C931297139675
:104590005C9360E070E080E090E008C0F401868108
:1045A00097810097A9F483E692E012C0A980BA80AF
:1045B000CB80DC80ED80FE800F8118850E94992FD2
:1045C00069F0F40186819781009711F487E793E001
:1045D000D40117969C938E931697F0E08F2F289610
:1045E0000FB6F894DEBF0FBECDBFDF91CF911F9104
:1045F0000F91FF90EF90DF90CF90BF90AF909F9082
:104600008F9008954F925F926F927F928F929F92B8
:10461000AF92BF92CF92DF92EF92FF920F931F93D0
:10462000CF93DF93CDB7DEB728970FB6F894DEBFF0
:104630000FBECDBF4C018B017A01BE016F5F7F4F72
:104640000E94E121E82F882309F474C0D801149650
:104650004C9189819A815B81DC804830D9F4D70103
:104660008C9311969C93119712965C9312971396C4
:10467000DC9213978D8114968C9314978E811596E6
:104680008C9315978F8116968C931697888517961D
:104690008C9350C08C01252F3D2D5801C52E28012B
:1046A0003901770C4408542C3201423089F04430EF
:1046B000F1F0413019F5D7018C93282F382F330FA3
:1046C000330B432F532F632F732F832F932F1EC032
:1046D000D7018C9311969C93282F392F492F440F83
:1046E000440B542F642F742F842F942F0FC0D701A5
:1046F0000D931D932D933C9313971CC0F401868159
:104700009781009789F483E692E00EC0E42CF42CA4
:10471000042D142D0E94992F69F0F4018681978150
:10472000009711F487E793E0D40117969C938E933A
:104730001697E0E08E2F28960FB6F894DEBF0FBED6
:10474000CDBFDF91CF911F910F91FF90EF90DF9040
:10475000CF90BF90AF909F908F907F906F905F9021
:104760004F900895AF92BF92CF92DF92EF92FF9257
:104770000F931F93CF93DF9300D000D0CDB7DEB758
:104780008C017B016A015901F9011082FB01108241
:10479000FA011082118212821382BE016F5F7F4F75
:1047A0000E945C1F81110AC0F80124813581232BEE
:1047B000F9F481E0F501808380E01AC009811A8153
:1047C0002B813C81011511052105310591F3B901BA
:1047D000A801E3E07695679557954795EA95D1F757
:1047E000F60140835183628373830770F70100836E
:1047F0000F900F900F900F90DF91CF911F910F911D
:10480000FF90EF90DF90CF90BF90AF9008950F93FF
:104810001F93CF93DF9300D000D0CDB7DEB78C01CC
:104820006130B1F050F06230B1F0653019F544E01C
:1048300050E01AC0998197FF28C041E050E0BE01C6
:104840006F5F7F4FC8010E9484208111F3CF1DC08C
:1048500048E050E009C0BE016F5F7F4F0E945C1FBF
:10486000882399F049815A8160E070E0C8010E9474
:1048700084200BC0FC0186819781009711F489E8A0
:1048800093E0F8019783868380E00F900F900F905C
:104890000F90DF91CF911F910F9108958F929F926A
:1048A000AF92BF92EF92FF920F931F93CF93DF933C
:1048B00000D000D0CDB7DEB78C017B01BE016F5FA9
:1048C0007F4F0E945C1F882359F198E0F801D701BF
:1048D00001900D929A95E1F749815A816B817C8113
:1048E000F70184809580A12CB12C84169506A6062C
:1048F000B70660F4F80186819781009711F48BE97F
:1049000093E0F8019783868380E00AC0F70155831E
:104910004483F80124813581241B350B358324839E
:104920000F900F900F900F90DF91CF911F910F91EB
:10493000FF90EF90BF90AF909F908F9008954F920F
:104940005F926F927F928F929F92AF92BF92CF921F
:10495000DF92EF92FF920F931F93CF93DF93CDB728
:10496000DEB762970FB6F894DEBF0FBECDBF8C01E5
:104970007A01FA01A281B38111962C911197822FAD
:10498000807C803409F4DBC0803809F4CDC081110B
:104990007EC1322F3F70832F90E0FC01EE0FFF1F8E
:1049A000EE52FC4FC080D1802073203151F018F4BA
:1049B000222369F0AEC0203289F0203309F482C08E
:1049C000A8C0F7012285338581E0F9018083F701D2
:1049D00040855185BD01C801F60157C1F701A28488
:1049E000B384623009F04EC005970CF04BC0BE0195
:1049F0006F5F7F4FC8010E944E24882309F454C181
:104A00008D819E81892B11F1F5018081D70112964C
:104A10006D917C911397FB0195818917B8F4DB01A7
:104A200014969C91F70140855185989F400D511D2A
:104A30001124CE010196F6010995882329F0D501AC
:104A40008C918F5F8C93DCCF80E001C081E02B8163
:104A50003C81D80113963C932E9312972F81388571
:104A600017963C932E9316974D815E81452B09F442
:104A70001BC12115310511F423EB33E0F801378315
:104A8000268311C1F7014085518514969C91149796
:104A9000F501808115962C91821758F0D801169651
:104AA0008D919C911797009709F0D2C083EB93E00A
:104AB000CFC021E0280F2083989F400D511D112465
:104AC000F70124C0F701428553858C91DA018C935C
:104AD0003730C9F40280F381E02D448150E060E07A
:104AE00070E0F701808591850E94C72FD701189645
:104AF0006D917C9119971296ED91FC911397868197
:104B000097810E946020F701408551856281738101
:104B100062CFD80116968D919C911797009709F056
:104B200097C085E792E094C0D80116968D919C912C
:104B30001797009709F08CC086E493E089C0408401
:104B400051845201B2E0AB0EB11CF201808191811F
:104B5000892B21F4C8010E940724A6C0623099F570
:104B6000BE016F5F7F4FC8010E944E24882309F465
:104B70009BC0D70112966D917C911397D201ED9154
:104B8000FC91A501CE010196099581110EC0F80195
:104B9000268137812115310511F422EC33E0D8014B
:104BA00017963C932E9316977FC02D813E81232B21
:104BB00001F72B813C81F801338322832F813885D3
:104BC0003783268371C0613071F170F06530B9F5BB
:104BD00044E050E0BE016F5F7F4FC8010E94842017
:104BE000F4E0CF2ED12C38C0CE0101963C01C12C6F
:104BF000D12C43019FEFC91AD90AABE0CA16D104E0
:104C000009F451C041E050E0B301C8010E94842082
:104C1000882309F448C0BFEF6B1A7B0AF401808136
:104C200087FDE7CF1BC048E050E0BE016F5F7F4FBC
:104C3000C8010E948420A8E0CA2ED12C0DC0D80142
:104C400016968D919C911797009711F489E893E03F
:104C5000F8019783868327C0882331F189E19FE19A
:104C60009C878B87CE0101969E878D87D88ACF86B9
:104C70001A8A198AD70112966D917C911397D201E5
:104C8000ED91FC91A501CE010B9609950DC0F8019F
:104C900086819781009711F485E792E0D8011796F5
:104CA0009C938E93169780E062960FB6F894DEBFC1
:104CB0000FBECDBFDF91CF911F910F91FF90EF906D
:104CC000DF90CF90BF90AF909F908F907F906F902C
:104CD0005F904F9008952F923F924F925F926F9204
:104CE0007F928F929F92AF92BF92CF92DF92EF927C
:104CF000FF920F931F93CF93DF93CDB7DEB7AB97A0
:104D00000FB6F894DEBF0FBECDBF7C015E0129E176
:104D1000A20EB11C88E0D5011D928A95E9F7CE015B
:104D20000D960E944F1E412C512C320122242394B7
:104D3000312CD70114968D919C911597892B09F4EC
:104D4000E4C09E012B5D3F4FAE014F5D5F4FBE0142
:104D50006A5D7F4FC7010E94B223811104C08DA1FB
:104D60008111D3C0D0C049A15AA16BA17CA1CE01B1
:104D70000D960E94D81E81119FC089A19AA1ABA156
:104D8000BCA184159505A605B70508F490C0CF848D
:104D9000D888EF85F88981818F70883009F401C146
:104DA000CE010D960E946F1E8F8598898C159D05EA
:104DB00081F744244A94542C320129A13AA14BA1F1
:104DC0005CA12FA338A749A75AA724153505460586
:104DD000570508F46CC0D70114968D909C901597D8
:104DE000BEA1BBA7ED89FE89C080D180F701848177
:104DF0009581C114D10409F456C08816990609F0AA
:104E000052C0F601A081B181ED91FC9111973097CC
:104E100049F00BA52FA138A549A55AA5B601C70190
:104E2000099539C014960D911C911597D8018C9154
:104E300090E0A0E0B0E02FA138A549A55AA58217BF
:104E40009307A407B50749F5D60112964D915C91D9
:104E50001397B801CE0101960E944F1EF601828180
:104E600093819A878987C60106969C878B87D8018C
:104E700011968C91807C803821F4C60102969A8725
:104E8000898721E0F6012683AE014F5F5F4F6BA556
:104E9000C7010E949F248823B1F1D6011496CD90BA
:104EA000DC901597A3CF8816990609F042CF6EA122
:104EB000C7010E94072425C0EF85F889818180738E
:104EC000C9F489899A8980349105A0F4FC0163E0D2
:104ED000F695E7956A95E1F7EA0DFB1D877099272E
:104EE000910102C0220F331F8A95E2F7C901908118
:104EF000982B9083AE01435F5F4F6EA1C7010E9464
:104F00009F24811116CF80E051C0C988DA88EF85CF
:104F1000F8891181CE010D960E946F1E8111F5CF87
:104F2000107341F4EF85F8899081992319F0BFEF50
:104F3000CB1ADB0A960153E0369527955A95E1F78F
:104F4000F501A501420F531FE417F50721F09191D8
:104F50009F3FD1F316C0F501E20FF31F608170E0AF
:104F6000B7E0CB22DD2448E050E04C195D092FEF7B
:104F700030E002C0359527954A95E2F7621773072E
:104F800071F0F701268137812115310511F428E8E8
:104F900032E0D70117963C932E93169707C081E015
:104FA00005C04080512C612C712C07CFAB960FB6F9
:104FB000F894DEBF0FBECDBFDF91CF911F910F914F
:104FC000FF90EF90DF90CF90BF90AF909F908F9029
:104FD0007F906F905F904F903F902F900895EF9249
:104FE000FF920F931F93CF93DF9300D0CDB7DEB71F
:104FF0008C017B01BA01C70149835A830E9460205A
:1050000049815A81B701C8010F900F90DF91CF916C
:105010001F910F91FF90EF900C946B26CF92DF922F
:10502000EF92FF920F931F93CF93DF93CDB7DEB72D
:105030002A970FB6F894DEBF0FBECDBF8C017B015F
:10504000FB01C680D780BE016F5F7F4F49875A87BB
:105050000E944E2449855A85882349F1F7018681AB
:105060009781892B61F4F80186819781009711F46B
:105070008EEE92E0F8019783868380E018C0F701F6
:1050800081818073B601803229F4CE0101960E949D
:10509000EF2704C0CE0101960E946B262B813C8134
:1050A000F801338322832F813885378326832A961C
:1050B0000FB6F894DEBF0FBECDBFDF91CF911F9129
:1050C0000F91FF90EF90DF90CF900895AF92BF9235
:1050D000CF92DF92EF92FF920F931F93CF93DF93C4
:1050E000CDB7DEB728970FB6F894DEBF0FBECDBFA1
:1050F0007B01BE016F5F7F4F0E94E121F82F882363
:1051000009F45EC0E981AA80BB80CC80DD800E817D
:105110001F81B8852E2F217030E040E050E060E024
:1051200070E080E090E0A0E00E94A22F41F12E2FDD
:105130003A2D4B2D5C2D6D2D702F812F9B2F01E073
:105140000E947D2F2095D7012C93309511963C938A
:105150001197409512964C931297509513965C9325
:105160001397609514966C931497709515967C938D
:105170001597809516968C93169790951FC02E2F95
:105180003A2D4B2D5C2D6D2D702F812F9B2F01E023
:105190000E947D2FD7012C9311963C931197129664
:1051A0004C93129713965C93139714966C931497E1
:1051B00015967C93159716968C93169717969C9335
:1051C0008F2F28960FB6F894DEBF0FBECDBFDF91AC
:1051D000CF911F910F91FF90EF90DF90CF90BF90F4
:1051E000AF9008957F928F929F92AF92BF92CF928D
:1051F000DF92EF92FF920F931F93CF93DF93CDB780
:10520000DEB728970FB6F894DEBF0FBECDBF4C01B6
:105210008B017A01BE016F5F7F4F0E946628F82FD5
:10522000882309F484C0D80114968C918230B1F19E
:1052300088F4813009F058C08981D7018C93782E89
:10524000E82FEE0FEE0B4E2F5E2F6E2F7E2F8E2F40
:105250009E2F52C0843091F1883009F045C079808A
:10526000EA814B815C816D817E818F819885D70138
:105270007C921196EC93119712964C931297139679
:105280005C93139714966C93149715967C931597CB
:1052900016968C93169717969C932EC08981EA8157
:1052A000D7018C931196EC93782E4E2F440F440B1C
:1052B000542F642F742F842F942F1EC009811A81BC
:1052C0002B813C81D7010D931D932D933C93139714
:1052D000702EE12FA901330F000B102F9801602FC2
:1052E000702F802F902F08C0F4018681978100973E
:1052F000C1F483E692E015C0A980BA80CB80DC803F
:10530000ED80FE80BF811885272D3E2F0B2F0E9438
:10531000992F69F0F40186819781009711F487E74E
:1053200093E0D40117969C938E931697F0E08F2FFD
:1053300028960FB6F894DEBF0FBECDBFDF91CF9198
:105340001F910F91FF90EF90DF90CF90BF90AF90A3
:105350009F908F907F90089544E050E00C948420BB
:10536000BA010C94AC2948E050E00C948420BA01B6
:105370000C94B3291F920F920FB60F9211242F9302
:105380003F934F935F936F937F938F939F93AF93CD
:10539000BF93EF93FF93E091F006F091F10609952A
:1053A000FF91EF91BF91AF919F918F917F916F91FD
:1053B0005F914F913F912F910F900FBE0F901F90D3
:1053C0001895833081F028F4813099F08230A1F073
:1053D00008958630A9F08730B9F08430D1F48091F7
:1053E00080008F7D03C0809180008F778093800044
:1053F000089584B58F7702C084B58F7D84BD0895EC
:105400008091B0008F7703C08091B0008F7D809332
:10541000B0000895CF93DF9390E0FC01E05EFE4F73
:105420002491FC01EC5CFE4F8491882349F190E0CB
:10543000880F991FFC01E45AFE4FA591B4918E5A32
:105440009E4FFC01C591D4919FB7611108C0F8949B
:105450008C91209582238C93888182230AC06230AC
:1054600051F4F8948C91322F309583238C9388815A
:10547000822B888304C0F8948C91822B8C939FBFDD
:10548000DF91CF9108950F931F93CF93DF931F92D6
:10549000CDB7DEB7282F30E0F901E45FFE4F8491ED
:1054A000F901E05EFE4F1491F901EC5CFE4F0491AE
:1054B0000023C9F0882321F069830E94E1296981D2
:1054C000E02FF0E0EE0FFF1FEE5AFE4FA591B491D2
:1054D0009FB7F8948C91611103C01095812301C08E
:1054E000812B8C939FBF0F90DF91CF911F910F91D4
:1054F0000895CF93DF93282F30E0F901E45FFE4F4A
:105500008491F901E05EFE4FD491F901EC5CFE4F0D
:10551000C491CC2391F081110E94E129EC2FF0E09D
:10552000EE0FFF1FE85BFE4FA591B4912C912D2348
:1055300081E090E021F480E002C080E090E0DF9123
:10554000CF9108958E3008F08E508770209106011B
:1055500090E4299F90011124822B80937C008091FC
:105560007A00806480937A0080917A0086FDFCCF77
:10557000809178002091790090E0922B08951F93FC
:10558000CF93DF93182FEB0161E00E940A2A209746
:1055900011F460E004C0CF3FD10539F461E0812F00
:1055A000DF91CF911F910C94432AE12FF0E0E45F4B
:1055B000FE4FE491E330F9F048F4E130B9F0E23025
:1055C000A1F584B5806284BDC8BD34C0E630E9F081
:1055D000E73019F1E43049F58091800080628093D2
:1055E0008000D0938B00C0938A0024C084B580686B
:1055F00084BDC7BD1FC080918000806880938000FB
:10560000D0938900C093880015C08091B000806855
:105610008093B000C093B3000DC08091B000806251
:105620008093B000C093B40005C0C038D1050CF021
:10563000B5CFAFCFDF91CF911F9108951F920F92F9
:105640000FB60F9211242F933F938F939F93AF9395
:10565000BF938091F6069091F706A091F806B0915D
:10566000F9063091F50623E0230F2D3720F401963B
:10567000A11DB11D05C026E8230F0296A11DB11D75
:105680002093F5068093F6069093F706A093F8060C
:10569000B093F9068091FA069091FB06A091FC0662
:1056A000B091FD060196A11DB11D8093FA0690935D
:1056B000FB06A093FC06B093FD06BF91AF919F91AE
:1056C0008F913F912F910F900FBE0F901F901895C3
:1056D0002FB7F8946091F6067091F7068091F8065E
:1056E0009091F9062FBF08953FB7F8948091FA067C
:1056F0009091FB06A091FC06B091FD0626B5A89BF3
:1057000005C02F3F19F00196A11DB11D3FBF6627AF
:10571000782F892F9A2F620F711D811D911D42E0F4
:10572000660F771F881F991F4A95D1F70895CF926A
:10573000DF92EF92FF92CF93DF936B017C010E9487
:10574000742BEB01C114D104E104F10479F00E943F
:10575000742B6C1B7D0B683E7340A0F381E0C81A6C
:10576000D108E108F108C851DC4FECCFDF91CF91AF
:10577000FF90EF90DF90CF9008950197009739F058
:10578000880F991F880F991F02970197F1F70895C5
:10579000789484B5826084BD84B5816084BD85B50C
:1057A000826085BD85B5816085BDEEE6F0E08081D3
:1057B00081608083E1E8F0E01082808182608083F4
:1057C000808181608083E0E8F0E080818160808377
:1057D000E1EBF0E0808184608083E0EBF0E08081A9
:1057E00081608083EAE7F0E080818460808380814B
:1057F00082608083808181608083808180688083F3
:105800001092C1000895FC0124853585F901E05C02
:10581000FF4F80819181F901EE5BFF4F2081318143
:10582000821B930B8F7399270895FC0184859585BE
:10583000FC01E05CFF4F40815181FC01EE5BFF4FBA
:10584000208131814217530741F00190F081E02D12
:10585000E80FF91F808190E008958FEF9FEF089582
:10586000FC0184859585FC01E05CFF4F40815181FE
:10587000FC01EE5BFF4F208131814217530779F025
:10588000A081B181A80FB91F8C91208131812F5F38
:105890003F4F2F7333273183208390E008958FEF9C
:1058A0009FEF0895FC0181A1882329F0A489B5897F
:1058B0008C9186FFFBCF11A20895CF93DF93FC015B
:1058C00026853785D901A05CBF4F8D919C9111979A
:1058D00001968F739927E901CE5BDF4F488159818B
:1058E00084179507D9F30D90BC91A02DA20FB31F7B
:1058F0006C93A685B785A05CBF4F11969C938E9341
:10590000A689B7892C9181E090E0078C02C0880FAE
:10591000991F0A94E2F7282B2C9381E081A3048835
:10592000F589E02D80818064808381E090E0DF91C3
:10593000CF9108951F920F920FB60F9211242F93BB
:105940003F934F938F939F93EF93FF938091C0006A
:1059500082FD1CC04091C6008091A4079091A507CC
:1059600001968F7399272091A6073091A707821778
:10597000930771F0E091A407F091A507EC59F84F57
:1059800040839093A5078093A40702C08091C6002E
:10599000FF91EF919F918F914F913F912F910F9098
:1059A0000FBE0F901F9018958EEF96E00E94032C6B
:1059B000892B11F00C94890908951F920F920FB64C
:1059C0000F9211242F933F938F939F93EF93FF9305
:1059D0002091600730916107809162079091630781
:1059E0002817390731F48091C1008F7D8093C10061
:1059F00014C0E0916207F0916307E05EF84F2081E8
:105A0000809162079091630701968F739927909315
:105A10006307809362072093C600FF91EF919F91E7
:105A20008F913F912F910F900FBE0F901F9018955F
:105A3000CF92DF92EF92FF92CF93DF93EC016A0156
:105A40007B01411581EE580761057105F9F0EC897C
:105A5000FD8981E090E008A002C0880F991F0A9498
:105A6000E2F7808360E079E08DE390E0A7019601A2
:105A70000E943A2F21503109410951095695479505
:105A800037952795211580E1380798F0EC89FD8935
:105A9000108260E874E88EE190E0A70196010E9410
:105AA0003A2F2150310941095109569547953795AB
:105AB0002795E889F9893083EA89FB89208319A22F
:105AC000EE89FF89408181E090E09C010C8C02C04E
:105AD000220F331F0A94E2F7422B4083EE89FF899D
