:100000000C9436010C9463010C9463010C9463010D
:100010000C9463010C9463010C9463010C946301D0
:100020000C9463010C9463010C9463010C946301C0
:100030000C9463010C9463010C9463010C946301B0
:100040000C9463010C9463010C9463010C946301A0
:100050000C9463010C9463010C9463010C94A92D1E
:100060000C9463010C9414310C945C320C94630175
:100070000C9463010C9463010C9463010C94630170
:100080000C9463010C9463010C9463010C94630160
:100090000C9454310C949B320C9463010C94861490
:1000A0000C9463010C9463010C9463010C94630140
:1000B0000C9463010C9463010C9463010C94630130
:1000C0000C9463010C9463010C9463010C949431BF
:1000D0000C94DA320C9463010C94D4310C941933DF
:1000E0000C946301302E31302E706F7374313400F4
:1000F0006F70656E5F64726F7000576865656C65E0
:1001000072204C616200302E322E706F7374360094
:10011000687474703A2F2F6769746875622E636F04
:100120006D2F776865656C65722D6D6963726F669A
:100130006C7569646963732F6F70656E2D64726F7F
:10014000702E6769740000002100240027002A0037
:100150002D003000330001010000040107010A01F5
:1001600000002200250028002B002E003100340062
:1001700002010000050108010B010000200023001E
:10018000260029002C002F0032000001000003018E
:10019000060109010505050507050808080802020A
:1001A00002020A0A08080404040401010101010111
:1001B00001010303030303030303040707070C0CF4
:1001C0000C0C0C0C0C0C02020202060606060606BB
:1001D00006060B0B0B0B0B0B0B0B01021020200860
:1001E0000810204010204080020102010804020192
:1001F0000102040810204080804020100804020101
:100200008004020180402010080402010804020159
:1002100001020408102040800102040810204080E0
:100220000000090A02080B0C0D0706030401000078
:1002300000000000000000000000000000000000BE
:1002400000000000000000000000000011100F007E
:10025000000000000000000000000000000000009E
:100260000000000000007F050013893411241FBE28
:10027000CFEFD1E2DEBFCDBF00E00CBF14E0A0E0C5
:10028000B2E0E0E8FCE600E00BBF02C007900D9290
:10029000AE3FB107D9F71BBE1BE0AEEFB4E001C023
:1002A0001D92AE3EB107E1F712E0CCE6D2E004C009
:1002B0002297FE010E943A36C636D107C9F70E943E
:1002C00081120C943E360C940000EF92FF920F9333
:1002D000DF93CF93CDB7DEB760970FB6F894DEBF4C
:1002E0000FBECDBFA82F002309F461C07E01089482
:1002F000E11CF11C88E0F70111928A95E9F7298346
:100300003A834B835C836D837E83AF83988780E2DF
:10031000801BE82FFF27E7FDF0954D815E816F81FF
:100320007885181684F01D861E861F86188A8827F1
:1003300099278E1B9F0B04C0769567955795479517
:100340008A95D2F728C0202F332727FD3095DB016F
:10035000CA01022E04C0B695A795979587950A9471
:10036000D2F78D879E87AF87B88B04C0440F551F87
:10037000661F771FEA95D2F789819A81AB81BC818C
:1003800004C0B695A795979587952A95D2F7482BDF
:10039000592B6A2B7B2B49875A876B877C8729854A
:1003A0003A854B855C856D857E85AF8598898A2FDA
:1003B00060960FB6F894DEBF0FBECDBFCF91DF9130
:1003C0000F91FF90EF900895EF92FF920F93DF93BC
:1003D000CF93CDB7DEB760970FB6F894DEBF0FBEF0
:1003E000CDBFA82F002309F461C07E010894E11C51
:1003F000F11C88E0F70111928A95E9F729833A8385
:100400004B835C836D837E83AF83988780E2801B00
:10041000E82FFF27E7FDF09549815A816B817C81A8
:10042000181684F019861A861B861C868827992739
:100430008E1B9F0B04C0440F551F661F771F8A95A4
:10044000D2F728C0202F332727FD3095DB01CA01C2
:10045000022E04C0880F991FAA1FBB1F0A94D2F74F
:1004600089879A87AB87BC8704C07695679557952F
:100470004795EA95D2F78D819E81AF81B88504C0FA
:10048000880F991FAA1FBB1F2A95D2F7482B592BFB
:100490006A2B7B2B4D875E876F87788B29853A8502
:1004A0004B855C856D857E85AF8598898A2F6096A2
:1004B0000FB6F894DEBF0FBECDBFCF91DF910F9185
:1004C000FF90EF900895FB01DC0105900D92002054
:1004D000E1F70895FC0105900020E9F780959095DB
:1004E0008E0F9F1F0895FB01DC0102C001900D9249
:1004F00041505040D8F70895DC0101C06D93415040
:100500005040E0F7089504970E948B0208950297E7
:100510000E948B020895AC0140515D4F20E830E00D
:10052000B901CA010895BC01E091E907F091EA0719
:100530000280F381E02D89EE97E019950895DC01A2
:10054000ED91FC910280F381E02D41E050E019959E
:100550000895DC0157968D919C915897892B19F439
:1005600080E090E00AC059968D919C915A97892B12
:1005700011F08FEF089581E090E0FC01EE0FFF1F76
:10058000EA0FFB1F708F678B0895DC0157968D91E2
:100590009C915897892B19F480E090E013C05996EC
:1005A0008D919C915A97892B19F481E090E00AC0B3
:1005B0005B968D919C915C97892B11F08FEF08953C
:1005C00082E090E0FC01EE0FFF1FEA0FFB1F708F2F
:1005D000678B08952F923F925F926F927F928F92D6
:1005E0009F92AF92BF92CF92DF92EF92FF920F93C2
:1005F0001F93CF93DF937C018B01742E42E0842EF6
:10060000912C880E991E562E612EEC01DD24CC24EF
:1006100034E0A32EB12CA80EB91E772069F1AF8962
:10062000B88D109749F18D919C911197F7014689EA
:10063000FC0124803580CD01B40150E0252D362DFC
:10064000F10119958823C1F0AF89B88D8D919C91E6
:100650001197F8016085718544895589228133811C
:10066000F9012481FC01C280D380CD0130E0F60184
:100670001995D82ECC24C3942296CA15DB0569F6A9
:10068000CC2069F4D8011296ED91FC9113978181E9
:100690008F70873021F0472D711041E0D42E8D2DC1
:1006A000DF91CF911F910F91FF90EF90DF90CF904E
:1006B000BF90AF909F908F907F906F905F903F9092
:1006C0002F900895FC01623010F08FEF0895E60F2F
:1006D000F11D428380E00895CF93DF93EC01DA01AE
:1006E0002430310511F080E00AC0E881F9812D91B4
:1006F0003D914D915C910680F781E02D1995DF9138
:10070000CF910895DC01F901452B11F020E00AC0DA
:1007100020E00280F381E02D12969C918081981751
:1007200009F421E0822F0895DF92EF92FF920F9358
:100730001F93CF93DF93FB01DC011396CD91DC91E6
:1007400014972097E1F0E080F18002811381C801C5
:10075000B70120E030E040E050E00E9412368823EC
:1007600074F0DD24C801B7012E893F89488D598D69
:100770000E94EA35181624F0DD24D39401C0DD244C
:100780008D2DDF91CF911F910F91FF90EF90DF9012
:100790000895DF92EF92FF920F931F93CF93DF9311
:1007A000FB01DC011396CD91DC9114972097E1F0C9
:1007B000E080F180028113816B8D7C8D8D8D9E8D0B
:1007C000A80197010E94EA35181674F0DD24C801CB
:1007D000B70128A139A14AA15BA10E94EA351816E8
:1007E00024F0DD24D39401C0DD248D2DDF91CF9141
:1007F0001F910F91FF90EF90DF9008952F923F92FD
:100800005F926F927F928F929F92AF92BF92CF92A0
:10081000DF92EF92FF920F931F93CF93DF937C01B0
:100820008B01742E62E0862E912C880E991E502E1C
:10083000612EEC01DD24CC2456E0A52EB12CA80EAF
:10084000B91E772069F1AF89B88D109749F18D9164
:100850009C911197F7014689FC0124803580CD01D8
:10086000B40150E0252D362DF10119958823C1F0F2
:10087000AF89B88D8D919C911197F8016085718534
:100880004489558922813381F9012481FC01C28088
:10089000D380CD0130E0F6011995D82ECC24C39435
:1008A0002296CA15DB0569F6CC2069F4D8011296A8
:1008B000ED91FC91139781818F70873021F0472D46
:1008C000711041E0D42E8D2DDF91CF911F910F91AA
:1008D000FF90EF90DF90CF90BF90AF909F908F9060
:1008E0007F906F905F903F902F900895FC01623051
:1008F00010F08FEF0895E60FF11D428380E0089518
:10090000CF93DF93EC01DA012430310511F080E060
:100910000AC0E881F9812D913D914D915C9106804D
:10092000F781E02D1995DF91CF910895DC01F90150
:10093000452B11F020E00AC020E00280F381E02D79
:1009400012969C918081981709F421E0822F0895D6
:10095000FB01DC0113968D919C911497892B11F466
:1009600020E00AC020E080819181A281B3810097BC
:10097000A105B10509F021E0822F0895FB01DC01FA
:1009800013968D919C911497892B09F484C06081F2
:100990007181828193816034B8E37B07B0E08B077B
:1009A000B0E09B0709F475C0613428E3720720E0CA
:1009B000820720E0920708F039C0603BA4E07A0784
:1009C000A0E08A07A0E09A0709F463C0613BB4E0A5
:1009D0007B07B0E08B07B0E09B0780F46C3221E02E
:1009E000720720E0820720E0920709F452C06855A0
:1009F00072408040904009F04EC04BC0603CB2E174
:100A00007B07B0E08B07B0E09B0709F442C0603879
:100A100025E2720720E0820720E0920709F439C03E
:100A20006056794080409040B1F533C06231BAE7FA
:100A30007B07B0E08B07B0E09B0759F163312AE7F1
:100A4000720720E0820720E0920770F46030ABE488
:100A50007A07A0E08A07A0E09A07D9F060587047AB
:100A600080409040C1F415C0603021EE720720E054
:100A7000820720E0920769F06030A2EC7A07A1E0DB
:100A80008A07A0E09A0729F060507649804090409C
:100A900011F481E0089580E00895FB01DC011396D4
:100AA0008D919C911497892BA9F0208131814281ED
:100AB0005381DA01C9010897A109B109803791056D
:100AC000A105B10538F48FEB98E0622F0E94AB13BB
:100AD00081E0089580E00895FC01828193810E9465
:100AE000ED1708950F931F938C01FC018281938170
:100AF0000E94ED17F80114821F910F9108958F92B3
:100B00009F92AF92BF92CF92DF92EF92FF920F939C
:100B10001F938BEE93E09093FF048093FE0481EF8C
:100B200093E0909301058093000587EF93E0909305
:100B30000305809302051092380510923E0510922D
:100B40003D058DEF93E0909323058093220585E08A
:100B500094E09093400580933F05109243051092D6
:100B6000420582E08093410581E194E09093450540
:100B700080934405109248051092470583E08093C6
:100B800046058DE194E090934A05809349051092C3
:100B90004D0510924C0581E080934B058FE395E065
:100BA00090933A058093390584E495E090933C0551
:100BB00080933B058091390590913A05892B19F472
:100BC000E0E0F0E011C080913B0590913C05892B5D
:100BD00019F4E1E0F0E008C080913D0590913E05F8
:100BE000892B51F4E2E0F0E0EE0FFF1FE250FB4FE3
:100BF00089E495E094AF83AF10924F0510924E05B3
:100C0000109251051092500589E794E09093530596
:100C1000809352051092740589E294E090935F05E9
:100C200080935E0529E735E081E394E090937A05AF
:100C30008093790510927D0510927C0582E0809367
:100C40007B058DE394E090937F0580937E05109261
:100C500082051092810581E08093800530937605AE
:100C6000209375052B5F3F4F3093780520937705D0
:100C700010928405109283051092860510928505C6
:100C800081EB94E09093880580938705F9E8EF2E37
:100C9000F6E0FF2E10928A061092890610928B06BB
:100CA00010928D0610928C0688248A94982C90922B
:100CB000930680929206C12CE1E0DE2ED0928F0640
:100CC000C0928E0689E895E09093910680939006F5
:100CD0008701055F1F4F109294061092950610929F
:100CE000A1061092A0061092A3061092A2061092DE
:100CF000A7061092A6061092B5061092B406F092BE
:100D0000A906E092A806C8010E94ED1771E5A72E7A
:100D100074E0B72EB092B706A092B6061093B9064B
:100D20000093B806C8010E94ED1789E494E09093FF
:100D3000B7068093B60682E69BE09093BB0680934D
:100D4000BA061092BD071092BC071092BE0710920F
:100D5000C0071092BF079092C6078092C507D09235
:100D6000C207C092C10783E390E0E80EF91EF0923B
:100D7000C407E092C30707EC17E01092C707109270
:100D8000C8071092D4071092D3071092D60710927A
:100D9000D5071092DA071092D9071092E80710923F
:100DA000E7078CEB97E09093DC078093DB07C801A3
:100DB0000E94ED17B092EA07A092E9071093EC07A2
:100DC0000093EB07C8010E94ED1789E594E090932A
:100DD000EA078093E9071092ED0789EE97E00E94F9
:100DE000720589ED93E09093FF048093FE040696CC
:100DF00090930105809300050696909303058093D8
:100E000002058EEF94E090937408809373081F910D
:100E10000F91FF90EF90DF90CF90BF90AF909F9099
:100E20008F900895AF92BF92CF92DF92EF92FF9290
:100E30000F931F93DF93CF930F92CDB7DEB76C0163
:100E40007B0100E010E05E010894A11CB11C0DC004
:100E500082E69BE00E9410348983F60182819381AF
:100E6000B5010E940C180F5F1F4F0E151F0584F36C
:100E70000F90CF91DF911F910F91FF90EF90DF9036
:100E8000CF90BF90AF9008958F929F92BF92CF92D4
:100E9000DF92EF92FF920F931F93DF93CF930F9206
:100EA000CDB7DEB77C016B018FEB98E00E94A312F7
:100EB000B82E0894C108D108F7018481882309F469
:100EC000B48200E010E04E010894811C911C10C017
:100ED0008FEB98E00E94A3128983F7018481B816F2
:100EE00029F482819381B4010E940C180F5F1F4F77
:100EF0000C151D056CF30F90CF91DF911F910F9191
:100F0000FF90EF90DF90CF90BF909F908F900895CB
:100F1000EF92FF920F931F938C01F62EE72ECB01D9
:100F2000B8010E946302C8010E946A02BC018F2DB1
:100F30009E2D1F910F91FF90EF9008950F931F9397
:100F4000CF93DF93EC011A86198600E010E00CC005
:100F5000EF81F885E00FF11FC90160810E94D2176F
:100F60009A8789870F5F1F4F8B819C8129853A85DE
:100F70000817190768F3C9010E94EC1789879A8737
:100F8000DF91CF911F910F910895CF92DF92EF9251
:100F9000FF920F931F93DF93CF93CDB7DEB7639785
:100FA0000FB6F894DEBF0FBECDBF6C012B8B198638
:100FB00018868FEF9FEF9A8B898B2A875E874D87E4
:100FC000788B6F875C874B87B8E0EB2EF12CEC0EAB
:100FD000FD1EC7010E949E078091000290910102B0
:100FE000A0910202B09103028C839D83AE83BF83E4
:100FF0008091BA00869589838FEB98E0F601608135
:101000000E9490128FEB98E08E010F5F1F4FB80186
:101010000E949F028FEB98E0BE016C5F7F4F43E020
:1010200050E00E9417138FEB98E0BE01675F7F4F7F
:1010300041E050E00E9417138FEB98E0B70141E0C8
:1010400050E00E9417138FEB98E0BE016D5E7F4F5A
:101050000E949F028B859C859B838A838FEB98E0FF
:10106000BE016D5F7F4F41E050E00E9417138FEB90
:1010700098E0BE016E5F7F4F41E050E00E94171381
:101080008FEB98E00E948B13F02EE12E29C08A018D
:101090004032510510F00FE110E08FEB98E0F601BF
:1010A00060810E9490128FEB98E06F2D7E2D0E9440
:1010B0009F026F8578898FEB98E0A8010E94171333
:1010C0008FEB98E00E948B138F859889800F911F7A
:1010D000988B8F878B859C85801B910B9C878B873A
:1010E0004B855C854115510591F68FEB98E0F60133
:1010F00060810E9490128FEB98E0BE016F5F7F4F7E
:101100000E949F028FEB98E0BE016E5E7F4F41E030
:1011100050E00E9417138FEB98E0BE016F5E7F4F87
:1011200041E050E00E9417138FEB98E00E948B1370
:1011300063960FB6F894DEBF0FBECDBFCF91DF919F
:101140001F910F91FF90EF90DF90CF9008958F92B5
:101150009F92AF92BF92CF92DF92EF92FF920F9346
:10116000DF93CF93CDB7DEB760970FB6F894DEBFAD
:101170000FBECDBF6B017C014A015901C701B60109
:101180000E94131D29873A874B875C876D877E876E
:101190008F87988BDE011196FE01399688E00190C9
:1011A0000D928150E1F7CE010196F40160817181C9
:1011B000002321F0A5010E94D12603C0A5010E94B1
:1011C0003A2560960FB6F894DEBF0FBECDBFCF9123
:1011D000DF910F91FF90EF90DF90CF90BF90AF9095
:1011E0009F908F9008958F929F92AF92BF92CF92CF
:1011F000DF92EF92FF920F93DF93CF93CDB7DEB7DD
:1012000060970FB6F894DEBF0FBECDBF6B017C01B7
:101210004A015901C701B6010E94131D29873A8767
:101220004B875C876D877E878F87988BDE01119651
:10123000FE01399688E001900D928150E1F7CE01D0
:101240000196F40160817181002321F0A5010E94C3
:10125000D12603C0A5010E943A2560960FB6F894E6
:10126000DEBF0FBECDBFCF91DF910F91FF90EF900A
:10127000DF90CF90BF90AF909F908F9008958F9206
:101280009F92AF92BF92CF92DF92EF92FF920F9315
:101290001F93DF93CF93CDB7DEB768970FB6F8945F
:1012A000DEBF0FBECDBF7C018B0169014E010894EA
:1012B000811C911CC4010E94711B882309F4B0C0D9
:1012C0008DE0A82EB12CAC0EBD1EC501B801A60143
:1012D0000E94711B882309F4A3C0EB81FC818181EA
:1012E000282F30E0807C09F090C0890100731070D5
:1012F0000031110531F4EB85FC858081882341F0B4
:101300000BC00032110521F4EB85FC85D08006C0AE
:10131000DD240115110511F4DD24D394D701ED91DD
:10132000FC910190F081E02DC701B4014D2D19957C
:101330008823B1F0EB81FC81448169857A858D89B0
:101340009E8950E00E9473020031110519F00032AD
:10135000110531F4EF89F88DAB85BC858C918083C4
:10136000DD2009F452C02B813C81F90181818F700D
:10137000873009F04AC0AF89B88DEB85FC85808144
:101380008C93D7015696EC915697F0E03196EE0F7C
:10139000FF1FEE0FFF1FEE0DFF1D318320835696BA
:1013A000EC915697F0E0EE0FFF1FEE0FFF1FEE0DD2
:1013B000FF1D89819A819383828356968C915697DB
:1013C0008F5F56968C9300E010E0CD2CDD2416C084
:1013D000EB81FC818481809F802D112490E06681C7
:1013E000778149855A85480F591F2D893E89280FD5
:1013F000391FC7010E943F090F5F1F4F0C151D05C4
:101400003CF3F70186898150868BC4010E94901BB2
:10141000882331F0C5010E94901B882309F05DCF1D
:1014200068960FB6F894DEBF0FBECDBFCF91DF91A7
:101430001F910F91FF90EF90DF90CF90BF90AF90F2
:101440009F908F900895CF92DF92EF92FF920F932B
:101450001F93DF93CF93CDB7DEB72A970FB6F894DB
:10146000DEBF0FBECDBF8C01045B1F4FF801C080F3
:10147000D180529142918F017E010894E11CF11CB0
:10148000C701B6010E9465270C5F1F4FF8016081FC
:1014900071810E541040C701A8010E94732C88234B
:1014A00029F4CC24DD2480E090E002C08F8198856F
:1014B000BC01C6012A960FB6F894DEBF0FBECDBFA1
:1014C000CF91DF911F910F91FF90EF90DF90CF9020
:1014D00008954F925F926F927F928F929F92AF92F8
:1014E000BF92CF92DF92EF92FF920F931F93DF9301
:1014F000CF93CDB7DEB7C657D0400FB6F894DEBF56
:101500000FBECDBFDC01380149015B012401FB01A5
:101510008081853609F468C2863608F05EC08C305A
:1015200009F461C18D3058F5853009F40BC186305E
:1015300098F4823009F4D4C0833038F4882309F455
:10154000B3C0813009F0AAC0BDC0833009F4D6C051
:10155000843009F0A3C0E0C0883009F413C1893099
:1015600038F4863009F4F7C0873009F097C0FFC01F
:101570008A3009F429C18B3008F030C110C18034A1
:1015800009F493C18134B0F48F3009F445C180313E
:1015900038F48D3009F42DC18E3009F07FC032C18E
:1015A000813109F466C1813108F447C1803209F004
:1015B00075C070C1813609F4D0C1823638F48134E7
:1015C00009F49BC1823409F069C0C2C1833609F4B1
:1015D000D4C1843608F003C2C6C1853A09F410C4E8
:1015E000863A78F5813809F468C28238B0F48836D2
:1015F00009F43CC2893638F4863609F4FDC18736D1
:1016000009F04CC004C28A3609F451C28A3608F483
:1016100048C2803809F042C03DC1813A09F452C342
:10162000823A30F4823809F48EC2803AB9F592C217
:10163000833A09F4ABC3CD90DC90843A08F0ACC394
:1016400082C3813E09F427C5823EA0F4803C09F4A0
:1016500084C4813C30F4863A09F4DFC3873AF1F45C
:1016600062C4823C09F4C6C4823C08F49AC4803E39
:10167000A9F403C5843E09F424C5853E30F4823EB6
:1016800009F40EC5833E51F412C5863E09F445C5E2
:10169000863E08F43CC5873E09F467C5AA24BB24EE
:1016A000EE24EA94FE2C85C5ED91FC91A081B181D8
:1016B0002D913C91CF01F9011995AB01BC0184EE4C
:1016C00090E037C0ED91FC91A081B1812D913C91CA
:1016D000CF01F9011995AB01BC0180EF90E029C061
:1016E000ED91FC91A081B1812D913C91CF01F90147
:1016F0001995AB01BC018AEF90E01BC0ED91FC9104
:10170000A081B1812D913C91CF01F9011995AB01D7
:10171000BC0186E091E00DC0ED91FC91A081B1810A
:101720002D913C91CF01F9011995AB01BC0180E1EC
:1017300091E00E948807282F392FC9015C01262FCC
:10174000372F73C50E94FF2DD4016D937D938D9328
:101750009C93139707C00E94F12DF401608371835D
:1017600082839383540184E0E82EF12C22C5DB01AF
:1017700011968D919C911297009709F417C50E94BC
:101780007E2E14C5FB01418152814115510509F49A
:101790000DC5BA0180E090E00E94252E1DC0809109
:1017A000EA0B9091EB0B009729F42DB73EB72E5E14
:1017B0003B4004C02DB73EB7281B390BC901AA27EF
:1017C00097FDA095BA2F6AC0DB0111968C911197F5
:1017D00012966C910E94FE2F5401E9C4FB01818195
:1017E0000E94E430B7C3FB01818162810E94B13065
:1017F000F3CFDB0111968C910E94EA2EF4019183C4
:10180000808319C0DB0112966C91129711968C910E
:1018100070E00E941E2FCAC4FB0131968281938121
:101820008E0F9F1F93838283DB0111968C91918190
:10183000F4018083918354019CC0AB014F5F5F4FE3
:10184000DA0112962D913C911397240F351F1396B0
:101850003C932E931297FB018181FA019181A22F73
:10186000B3819C01220F331F220F331F5D017901C9
:10187000A0C4FB013196828193818E0F9F1F9383B9
:10188000828371815381D50111966C91482F952FD8
:10189000842FFEC389EF90E0A0E0B0E0F2018083E6
:1018A0009183A283B38352015ECFFB013196848181
:1018B00095818E0F9F1F95838483DB0111964D9137
:1018C0005C91129722813381F894FC0111C08081D0
:1018D000F999FECF1FBA52BD41BD80BD0FB6F89435
:1018E000FA9AF99A0FBE4F5F5F4F31962150304000
:1018F0002115310561F7789459C4CB0101960D90FB
:10190000BC91A02DFB011181FC010181E280F380DB
:101910001296ED91FC9113970190F081E02DCD018D
:10192000029619955C01412F502F9A01FC01A701E5
:101930000BC0F999FECF32BD21BDF89A80B58193D5
:101940002F5F3F4F415050404115510591F731C431
:101950008FEF9FE0A0E0B0E0A1CF8091BA00869524
:10196000D4018C9347C080E290E0F401918380839E
:10197000520112E0E12EF12C1CC40D90BC91A02D5F
:101980001496ED91FC9115970190F081E02DCD0119
:10199000049619955C016B01EE24FF2418E0EC1409
:1019A000FD0408F006C48FEB98E0612F0E949012AE
:1019B0008FEB98E00E948B13882369F4F501EE0DFC
:1019C000FF1D10830894E11CF11C61E070E080E0D1
:1019D00090E00E94252E1F5F183709F7EAC38FEBAE
:1019E00098E00E949A1295C38FEB98E00E94A31290
:1019F000F20180835401B5C38FEB98E0DB011196AF
:101A00006C91119712964C910E949C13F1CF0D90FE
:101A1000BC91A02DFB01D180C2801496ED91FC9168
:101A200015970190F081E02DCD01049619957B0169
:101A30008C0158018FEB98E06D2D4C2D0E949C136A
:101A4000780110E00AC08FEB98E00E94A3121C15E9
:101A500050F4D7018D937D011F5F8FEB98E00E94BA
:101A60009A12892B81F7E12EFF24A3C3FB01319643
:101A7000038114810E0F1F1F14830383E180F28002
:101A80008FEB98E0FB0161810E9490128FEB98E050
:101A9000B801A7010E9417138FEB98E00E948B13E7
:101AA0009BCE8091BA0081608093BA007FC3809101
:101AB000BA008E7F8093BA008FCEFB0131960381EE
:101AC00014810E0F1F1F148303838D909C90DB01E4
:101AD0001196FC90E180D280C480BBEEAB2EB2E0C8
:101AE000BB2EA80CB91CC5010E947205F401E1517E
:101AF000FD4FF082CF014E2D5D2D602F7C2D24E611
:101B00000E94C5070E94F12D7B018C01ADEECA2E0B
:101B1000A2E0DA2EC80CD91C0E94F12D6E197F09A3
:101B2000800B910B685873418040904008F05FC370
:101B3000D601ED91FC918189882309F454C3C50134
:101B40000E947205E9CF8D919C9185519D4F0E9415
:101B5000720542CECD90DC90F6E08F2E912C8C0C4D
:101B60009D1CF601E05BFF4F138140815181828112
:101B7000082F20E030E0BE016F5F7F4FF999FECF64
:101B800032BD21BDF89A80B5FB01E20FF31F8083BF
:101B90002F5F3F4F2230310589F769817A814617DF
:101BA000570728F420E030E0A0E0B0E015C0F801CD
:101BB00022E030E00BC0F999FECF32BD21BDF89A8A
:101BC00080B581932F5F3F4F615070406115710563
:101BD00091F7A981BA8198012115310561F0A6011B
:101BE0004C5A5F4FBD01822F932F940100E00E9459
:101BF000A708882329F5E4E5F0E0CE0EDF1ED60124
:101C00008D919C91ECEAFFEFCE0EDF1E9C838B83BF
:101C1000EDE1EE2EF12CEC0EFD1E60E070E080E0B8
:101C200090E0AE014D5F5F4F970101E00E94A70871
:101C3000D6011696F7018EE101900D928150E1F7E1
:101C4000F601EE5AFF4F1081B18024E530E0C20E5C
:101C5000D31ED6018D919C91ECEAFFEFCE0EDF1ED4
:101C60009C838B837BE3E72EF12CEC0EFD1E60E062
:101C700070E080E090E0AE014D5F5F4F970101E0C2
:101C80000E94A708212F3B2DC901DC01F7018EE13D
:101C900001900D928150E1F724E530E0C20ED31E91
:101CA000D6016D917C91ECEAFFEFCE0EDF1ED601DE
:101CB000DA961C92C6018496A401212F3B2D0E9426
:101CC0003F0974C28D919C9106960E94230A009749
:101CD00009F46CC26D837E838F839887F89480E0CB
:101CE00090E09E012B5F3F4FF901E80FF91FE08163
:101CF000F999FECF1FBA92BD81BDE0BD0FB6F89431
:101D0000FA9AF99A0FBE01968230910569F7EF8130
:101D1000F8852D813E8182E090E010C04081F999E4
:101D2000FECF31961FBA92BD81BD40BD0FB6F8946B
:101D3000FA9AF99A0FBE01962150304021153105CB
:101D400069F7789433C2E4E5F0E0CE0EDF1ED601E9
:101D50008D919C919C838B8369E5E62EF12CEC0E92
:101D6000FD1E60E070E080E090E0AE014D5F5F4FEF
:101D7000970101E00E94A708D601AE54B040F701D8
:101D80008EE101900D928150E1F710C28D919C91EE
:101D900006960E94230ACFCCFB0131968281938163
:101DA0008E0F9F1F93838283DB0111966C9171814B
:101DB00022E530E0C20ED31ED601AD90BC902EEAD3
:101DC0003FEFC20ED31E54E5E52EF12CEC0CFD1CAA
:101DD0009381A701950101E00E94A708182F88238D
:101DE00009F448C1D7016D917C91F60112AEC6018C
:101DF0008496A50126E030E0C20ED31E960138C1BC
:101E0000F4011082FB0181819281A381B48100974A
:101E1000A105B10509F4A4C19CC0FB014181528117
:101E2000638174814034F8E35F07F0E06F07F0E00E
:101E30007F0709F48EC0413428E3520720E062078F
:101E400020E0720708F03AC0403B34E0530730E02E
:101E5000630730E0730709F47CC0413B84E0580716
:101E600080E0680780E0780780F44C3291E0590701
:101E700090E0690790E0790709F46BC0485552403B
:101E80006040704009F05EC064C0403CB2E15B0756
:101E9000B0E06B07B0E07B0709F45BC04038E5E2D7
:101EA0005E07E0E06E07E0E07E0709F452C04056AE
:101EB00059406040704009F045C04BC042312AE7AC
:101EC000520720E0620720E0720709F442C0433164
:101ED0003AE7530730E0630730E0730770F44030AF
:101EE0008BE4580780E0680780E0780791F140585C
:101EF00050476040704031F52CC04030A1EE5A0789
:101F0000A0E06A07A0E07A0721F14030B2EC5B075D
:101F1000B1E06B07B0E07B07E1F04050564960400C
:101F2000704081F416C0FB0141815281638174814C
:101F3000DB01CA010897A109B10980379105A10504
:101F4000B10510F080E006C08FEB98E0642F0E948E
:101F5000AB1381E0D2018C9303C1ED90FC90E9E8D2
:101F6000F0E0EE0EFF1ED7018D919C919C838B8338
:101F700049E0C42ED12CCC0EDD1E60E070E080E084
:101F800090E0AE014D5F5F4F960101E00E94F308C3
:101F9000D701D397F6018AE001900D928150E1F7C5
:101FA00005C10D911C9109571F4FF801A080B18008
:101FB00033E1E32EF12CEC0EFD1ED8015E914E9123
:101FC0008D01C701B5010E9465270C5F1F4FF80105
:101FD0006081718103531040C701A8010E94732CD6
:101FE000882329F4AA24BB2420E030E01EC1298DD7
:101FF0003A8D1BC1FB013196828193818E0F9F1F09
:1020000093838283ED90FC90DB0111966C9171813A
:1020100027E830E0E20EF31ED701CD90DC9029E7EF
:102020003FEFE20EF31EA70147575F4F93819601E2
:1020300001E00E94F308182F8823E1F089E890E07E
:10204000E80EF91ED7016D917C91EDEEFFEFEE0EDB
:10205000FF1ED7011C92EAE8FFEFEE0EFF1EC7013C
:10206000805A9F4FA60126E530E0E20EF31E97014D
:102070000E943F09D2011C9373C00D90BC91A02D0A
:10208000ED91FC9111970190F081E02DCD01199512
:102090005C01262F55CB8D919C910E946B169CCB99
:1020A0008D919C91FB0161810E94391695CBAD9079
:1020B000BC9020E733E0A20EB31E25E0E22EF12C07
:1020C00078C0FB013196E280F380EE0EFF1EF382B2
:1020D000E2820D911C91DB0111968D919C911297DA
:1020E000059711F080E010C0D801A059BC4F20E046
:1020F00030E0F701E20FF31F80818D932F5F3F4F98
:1021000025303105B1F781E0F201808329C088E2F2
:1021100090E0D2018D939C932BCC8D909C90FB01F1
:10212000E580F68007811085C801B70120E030E026
:1021300040E050E00E94123687FD2BC0DD24C8012C
:10214000B701D40156962D913D914D915C915997CF
:102150000E94EA35181614F0DD24D394F201D082DF
:10216000520191E0E92EF12C24C08D909C90DB016E
:102170001196ED90FD900D911C911497F401638DD3
:10218000748D858D968DA80197010E94EA351816E9
:1021900014F4DD24E3CFDD24C801B701D401909607
:1021A0002D913D914D915C919397D2CF5201EE24A8
:1021B000FF24B701C501CA58DF4F0FB6F894DEBF40
:1021C0000FBECDBFCF91DF911F910F91FF90EF9088
:1021D000DF90CF90BF90AF909F908F907F906F9047
:1021E0005F904F9008958089882309F495CC25EC61
:1021F00032E0820E931ED4018C9111969C91ECEFEB
:10220000FFEF8E0E9F1ED4014C9111965C917C01C4
:102210009A018901283F310510F007EF10E0C50150
:102220000E9472055701202F312F7901C2CFEF9202
:10223000FF920F931F93DF93CF93CDB7DEB76297D3
:102240000FB6F894DEBF0FBECDBFE091B806F09197
:10225000B9068189882309F420C1CF01E3C0209108
:102260008C0630918D0680918B068436C1F4211541
:102270003105A9F08091900690919106BC01A901C9
:102280009C0100918E0610918F0683E798E00E94D2
:10229000690AAC01892B39F460E070E004C060E0A9
:1022A00070E040E050E024E62983198618868FEF1D
:1022B0009FEF9A8B898B2A877E876D87588B4F87F4
:1022C0007C876B8798E0E92EF12CEC0EFD1EC70190
:1022D0000E949E078091000290910102A09102024B
:1022E000B09103028C839D83AE83BF83E091BA06D5
:1022F000F091BB06A081B18112962D913C9113976C
:10230000CF01BE016C5F7F4F43E050E0F9011995AA
:102310000091BA061091BB06D801ED91FC910280A4
:10232000F381E02DC801BE01675F7F4F41E050E0BF
:102330001995D801ED91FC910280F381E02DC8013F
:10234000B70141E050E01995E091BA06F091BB0663
:10235000A081B18112962D913C911397CF01BE01BE
:102360006F5F7F4F41E050E0F90119958A8584360F
:1023700009F054C00091BA061091BB068B859C856C
:102380009B838A83D801ED91FC910280F381E02D3B
:10239000C801BE016D5F7F4F41E050E01995D80143
:1023A000ED91FC910280F381E02DC801BE016E5FCA
:1023B0007F4F41E050E019954B855C8541155105F3
:1023C00079F0E091BA06F091BB06A081B1816F85EA
:1023D000788912962D913C911397CF01F9011995A7
:1023E0000091BA061091BB06D801ED91FC910280D4
:1023F000F381E02DC801BE016E5E7F4F41E050E0E9
:102400001995D801ED91FC910280F381E02DC8016E
:10241000BE016F5E7F4F41E050E019958091B80694
:102420009091B9060E94ED17E091EB07F091EC074F
:1024300081898823B9F12CC02091BF073091C00752
:102440008091BE078436C9F421153105B1F0809121
:10245000C3079091C407BC01A9019C010091C10769
:102460001091C20783E798E00E94690AFC019B0172
:10247000892B39F420E030E004C020E030E0E0E0D7
:10248000F0E0BF01A9018DEE97E024E60E94C507A8
:1024900089EE97E00E94720508C08089882309F0C0
:1024A000DECEC2CF8089882339F662960FB6F894C3
:1024B000DEBF0FBECDBFCF91DF911F910F91FF9077
:1024C000EF9008958EEF94E00E946B168FEB98E0EA
:1024D00063E972E00E94FB1208950F931F93E0914D
:1024E000B606F091B7060281138182E69BE00E9456
:1024F000DF33BC0186EB96E0F80119951F910F912F
:102500000895CF93DF930E94882E0E946212C3E148
:10251000D2E30E9417112097E1F30E941332F9CF02
:1025200081E08093BA08609397081092B8081092DF
:10253000B90808952091960830E080919508281BED
:102540003109C9010895409195088091960848176E
:1025500018F02FEF3FEF0AC0E42FF0E0EB58F74FF1
:102560008081282F30E04F5F40939508C90108957E
:10257000E091950880919608E81718F0EFEFFFEFCB
:1025800006C0F0E0EB58F74F8081E82FF0E0CF0174
:1025900008950895AC012091BD083091BE08211521
:1025A0003105E1F090919508809196089817B0F068
:1025B00090E008C0FA01EA0FFB1F8081AB58B74FCB
:1025C0008C939F5FA92FB0E0A617B7079CF31092DA
:1025D000950860939608CB01F90119950895E0914B
:1025E000BB08F091BC08309729F01092B8081092FF
:1025F000B908199508957093BE086093BD080895B1
:102600001092C2081092C10888EE93E0A0E0B0E0FA
:102610008093C3089093C408A093C508B093C608DC
:1026200081E694E09093C0088093BF080895CF920C
:10263000DF92EF92FF920F931F93CF93DF937C0172
:102640006B018A018091BA088823A1F0C0E0D0E034
:102650000DC0D701ED91FC91D601AC0FBD1F0190CB
:10266000F081E02DC7016C9119952196C017D10713
:1026700080F304C0CB01642F0E946114C801DF9174
:10268000CF911F910F91FF90EF90DF90CF90089521
:10269000DF93CF930F92CDB7DEB7FC0169838091B2
:1026A000BA088823C9F08091B908803238F081E0F7
:1026B00090E09383828320E030E015C08091B808D9
:1026C000E82FF0E0E856F74F998190838F5F809371
:1026D000B8088093B90805C0CE01019661E00E9458
:1026E000611421E030E0C9010F90CF91DF9108958E
:1026F0000F93062F8091970868E978E04091B90818
:1027000021E00E940C141092B8081092B90810929F
:10271000BA080F91089561E00E947813089541323C
:1027200008F040E2862F65E778E00E94C31310921C
:10273000950880939608089521E00E948F130895CC
:1027400010929508109296081092B8081092B90845
:102750000E941B1608950F931F938C01862F0E94D1
:10276000BF138FEE92E10E9481148AEC92E10E94E5
:102770007C14C8010E94A0131F910F910895880F27
:102780008093BA000895382F413210F040E042C0E3
:102790008091CB088823E1F791E09093CB082093B8
:1027A000CD088FEF809338091092F3084150409381
:1027B000F4084F5F9093CC088091CC08330F832BA3
:1027C0008093CC088091CE08813041F41092CE08DD
:1027D0008091CC088093BB0085EC01C085EE80938E
:1027E000BC008091CB088130E1F38091F30884171D
:1027F00010F44091F30820E030E00AC0FB01E20F42
:10280000F31FD901AD52B74F8C9180832F5F3F4F9B
:102810002417A0F3842F08950F931F93582F122F7E
:10282000413210F081E04AC08091CB088823E1F763
:1028300082E08093CB080093CD088FEF8093380916
:102840001092F3084093F408A3EDB8E0FB0102C036
:1028500081918D938E2F861B8417D0F31092CC0814
:102860008091CC08550F852B8093CC088091CE08A1
:10287000813041F41092CE088091CC088093BB0047
:1028800085EC01C085EE8093BC00112321F080917E
:10289000CB088230E1F3809138098F3F11F480E05A
:1028A0000DC080913809803211F482E007C0809118
:1028B0003809803311F084E001C083E01F910F914B
:1028C0000895482F613210F081E008958091CB087F
:1028D000843011F082E0089560931609A5EFB8E006
:1028E000842F9C01F90102C081918D938E2F841B4E
:1028F0008617D0F380E008959093D2088093D10892
:1029000008959093D0088093CF0808951F920F9256
:102910000FB60F920BB60F9211242F933F934F9344
:102920005F936F937F938F939F93AF93BF93EF9337
:10293000FF938091B90090E0887F90708036910578
:1029400009F4F2C081369105CCF58832910509F47D
:102950007BC089329105B4F48031910509F46FC0D0
:10296000813191053CF4009709F447C1089709F0BB
:102970004FC165C08831910509F466C0809709F0A0
:1029800047C182C08034910509F4A4C08134910507
:1029900044F48033910509F482C0C89709F038C126
:1029A00089C08035910509F489C08835910509F4FD
:1029B00096C08834910509F02BC1AEC088399105C5
:1029C00009F413C189399105ECF48837910509F4AC
:1029D000ABC0893791054CF48836910509F4A4C041
:1029E0008037910509F014C19FC08838910509F41A
:1029F000FCC08039910509F49DC08038910509F02B
:102A000007C198C0803B910509F4C6C0813B910580
:102A10004CF4803A910509F49FC0883A910509F079
:102A2000F7C0BAC0803C910509F4E3C0883C910529
:102A300009F4DFC0883B910509F0EAC0C2C080916B
:102A4000CC088093BB00CFC09091F3088091F4082C
:102A5000981768F49091F308E92FF0E0ED52F74FE2
:102A600080818093BB009F5F9093F308BCC08091EE
:102A7000CD08882309F44BC085ED8093BC0080917C
:102A8000BC0084FDFCCFC2C080E28093380985ED94
:102A90008093BC008091BC0084FDFCCFB7C080E374
:102AA0008093380985ED8093BC008091BC0084FD43
:102AB000FCCFACC088E3809338099BC08091F308B9
:102AC0009091BB00E82FF0E0ED52F74F90838F5FBD
:102AD0008093F3089091F3088091F40882C080916C
:102AE000F3089091BB00E82FF0E0ED52F74F908390
:102AF0008F5F8093F3088091CD08882341F085EDA6
:102B00008093BC008091BC0084FDFCCF7FC081E03D
:102B10008093CE0884EA6EC085ED8093BC008091DE
:102B2000BC0084FDFCCF72C083E08093CB08109280
:102B3000370959C080913709803208F056C080911A
:102B400037099091BB00E82FF0E0E95EF64F9083E3
:102B50008F5F8093370947C080913709803230F406
:102B6000E0913709F0E0E95EF64F108285ED809341
:102B7000BC008091BC0084FDFCCF1092CB0860911A
:102B80003709E091D108F091D20887E199E070E02F
:102B90001995109237092DC084E08093CB081092CC
:102BA000150910921609E091CF08F091D0081995F7
:102BB00080911609882329F481E0809316091092E8
:102BC000F50890911509E92FF0E0EB50F74F80815F
:102BD0008093BB009F5F9093150990911509809198
:102BE0001609981710F485EC01C085E88093BC00A5
:102BF0000FC085EC8093BC0009C01092380985EDA8
:102C00008093BC008091BC0084FDFCCF1092CB0867
:102C1000FF91EF91BF91AF919F918F917F916F91B4
:102C20005F914F913F912F910F900BBE0F900FBE70
:102C30000F901F9018951092CB0881E08093CD08DB
:102C40001092CE0884E161E00E94B13085E161E03C
:102C50000E94B130E9EBF0E080818E7F808380813B
:102C60008D7F808388E48093B80085E48093BC00E6
:102C700008950F931F93DF93CF9300D00F92CDB79A
:102C8000DEB78C0170E080E090E069837A838B830B
:102C90009C83F8012189328943895489E091170482
:102CA000F0911804C8018A5B9F4FBE016F5F7F4F90
:102CB000199589819A81AB81BC81F801818B928BB6
:102CC000A38BB48B0F900F900F900F90CF91DF914B
:102CD0001F910F9108958F929F92BF92CF92DF9292
:102CE000EF92FF920F931F93DF93CF93CDB7DEB791
:102CF000CE55D0400FB6F894DEBF0FBECDBF6C01ED
:102D0000DC01ED91FC910190F081E02D1995F60127
:102D1000E05BFF4F6083718382839383F601EC5BFA
:102D2000FF4FD182C082F601E75BFF4FD182C082A4
:102D3000F601E25BFF4FD182C082E4E5F0E0CE0E07
:102D4000DF1ED6018D919C91ECEAFFEFCE0EDF1EC7
:102D50009C838B8365E0E62EF12CEC0EFD1E60E07B
:102D600070E080E090E0AE014D5F5F4F970101E0C1
:102D70000E94A708D6011696F7018EE101900D92E8
:102D80008150E1F756E0852E912C8C0C9D1CF601AC
:102D9000E05BFF4F03818281182F4081518120E049
:102DA00030E0BE016F5F7F4FF999FECF32BD21BD8C
:102DB000F89A80B5FB01E20FF31F80832F5F3F4F2E
:102DC0002230310589F769817A814617570728F43F
:102DD000A0E0B0E020E030E01AC0812F902F9C01ED
:102DE000F90122E030E00BC0F999FECF32BD21BDE0
:102DF000F89A80B581932F5F3F4F61507040611505
:102E0000710591F7A981BA81812F902F9C0121151D
:102E1000310561F0A6014C5A5F4FBD01822F932FFF
:102E2000940100E00E94A708882329F524E530E0FA
:102E3000C20ED31ED6018D919C91ECEAFFEFCE0E0F
:102E4000DF1E9C838B8343E2E42EF12CEC0EFD1EEF
:102E500060E070E080E090E0AE014D5F5F4F970171
:102E600001E00E94A708D6011696F7018EE10190B5
:102E70000D928150E1F7F601EE5AFF4F1081B180BB
:102E800024E530E0C20ED31ED6018D919C91ECEA70
:102E9000FFEFCE0EDF1E9C838B8331E4E32EF12CFB
:102EA000EC0EFD1E60E070E080E090E0AE014D5F52
:102EB0005F4F970101E00E94A708212F3B2DC90118
:102EC000DC01F7018EE101900D928150E1F724E5DC
:102ED00030E0C20ED31ED6016D917C91ECEAFFEF7B
:102EE000CE0EDF1ED601DA961C92C6018496A4018E
:102EF000212F3B2D0E943F09D601ED91FC910190BD
:102F0000F081E02DC6011995F601EB57FF4F608364
:102F1000718382839383F601E258FF4FD182C0828E
:102F2000F601ED57FF4FD182C082E7E5F0E0CE0E0B
:102F3000DF1E80E090E0A0E0B0E0F60180839183A6
:102F4000A283B38329EA3FEFC20ED31EF601838D1D
:102F5000948DA58DB68D2CE530E0C20ED31EF60102
:102F600080839183A283B38382E69BE040E052ECAE
:102F700061E070E00E9458338CE08093B800C25A40
:102F8000DF4F0FB6F894DEBF0FBECDBFCF91DF91FC
:102F90001F910F91FF90EF90DF90CF90BF909F9087
:102FA0008F9008959C012627822F82958227082ED4
:102FB000869586958025082E869580258770022E19
:102FC000232F869507948795302D2827069487957B
:102FD00030252827C90108950895FC01A489B589E1
:102FE00012961C92129714961C921E9213978FEFB2
:102FF0009FEF1A969C938E931997138A128A108AC0
:10300000118A1786168611A210A28CE090E0938395
:103010008283178E168E0895AF92BF92CF92DF9261
:10302000EF92FF920F931F93DF93CF930F92CDB741
:10303000DEB78C016115710581F4CE010196D801CE
:1030400015969C938E93149717969C938E93169730
:1030500019969C938E93189707C0FC01758364831F
:103060006F5F7F4F77836683D80114962D913C91D3
:10307000159716968D919C9117972817390709F087
:103080004BC0E8C288309105DCF48330910509F427
:103090001CC18430910564F48130910509F4E5C0C8
:1030A000823091050CF0FBC0892B09F4DAC022C0F4
:1030B0008530910509F446C106970CF06AC122C11A
:1030C0008B30910509F41DC28C30910544F4893090
:1030D000910509F4F1C10A970CF007C2BAC18D300D
:1030E000910509F421C28D3091050CF4A6C00E970C
:1030F00009F473C2D80114968D919C91159701968D
:1031000015969C938E93149716962D913C91179734
:103110008217930709F49EC2F80182819381873058
:10312000910509F461C188309105BCF483309105A3
:1031300009F4D7C08430910544F48130910509F435
:10314000A6C0029709F055C2B6C08530910509F4B2
:103150000BC106970CF029C1E7C08B30910509F42B
:103160004EC08C3091053CF489309105D1F00A971E
:103170000CF0C7C17AC18D30910509F4E1C18D30E1
:1031800091050CF466C00E9709F033C2FAC1D8015C
:103190005496ED91FC915597828381E050968C93E3
:1031A0004CC0F801A489B58919968C911997199684
:1031B0001C9219971A968C931A9784819581FC0119
:1031C000208119968D919C911A97820F911D1A96C4
:1031D0009C938E931997F80122893389821793075C
:1031E00049F481E0808B8685978514969C938E9315
:1031F000139723C081E0D80151968C931EC0D8014B
:103200005496ED91FC9155971C962D913C911D97EC
:10321000858196818217930718F481E051968C93EB
:1032200081E0F801808B0488F589E02DD8011C9697
:103230008D919C911D9794838383F801848195815E
:10324000019695838483268137818217930709F439
:10325000D0C1D8011496ED91FC91159780818C37DF
:1032600021F0F8011382128230C2D80114968D9198
:103270009C911597019615969C938E93149716968C
:103280002D913C9117978217930709F4B5C1D80186
:103290001496ED91FC91159780818C3711F7F80108
:1032A0008481958101969583848326813781821755
:1032B000930709F4A4C1D8011496ED91FC911597D8
:1032C00080818C3771F650961C92F801848195812B
:1032D000019695838483268137818217930709F4A9
:1032E00096C1F801A489B58911961C921E92848119
:1032F0009581FC01808190E0DC90CC248C299D2973
:103300008D939C93D80114968D919C91159701965D
:1033100015969C938E93149716962D913C91179722
:103320008217930709F476C1F801A489B5898481CD
:103330009581FC01808190E0BC90AA248A299B2978
:103340008D939C93D80114968D919C91159701961D
:1033500015969C938E93149716962D913C911797E2
:103360008217930709F459C1D8011496ED91FC9185
:1033700015978081843639F08E3609F4B0C08136D5
:1033800009F06FCF04CFD8015496ED91FC91559779
:103390008283F801848195810196958384832681B7
:1033A00037818217930709F43BC1D80191961C928B
:1033B0001E9290971D961C921E921C971496ED914A
:1033C000FC91159780811C968C931C971D961C92DE
:1033D000F8018481958101969583848326813781C4
:1033E0008217930709F41FC1D8011C96FC901C9703
:1033F000EE241D96FC92EE921C971496ED91FC9192
:10340000159780819701280F311D1D963C932E93AF
:103410001C975496ED91FC91559785819681821762
:10342000930718F481E051968C93F801868D978D5F
:103430000B96FC01EE0FFF1FE00FF11F28E030E0BC
:10344000318320830A97D8015F969C938E935E9771
:103450006BC0F801848195810196958384832681D0
:1034600037818217930709F4E1C0D80152968D91F4
:103470009C9153970E94EC17F801938B828BA4893F
:10348000B5891A961C921E92199719968C911997C4
:1034900019961C9219971A968C931A978481958184
:1034A000FC01208119968D919C911A97820F911D94
:1034B0001A969C938E931997D80114968D919C918E
:1034C0001597019615969C938E93149716962D91A9
:1034D0003C9117978217930709F063CEAAC0D801D1
:1034E0005496ED91FC9155978283F80184819581E2
:1034F000019695838483268137818217930709F487
:103500009BC0D80114968D919C91159701961596A4
:103510009C938E93149716962D913C911797821732
:10352000930709F06CCE8BC0F801848195810196D8
:1035300095838483268137818217930709F482C09B
:10354000D8011F961C921E921E9753961C921E9293
:1035500052971C968D919C911D971496ED91FC911C
:103560001597892B59F431971596FC93EE93149780
:103570005E96ED91FC915F97319790C080E090E06E
:1035800009C0D8011496ED91FC91159752968D9132
:103590009C91539760810E94D217F801938B828B84
:1035A000268537850488F589E02D0780F085E02D94
:1035B000E20FF31FD80114968D919C911597DC01B1
:1035C0008C9180832F5F3F4FF80137872687848552
:1035D00095852817390709F45CC0F8018481958125
:1035E000019695838483268137818217930749F654
:1035F0002CC08CE090E005C081E090E028C082E023
:1036000090E0D80113969C938E93129723C083E089
:1036100090E01DC084E090E0F4CF85E090E017C01A
:1036200086E090E0EECF87E090E011C088E090E087
:10363000E8CF89E090E00BC08AE090E0E2CF8BE039
:1036400090E005C08DE090E0DCCF8EE090E0F801E6
:1036500093838283D80114962D913C9115971896E7
:103660008D919C9119972817390779F512968D91AC
:103670009C9113970D9749F5F80117861686138AC2
:10368000128A84859585892B01F521503040358338
:103690002483068CF78DE02D3197D8015F96FC933B
:1036A000EE935E973B96EE0FFF1FE00FF11F8081B8
:1036B000918113969C938E931297F8018281938146
:1036C0008730910509F0DECC83CE0F90CF91DF914A
:1036D0001F910F91FF90EF90DF90CF90BF90AF9030
:1036E0000895FC01DB01718360837383628315821B
:1036F00014825783468312968C911297480F511D5E
:103700005187408713968C911397992787FD909541
:10371000480F591F538742878C91811181E008958A
:10372000CF93DF93DC011296ED91FC91139780818A
:10373000882309F489C0EF0128961396DC93CE9371
:1037400012978085882311F5ED91FC9111971696BB
:103750002D913C9117971396FC93EE931297159623
:103760001C921E9214978281280F311D19963C934A
:103770002E9318978381992787FD9095280F391FDD
:103780001B963C932E931A9780E05EC094818181B2
:10379000282F30E0B901607370706033710591F4C7
:1037A00089818073803371F4228118968D919C9168
:1037B0001997821B910919969C938E93189740E054
:1037C00050E01AC0492F50E0C901807C90700097EA
:1037D00071F46032710559F4858190E09A01289F57
:1037E000A001299F500D389F500D112405C080382D
:1037F000910511F442E050E08181807349F4149600
:103800008D919C911597019615969C938E93149784
:103810001296ED91FC9113978281480F511D1896D5
:103820002D913C911997240F351F19963C932E9397
:1038300018978381992787FD9095280F391F1B962C
:103840003C932E931A9781E0DF91CF910895CF9208
:10385000DF92EF92FF920F931F93CF93DF93EC01D0
:103860007A018B01CA80DB80EA81FB81808190E054
:10387000A0E0B0E08E159F05A007B10731F481816B
:103880008F70883011F081E009C0CE010E94901B3A
:103890008A819B818C159D0539F780E0DF91CF915E
:1038A0001F910F91FF90EF90DF90CF900895CF93ED
:1038B000DF93FC01EB01A281B381CD01840F951F41
:1038C000938382836115710529F407C08D918993D3
:1038D0004150504041155105C9F781E0DF91CF912A
:1038E0000895CF92DF92EF92FF920F931F93DF9391
:1038F000CF93CDB7DEB760970FB6F894DEBF0FBE9B
:10390000CDBF8C017A016115710519F5DC018D912E
:103910009C9187559C4179F41CC0C801B60140E1D7
:1039200050E00E94711C882309F445C0E0EFFFEFCE
:10393000EE0EFF1E04C06E010894C11CD11CF1E103
:10394000EF16F10450F7C801B601A7010E94711CDF
:1039500032C0D80114968D919C9115978E159F05B4
:1039600060F416968D919C911797009711F484E05E
:1039700092E0F8019783868314C0D801ED91FC9101
:10398000C801A7011995882371F4F80186819781F0
:10399000009711F482E192E0D80117969C938E93E0
:1039A000169780E008C0F801848195818E199F09DF
:1039B0009583848381E060960FB6F894DEBF0FBED6
:1039C000CDBFCF91DF911F910F91FF90EF90DF90CE
:1039D000CF900895CF93DF93EC018C819D81892B4B
:1039E00039F48E819F81009789F484E092E00EC0C3
:1039F000E881F981CE0141E050E01995882351F426
:103A00008E819F81009711F482E192E09F838E83E3
:103A100080E006C08C819D8101979D838C8381E02D
:103A2000DF91CF910895DF93CF93CDB7DEB728977D
:103A30000FB6F894DEBF0FBECDBF18861F826D8310
:103A40007E838B839C8327E53CE13A8329839A819B
:103A50005C81392F482F8F81988528960FB6F8946E
:103A6000DEBF0FBECDBFCF91DF9108956F927F92E1
:103A70008F929F92AF92BF92CF92DF92EF92FF927E
:103A80000F931F93DF93CF930F92CDB7DEB75C01F7
:103A90003B014E010894811C911CB4010E94EA1C58
:103AA000882309F44EC08981282F30E040E050E09F
:103AB00087FD03C079018A013DC09FE7E92EF12C03
:103AC000012D112DE222F3220423152387E0C82EB5
:103AD000D12C13C087E090E0C80ED91E93E2C9161E
:103AE000D10459F4F50186819781009711F48BE197
:103AF00092E0F5019783868324C0C501B4010E943A
:103B0000EA1C8823F1F02981822F90E0A0E0B0E048
:103B10008F779070A070B0700C2C04C0880F991F24
:103B2000AA1FBB1F0A94D2F7E82AF92A0A2B1B2BDB
:103B300027FDD0CFF301E082F1820283138381E07D
:103B400001C080E00F90CF91DF911F910F91FF9006
:103B5000EF90DF90CF90BF90AF909F908F907F902D
:103B60006F9008952F923F924F925F926F927F9243
:103B70008F929F92AF92BF92CF92DF92EF92FF927D
:103B80000F931F93DF93CF930F92CDB7DEB75C01F6
:103B90007B019924882477246624552444243324E3
:103BA0002224CC24DD2414C087E090E0C80ED91E66
:103BB00096E4C916D10461F4F501868197810097D6
:103BC00011F48BE192E0F5019783868380E029C0B0
:103BD000C501BE016F5F7F4F0E94EA1C882309F177
:103BE0001981212F2F7730E040E050E060E070E055
:103BF00080E090E00C2D0E94E401922A832A742A2E
:103C0000652A562A472A382A292A17FDCDCFF701D7
:103C100090828182728263825482458236822782B8
:103C200081E00F90CF91DF911F910F91FF90EF9066
:103C3000DF90CF90BF90AF909F908F907F906F90CC
:103C40005F904F903F902F900895AF92BF92CF9288
:103C5000DF92EF92FF920F931F93DF93CF9300D0E9
:103C60000F92CDB7DEB77C015B016A018901F901D2
:103C70001082FB011082FA011082118212821382DB
:103C8000BE016F5F7F4F0E94361D882351F4F701FC
:103C900084819581892B19F481E0F801808380E08B
:103CA00019C089819A81AB81BC810097A105B105BA
:103CB00099F323E0B695A795979587952A95D1F71F
:103CC000F60180839183A283B38389818770F50194
:103CD000808381E00F900F900F900F90CF91DF9134
:103CE0001F910F91FF90EF90DF90CF90BF90AF901A
:103CF0000895EF92FF920F931F93DF93CF9300D01D
:103D00000F92CDB7DEB78C016130C1F0613028F081
:103D10006230C9F0653059F523C07E010894E11C7A
:103D2000F11CC801B70141E050E00E94711C8823DA
:103D300041F1898187FDF5CF81E024C060E070E02A
:103D400048E050E011C0BE016F5F7F4F0E94361DFA
:103D50008823B9F049815A81C80160E070E004C04D
:103D600060E070E044E050E00E94711C0BC0FC0178
:103D700086819781009711F48BE292E0F801978396
:103D8000868380E00F900F900F900F90CF91DF917E
:103D90001F910F91FF90EF900895EF92FF920F9374
:103DA0001F93DF93CF9300D00F92CDB7DEB78C0176
:103DB0007B01BE016F5F7F4F0E94361D882361F13A
:103DC000D701F80188E001900D928150E1F7498117
:103DD0005A816B817C81F70184819581A0E0B0E0FC
:103DE00084179507A607B70760F4F80186819781C5
:103DF000009711F48DE392E0F8019783868380E0C9
:103E00000BC0F70155834483F80184819581841B9D
:103E1000950B9583848381E00F900F900F900F9006
:103E2000CF91DF911F910F91FF90EF9008956F92C6
:103E30007F928F929F92AF92BF92CF92DF92EF923A
:103E4000FF920F931F93DF93CF93CDB7DEB76297A7
:103E50000FB6F894DEBF0FBECDBF7C015A01FA0148
:103E6000A281B38111968C91119790E09C01207CE6
:103E700030702034310509F4C3C02038310509F40D
:103E8000B6C0232B09F05AC19C012F703070F90184
:103E9000EE0FFF1FE753FB4F80809180807390707F
:103EA0008031910569F0813191051CF4892B71F005
:103EB00045C18032910591F0C09709F03FC18BC098
:103EC000FA012285338581E0F9018083F50140857F
:103ED0005185C701BD01F40119959DC0623009F0FB
:103EE00052C0253031050CF04EC0DA011A96CD9043
:103EF000DC901B97C7018E010F5F1F4FB8010E9416
:103F0000CD1E8823C1F426C18481989FC00111244D
:103F1000D50118964D915C911997480F591FC8010A
:103F2000BF01F4011995882311F440E013C0F60194
:103F300080818F5F80838D819E81892B51F0D60196
:103F40009C91D5011296ED91FC911397858198175C
:103F5000D8F241E08B819C81F701938382832F818A
:103F60003885378326838D819E81892B09F4F3C0A0
:103F70002115310511F425E532E0D70117963C9360
:103F80002E931697E7C0F5016285738540855185AC
:103F900014962C911497FB01908115968C9198178B
:103FA00068F0D70116968D919C911797009711F4A0
:103FB00085E592E0F70197838683CCC09F5FDB01A4
:103FC0009C939150F50162817381929FC0011124ED
:103FD000480F591F0AC0FA01228533858C91D901F7
:103FE0008C936281738140855185C70174CFF7013D
:103FF00086819781009709F0A8C087E792E0A5C065
:10400000FA0180849184D4018D919C91892B29F4AB
:10401000C7010E94791E482F9EC052E0652E712C68
:10402000680C791C623069F5C7018E010F5F1F4F64
:10403000B8010E94CD1E882309F48CC0F50162816D
:104040007381D401ED91FC91C801A30119958823D6
:1040500049F4F70186819781009709F076C089E8D5
:1040600092E073C08D819E81892B41F78B819C8169
:10407000F701938382838F8198859783868341E0BC
:104080006AC0613011F1613018F06530B1F529C0B6
:10409000CC24DD248E01075F1F4F0894C11CD11C66
:1040A000FBE0CF16D10409F455C0C701B80141E0C7
:1040B00050E00E94711C882309F44CC0D8018C91F7
:1040C00087FF25C00F5F1F4FE8CFC701BE01675FA5
:1040D0007F4F48E050E00E94711C48E0C42ED12C74
:1040E00014C0C701BE01675F7F4F44E050E00E94EB
:1040F000711C34E0C32ED12C08C0F7018681978152
:10410000009719F58BE292E020C0882319F11886F8
:104110001F82DE82CD82CE0109969C838B8387E548
:104120009CE19A838983F50162817381D401ED91C9
:10413000FC91CE010196A30119956DCFF7018681FF
:104140009781009711F484E692E0D70117969C932B
:104150008E93169740E0842F62960FB6F894DEBFD8
:104160000FBECDBFCF91DF911F910F91FF90EF90C8
:10417000DF90CF90BF90AF909F908F907F906F9087
:1041800008958F929F92AF92BF92CF92DF92EF925B
:10419000FF920F931F93DF93CF93CDB7DEB728978E
:1041A0000FB6F894DEBF0FBECDBF4B01BE016F5FEF
:1041B0007F4F0E94B21D8823B1F1A980BA80CB80C5
:1041C000DC80ED80FE800F811885C50181709070C4
:1041D000892BC1F09501A601B701C80101E00E9439
:1041E00065012095F4012083309531834095428309
:1041F000509553836095648370957583809586830D
:1042000090950FC09501A601B701C80101E00E9479
:104210006501F40120833183428353836483758372
:104220008683978381E028960FB6F894DEBF0FBE91
:10423000CDBFCF91DF911F910F91FF90EF90DF9055
:10424000CF90BF90AF909F908F90089544E050E042
:104250000E94711C089548E050E00E94711C08956E
:104260002F923F924F925F926F927F928F929F9286
:10427000AF92BF92CF92DF92EF92FF920F931F9374
:10428000DF93CF93CDB7DEB728970FB6F894DEBF94
:104290000FBECDBF5C018B016A01BE016F5F7F4F16
:1042A0000E94B21D882309F49AC0D80114966C911B
:1042B000683049F439802A809B808C807D806E80B4
:1042C0005F8048844EC0E980FA800B811C81D80150
:1042D000C701BB0F880B982FDC013E2C2F2C902E92
:1042E000812E782E682E582E482E6230C9F0633009
:1042F00020F4613009F04CC006C06430E9F0683049
:1043000009F046C02EC0F601E0827E2D8E2D880F6A
:10431000880B682F982F582F482F382F282F40C0F0
:10432000D601ED92FC929701330F220B322F7E2D96
:104330008F2D622F922F11C0C701D801F601808303
:104340009183A283B3839C01AD01550F220B322FC1
:10435000A9017E2D892F6A2F912F522F422F322FA4
:104360001FC0D6013C9211962C92119712969C92E6
:10437000129713968C92139714967C921497159615
:104380006C92159716965C92169717964C9218C0D9
:10439000F501868197810097E1F489E992E019C0DF
:1043A000731581F4821571F4691561F4981551F44F
:1043B000571541F4461531F4351521F4241511F43F
:1043C00081E00DC0F50186819781009711F48BEA99
:1043D00092E0D50117969C938E93169780E02896CD
:1043E0000FB6F894DEBF0FBECDBFCF91DF911F9106
:1043F0000F91FF90EF90DF90CF90BF90AF909F9084
:104400008F907F906F905F904F903F902F90089586
:10441000CF92DF92EF92FF920F931F93DF93CF9390
:10442000CDB7DEB728970FB6F894DEBF0FBECDBF6D
:104430006C018B017A01BE016F5F7F4F0E94B21D3C
:10444000882309F46CC0F8016481623081F0633024
:1044500018F46130B9F505C0643091F0683091F519
:104460001FC08981F7018083082F10E006C0898171
:104470009A81F701918380838C0120E030E00BC0AA
:1044800089819A81AB81BC81F70180839183A2836A
:10449000B3838C019D0140E050E060E070E01AC001
:1044A00009811A812B813C814D815E816F817885E4
:1044B000F70100831183228333834483558366830A
:1044C000778308C0F60186819781009721F589E9F5
:1044D00092E021C089818017B9F48A818117A1F403
:1044E0008B81821789F48C81831771F48D818417F5
:1044F00059F48E81851741F48F81861729F48885B8
:10450000871711F481E00BC0F6018681978100972F
:1045100011F48BEA92E0F6019783868380E0289677
:104520000FB6F894DEBF0FBECDBFCF91DF911F91C4
:104530000F91FF90EF90DF90CF900895CF92DF9290
:10454000EF92FF920F931F93DF93CF93CDB7DEB718
:1045500028970FB6F894DEBF0FBECDBF6C017B016C
:104560008A01BE016F5F7F4F0E94C120882309F43A
:1045700090C0D70114966C916230D1F0633020F472
:10458000613009F057C006C06430F9F0683009F0B6
:1045900051C031C08981F8018083682F982F990F0D
:1045A000990BE92F792F592F492F392F292F4AC0DD
:1045B00089819A81D8018D939C939C01330F220BA2
:1045C000322F682FE22F722F12C089819A81AB811E
:1045D000BC81F80180839183A283B3839C01AD01E8
:1045E000550F220B322FA901682FEA2F7B2F522F54
:1045F000422F322F27C069819A81EB817C815D81B6
:104600004E813F812885D8016C9311969C93119718
:104610001296EC93129713967C93139714965C93CF
:10462000149715964C93159716963C9316971796D4
:104630002C9308C0F60186819781009721F589E9BE
:1046400092E021C089818617B9F48A818917A1F483
:104650008B818E1789F48C81871771F48D81851772
:1046600059F48E81841741F48F81831729F488854A
:10467000821711F481E00DC0F601868197810097C1
:1046800011F48BEA92E0D60117969C938E931697BD
:1046900080E028960FB6F894DEBF0FBECDBFCF9155
:1046A000DF911F910F91FF90EF90DF90CF900895D1
:1046B000BA010E9426210895BA010E942B21089573
:1046C000CF92DF92EF92FF920F931F93DF93CF93DE
:1046D00000D00F92CDB7DEB78C017B01D42EC52E52
:1046E000BE016F5F7F4F0E94361D882309F457C0BB
:1046F00029813A814B815C812F3F3105410551056C
:1047000059F050F0D80116968D919C91179700970B
:10471000B1F48DEB92E013C0F9013196CF01A0E026
:10472000B0E082179307A407B50768F4D80116967E
:104730008D919C911797009711F48CEC92E0F80101
:104740009783868321C0D70111968C91807C803815
:1047500041F4F80186819781009789F487E792E018
:104760000EC0D70114968C9190E08E179F0770F4BD
:10477000F80186819781009711F48DEB92E0D801C2
:1047800017969C938E93169780E009C08D2D9C2DD3
:10479000FC012193C801BF01A9010E94711C0F9067
:1047A0000F900F900F90CF91DF911F910F91FF907D
:1047B000EF90DF90CF900895CF92DF92EF92FF922B
:1047C0000F931F93DF93CF9300D00F92CDB7DEB737
:1047D0007C018B01D42EC52EBE016F5F7F4F0E94DE
:1047E000361D8823D1F029813A814B815C81F90102
:1047F0003196CF01A0E0B0E082179307A407B50778
:1048000070F4D70116968D919C911797009711F42B
:104810008CEC92E0F7019783868320E030C0D801CA
:1048200011968C91807C803841F4F70186819781C4
:10483000009789F487E792E00EC0D80114968C9116
:1048400090E08E179F0768F4F701868197810097A3
:1048500011F48BED92E0D70117969C938E931697E7
:10486000DCCF0D2D1C2DC701B801A9010E94711CC0
:10487000282F89819A81080F191FF8011082822F31
:104880000F900F900F900F90CF91DF911F910F918C
:10489000FF90EF90DF90CF900895CF92DF92EF924C
:1048A000FF920F931F93DF93CF93CDB7DEB72C9773
:1048B0000FB6F894DEBF0FBECDBFDC0112964D914E
:1048C0005C911397FA018181282F30E0C9018F7024
:1048D0009070089709F044C01896ED91FC911997D3
:1048E000E080F1806E010894C11CD11C35C0D70155
:1048F00016961C921697ED91FC91119704811581E3
:1049000012964D915C911397C601B8010E94711BDC
:10491000F701828193819A87898786E090E0E80E8B
:10492000F91EFC86EB86AAEFBFEFEA0EFB1EF8012C
:104930008181807C803851F482E090E0E80EF91E9D
:10494000FA86E986AEEFBFEFEA0EFB1EC6010E94B3
:104950004D24F701E480F580E114F10441F651C0E3
:10496000C901807C90700097B1F5C9018073907087
:104970008031910531F41A96ED91FC911B971082CC
:1049800005C080329105C1F1C097B1F1FA01818172
:104990008F7026813781873041F418966D917C9114
:1049A0001997C9010E9410252CC018968C91189750
:1049B00019969C91DA0114964C912115310529F034
:1049C000B90150E00E9473021CC060E070E050E04A
:1049D0000E947C0216C08038910599F41896ED91DA
:1049E000FC91199711821082C901807390708032F6
:1049F000910511F0C09729F41A96ED91FC911B973F
:104A000010822C960FB6F894DEBF0FBECDBFCF91AB
:104A1000DF911F910F91FF90EF90DF90CF9008955D
:104A20000F931F93DF93CF93CDB7DEB72C970FB6BD
:104A3000F894DEBF0FBECDBF9C01AB018E010F5FAE
:104A40001F4FC801B9010E94711B882341F0C801A2
:104A50000E944D24C8010E94901B8823C1F72C9608
:104A60000FB6F894DEBF0FBECDBFCF91DF911F917F
:104A70000F9108952F923F924F925F926F927F9283
:104A80008F929F92AF92BF92CF92DF92EF92FF925E
:104A90000F931F93DF93CF93CDB7DEB7A9970FB6D0
:104AA000F894DEBF0FBECDBF4C01B7E0EB2EF12C6A
:104AB000EC0EFD1E88E0D7011D928A95E9F78E0164
:104AC000015F1F4FC8010E94711B4424552432010D
:104AD00008A719A7EAC0C401BE016F5F7F4FAE01EE
:104AE0004D5F5F4F9E012E5F3F4F0E94251E882322
:104AF00029F48A81882309F0E0C031C14B815C81AF
:104B00006D817E8188A599A50E94271C882309F0C4
:104B1000A1C08B819C81AD81BE8184159505A605C0
:104B2000B70508F492C0C988DA88E989FA898181D1
:104B30008F70883071F088A599A50E94901B898993
:104B40009A898C159D0589F744244A94542C320186
:104B500005C08081482E552466247724AB80BC8014
:104B6000CD80DE80A414B504C604D70408F46DC05B
:104B7000F40124803580F981FFA3EF89F88DE0806E
:104B8000F18057C0D701ED91FC91A081B1811097C0
:104B900041F0C401B701A60195010FA1FD011995CE
:104BA00040C004811581F801808190E0A0E0B0E070
:104BB0008A159B05AC05BD05B9F5D70112964D9137
:104BC0005C911397CE014B96B8010E94711BF701BF
:104BD000828193819CA38BA326E030E0E20EF31E3A
:104BE000FEA2EDA28AEF9FEFE80EF91ED801119602
:104BF0008C91807C803851F4E2E0F0E0EE0EFF1EF4
:104C0000FCA2EBA22EEF3FEFE20EF31EE1E0D70194
:104C10001696EC93C4016FA1AE01455E5F4F0E94F2
:104C2000171F882309F49BC0D7011496ED90FC90C0
:104C30001597E114F10409F4ACC0F4018481958165
:104C40002816390609F49ECFA4C0C40169810E94C8
:104C5000791E28C0E989FA8981818073E9F48B89FA
:104C60009C8980349105C0F4FC01A3E0F695E7959A
:104C7000AA95E1F727E030E02C0F3D1FE20FF31F6C
:104C80008770907021E030E002C0220F331F8A95B8
:104C9000E2F78081822B8083C401698148A559A5F0
:104CA0000E94171F882309F45AC0D40114968D91CD
:104CB0009C911597892B09F00ECFFFE0CF2ED12CB8
:104CC000CC0EDD1EEB88FC88E989FA891181C601CA
:104CD0000E94901B8823B1F7107341F4E989FA8987
:104CE0008081882319F00894E11CF11CA701E3E0FE
:104CF00056954795EA95E1F720E030E0DE011796FA
:104D000008C0FD01E20FF31F80818F3FE1F42F5FA8
:104D10003F4F24173507A8F3A40FB51F4C9150E05F
:104D2000B7E0EB22FF2428E030E02E193F098FEF97
:104D300090E002C0959587952A95E2F748175907A4
:104D400011F481E00DC0F40186819781009711F480
:104D50008BEE92E0D40117969C938E93169780E089
:104D6000A9960FB6F894DEBF0FBECDBFCF91DF91ED
:104D70001F910F91FF90EF90DF90CF90BF90AF9079
:104D80009F908F907F906F905F904F903F902F906B
:104D90000895F401848195812816390609F085CF9C
:104DA00054CFCF92DF92EF92FF920F931F938C011B
:104DB0007B016A01CB01BA010E941025C801B7012D
:104DC000A6010E943A251F910F91FF90EF90DF906E
:104DD000CF9008958F929F92AF92BF92CF92DF9221
:104DE000EF92FF920F931F93DF93CF93CDB7DEB770
:104DF00028970FB6F894DEBF0FBECDBF7C018B01A4
:104E00005A01FB01968087806E010894C11CD11C59
:104E1000B6010E94CD1E882379F0F8018681978122
:104E2000892B61F4F70186819781009711F482E064
:104E300093E0F7019783868320E01CC0F80181810D
:104E40008073803239F4C601692D782DA5010E9446
:104E5000D12606C0C601692D782DA5010E943A25EC
:104E6000282F8B819C81F701938382838F81988582
:104E700097838683822F28960FB6F894DEBF0FBEE5
:104E8000CDBFCF91DF911F910F91FF90EF90DF90F9
:104E9000CF90BF90AF909F908F900895CF93DF9366
:104EA000FC01EB01A281B381CD01840F951F938397
:104EB000828304C089918D93415050404115510522
:104EC000C9F781E0DF91CF910895FC01118610862A
:104ED0001782168255834483738362838EE497E23C
:104EE00091838083CF0108950F931F93CF93DF9316
:104EF000EC018A01E881F9813097F1F08E819F8180
:104F0000840F951F2C813D812817390738F4888537
:104F10009985009769F48BE193E00AC0CE01199559
:104F2000882351F488859985009711F487E293E0EE
:104F30009987888780E007C08E819F81800F911FAD
:104F40009F838E8381E0DF91CF911F910F91089510
:104F5000AF92BF92CF92DF92EF92FF920F931F9387
:104F6000DF93CF93CDB7DEB762970FB6F894DEBF6D
:104F70000FBECDBF5C01B02F0B87A12F1C87F22F76
:104F80002D87E32F3E87342F4F87252F588B962F61
:104F9000698B872F7A8B4F2F5E2F632F722F192FDC
:104FA000982F802F8A2B8F2B8E2B832B822B812B5C
:104FB000892B39F0EE24FF246E010894C11CD11C0A
:104FC00019C0C501BE01655F7F4F41E050E032C0AE
:104FD000F601EE0DFF1D8B2F806880832B2F3A2F5B
:104FE000812F07E00E946501B22FA32F182F08948C
:104FF000E11CF11C8B2F8A2B842B852B862B872B76
:10500000812B892B29F7BB87AC874D875E876F87FC
:10501000788B198B9A8B0894E108F108F601EE0D54
:10502000FF1D0894E11CF11C80818F778083C501EE
:10503000B601A7010E94742762960FB6F894DEBFEE
:105040000FBECDBFCF91DF911F910F91FF90EF90D9
:10505000DF90CF90BF90AF9008950F931F93CF93A1
:10506000DF93EC01F901DA01CB0197FD0BC0980148
:10507000AF01BD0101E00E94E40189019A01AB0189
:10508000BC0113C09801AF01BD0101E00E94E40121
:1050900089019A01AB0100951095209530954095B6
:1050A0005095682F6095792F7095CE010E94A827A2
:1050B000DF91CF911F910F91089544E050E00E943D
:1050C0007427089548E050E00E94742708957F9265
:1050D0008F929F92AF92BF92CF92DF92EF92FF9208
:1050E0000F931F934C01762E59016A01A60160E0CF
:1050F00070E080E090E003E00E94E401FC012729D9
:10510000C40189019A01AB01BF010E94A8271F9128
:105110000F91FF90EF90DF90CF90BF90AF909F9056
:105120008F907F900895FC01DB0111968C9111976F
:1051300090E08F7090708330910549F08430910534
:10514000B4F08430910529F008973CF404C065E080
:105150000FC061E00DC062E00BC0808591850097B3
:1051600011F480E393E09187808780E0089560E008
:105170002C9130E040E050E0CF010E946728089574
:105180002F923F924F925F926F927F928F929F9257
:10519000AF92BF92CF92DF92EF92FF920F931F9345
:1051A000DF93CF93CDB7DEB761970FB6F894DEBF2C
:1051B0000FBECDBF2C013B01598B488BDB011196F3
:1051C0008C91482F50E09A01207C307020343105BA
:1051D00009F481C12038310521F02115310509F08C
:1051E00095C181E08983BA016F707070FB01EE0F89
:1051F000FF1FE552FB4F808191819F878E87D301EE
:1052000013968C91882319F4FE01319608C0E82F7B
:10521000FF27E7FDF09588899989E80FF91F203865
:10522000310561F4A889B9890D90BC91A02DB98B85
:10523000A88B1982AB2B11F081E08983CA0180739E
:1052400090708031910561F1813191051CF4892BB9
:1052500041F034C180329105D1F1C09709F02EC1DF
:105260001AC1E889F989EF2B59F4D20118968D916A
:105270009C911997009709F02AC183E493E027C114
:10528000C201B3010E949328882309F43DC1C201E1
:10529000B301488959892E853F85F901199513C0B5
:1052A0008081882309F43AC1C201B3010E94932886
:1052B000882309F429C1C201B30148895989AE85FF
:1052C000BF85FD011995882309F429C127C1808173
:1052D000E82FF0E0FD87EC87309709F41FC12038F4
:1052E000310581F0D30115968C9190E08E179F07C0
:1052F00048F4F20180859185009709F000C18AE5A4
:1053000093E0FDC0653071050CF083C0F30120818E
:1053100030E040E050E0C20162E00E94672888234C
:1053200009F4F2C0D30111968C9190E08F709070C7
:105330008330910539F42C843D84220C331C220CDB
:10534000331C30C0049741F42C843D8483E0220C4C
:10535000331C8A95E1F726C0FE0132968AE0DF0110
:105360001D928A95E9F7E888F98800E010E03E2E62
:105370008F2E832D982DB301A701EE85FF851995FA
:10538000882309F4C1C0D30114968C910F5F1F4F7D
:10539000EC85FD850E171F0718F4E80EF11CE9CF08
:1053A00028843984C201810120E030E040E050E0EF
:1053B00060E070E00E94A827882309F4A5C0D2010C
:1053C0008D919C91892B39F4C20160E070E0A101BC
:1053D0000E94742778CF00E010E0C201B301488931
:1053E0005989EE85FF851995882309F48DC0D3016D
:1053F00014968C910F5F1F4FEC85FD850E171F07CC
:1054000008F08CC028893989280F311D398B288BE9
:10541000E4CF00E010E0C201B3010E94932888238A
:1054200009F472C0D30111968C91282F30E0C90184
:10543000807C90708038910591F42F7030702550E9
:1054400030402230310558F4E889F9894081518192
:10545000C201B3012E853F85F901199508C0C2012B
:10546000B30148895989AE85BF85FD011995882307
:1054700009F44AC0F30184810F5F1F4F2C853D85DD
:105480000217130708F04AC048895989480F511D6F
:10549000598B488BC0CF9081D3018C919817F1F52F
:1054A000C201B3010E949328882371F1C201B301A4
:1054B00048895989EE85FF85199505CFD20118963F
:1054C0008D919C911997009711F480E393E0F2017C
:1054D0009187808719C0A889B989ED91FC911197AE
:1054E0003097E1F01296C201AD0119958823B1F40D
:1054F000F20180859185009711F482E793E0D20153
:1055000019969C938E93189780E009C0F2018085CC
:1055100091850097A1F780E393E0F1CF81E0619658
:105520000FB6F894DEBF0FBECDBFCF91DF911F91B4
:105530000F91FF90EF90DF90CF90BF90AF909F9032
:105540008F907F906F905F904F903F902F90089535
:105550004F925F926F927F928F929F92AF92BF9283
:10556000CF92DF92EF92FF920F931F93CF93DF932F
:10557000EC012B013A018A0120E030E040E050E0EC
:1055800060E070E00E94A827882329F0CE01B201D4
:10559000A3010E947427DF91CF911F910F91FF907B
:1055A000EF90DF90CF90BF90AF909F908F907F90C3
:1055B0006F905F904F9008950F931F93CF93DF9359
:1055C000EC01FB01DA0184818230C1F0833020F4E8
:1055D000813009F046C006C08430D1F0883009F02F
:1055E00040C029C08C91082F182F110F110BE12FEB
:1055F000312F412F512F612F712F3DC08D919C91E3
:105600009C01330F220B322F8C01E22F322F0EC060
:105610008D919D910D90BC91A02D9C01AD01550FD8
:10562000220B322FA9018C01EA2F3B2F422F522F40
:10563000622F722F20C00C9111961C911197129617
:10564000EC91129713963C91139714964C911497E2
:1056500015965C91159716966C91169717967C91F6
:105660000AC088859985009711F481E893E09987AD
:10567000888780E004C0CE012E2F0E94A827DF91EA
:10568000CF911F910F9108958F929F92AF92BF92E9
:10569000CF92DF92EF92FF920F931F93CF93DF93FE
:1056A000EC01FB01DA018481823071F0833018F45F
:1056B000813089F505C0843069F0883061F515C006
:1056C0008C91882E992403C08D919C914C01AA2421
:1056D000BB2407C08D919D910D90BC91A02D4C01D4
:1056E0005D01CC24DD24760120C08C9011969C9025
:1056F00011971296AC9012971396BC90139714962C
:10570000CC9014971596DC9015971696EC901697FA
:105710001796FC900AC088859985009711F481E856
:1057200093E09987888780E007C0CE0184019501C6
:10573000A601B7010E94A827DF91CF911F910F9179
:10574000FF90EF90DF90CF90BF90AF909F908F90A1
:1057500008950F931F93CF93DF93EC01FB01DA01C0
:1057600084818230C1F0833020F4813009F046C05A
:1057700006C08430D1F0883009F040C029C08C9137
:10578000082F182F110F110BE12F312F412F512FFF
:10579000612F712F3DC08D919C919C01330F220B85
:1057A000322F8C01E22F322F0EC08D919D910D90E2
:1057B000BC91A02D9C01AD01550F220B322FA901E8
:1057C0008C01EA2F3B2F422F522F622F722F20C0C5
:1057D0000C9111961C9111971296EC9112971396B9
:1057E0003C91139714964C91149715965C911597CC
:1057F00016966C91169717967C910AC088859985A4
:10580000009711F481E893E09987888780E004C0CD
:10581000CE012E2F0E942D28DF91CF911F910F9145
:105820000895BA010E9462280895BA010E945D2875
:105830000895CF93DF93DC01EB01FA014115510587
:1058400029F460E070E040E050E01EC08981807C77
:10585000B9F4208130E02F5F3F4F8C8190E08217B8
:10586000930770F418968D919C911997009711F4F5
:1058700083E993E019969C938E93189780E006C075
:105880004191CD01BF0150E00E94A82ADF91CF9144
:105890000895CF93DF93EC01FB019A014481B90194
:1058A0008181807C803819F4AFEFBFEF02C0A42F54
:1058B000B0E02115310519F440E050E00EC040E0A1
:1058C00050E002C04F5F5F4F4A175B0730F4F901A9
:1058D000E40FF51F80818823A9F7CE010E94A82A32
:1058E000DF91CF910895CF92DF92EF92FF920F93C5
:1058F0001F93DF93CF93CDB7DEB72C970FB6F894F5
:10590000DEBF0FBECDBF7C018E010F5F1F4FC801F0
:105910000E94711B882309F445C06801AB81BC81DA
:1059200011968C9111978F70E985FA85883069F509
:105930000081118126C0D801ED91FC912281338133
:105940002115310529F0C701B801F901199514C0D5
:105950000480F581E02D8181807C803821F4A801CC
:105960004E5F5F4F05C0D80112964D915C91139721
:10597000C701BF010E94C0288823B1F0F80104814B
:10598000158101151105B9F607C0C701BD01AF01A9
:105990000E94C028882341F0C6010E94901B8823E2
:1059A00009F0BCCF81E001C080E02C960FB6F894DE
:1059B000DEBF0FBECDBFCF91DF911F910F91FF9042
:1059C000EF90DF90CF9008952F923F924F925F9289
:1059D0006F927F928F929F92AF92BF92CF92DF92FF
:1059E000EF92FF920F931F93DF93CF93CDB7DEB764
:1059F0002E970FB6F894DEBF0FBECDBF3C017C875B
:105A00006B875E874D871E010894211C311C8AE03C
:105A1000F10111928A95E9F7C1016B857C854D856D
:105A20005E850E94732C882319F489859A855BC052
:105A30004F805884C301820120E030E040E050E014
:105A400060E070E00E94A827882309F44FC0F301AA
:105A5000408151814115510541F4C30160E070E07E
:105A6000A2010E947427482F42C0F30186819781CA
:105A7000840D951D248135812817390738F48085D8
:105A80009185009781F58BE193E02DC05A8349837E
:105A9000F301828193819C838B835E824D82188681
:105AA0001F821A861986C1016B857C854D855E85AE
:105AB0000E94732C482FF301868197812F813885AE
:105AC000820F931F978386838B819C81938382832C
:105AD00089859A85918780872415350541F000973F
