:100000000C949A000C94C2000C94C2000C94C20090
:100010000C94C2000C94C2000C94C2000C94C20058
:100020000C94C2000C94C2000C94C2000C94C20048
:100030000C94C2000C94C2000C94C2000C94C20038
:100040000C94970F0C94C2000C9419120C94671224
:100050000C94C2000C94C2000C94C2000C94C20018
:100060000C94440A0C94C200302E31312E706F7300
:1000700074323100626173655F6E6F64655F7270C8
:100080006300576865656C6572204C616200302EB4
:1000900031312E706F7374323100687474703A2F7E
:1000A0002F6769746875622E636F6D2F7768656559
:1000B0006C65722D6D6963726F666C7569646963D6
:1000C000732F626173655F6E6F64655F7270632E1C
:1000D0006769740000000000240027002A00000067
:1000E0000000250028002B0000000000230026004F
:1000F00029000404040404040404020202020202AB
:1001000003030303030301020408102040800102DB
:10011000040810200102040810200000000700025B
:1001200001000003040600000000000000005A0166
:10013000BE08D31311241FBECFEFD8E0DEBFCDBF62
:1001400011E0A0E0B1E0EAE6F9E202C005900D920C
:10015000A236B107D9F714E0A2E6B1E001C01D92C2
:10016000A231B107E1F711E0C4E3D1E004C0229766
:10017000FE010E947814CE32D107C9F70E943F08D1
:100180000C94B3140C940000FB01DC0105900D925B
:100190000020E1F70895FC0105900020E9F7809523
:1001A00090958E0F9F1F0895A0E0B0E0EAEDF0E07B
:1001B0000C9486147C01EB018A01690109C0CE010F
:1001C0002196F6010995F70181937F0101501040B6
:1001D00001151105A1F7CDB7DEB7E8E00C94A21424
:1001E000A0E0B0E0E6EFF0E00C948614EC017B01B7
:1001F0008A01690109C0CE012196F70161917F0151
:10020000F60109950150104001151105A1F7CDB770
:10021000DEB7E8E00C94A2149C01F999FECF32BD40
:1002200021BDF89A80B508959C01F999FECF1FBAB7
:1002300032BD21BD60BD0FB6F894FA9AF99A0FBE8F
:10024000089504970E942901089502970E942901A8
:100250000895AC014D545F4F20E830E0B901CA0168
:100260000895BC01E0911002F09111020280F38127
:10027000E02D80E192E009950895DC01ED91FC917B
:100280000280F381E02D41E050E009950895FC01E2
:10029000828193810E940E0C08950F931F938C010D
:1002A000FC01828193810E940E0CF80114821F913F
:1002B0000F910895AF92BF92CF92DF92EF92FF928B
:1002C0000F931F9392E6E92E91E0F92E8BE191E0D6
:1002D000909363018093620181E291E090936501C4
:1002E0008093640187E291E09093670180936601B7
:1002F0009701225D3F4F1092910110929001109250
:1003000092011092940110929301AA24AA94BA2CFB
:10031000B0929A01A092990188E290E090939601A0
:100320008093950186E090E0E80EF91EF092980126
:10033000E09297018AEF9FEFE80EF91E8701075CB4
:100340001F4F10929B0110929C011092A8011092D5
:10035000A7011092AA011092A9011092AE01109269
:10036000AD011092BC011092BB013093B0012093FB
:10037000AF01C8010E940E0C85E3C82E81E0D82E83
:10038000D092BE01C092BD011093C0010093BF0185
:10039000C8010E940E0C8DE291E09093BE01809303
:1003A000BD018CEE93E09093C2018093C101109245
:1003B000E4011092E3011092E5011092E70110921E
:1003C000E601B092ED01A092EC0180E290E0909302
:1003D000E9018093E80183EC91E09093EB01809335
:1003E000EA010EEE11E01092EE011092EF01109270
:1003F000FB011092FA011092FD011092FC01109283
:1004000001021092000210920F0210920E0283EE6F
:1004100091E09093030280930202C8010E940E0CA7
:10042000D0921102C0921002109313020093120294
:10043000C8010E940E0C8DE391E09093110280930D
:1004400010021092140280E192E00E944D0189E0B6
:1004500091E0909363018093620106969093650109
:100460008093640106969093670180936601F092F1
:100470009602E09295021F910F91FF90EF90DF900E
:10048000CF90BF90AF900895AF92BF92CF92DF927E
:10049000EF92FF920F931F93DF93CF930F92CDB7FD
:1004A000DEB76C017B0100E010E05E010894A11C46
:1004B000B11C0DC08CEE93E00E945A138983F601A3
:1004C00082819381B5010E942D0C0F5F1F4F0E1585
:1004D0001F0584F30F90CF91DF911F910F91FF9033
:1004E000EF90DF90CF90BF90AF9008958F929F9242
:1004F000BF92CF92DF92EF92FF920F931F93DF9301
:10050000CF930F92CDB7DEB77C016B0181EE92E005
:100510000E946108B82E0894C108D108F7018481AF
:10052000882309F4B48200E010E04E010894811C95
:10053000911C10C081EE92E00E9461088983F7014E
:100540008481B81629F482819381B4010E942D0C14
:100550000F5F1F4F0C151D056CF30F90CF91DF91AE
:100560001F910F91FF90EF90DF90CF90BF909F90E1
:100570008F900895EF92FF920F931F938C01F62EA8
:10058000E72ECB01B8010E94C400C8010E94CB0035
:10059000BC018F2D9E2D1F910F91FF90EF9008951C
:1005A0000F931F93CF93DF93EC011A86198600E017
:1005B00010E00CC0EF81F885E00FF11FC9016081E8
:1005C0000E94F30B9A8789870F5F1F4F8B819C8155
:1005D00029853A850817190768F3C9010E940D0C8F
:1005E00089879A87DF91CF911F910F910895CF92BC
:1005F000DF92EF92FF920F931F93DF93CF93CDB7CC
:10060000DEB763970FB6F894DEBF0FBECDBF6C01A7
:100610002B8B198618868FEF9FEF9A8B898B2A87F1
:100620005E874D87788B6F875C874B8728E0E22E4B
:10063000F12CEC0EFD1EC7010E94D002809100013A
:1006400090910101A0910201B09103018C839D83DF
:10065000AE83BF838091BA008695898381EE92E054
:10066000F60160810E944E0881EE92E08E010F5FDC
:100670001F4FB8010E943D0181EE92E0BE016C5F08
:100680007F4F43E050E00E94D50881EE92E0BE012A
:10069000675F7F4F41E050E00E94D50881EE92E015
:1006A000B70141E050E00E94D50881EE92E0BE0122
:1006B0006D5E7F4F0E943D018B859C859B838A8365
:1006C00081EE92E0BE016D5F7F4F41E050E00E94FD
:1006D000D50881EE92E0BE016E5F7F4F41E050E0B1
:1006E0000E94D50881EE92E00E944909F02EE12E89
:1006F00029C08A014032510510F00FE110E081EE6F
:1007000092E0F60160810E944E0881EE92E06F2D2A
:100710007E2D0E943D016F85788981EE92E0A801CF
:100720000E94D50881EE92E00E9449098F85988940
:10073000800F911F988B8F878B859C85801B910BD9
:100740009C878B874B855C854115510591F681EE21
:1007500092E0F60160810E944E0881EE92E0BE01B7
:100760006F5F7F4F0E943D0181EE92E0BE016E5EA1
:100770007F4F41E050E00E94D50881EE92E0BE013B
:100780006F5E7F4F41E050E00E94D50881EE92E01D
:100790000E94490963960FB6F894DEBF0FBECDBF25
:1007A000CF91DF911F910F91FF90EF90DF90CF904D
:1007B00008958F929F92AF92BF92CF92DF92EF9265
:1007C000FF920F931F93CF93DF93DC0158016901D0
:1007D000EB0186018881803209F45AC1813208F028
:1007E00040C0883009F4E3C08930E0F4833009F474
:1007F000A6C0843050F4813009F486C00D90BC91BD
:10080000A02D823008F08EC072C0853009F4BCC0C3
:10081000853008F4ABC0863009F4B9C0873009F0E0
:1008200061C0BDC08D3009F4F8C08E3068F48A30E4
:1008300009F4E4C08A3008F4C6C08B3009F4E4C07F
:100840008C3009F04FC0E4C08F3009F4F0C08F3015
:1008500008F4E7C0803109F4F8C0813109F042C0E2
:1008600008C1863609F49BC18736F8F4813609F44D
:100870004CC1823670F4813409F422C1823418F4F8
:10088000803481F50AC1823409F434C1803651F5CF
:1008900036C1833609F446C1833608F43AC184363A
:1008A00009F470C18536F1F472C1803809F4D5C1FC
:1008B000813860F4883609F4AAC1883608F47BC10F
:1008C000893609F4BEC18A3669F4C1C1823809F497
:1008D0000FC2823808F4CEC1803A09F410C2813ABE
:1008E00009F41BC2EE24FF24CFEFDFEF24C2ED9109
:1008F000FC9111970190F081E02DCD010995AB019C
:10090000BC0188E690E028C0ED91FC91A081B18106
:100910002D913C91CF01F9010995AB01BC0184E710
:1009200090E01AC0ED91FC9111970190F081E02DBB
:10093000CD010995AB01BC0182E890E00DC0ED91BD
:10094000FC91A081B1812D913C91CF01F9010995D4
:10095000AB01BC018EE890E00E94BA02562F282F0E
:10096000392FC9017C01252F372F14C2ED91FC913D
:10097000A081B1812D913C91CF01F9010995AB0185
:10098000BC018AE990E0E8CF0E94ED0F02C00E940E
:10099000DF0FF801608371838283938367C189814C
:1009A0009A81009709F4C4C10E946C10C1C14981A9
:1009B0005A814115510509F4BBC1BA0180E090E0AC
:1009C0000E9413101FC080910E0490910F04009795
:1009D00029F42DB73EB72251344004C02DB73EB79D
:1009E000281B390BC901AA2797FDA095BA2FF8013A
:1009F00080839183A283B383780139C189816A811D
:100A00000E943311760195C189810E94C611CDC023
:100A100089816A810E9472118BC189810E94B11003
:100A20007AC06A81898170E00E94D310EBCFFB010C
:100A30003196828193818E0F9F1F93838283898158
:100A40009181F6018083918369C0FB0131962281F7
:100A500033812E0F3F1F3383228389819181A22FFF
:100A6000B3819C01220F331F220F331F7D01E90147
:100A700062C1FB013196828193818E0F9F1F938308
:100A80008283718153816981482F952F842F42C1C0
:100A900081E290E0A0E0B0E0E4C0FB013196648127
:100AA00075816E0F7F1F75836483F8944281538133
:100AB00089819A8124E131E00E94F000789438C164
:100AC0000D90BC91A02D09811A810B80DC81C02D75
:100AD0001296ED91FC9113970190F081E02DCD01DC
:100AE000029609957C01B801AE012CE031E00E942C
:100AF000D40021C18FEF93E0A0E0B0E0B2C081EE5E
:100B000092E069810E94690913C18091BA008695BB
:100B10004CC080E290E0F801918380837601C2E0CE
:100B2000D0E009C10D90BC91A02D1496ED91FC91DF
:100B300015970190F081E02DCD01049609957C0177
:100B40006B01C0E0D0E018E0CC15DD0508F0F3C083
:100B500081EE92E0612F0E944E0881EE92E00E94A9
:100B60004909882359F4F701EC0FFD1F10832196E2
:100B700061E070E080E090E00E9413101F5F183782
:100B800019F7D9C081EE92E00E945808C4CF81EED7
:100B900092E00E946108F6018083760109C081EE2F
:100BA00092E069814A810E945A09F80180837601A6
:100BB000C1E0D0E0C0C00D90BC91A02DD980CA800A
:100BC0001496ED91FC9115970190F081E02DCD01E7
:100BD000049609957B018C01780181EE92E06D2DE0
:100BE0004C2D0E945A09E80110E008C081EE92E005
:100BF0000E9461081C1540F489931F5F81EE92E00A
:100C00000E945808892B91F7C12FD0E094C0FB01B6
:100C10003196038114810E0F1F1F14830383E1801B
:100C2000F28081EE92E069810E944E0881EE92E0AE
:100C3000B801A7010E94D50881EE92E00E944909FF
:100C4000E1CE8091BA0081608093BA00DBCE8091C2
:100C5000BA008E7F8093BA006BC089E190E0A0E07B
:100C6000B0E0F80180839183A283B3837601C4E06E
:100C7000D0E061C0FB013196038114810E0F1F1F6C
:100C800014830383AD90BC90F980E180D280C4804E
:100C90003EEA832E912C8A0C9B1CC4010E944D01BC
:100CA000F501EE54FF4FF082CF014E2D5D2D602FE8
:100CB0007C2D24E60E94F7020E94DF0F7B018C014D
:100CC000E501C055DF4F0E94DF0F6E197F09800BD1
:100CD000910B685873418040904008F03FC0E88114
:100CE000F98181898823B1F1C4010E944D01EBCFC4
:100CF0008D919C9182559F4F0E944D0183CE0D9006
:100D0000BC91A02DED91FC9111970190F081E02D07
:100D1000CD0109957C01262F27CE8CEE93E040E093
:100D200052EC61E070E00E94A2128CE08093B80067
:100D30007801C0E0D0E0BE01C701DF91CF911F91E3
:100D40000F91FF90EF90DF90CF90BF90AF909F906A
:100D50008F9008958089882309F4B5CF28E830E082
:100D6000A20EB31EF501808191812CEF3FEFA20E00
:100D7000B31EF501408151818C019A01E9012831AE
:100D8000310510F0C7E1D0E0C4010E944D017801A7
:100D90002C2F3D2FE901CFCFEF92FF920F931F939E
:100DA000DF93CF93CDB7DEB762970FB6F894DEBF6F
:100DB0000FBECDBFE091BF01F091C00181898823B2
:100DC00009F422C1CF01E5C0209193013091940133
:100DD000809192018436C1F421153105A9F08091EA
:100DE000970190919801BC01A9019C010091950186
:100DF0001091960185E992E00E94D903AC01892BFC
:100E000039F460E070E004C060E070E040E050E081
:100E100024E629838FEF9FEF9A8B898B198618869A
:100E20002A877E876D87588B4F877C876B8758E032
:100E3000E52EF12CEC0EFD1EC7010E94D002809120
:100E4000000190910101A0910201B09103018C83F6
:100E50009D83AE83BF83E091C101F091C201A08167
:100E6000B18112962D913C911397CF01BE016C5F19
:100E70007F4F43E050E0F90109950091C1011091C5
:100E8000C201D801ED91FC910280F381E02DC801EF
:100E9000BE01675F7F4F41E050E00995D801ED91B9
:100EA000FC910280F381E02DC801B70141E050E0E0
:100EB0000995E091C101F091C201A081B181129622
:100EC0002D913C911397CF01BE016F5F7F4F41E0A1
:100ED00050E0F90109958A85843619F0833709F0C5
:100EE00054C00091C1011091C2018B859C859B83E8
:100EF0008A83D801ED91FC910280F381E02DC80135
:100F0000BE016D5F7F4F41E050E00995D801ED9142
:100F1000FC910280F381E02DC801BE016E5F7F4F1E
:100F200041E050E009954B855C854115510579F00C
:100F3000E091C101F091C201A081B1816F857889F2
:100F400012962D913C911397CF01F90109950091CB
:100F5000C1011091C201D801ED91FC910280F38191
:100F6000E02DC801BE016E5E7F4F41E050E0099563
:100F7000D801ED91FC910280F381E02DC801BE0102
:100F80006F5E7F4F41E050E009958091BF019091E5
:100F9000C0010E940E0CE0911202F09113028189AF
:100FA0008823B9F12CC02091E6013091E7018091AE
:100FB000E5018436C9F421153105B1F08091EA01CB
:100FC0009091EB01BC01A9019C010091E8011091F5
:100FD000E90185E992E00E94D903FC019B01892B7C
:100FE00039F420E030E004C020E030E0E0E0F0E060
:100FF000BF01A90184E192E024E60E94F70280E1AA
:1010000092E00E944D0108C08089882309F0DCCE5F
:10101000C2CF8089882339F662960FB6F894DEBF76
:101020000FBECDBFCF91DF911F910F91FF90EF9039
:1010300008958CEE93E040E052EC61E070E00E9495
:10104000A2128CE08093B80081EE92E061E371E03F
:101050000E94B90808950F931F93E091BD01F0918C
:10106000BE01028113818CEE93E00E942913BC0122
:101070008DEB91E0F80109951F910F910895CF93A1
:10108000DF930E9476100E941908C4E5D2E10E9405
:10109000CC062097E1F30E945412F9CF81E08093AF
:1010A000DC026093B9021092DA021092DB0208951A
:1010B0002091B80230E08091B702281B3109C901A4
:1010C00008954091B7028091B802481718F02FEFA9
:1010D0003FEF0AC0E42FF0E0E956FD4F8081282F52
:1010E00030E04F5F4093B702C9010895E091B70225
:1010F0008091B802E81718F0EFEFFFEF06C0F0E0BC
:10110000E956FD4F8081E82FF0E0CF010895089562
:10111000AC012091DF023091E00221153105E1F0B0
:101120009091B7028091B8029817B0F090E008C093
:10113000FA01EA0FFB1F8081A956BD4F8C939F5F78
:10114000A92FB0E0A617B7079CF31092B7026093DF
:10115000B802CB01F90109950895E091DD02F09103
:10116000DE02309729F01092DA021092DB02099524
:1011700008957093E0026093DF0208951092E402F4
:101180001092E30288EE93E0A0E0B0E08093E502E5
:101190009093E602A093E702B093E80285E491E021
:1011A0009093E2028093E1020895CF92DF92EF9252
:1011B000FF920F931F93CF93DF937C016B018A0102
:1011C0008091DC028823A1F0C0E0D0E00DC0D701FF
:1011D000ED91FC91D601AC0FBD1F0190F081E02D87
:1011E000C7016C9109952196C017D10780F304C0FF
:1011F000CB01642F0E941F0AC801DF91CF911F917C
:101200000F91FF90EF90DF90CF900895DF93CF93F1
:101210000F92CDB7DEB7FC0169838091DC02882391
:10122000C9F08091DB02803238F081E090E0938356
:10123000828320E030E015C08091DA02E82FF0E0F0
:10124000E654FD4F998190838F5F8093DA028093FB
:10125000DB0205C0CE01019661E00E941F0A21E079
:1012600030E0C9010F90CF91DF9108950F93062FC1
:101270008091B9026AEB72E04091DB0221E00E94AA
:10128000CA091092DA021092DB021092DC020F916E
:10129000089561E00E9436090895413208F040E265
:1012A000862F67E972E00E9481091092B70280934D
:1012B000B802089521E00E944D0908951092B702E6
:1012C0001092B8021092DA021092DB020E94D50B43
:1012D00008950F931F938C01862F0E947D098DEA3C
:1012E00098E00E943F0A88E898E00E943A0AC80104
:1012F0000E945E091F910F910895880F8093BA0094
:101300000895382F413210F040E042C08091ED0244
:101310008823E1F791E09093ED022093EF028FEFA5
:1013200080935A03109215034150409316034F5F68
:101330009093EE028091EE02330F832B8093EE02A6
:101340008091F002813041F41092F0028091EE021F
:101350008093BB0085EC01C085EE8093BC0080913A
:10136000ED028130E1F380911503841710F4409170
:10137000150320E030E00AC0FB01E20FF31FD901A2
:10138000AB50BD4F8C9180832F5F3F4F2417A0F34C
:10139000842F08950F931F93582F122F413210F06E
:1013A00081E04AC08091ED028823E1F782E08093DA
:1013B000ED020093EF028FEF80935A031092150312
:1013C00040931603A5EFB2E0FB0102C081918D931B
:1013D0008E2F861B8417D0F31092EE028091EE02BE
:1013E000550F852B8093EE028091F002813041F4FD
:1013F0001092F0028091EE028093BB0085EC01C058
:1014000085EE8093BC00112321F08091ED028230A3
:10141000E1F380915A038F3F11F480E00DC0809179
:101420005A03803211F482E007C080915A0380335E
:1014300011F084E001C083E01F910F910895482FBF
:10144000613210F081E008958091ED02843011F056
:1014500082E0089560933803A7E1B3E0842F9C01F4
:10146000F90102C081918D938E2F841B8617D0F3D2
:1014700080E008959093F4028093F302089590938E
:10148000F2028093F10208951F920F920FB60F920D
:1014900011242F933F934F935F936F937F938F9379
:1014A0009F93AF93BF93EF93FF938091B90090E028
:1014B000887F90708036910509F4F2C081369105DD
:1014C000CCF58832910509F47BC089329105B4F4DA
:1014D0008031910509F46FC0813191053CF400978A
:1014E00009F447C1089709F04FC165C088319105DB
:1014F00009F466C0809709F047C182C08034910525
:1015000009F4A4C08134910544F48033910509F4B1
:1015100082C0C89709F038C189C08035910509F4A7
:1015200089C08835910509F496C08834910509F081
:101530002BC1AEC08839910509F413C189399105D1
:10154000ECF48837910509F4ABC0893791054CF468
:101550008836910509F4A4C08037910509F014C1BB
:101560009FC08838910509F4FCC08039910509F4C1
:101570009DC08038910509F007C198C0803B910556
:1015800009F4C6C0813B91054CF4803A910509F4F9
:101590009FC0883A910509F0F7C0BAC0803C910518
:1015A00009F4E3C0883C910509F4DFC0883B91054C
:1015B00009F0EAC0C2C08091EE028093BB00CFC0A8
:1015C0009091150380911603981768F49091150374
:1015D000E92FF0E0EB50FD4F80818093BB009F5FCF
:1015E00090931503BCC08091EF02882309F44BC08F
:1015F00085ED8093BC008091BC0084FDFCCFC2C00F
:1016000080E280935A0385ED8093BC008091BC00FA
:1016100084FDFCCFB7C080E380935A0385ED8093AF
:10162000BC008091BC0084FDFCCFACC088E38093FB
:101630005A039BC0809115039091BB00E82FF0E006
:10164000EB50FD4F90838F5F8093150390911503AE
:101650008091160382C0809115039091BB00E82F02
:10166000F0E0EB50FD4F90838F5F809315038091E6
:10167000EF02882341F085ED8093BC008091BC008F
:1016800084FDFCCF7FC081E08093F00284EA6EC0CD
:1016900085ED8093BC008091BC0084FDFCCF72C0BE
:1016A00083E08093ED021092590359C08091590351
:1016B000803208F056C0809159039091BB00E82F0A
:1016C000F0E0E75CFC4F90838F5F8093590347C045
:1016D00080915903803230F4E0915903F0E0E75CE7
:1016E000FC4F108285ED8093BC008091BC0084FD8E
:1016F000FCCF1092ED0260915903E091F302F0915A
:10170000F40289E393E070E00995109259032DC02B
:1017100084E08093ED021092370310923803E09139
:10172000F102F091F202099580913803882329F49F
:1017300081E0809338031092170390913703E92FCB
:10174000F0E0E95EFC4F80818093BB009F5F909347
:1017500037039091370380913803981710F485EC84
:1017600001C085E88093BC000FC085EC8093BC006D
:1017700009C010925A0385ED8093BC008091BC0093
:1017800084FDFCCF1092ED02FF91EF91BF91AF91DC
:101790009F918F917F916F915F914F913F912F9189
:1017A0000F900FBE0F901F9018951092ED0281E0E0
:1017B0008093EF021092F00282E161E00E947211C8
:1017C00083E161E00E947211E9EBF0E080818E7F9D
:1017D000808380818D7F808388E48093B80085E456
:1017E0008093BC0008959C012627822F8295822732
:1017F000082E869586958025082E869580258770EB
:10180000022E232F869507948795302D282706943E
:10181000879530252827C90108950895FC01A489DA
:10182000B58912961C92129714961C921E921397C9
:101830008FEF9FEF1A969C938E931997138A128AB3
:10184000108A118A1786168611A210A28CE090E0E9
:1018500093838283178E168E0895AF92BF92CF9294
:10186000DF92EF92FF920F931F93DF93CF930F922C
:10187000CDB7DEB78C016115710581F4CE010196FB
:10188000D80115969C938E93149717969C938E93DC
:10189000169719969C938E93189707C0FC01758331
:1018A00064836F5F7F4F77836683D80114962D9191
:1018B0003C91159716968D919C911797281739078B
:1018C00009F04BC0EDC288309105DCF483309105FE
:1018D00009F41CC18430910564F48130910509F448
:1018E000E5C0823091050CF0FBC0892B09F4DAC009
:1018F00022C08530910509F446C106970CF06FC1EE
:1019000022C18B30910509F422C28C30910544F438
:101910008930910509F4F6C10A970CF00CC2BFC1D9
:101920008D30910509F426C28D3091050CF4A6C0C6
:101930000E9709F478C2D80114968D919C91159751
:10194000019615969C938E93149716962D913C9123
:1019500017978217930709F4A3C2F8018281938134
:101960008730910509F466C188309105BCF4833055
:10197000910509F4D7C08430910544F48130910574
:1019800009F4A6C0029709F05AC2B6C08530910585
:1019900009F40BC106970CF02EC1E7C08B309105FE
:1019A00009F44EC08C3091053CF489309105D1F09A
:1019B0000A970CF0CCC17FC18D30910509F4E6C1C6
:1019C0008D3091050CF466C00E9709F038C2FFC146
:1019D000D8015496ED91FC915597828381E0509601
:1019E0008C934CC0F801A489B58919968C911997EC
:1019F00019961C9219971A968C931A97848195813F
:101A0000FC01208119968D919C911A97820F911D4E
:101A10001A969C938E931997F8012289338982171D
:101A2000930749F481E0808B8685978514969C9373
:101A30008E93139723C081E0D80151968C931EC0DA
:101A4000D8015496ED91FC9155971C962D913C919F
:101A50001D97858196818217930718F481E051962E
:101A60008C9381E0F801808B0488F589E02DD80102
:101A70001C968D919C911D9794838383F80184819A
:101A800095810196958384832681378182179307F8
:101A900009F4D5C1D8011496ED91FC911597808178
:101AA0008C3721F0F8011382128235C2D8011496C6
:101AB0008D919C911597019615969C938E931497F2
:101AC00016962D913C9117978217930709F4BAC186
:101AD000D8011496ED91FC91159780818C3711F700
:101AE000F8018481958101969583848326813781CD
:101AF0008217930709F4A9C1D8011496ED91FC91BE
:101B0000159780818C3771F650961C92F80184816C
:101B10009581019695838483268137818217930767
:101B200009F49BC1F801A489B58911961C921E92F3
:101B300084819581FC01808190E0DC90CC248C290B
:101B40009D298D939C93D80114968D919C91159706
:101B5000019615969C938E93149716962D913C9111
:101B600017978217930709F47BC1F801A489B589F7
:101B700084819581FC01808190E0BC90AA248A290F
:101B80009B298D939C93D80114968D919C911597C8
:101B9000019615969C938E93149716962D913C91D1
:101BA00017978217930709F45EC1D8011496ED9137
:101BB000FC9115978081843661F0853620F481365A
:101BC00009F070CF05CF8E3609F4AFC0833709F026
:101BD00069CFD8015496ED91FC9155978283F80115
:101BE000848195810196958384832681378182172C
:101BF000930709F43BC1D80191961C921E929097CD
:101C00001D961C921E921C971496ED91FC911597AF
:101C100080811C968C931C971D961C92F8018481E0
:101C20009581019695838483268137818217930756
:101C300009F41FC1D8011C96FC901C97EE241D9638
:101C4000FC92EE921C971496ED91FC911597808171
:101C50009701280F311D1D963C932E931C97549687
:101C6000ED91FC915597858196818217930718F421
:101C700081E051968C93F801868D978D0B96FC012F
:101C8000EE0FFF1FE00FF11F28E030E031832083CB
:101C90000A97D8015F969C938E935E976BC0F8016C
:101CA000848195810196958384832681378182176B
:101CB000930709F4E1C0D80152968D919C915397F6
:101CC0000E940D0CF801938B828BA489B5891A961A
:101CD0001C921E92199719968C91199719961C921D
:101CE00019971A968C931A9784819581FC0120810B
:101CF00019968D919C911A97820F911D1A969C931B
:101D00008E931997D80114968D919C9115970196F1
:101D100015969C938E93149716962D913C91179738
:101D20008217930709F05ECEAAC0D8015496ED91B0
:101D3000FC9155978283F801848195810196958362
:101D40008483268137818217930709F49BC0D801C9
:101D500014968D919C911597019615969C938E9350
:101D6000149716962D913C9117978217930709F0B7
:101D700067CE8BC0F8018481958101969583848319
:101D8000268137818217930709F482C0D8011F96F4
:101D90001C921E921E9753961C921E9252971C964E
:101DA0008D919C911D971496ED91FC911597892B1F
:101DB00059F431971596FC93EE9314975E96ED9136
:101DC000FC915F97319790C080E090E009C0D80106
:101DD0001496ED91FC91159752968D919C91539785
:101DE00060810E94F30BF801938B828B26853785E7
:101DF0000488F589E02D0780F085E02DE20FF31FC0
:101E0000D80114968D919C911597DC018C9180835B
:101E10002F5F3F4FF80137872687848595852817E0
:101E2000390709F45CC0F801848195810196958396
:101E30008483268137818217930749F62CC08CE072
:101E400090E005C081E090E028C082E090E0D801F9
:101E500013969C938E93129723C083E090E01DC04D
:101E600084E090E0F4CF85E090E017C086E090E059
:101E7000EECF87E090E011C088E090E0E8CF89E005
:101E800090E00BC08AE090E0E2CF8BE090E005C0EC
:101E90008DE090E0DCCF8EE090E0F80193838283C8
:101EA000D80114962D913C91159718968D919C917F
:101EB00019972817390779F512968D919C911397E8
:101EC0000D9749F5F80117861686138A128A8485BC
:101ED0009585892B01F52150304035832483068C6C
:101EE000F78DE02D3197D8015F96FC93EE935E97C6
:101EF0003B96EE0FFF1FE00FF11F8081918113963B
:101F00009C938E931297F80182819381873091057B
:101F100009F0D9CC83CE0F90CF91DF911F910F9113
:101F2000FF90EF90DF90CF90BF90AF9008951F92F9
:101F30000F920FB60F9211242F933F938F939F937D
:101F4000AF93BF9380915F0390916003A091610371
:101F5000B0916203309163030196A11DB11D232F3F
:101F60002D5F2D3720F02D570196A11DB11D209317
:101F7000630380935F0390936003A0936103B09326
:101F8000620380915B0390915C03A0915D03B0912B
:101F90005E030196A11DB11D80935B0390935C03CA
:101FA000A0935D03B0935E03BF91AF919F918F911A
:101FB0003F912F910F900FBE0F901F9018958FB7E4
:101FC000F89420915F033091600340916103509138
:101FD00062038FBFB901CA0108959FB7F894209199
:101FE0005B0330915C0340915D0350915E0386B5C5
:101FF000A89B06C08F3F21F02F5F3F4F4F4F5F4F91
:102000009FBF542F432F322F2227280F311D411DF0
:10201000511D82E0220F331F441F551F8A95D1F7AF
:10202000B901CA0108959B01AC017FB7F894809172
:102030005B0390915C03A0915D03B0915E0366B574
:10204000A89B05C06F3F19F00196A11DB11D7FBF70
:10205000BA2FA92F982F8827860F911DA11DB11D7A
:1020600062E0880F991FAA1FBB1F6A95D1F7BC01B8
:102070002DC0FFB7F89480915B0390915C03A09111
:102080005D03B0915E03E6B5A89B05C0EF3F19F074
:102090000196A11DB11DFFBFBA2FA92F982F882728
:1020A0008E0F911DA11DB11DE2E0880F991FAA1F7F
:1020B000BB1FEA95D1F7861B970B885E9340C8F249
:1020C000215030404040504068517C4F211531052F
:1020D0004105510571F60895019739F0880F991F50
:1020E000880F991F02970197F1F70895789484B5A6
:1020F000826084BD84B5816084BD85B5826085BD04
:1021000085B5816085BDEEE6F0E0808181608083E9
:10211000E1E8F0E0108280818260808380818160CC
:102120008083E0E8F0E0808181608083E1EBF0E093
:10213000808184608083E0EBF0E080818160808337
:10214000EAE7F0E080818460808380818260808320
:102150008081816080838081806880831092C1004B
:102160000895982F8E3008F09E509770809104014A
:102170008295880F880F807C892B80937C008091CA
:102180007A00806480937A0080917A0086FDFCCF8B
:102190002091780040917900942F80E030E0282B46
:1021A000392BC90108951F93CF93DF93182FEB01AB
:1021B00061E00E943311209709F44AC0CF3FD10556
:1021C00009F449C0E12FF0E0E65EFE4F84918330D0
:1021D000C1F0843028F4813051F08230B1F50CC068
:1021E000863019F1873049F1843079F514C084B50F
:1021F000806884BDC7BD33C084B5806284BDC8BD5E
:102200002EC080918000806880938000D0938900E8
:10221000C093880024C080918000806280938000F9
:10222000D0938B00C0938A001AC08091B000806860
:102230008093B000C093B30012C08091B000806260
:102240008093B000C093B4000AC0C038D1051CF41C
:10225000812F60E002C0812F61E00E947211DF9146
:10226000CF911F910895CF93DF93482F50E0CA017B
:102270008A5F9E4FFC0134914E505F4FFA0184916A
:10228000882369F190E0880F991FFC01EC52FF4F01
:10229000A591B491FC01E252FF4FC591D491662300
:1022A00051F42FB7F8948C91932F909589238C93A8
:1022B000888189230BC0623061F42FB7F8948C9128
:1022C000932F909589238C938881832B88832FBFAC
:1022D00006C09FB7F8948C91832B8C939FBFDF919E
:1022E000CF910895482F50E0CA01865E9E4FFC01B1
:1022F0002491CA018A5F9E4FFC0194914E505F4F1A
:10230000FA013491332309F440C0222351F12330E0
:1023100071F0243028F42130A1F0223011F514C0DE
:102320002630B1F02730C1F02430D9F404C08091B8
:1023300080008F7703C0809180008F7D8093800024
:1023400010C084B58F7702C084B58F7D84BD09C06D
:102350008091B0008F7703C08091B0008F7D809313
:10236000B000E32FF0E0EE0FFF1FE252FF4FA59108
:10237000B4912FB7F894662321F48C91909589231A
:1023800002C08C91892B8C932FBF0895682F70E029
:10239000CB01865E9E4FFC012491CB018A5F9E4F4C
:1023A000FC0144916E507F4FFB019491992319F4E5
:1023B00020E030E03CC0222351F1233071F0243082
:1023C00028F42130A1F0223011F514C02630B1F0EC
:1023D0002730C1F02430D9F404C0809180008F7779
:1023E00003C0809180008F7D8093800010C084B5F1
:1023F0008F7702C084B58F7D84BD09C08091B00005
:102400008F7703C08091B0008F7D8093B000892FBB
:1024100090E0880F991F88519F4FFC01A591B491BE
:102420008C9120E030E0842311F021E030E0C901FC
:1024300008951F920F920FB60F9211242F933F937E
:102440004F938F939F93EF93FF938091C00082FDF2
:102450001DC04091C6002091A4033091A5032F5FB9
:102460003F4F2F7330708091A6039091A7032817D8
:10247000390771F0E091A403F091A503EC59FC4FEA
:1024800040833093A5032093A40302C08091C6002B
:10249000FF91EF919F918F914F913F912F910F90CD
:1024A0000FBE0F901F901895E091F803F091F9037B
:1024B000E05CFF4F8191919120813181821B930BD0
:1024C0008F739070892B11F00E942B0808951F9232
:1024D0000F920FB60F9211242F933F938F939F93D8
:1024E000EF93FF932091E8033091E9038091EA0391
:1024F0009091EB032817390731F48091C1008F7D4B
:102500008093C10014C0E091EA03F091EB03E85519
:10251000FC4F20818091EA039091EB0301968F7329
:1025200090709093EB038093EA032093C600FF9191
:10253000EF919F918F913F912F910F900FBE0F9030
:102540001F901895AF92BF92DF92EF92FF920F9378
:102550001F93CF93DF93EC017A018B01DD24403090
:1025600081EE580780E0680780E0780711F0DD24ED
:10257000D39491E0A92EB12CEC89FD89DD2069F07E
:10258000C50108A002C0880F991F0A94E2F7808352
:1025900060E079E08DE390E005C0108260E874E8C7
:1025A0008EE190E0A80197010E9454142150304020
:1025B00040405040569547953795279580E120300B
:1025C000380720F0DD2011F0DD24D6CFE889F98925
:1025D0003083EA89FB89208319A2EE89FF89408133
:1025E00021E030E0C9010C8C02C0880F991F0A94C9
:1025F000E2F7482B4083EE89FF894081C9010D8CA9
:1026000002C0880F991F0A94E2F7482B4083EE8995
:10261000FF894081C9010E8C02C0880F991F0A945E
:10262000E2F7482B4083EE89FF8980810F8C02C03E
:10263000220F331F0A94E2F7209528232083DF918D
:10264000CF911F910F91FF90EF90DF90BF90AF90CF
:102650000895DC011C96ED91FC911D97E05CFF4F05
:102660002191319180819181281B390B2F7330701A
:10267000C9010895DC011C96ED91FC911D97E05C69
:10268000FF4F20813181E054F040DF01AE5BBF4F4E
:102690008D919C9111972817390719F42FEF3FEF6F
:1026A00007C08D919C91E80FF91F8081282F30E0A1
:1026B000C9010895DC011C96ED91FC911D97E05C29
:1026C000FF4F20813181E054F040DF01AE5BBF4F0E
:1026D0008D919C9111972817390719F42FEF3FEF2F
:1026E00010C08D919C911197E80FF91F20818D9159
:1026F0009C91119701968F73907011969C938E9375
:1027000030E0C9010895DC0191968C91919788235E
:1027100039F05496ED91FC915597808186FFF9CF61
:1027200091961C920895CF93DF93EC01EE85FF857F
:10273000E05CFF4F20813181E054F0402F5F3F4F3C
:102740002F733070DF01AE5BBF4F8D919C9111975D
:1027500028173907D1F3E05CFF4F80819181E05465
:10276000F040E80FF91F6083EE85FF85E05CFF4FC6
:1027700031832083EE89FF89208181E090E00F8CF6
:1027800002C0880F991F0A94E2F7282B208381E06A
:1027900089A3EC89FD8980818064808381E090E059
:1027A000DF91CF9108951092EF031092EE0388EE1F
:1027B00093E0A0E0B0E08093F0039093F103A09346
:1027C000F203B093F30385E591E09093ED038093DA
:1027D000EC0384E693E09093F9038093F80388EA8E
:1027E00093E09093FB038093FA0385EC90E0909341
:1027F000FD038093FC0384EC90E09093FF038093AF
:10280000FE0380EC90E0909301048093000481EC3F
:1028100090E0909303048093020482EC90E0909304
:1028200005048093040486EC90E090930704809361
:10283000060484E08093080483E08093090487E021
:1028400080930A0485E080930B0481E080930C045C
:1028500008950895CF92DF92EF92FF920F931F9306
:10286000CF93DF937C016B018A01C0E0D0E00FC001
:10287000D6016D916D01D701ED91FC910190F08130
:10288000E02DC7010995C80FD91F0150104001154F
:10289000110571F7CE01DF91CF911F910F91FF903C
:1028A000EF90DF90CF900895A1E21A2EAA1BBB1BD8
:1028B000FD010DC0AA1FBB1FEE1FFF1FA217B3070C
:1028C000E407F50720F0A21BB30BE40BF50B661F22
:1028D000771F881F991F1A9469F7609570958095E6
:1028E00090959B01AC01BD01CF010895EE0FFF1F34
:1028F0000590F491E02D09942F923F924F925F92B0
:102900006F927F928F929F92AF92BF92CF92DF92FF
:10291000EF92FF920F931F93CF93DF93CDB7DEB764
:10292000CA1BDB0B0FB6F894DEBF0FBECDBF0994F8
:102930002A88398848885F846E847D848C849B844F
:10294000AA84B984C884DF80EE80FD800C811B815D
:10295000AA81B981CE0FD11D0FB6F894DEBF0FBE8C
:0A296000CDBFED010895F894FFCFFC
:10296A007C7C7C0001000000002901FEFF0000259C
:10297A0001FCFF00002101000000002914000000F2
:10298A000029140000000029140000000047014437
:10299A00020000000047012914000000004D0176E2
:1029AA0002000000000609D5085808610876088761
:1029BA00080000000093132A1429135A133A1383A8
:0229CA001300F8
:00000001FF
