:100000000C9428020C9459020C9459020C94590235
:100010000C9459020C9459020C9459020C945902F4
:100020000C9459020C9459020C9459020C945902E4
:100030000C9459020C9459020C9459020C945902D4
:100040000C9459020C9459020C9459020C945902C4
:100050000C9459020C9459020C9459020C945511A9
:100060000C9459020C9411130C9401140C94590221
:100070000C9459020C9459020C9459020C94590294
:100080000C9459020C9459020C9459020C94590284
:100090000C9445130C9440140C9459020C94140ABB
:1000A0000C9459020C9459020C9459020C94590264
:1000B0000C9459020C9459020C9459020C94590254
:1000C0000C9459020C9459020C9459020C94791313
:1000D0000C947F140C9459020C94AD130C94BE1420
:1000E0000C9459029E0DB20DC80DE40D080E360E8B
:1000F000550E8C0E330DC60E5D0D800DE70E010FF3
:10010000880D8C0DA60DBC0DD80DF60D2A0E490ECE
:10011000710FA50EBA0EC60E740DDB0E0C0FA10FDB
:10012000A40F970F9B0FDB0FA80FAC0FB20FB60FEA
:10013000BA0FC00FC40FC80FDB0FCE0FD20FD60FF0
:10014000BF10C410C910D3104C11DD10E510ED1014
:10015000F71001110B111A1124114C112E11381125
:100160004211687474703A2F2F6769746875622E33
:10017000636F6D2F776865656C65722D6D6963724D
:100180006F666C7569646963732F626173655F6E16
:100190006F64655F7270632E67697400302E313151
:1001A0002E706F7374313200576865656C6572200C
:1001B0004C616200626173655F6E6F64655F72704F
:1001C0006300302E31312E706F73743132000000B5
:1001D000090A02080B0C0D070603040100000000C9
:1001E000000000000000000000000000000000000F
:1001F0000000000000000000000011100F000000CF
:1002000000000000000000000000000000000000EE
:1002100000000000010210202008081020401020DB
:1002200040800201020108040201010204081020BA
:1002300040808040201008040201800402018040B8
:100240002010080402010804020101020408102021
:1002500040800102040810204080050505050705BF
:1002600008080808020202020A0A08080404040432
:10027000010101010101010103030303030303035E
:10028000040707070C0C0C0C0C0C0C0C02020202ED
:1002900006060606060606060B0B0B0B0B0B0B0BD6
:1002A000000020002300260029002C002F0032002F
:1002B00000010000030106010901000022002500E1
:1002C00028002B002E00310034000201000005013F
:1002D00008010B0100002100240027002A002D0046
:1002E0003000330001010000040107010A010C94F1
:1002F000080E0C94C4100C9424110C94D3100C947C
:1003000061120C94ED100C946B020C94800D0C9403
:100310004D0B0C945D0C0C94C00F0C94970F0C9427
:10032000F7100C94AC0F0C942A0E0C94BF100C9484
:10033000700B0C94C2030C944C110C94CC0B0C94C9
:10034000C4040C94FC080C94600B0C942E110C94B7
:10035000C40F0C94A60D0C94BC0D0C949B0F0C9424
:10036000A80F0C949E0D0C94930B0C94880D0C9478
:10037000A10F0C94E70E0C94490E0C94D80D0C941C
:10038000740D0C94010F0C94CE0F0C9401110C946D
:10039000B0120C94A50E0C94E0130C947E150C94E2
:1003A0008C0E0C948E120C94B20F0C94D20F0C94F1
:1003B0005D0D0C947B020C94C80F0C94550E0C949C
:1003C000B5160C94DD100C94E5100C94D60F0C941B
:1003D00038110C941A110C94C9100C94710F0C94D0
:1003E00076020C94360E0C94DB0F0C9473120C9462
:1003F000BA0E0C94B4160C94A40F0C946F0B0C94BE
:100400009F0B0C94BB120C94330D0C94450B0C9465
:100410005B020C9465020C94B20D0C9468020C946F
:10042000F60D0C94C80D0C94DB0E0C9442110C9438
:100430000C0F0C94B60F0C948C0D0C94E40D0C94D2
:10044000BA0F0C940B110C94C60EC2035D0C7E15F2
:1004500011241FBECFEFD1E2DEBFCDBF00E00CBF45
:1004600012E0A0E0B2E0EAE9FEE200E00BBF02C069
:1004700007900D92A436B107D9F717E0A4E6B2E0D1
:1004800001C01D92AA3EB107E1F714E0C0E5D4E037
:1004900000E006C022970109FE010BBF0E9405176C
:1004A000CA34D10780E00807A9F70E94EF080C942E
:1004B0004B170C94000040E850E060E070E0BC0195
:1004C00065577E4FCB01BA01089502970C945B02E9
:1004D00004970C945B02E091EC03F091ED03028031
:1004E000F381E02DBC018CEE93E01994FC01828134
:1004F00093810C947A0CCF93DF93EC010E947602E7
:100500001C82DF91CF9108950F931F93CF93DF93B8
:100510008C01EB01BC01CE010E940917C8010E94A9
:100520001017AC01BE01CB01BA01DF91CF911F9131
:100530000F9108950F931F93CF93DF93EC011A86C9
:10054000198600E010E02B813C8189859A8502178D
:10055000130760F4EF81F885E00FF11F60810E94BE
:10056000610C9A8789870F5F1F4FEDCF0E94790C2E
:100570009A878987DF91CF911F910F91089540E06D
:1005800052EC61E070E084EA95E00E94FD148CE09A
:100590008093B8006BE672E08FED94E00C94580CF9
:1005A000DC01ED91FC910280F381E02D41E050E00F
:1005B00019940F931F93CF93DF93EC018B01E88184
:1005C000F9816F5F7F4F0280F381E02D41E050E0C1
:1005D0001995E881F9810280F381E02D41E050E036
:1005E000B801CE01DF91CF911F910F911994FC01B9
:1005F000E15DFE4F0190F081E02D2189222359F029
:10060000835D9E4FDC01ED91FC910190F081E02D26
:10061000199580E0089580890895FC01E15BFF4F02
:100620000190F081E02D2189222331F0835B9F4FDF
:100630000E947B0280E00895808908950F931F93A4
:10064000CF93DF93EC018B01E881F9816F5F7F4FDE
:100650000280F381E02D41E050E01995E881F981B5
:100660000280F381E02D41E050E0B801CE01DF913E
:10067000CF911F910F911994EF92FF920F931F93B7
:10068000CF93DF93CDB7DEB762970FB6F894DEBF96
:100690000FBECDBF7C012A8B8FEF9FEF9B878A8790
:1006A0001A8309832B835F834E83798768875D83F1
:1006B0004C83CE0101960E949A028CE79CE7ACE73E
:1006C000B0E08C879D87AE87BF87D7018D919C91C5
:1006D000DC01ED91FC910280F381E02D43E050E0DC
:1006E000BE01645F7F4F1995BE016F5F7F4FF701B9
:1006F000808191810E941E03D7018D919C91DC0124
:10070000ED91FC910280F381E02D41E050E0BE01CB
:100710006E5E7F4F19958B81843611F0833729F5F2
:100720008C819D81998B888BBE01605F7F4FD70143
:100730008D919C910E941E034C815D814115510554
:1007400061F0F70180819181DC01ED91FC91688578
:1007500079850280F381E02D1995BE01665F7F4F98
:10076000F701808191810E941E0362960FB6F89472
:10077000DEBF0FBECDBFDF91CF911F910F91FF90D4
:10078000EF9008956F927F928F929F92AF92BF9257
:10079000CF92DF92EF92FF920F931F93CF93DF934D
:1007A000C6E6D2E08BE092E09983888388E6E82E63
:1007B00082E0F82E81E192E0D7018D939C930AE6C6
:1007C00012E087E192E0F80191838083ECE6F3E0A8
:1007D0001182108210926E031092700310926F03B8
:1007E00066246A94762C709276036092750380E09A
:1007F00091E090937203809371038CE692E0909362
:1008000074038093730327E7A22E23E0B22ED50151
:100810001C9210927803109284031092830310921A
:1008200086031092850310928A0310928903109216
:10083000980310929703F0938C03E0938B03C50108
:100840000E947A0C39E9C32E33E0D32E4DE1842E79
:1008500042E0942EF60191828082B0929C03A09295
:100860009B03C6010E94760285E292E0D6018D9339
:100870009C9384EA95E090939E0380939D03EFEB15
:10088000F3E0118210821092C1031092C303109200
:10089000C2037092C9036092C80380E290E0909313
:1008A000C5038093C4038FE993E09093C7038093BB
:1008B000C6035AECA52E53E0B52ED5011C9210921A
:1008C000CB031092D7031092D6031092D903109243
:1008D000D8031092DD031092DC031092EB03109208
:1008E000EA03F093DF03E093DE03C5010E947A0C74
:1008F0006CEEC62E63E0D62EF60191828082B09215
:10090000EF03A092EE03C6010E9476028DE292E010
:10091000D6018D939C931092F003C6010E947B0236
:1009200085E392E0998388838BE392E0F7019183DA
:10093000808381E492E0D8018D939C93D0936502EB
:10094000C0936402DF91CF911F910F91FF90EF90C0
:10095000DF90CF90BF90AF909F908F907F906F90DF
:100960000895CF93DF93E0919903F0919A03C281A8
:10097000D38184EA95E00E946112BC0189E993E089
:10098000FE01DF91CF911994BF92CF92DF92EF9247
:10099000FF920F931F93CF93DF931F92CDB7DEB7D4
:1009A0008C017B018FED94E00E944D0BB82E81E00D
:1009B000E81AF108F8018481811101C0B482C12CC8
:1009C000D12CCE14DF04A4F48FED94E00E944D0BE3
:1009D0008983F8018481B81207C0BE016F5F7F4F21
:1009E000828193810E94990CFFEFCF1ADF0AE9CF31
:1009F0000F90DF91CF911F910F91FF90EF90DF90BB
:100A0000CF90BF900895EF92FF920F931F93CF93D3
:100A1000DF93CDB7DEB763970FB6F894DEBF0FBE96
:100A2000CDBF8C012B8B1A8219828FEF9FEF9B8792
:100A30008A872B835F834E83798768875D834C83A6
:100A4000CE0101960E949A028CE79CE7ACE7B0E0E9
:100A50008C879D87AE87BF878091BA0086958A8BE9
:100A6000F80160818FED94E00E94380CBE016E5E4B
:100A70007F4F8FED94E00E94D00243E050E0BE0132
:100A8000645F7F4F8FED94E00E949F0BBE016F5F0C
:100A90007F4F8FED94E00E94D902BE016D5E7F4FC3
:100AA0008FED94E00E94D0028C819D81998B888B80
:100AB000BE01605F7F4F8FED94E00E94D9028FED01
:100AC00094E00E94550CEC80FD80E114F10461F18A
:100AD000F0E2EF16F10418F07FE1E72EF12CF801B7
:100AE00060818FED94E00E94380CBE016E5E7F4FF6
:100AF0008FED94E00E94D00268857985A7018FED83
:100B000094E00E949F0B8FED94E00E94550C888525
:100B100099858E0D9F1D998788878C819D818E195F
:100B20009F099D838C83CFCFF80160818FED94E086
:100B30000E94380CBE016E5E7F4F8FED94E00E94E4
:100B4000D002BE01665F7F4F8FED94E00E94D90214
:100B50008FED94E00E94550C63960FB6F894DEBFBB
:100B60000FBECDBFDF91CF911F910F91FF90EF90FE
:100B700008958F929F92AF92BF92CF92DF92EF92A1
:100B8000FF920F931F93CF93DF9300D01F92CDB7A7
:100B9000DEB7DC01FB0169012081203209F45DC16F
:100BA00008F055C0283009F408C110F5233009F4C5
:100BB000D1C090F48D919C91213009F4B1C008F01E
:100BC000BEC0DC01ED91FC910190F081E02D199502
:100BD000BC0182EC91E0AEC0253009F4D5C008F428
:100BE000C6C0263009F4D8C0273009F4DEC058C288
:100BF0002D3009F409C180F42A3009F4FCC008F44E
:100C0000E7C02B3009F4FCC02C3009F049C26281E6
:100C100081810E94151049C22F3009F4FFC008F4E9
:100C2000F7C0203109F406C1213109F039C29B0116
:100C30002F5F3F4F83819481820F931F948383831F
:100C400081819281A381B4818C016D0130C22636ED
:100C500009F46FC1D8F5213609F422C128F52134F1
:100C600009F400C1A8F4203409F01AC29B012F5FD7
:100C70003F4F85819681820F931F96838583618183
:100C8000728143815481F8940E94291778940DC28F
:100C9000223409F400C1203609F002C261818FEDCF
:100CA00094E00E94150C01C2233609F403C108F434
:100CB000FBC0243609F433C1253609F0F1C18FEDAC
:100CC00094E00E944D0BF60180833BC1203809F46B
:100CD0008AC178F4283609F466C108F435C129368A
:100CE00009F47BC12A3609F0DBC18091BA008E7FFE
:100CF00077C1223809F4C3C108F481C1203A09F44C
:100D0000C5C1213A09F0CCC140E052EC61E070E08D
:100D100084EA95E00E94FD148CE08093B800C5C180
:100D2000DC01ED91FC910190F081E02D1995BC0161
:100D300084EB91E00E9484028B016C01B8C1DC015C
:100D4000ED91FC910190F081E02D1995BC0188EAAC
:100D500091E0F0CF8D919C91DC01ED91FC9101909F
:100D6000F081E02D1995BC018CE991E0E3CF8D91E4
:100D70009C91DC01ED91FC910190F081E02D1995A1
:100D8000BC0182E691E0D6CF0E94AB11F6016083F0
:100D900071838283938330C10E949F11D6016D932A
:100DA0007D938D939C93139727C1818192810097A6
:100DB00009F47BC10E94F41178C1618172816115CF
:100DC000710509F472C180E090E00E94CE116DC1FE
:100DD0002091E6073091E7078DB79EB721153105C1
:100DE00019F48A5E974002C0821B930BAA2797FDD5
:100DF000A095BA2FFCC0628181810E94DC0F55C191
:100E000081810E944B109BC081810E9474104EC052
:100E1000628170E081810E94991047C19B012F5F20
:100E20003F4F83819481820F931F948383838181B9
:100E3000928179C09B012F5F3F4F83819481820F04
:100E4000931F9483838301811281238134816901FB
:100E5000000F111F000F111F2AC189EF90E0A0E0C1
:100E6000B0E0C5C003811481E180F2808D919C9136
:100E7000DC011296ED91FC9113970190F081E02D29
:100E800002961995DC01CB016D01A801B701CD01D6
:100E90000E9419170CC18FEF9FE0A0E0B0E0A7C03F
:100EA0008091BA0086954BC080E290E0F601918374
:100EB00080833CC08D919C91DC011496ED91FC9156
:100EC00015970190F081E02D049619957B016C0136
:100ED000E8E09E2E00E010E00E151F0508F0E7C0C8
:100EE000692D8FED94E00E94380C8FED94E00E9404
:100EF000550C81110FC05801BFEFAB1ABB0AF601A8
:100F0000E00FF11F908261E070E080E090E00E94CD
:100F1000CE1185019394E8E79E12DECFC8C08FED15
:100F200094E00E94450BD6018D939C9302E010E063
:100F3000BEC0428161818FED94E00E94350CD601E4
:100F40008C9301E010E0B3C0B280F1808D919C9150
:100F5000DC011496ED91FC9115970190F081E02D44
:100F600004961995182F092FC82ED92E4B2D6F2DA9
:100F70008FED94E00E94350CA12EE12EF02E0E2D67
:100F80000A198FED94E00E94450B892B31F08FED0B
:100F900094E00E944D0B0B1510F010E088C0F70193
:100FA00081937F01ECCFCB01019604811581080F5D
:100FB000191F15830483E280F38061818FED94E033
:100FC0000E94380CA701B8018FED94E00E949F0B9E
:100FD0008FED94E00E94550C68C08091BA0081604A
:100FE0008093BA0062C089E190E0A0E0B0E0F60131
:100FF00080839183A283B38304E010E058C09B01F7
:101000002F5F3F4F84819581820F931F9583848347
:101010001181CD90DC90428153816481758176018C
:10102000FAE7EF1AFEEFFF0AC70149835A836B8381
:101030007C830E947B02C60186579E4FDC011C9375
:1010400024E649815A816B817C810E9403050E94BC
:101050009F114B015C018601075C1E4F0E949F118E
:10106000681979098A099B096838734181059105D6
:1010700088F5C8010E940D0381112CC0EFCF8D911E
:101080009C918A579E4F0E947B020FC08D919C912C
:10109000DC01ED91FC910190F081E02D19954CCE91
:1010A000C12CD12C0FEF1FEF02C000E010E0B801FF
:1010B000C6010F900F900F900F90DF91CF911F916D
:1010C0000F91FF90EF90DF90CF90BF90AF909F90E7
:1010D0008F900895F601E75AFE4FC780D0840381B0
:1010E00014810831110510F007E110E0C7010E94DA
:1010F0007B02DDCF0F931F93CF93DF93FC01CB01D6
:10110000C381D4812281243611F4209759F420E040
:1011100030E04FEF5FEFBA01C901DF91CF911F912E
:101120000F910895A781B0859D0105811681AE01BB
:10113000BD010E94B905AB019C01EDCF0F931F9338
:101140008CE692E00E94F702882301F18CE692E09F
:101150000E94F7028823D1F064E672E08CE693E007
:101160000E947A08AB01BC01CA016115710511F436
:1011700080E090E0AC0100E010E024E68DE993E02F
:101180000E943C0389E993E00E9476028FE993E094
:101190000E940D03882301F18FE993E00E940D0363
:1011A0008823D1F064E672E08FEB93E00E947A0826
:1011B000AB01BC01CA016115710511F480E090E03A
:1011C000AC0124E680EF93E00E9403058CEE93E0EF
:1011D0001F910F910C947B021F910F9108950E9413
:1011E000FF110E94BF02C0EED3E10E949E0820972B
:1011F000E1F30E94E013F9CFCF92DF92EF92FF92DA
:101200000F931F93CF93DF931F92CDB7DEB77C016F
:101210006B0100E010E00C151D0584F484EA95E0F4
:101220000E948E128983BE016F5F7F4FF70182811A
:1012300093810E94990C0F5F1F4FEDCF0F90DF91AC
:10124000CF911F910F91FF90EF90DF90CF90089575
:101250001092DE0481E08093DC041092DB0461E0F4
:1012600084E10E94151061E085E10E941510E9EB10
:10127000F0E080818E7F808380818D7F808388E411
:101280008093B80085E48093BC000895880F809314
:10129000BA000895413208F03FC09091DE049111E8
:1012A000FCCF91E09093DE042093DC042FEF209399
:1012B00071041092B604240F2093B5049093DD04BA
:1012C0009091DD04880F892B8093DD048091DB04ED
:1012D000813041F41092DB048091DD048093BB00E7
:1012E00085EC01C085EE8093BC008091DE048130E6
:1012F000E1F38091B604841710F44091B60427EB13
:1013000034E0FB01D9018A2F821B841718F48D91D8
:101310008193F9CF842F089580E008950F9341328F
:1013200008F046C09091DE049111FCCF92E09093BA
:10133000DE040093DC049FEF909371041092B604D6
:101340004093B504FB0167EB74E0DB019A2F961B19
:10135000941718F491919D93F9CF1092DD04909118
:10136000DD04880F892B8093DD048091DB048130BC
:1013700041F41092DB048091DD048093BB0085EC86
:1013800001C085EE8093BC00222321F08091DE0411
:101390008230E1F3809171048F3F61F0809171049C
:1013A000803251F080917104803341F483E007C0B2
:1013B00081E005C080E003C082E001C084E00F91BD
:1013C0000895613298F42091DE04243089F460930A
:1013D0009304FC0185E994E0DC012A2F281B2617E1
:1013E00018F421912D93F9CF80E0089581E00895BC
:1013F00082E008959093D8048093D7040895909341
:10140000DA048093D904089585ED8093BC0080911F
:10141000BC0084FDFCCF1092DE04089585EC80931F
:10142000BC001092DE0408951F920F920FB60F9227
:1014300011240BB60F922F933F934F935F936F93AB
:101440007F938F939F93AF93BF93EF93FF9380917D
:10145000B900887F803609F49CC068F5883209F4A9
:101460005BC090F4803109F454C038F4882309F447
:10147000F5C0883009F44DC0F5C0883109F44CC07E
:10148000803209F45DC0EEC0803409F468C048F4CD
:10149000803309F455C0883309F0E4C080937104A7
:1014A000A8C0803509F44FC0883509F45DC0883480
:1014B00009F0D8C0D5C0883909F4C6C0A8F4883767
:1014C00009F467C038F4883609F463C0803709F43A
:1014D00060C0C8C0883809F4B7C0803909F45FC05B
:1014E000803809F0BFC05BC0803B09F485C038F488
:1014F000803A09F466C0883A09F47EC0B3C0803CE3
:1015000009F4A6C0883C09F4A3C0883B09F489C04B
:10151000A9C08091DD0410C09091B6048091B504FB
:10152000981770F5E091B60481E08E0F8093B604B1
:10153000F0E0E954FB4F80818093BB0085EC85C0CF
:10154000809371048DC0E091B60481E08E0F80938A
:10155000B6048091BB00F0E0E954FB4F808390918A
:10156000B6048091B5046DC0E091B60481E08E0FA1
:101570008093B6048091BB00F0E0E954FB4F808378
:101580008091DC0481116CC081E08093DB0484EAEB
:1015900060C083E08093DE0410927204CFCF80910C
:1015A0007204803208F050C0E091720481E08E0F26
:1015B000809372048091BB00F0E0ED58FB4F808374
:1015C000BDCF80917204803230F4E0917204F0E07B
:1015D000ED58FB4F10820E94040A6091720470E083
:1015E000E091D704F091D80483E794E01995109224
:1015F00072040E940E0A36C084E08093DE041092CA
:10160000940410929304E091D904F091DA041995AE
:1016100080919304811105C081E08093930410921E
:101620009504E091940481E08E0F80939404F0E09F
:10163000EB56FB4F80818093BB0090919404809186
:101640009304981708F47ACF85E88093BC000AC009
:1016500085EC8093BC001092DE0404C010927104EB
:101660000E94040AFF91EF91BF91AF919F918F91DA
:101670007F916F915F914F913F912F910F900BBE92
:101680000F900FBE0F901F9018958091130590E05A
:1016900020911405821B91090895209114058091D1
:1016A0001305281750F4E22FF0E0EB5EFA4F80812B
:1016B00090E02F5F2093140508958FEF9FEF08951A
:1016C000E091140580911305E81730F4F0E0EB5E2B
:1016D000FA4F808190E008958FEF9FEF089508956D
:1016E000E091EB04F091EC043097E1F030911405B7
:1016F000209113053217B0F040E0242F30E0261778
:10170000370754F4DC01A20FB31F5C91D901AB5E23
:10171000BA4F5C934F5FF1CF10921405609313059D
:10172000CB0119940895E091ED04F091EE04309707
:1017300029F01092F1041092F00419940895CF92B8
:10174000DF92EF92FF920F931F93CF93DF937C0171
:10175000CB018A012091EF04222389F0EB016B0178
:10176000C40ED51ECC15DD0569F06991D701ED9148
:10177000FC910190F081E02DC7011995F3CF642F02
:101780000E94E109C801DF91CF911F910F91FF9055
:10179000EF90DF90CF900895CF93DF931F92CDB756
:1017A000DEB769832091EF042223D1F02091F00469
:1017B000203240F021E030E0FC013383228380E0DE
:1017C00090E015C08091F104E82FF0E0EE50FB4F5F
:1017D000998190838F5F8093F1048093F00405C01A
:1017E00061E0CE0101960E94E10981E090E00F9056
:1017F000DF91CF910895FC011382128248EE53E0ED
:1018000060E070E0448355836683778387E492E0E9
:1018100091838083089510921405109213051092FD
:10182000F1041092F0040C942809CF93DF93EC019B
:10183000862F0E94460983E99BE00E94FF0980E70A
:101840009BE00E94FA09CE01DF91CF910C940B0C22
:10185000862F413208F040E265E175E00E944A09B6
:101860001092140580931305089521E00C94280C20
:1018700081E08093EF04609312051092F1041092BE
:10188000F00408950F93062F21E04091F00462EFD9
:1018900074E0809112050E948E091092F10410925A
:1018A000F0041092EF040F91089561E00C94420C43
:1018B0007093EC046093EB0408958FED94E00C9426
:1018C000FB0B8627682F62956827062E669566951E
:1018D0006025062E669560256770082E892F66950F
:1018E00007946795902D86270694679590258627FF
:1018F00008950895FC01A489B58912961C92129747
:1019000014961C921E9213978FEF9FEF1A969C933A
:101910008E931997138A128A108A118A178616864F
:1019200011A210A28CE090E093838283178E168E12
:101930000895AF92BF92CF92DF92EF92FF920F93F2
:101940001F93CF93DF931F92CDB7DEB78C01611544
:10195000710581F4CE010196D80115969C938E9362
:10196000149717969C938E93169719969C938E9323
:10197000189707C0FC01758364836F5F7F4F77837F
:101980006683D80114962D913C91159716968D91EA
:101990009C9117972817390709F057C071C26081C9
:1019A00080E090E00E94610CF801938B828B0488A8
:1019B000F589E02D0780F085E02DD8011E968D91E8
:1019C0009C911F979C012F5F3F4F1F963C932E9336
:1019D0001E9714962D913C911597D9012C91E80FE3
:1019E000F91F2083F801268537858485958528177A
:1019F000390709F011C2068CF78DE02DCF01019750
:101A0000D8015F969C938E935E973A96EE0FFF1FD8
:101A1000E00FF11F8081918113969C938E93129712
:101A2000D8011296ED91FC911397EF30F10508F46F
:101A300054C2F8018481958101969583848326811F
:101A400037818217930709F41BC2D8011296ED91D2
:101A5000FC9113973197EE30F10508F0EBC1EE5889
:101A6000FF4F0C94FF16D8015496ED91FC915597B9
:101A7000F184E12CF286E18614968D919C91159764
:101A8000DC018C919701280F311DC9013287218714
:101A9000D80152962D913C9153978217930749F4A0
:101AA00081E050968C9350971E968D919C911F9734
:101AB00019C081E0F801818B17C0D8011C968D9167
:101AC0009C911D975496ED91FC91559725813681F7
:101AD0002817390718F421E051962C9321E0D801FA
:101AE00050962C9394838383F80184819581019689
:101AF00095838483268137818217930709F49AC1DD
:101B0000D8011496ED91FC91159780818C3721F0C6
:101B1000F80113821282F4C1D80114968D919C9120
:101B20001597019615969C938E93149716962D9162
:101B30003C9117978217930709F47FC1D801149637
:101B4000ED91FC91159780818C3711F7F801848114
:101B50009581019695838483268137818217930727
:101B600009F46EC1D8011496ED91FC91159780810E
:101B70008C3771F650961C92F801848195810196FC
:101B800095838483268137818217930709F460C186
:101B9000D8015496ED91FC915597118210821496BC
:101BA0008D919C911597DC018C9190E091838083BD
:101BB000F8018481958101969583848326813781FC
:101BC0008217930709F447C1D8015496ED91FC910F
:101BD000559714968D919C911597DC018C91B0804E
:101BE000A12C9501282BC90191838083D8011496DB
:101BF0008D919C911597019615969C938E931497B1
:101C000016962D913C9117978217930709F426C1D8
:101C1000D8011496ED91FC91159780818436A1F03E
:101C200068F4813609F074CFD8015496ED91FC9197
:101C30005597828381E050968C9356CF8E3609F467
:101C400093C0833709F064CFD8015496ED91FC918D
:101C500055978283F80184819581019695838483C9
:101C6000268137818217930709F4FBC0D80191962A
:101C70001C921E9290971D961C921E921C97149671
:101C8000ED91FC911597808190E01D969C938E9329
:101C90001C97F80184819581019695838483268120
:101CA00037818217930709F4DFC0D8011C96DC90B6
:101CB0001C97C12C1D96DC92CE921C971496ED9128
:101CC000FC9115978081F601E80FF11DCF011D965B
:101CD000FC93EE931C975496ED91FC9155972581BA
:101CE00036812817390718F481E051968C93D80172
:101CF0005E96ED91FC915F97CF0101965F969C9364
:101D00008E935E973B96EE0FFF1FE00FF11F88E06A
:101D100090E0918380834FC0D80152968D919C9121
:101D200053970E94790CF801938B828B0488F58974
:101D3000E02D12861186D80114968D919C911597ED
:101D4000DC018C9190E092878187F80184819581F4
:101D5000019695838483268137818217930709F042
:101D600082CE89E090E089C0D8015496ED91FC9133
:101D700055978283F80184819581019695838483A8
:101D8000268137818217930709F471C0D801149610
:101D90008D919C911597019615969C938E9314970F
:101DA00016962D913C9117978217930709F085CECF
:101DB0008BE090E062C0F801848195810196958363
:101DC0008483268137818217930709F453C0D80191
:101DD0001F961C921E921E9753961C921E9252970B
:101DE0001C968D919C911D971496ED91FC911597E1
:101DF000892B09F0D4CD31971596FC93EE93149767
:101E000065C0D8011496ED91FC91159760815296AA
:101E10008D919C915397C6CDF8018481958101964F
:101E200095838483268137818217930751F78EE04B
:101E300090E023C08CE090E005C081E090E01DC000
:101E400082E090E0D80113969C938E93129718C06D
:101E500083E090E012C084E090E0F4CF85E090E071
:101E60000CC086E090E0EECF87E090E006C08AE00C
:101E700090E0E8CF8DE090E0E5CFF8019383828396
:101E8000D80114968D919C91159718962D913C919F
:101E9000199782179307A1F512962D913C911397EC
:101EA0002D30310569F51F961C921E921E97539690
:101EB0001C921E9252971C962D913C911D97232B9C
:101EC000F9F4019715969C938E9314975E96ED9175
:101ED000FC915F97CF01019794CDE058FF4F0C9490
:101EE000FF16F8018481958101969583848326816C
:101EF00037818217930709F00FCF88E090E0A2CFD7
:101F00000F90DF91CF911F910F91FF90EF90DF9095
:101F1000CF90BF90AF90089590E0FC013197E131F0
:101F2000F10508F048C0E157FF4F0C94FF1680916F
:101F300080008F7703C0809180008F7D8093800028
:101F4000089584B58F7702C084B58F7D84BD0895D0
:101F50008091B0008F7703C08091B0008F7D809317
:101F6000B0000895809190008F7707C08091900015
:101F70008F7D03C080919000877F809390000895AB
:101F80008091A0008F7707C08091A0008F7D03C053
:101F90008091A000877F8093A00008958091200108
:101FA0008F7707C0809120018F7D03C08091200131
:101FB000877F809320010895CF93DF9390E0FC0109
:101FC000EC5EFD4F2491FC01E65AFD4F849188237D
:101FD00049F190E0880F991FFC01EC52FD4FA5914B
:101FE000B49186549D4FFC01C591D4919FB7611166
:101FF00008C0F8948C91209582238C938881822349
:102000000AC0623051F4F8948C91322F30958323BA
:102010008C938881822B888304C0F8948C91822BC6
:102020008C939FBFDF91CF9108950F931F93CF9310
:10203000DF931F92CDB7DEB7282F30E0F901E253CE
:10204000FE4F8491F901EC5EFD4F1491F901E65ABF
:10205000FD4F04910023C9F0882321F069830E9479
:102060008C0F6981E02FF0E0EE0FFF1FE654FD4F6B
:10207000A591B4919FB7F8948C91611103C010950C
:10208000812301C0812B8C939FBF0F90DF91CF9153
:102090001F910F910895CF93DF93282F30E0F9011E
:1020A000E253FE4F8491F901EC5EFD4FD491F901AA
:1020B000E65AFD4FC491CC2391F081110E948C0F00
:1020C000EC2FF0E0EE0FFF1FE056FD4FA591B4910D
:1020D0002C912D2381E090E021F480E002C080E08B
:1020E00090E0DF91CF910895863308F086532091D8
:1020F0007B00982F9870277F922B90937B0087709E
:102100002091060290E4299F90011124822B809354
:102110007C0080917A00806480937A0080917A00BC
:1021200086FDFCCF809178002091790090E0922B81
:1021300008951F93CF93DF93182FEB0161E00E9466
:10214000DC0F209711F460E004C0CF3FD10539F4D3
:1021500061E0812FDF91CF911F910C941510E12F39
:10216000F0E0E253FE4F449150E0FA013197E13143
:10217000F10508F091C0E056FF4F0C94FF1684B5AE
:10218000806884BDC7BD8DC084B5806284BDC8BD74
:1021900088C080918000806880938000D0938900FF
:1021A000C09388007EC08091800080628093800010
:1021B000D0938B00C0938A0074C08091B000806877
:1021C0008093B000C093B3006CC08091B000806277
:1021D0008093B000C093B40064C080919000806888
:1021E00080939000D0939900C09398005AC080913A
:1021F0009000806280939000D0939B00C0939A00DF
:1022000050C080919000886080939000D0939D0092
:10221000C0939C0046C08091A00080688093A0007D
:102220008091A0008F7B8093A000D093A900C093E1
:10223000A80037C08091A00080628093A000D09356
:10224000AB00C093AA002DC08091A000886080934D
:10225000A000D093AD00C093AC0023C080912001BA
:10226000806880932001D0932901C093280119C070
:1022700080912001806280932001D0932B01C09334
:102280002A010FC080912001886080932001D093A3
:102290002D01C0932C0105C0C038D1050CF058CFDA
:1022A00052CFDF91CF911F9108951F920F920FB6D9
:1022B0000F9211242F933F938F939F93AF93BF93CC
:1022C0008091360590913705A0913805B091390578
:1022D0003091350523E0230F2D3720F40196A11D01
:1022E000B11D05C026E8230F0296A11DB11D209344
:1022F00035058093360590933705A0933805B09344
:10230000390580913A0590913B05A0913C05B0912B
:102310003D050196A11DB11D80933A0590933B05A3
:10232000A0933C05B0933D05BF91AF919F918F91D4
:102330003F912F910F900FBE0F901F9018952FB7C0
:10234000F894609136057091370580913805909129
:1023500039052FBF08953FB7F89480913A059091C1
:102360003B05A0913C05B0913D0526B5A89B05C055
:102370002F3F19F00196A11DB11D3FBF6627782F91
:10238000892F9A2F620F711D811D911D42E0660FEA
:10239000771F881F991F4A95D1F70895CF92DF9232
:1023A000EF92FF92CF93DF936B017C010E94AB1100
:1023B000EB01C114D104E104F10479F00E94AB11E6
:1023C0006C1B7D0B683E7340A0F381E0C81AD108F6
:1023D000E108F108C851DC4FECCFDF91CF91FF90BD
:1023E000EF90DF90CF9008950197009739F0880F14
:1023F000991F880F991F02970197F1F70895789414
:1024000084B5826084BD84B5816084BD85B58260F9
:1024100085BD85B5816085BDEEE6F0E08081816097
:102420008083E1E8F0E01082808182608083808197
:1024300081608083E0E8F0E0808181608083E1EB6F
:10244000F0E0808184608083E0EBF0E08081816057
:102450008083E1E9F0E08081826080838081816017
:102460008083E0E9F0E0808181608083E1EAF0E050
:10247000808182608083808181608083E0EAF0E0F7
:10248000808181608083E1E2F1E0808182608083ED
:10249000808181608083E0E2F1E0808181608083DF
:1024A000EAE7F0E0808184608083808182608083BD
:1024B0008081816080838081806880831092C100E8
:1024C0000895FC0124853585F901E05CFF4F80818A
:1024D0009181F901EE5BFF4F20813181821B930BCB
:1024E0008F7399270895FC0184859585FC01E05C34
:1024F000FF4F40815181FC01EE5BFF4F2081318114
:102500004217530741F00190F081E02DE80FF91FC9
:10251000808190E008958FEF9FEF0895FC018485FE
:102520009585FC01E05CFF4F40815181FC01EE5B31
:10253000FF4F208131814217530779F0A081B1818B
:10254000A80FB91F8C91208131812F5F3F4F2F73CE
:1025500033273183208390E008958FEF9FEF089514
:10256000FC0181A1882329F0A489B5898C9186FF7B
:10257000FBCF11A20895CF93DF93FC012685378509
:10258000D901A05CBF4F8D919C91119701968F73DB
:102590009927E901CE5BDF4F488159818417950760
:1025A000D9F30D90BC91A02DA20FB31F6C93A685FB
:1025B000B785A05CBF4F11969C938E93A689B7896F
:1025C0002C9181E090E0078C02C0880F991F0A943B
:1025D000E2F7282B2C9381E081A30488F589E02D74
:1025E00080818064808381E090E0DF91CF910895C5
:1025F000FB01E05CFF4F208131812F5F3F4F2F7344
:102600003327DB01AE5BBF4F4D915C91241735073B
:1026100039F0A081B181A60FB71F8C93318320833D
:1026200008951F920F920FB60F9211240BB60F92BE
:102630002F933F934F935F936F937F938F939F93CA
:10264000AF93BF93EF93FF938091C00082FD07C0CB
:102650008091C60062EA77E00E94F81202C0809181
:10266000C600FF91EF91BF91AF919F918F917F91A4
:102670006F915F914F913F912F910F900BBE0F90F3
:102680000FBE0F901F90189508951F920F920FB6CE
:102690000F9211240BB60F922F933F934F935F939A
:1026A0006F937F938F939F93AF93BF93EF93FF931A
:1026B0008091C80082FD07C08091CE006AE177E07A
:1026C0000E94F81202C08091CE00FF91EF91BF915D
:1026D000AF919F918F917F916F915F914F913F91BA
:1026E0002F910F900BBE0F900FBE0F901F9018955B
:1026F00008951F920F920FB60F9211240BB60F92EE
:102700002F933F934F935F936F937F938F939F93F9
:10271000AF93BF93EF93FF938091D00082FD07C0EA
:102720008091D60062E976E00E94F81202C08091A2
:10273000D600FF91EF91BF91AF919F918F917F91C3
:102740006F915F914F913F912F910F900BBE0F9022
:102750000FBE0F901F90189508951F920F920FB6FD
:102760000F9211240BB60F922F933F934F935F93C9
:102770006F937F938F939F93AF93BF93EF93FF9349
:102780008091300182FD07C0809136016AE076E0D9
:102790000E94F81202C080913601FF91EF91BF9123
:1027A000AF919F918F917F916F915F914F913F91E9
:1027B0002F910F900BBE0F900FBE0F901F9018958A
:1027C00084EA95E00E946112892B11F00E94B10405
:1027D00082E895E00E946112892B11F00E94441357
:1027E00080E695E00E946112892B11F00E94781317
:1027F0008EE395E00E946112892B11F00C94AC13CA
:1028000008951F920F920FB60F9211240BB60F92DC
:102810002F933F938F939F93EF93FF9320919E0766
:1028200030919F078091A0079091A1072817390741
:1028300031F48091C1008F7D8093C10014C0E0917C
:10284000A007F091A107E25AF84F20818091A007DC
:102850009091A10701968F7399279093A107809378
:10286000A0072093C600FF91EF919F918F913F9118
:102870002F910F900BBE0F900FBE0F901F901895C9
:102880001F920F920FB60F9211240BB60F922F9337
:102890003F938F939F93EF93FF932091160730916F
:1028A000170780911807909119072817390731F4F5
:1028B0008091C9008F7D8093C90014C0E0911807F2
:1028C000F0911907EA52F94F2081809118079091F1
:1028D000190701968F73992790931907809318070A
:1028E0002093CE00FF91EF919F918F913F912F9177
:1028F0000F900BBE0F900FBE0F901F9018951F9258
:102900000F920FB60F9211240BB60F922F933F9395
:102910008F939F93EF93FF9320918E0630918F06B4
:1029200080919006909191062817390731F4809193
:10293000D1008F7D8093D10014C0E0919006F0917A
:102940009106E25BF94F208180919006909191066B
:1029500001968F7399279093910680939006209308
:10296000D600FF91EF919F918F913F912F910F9002
:102970000BBE0F900FBE0F901F9018951F920F92D5
:102980000FB60F9211240BB60F922F933F938F9394
:102990009F93EF93FF932091060630910706809155
:1029A0000806909109062817390731F48091310102
:1029B0008F7D8093310114C0E0910806F0910906E3
:1029C000EA53FA4F208180910806909109060196FA
:1029D0008F739927909309068093080620933601F8
:1029E000FF91EF919F918F913F912F910F900BBE8F
:1029F0000F900FBE0F901F901895CF92DF92EF921D
:102A0000FF92CF93DF93EC016A017B01411581EEC8
:102A1000580761057105F9F0EC89FD8981E090E0C6
:102A200008A002C0880F991F0A94E2F7808360E033
:102A300079E08DE390E0A70196010E94DD16215018
:102A40003109410951095695479537952795211523
:102A500080E1380798F0EC89FD89108260E874E81D
:102A60008EE190E0A70196010E94DD162150310908
:102A7000410951095695479537952795E889F98970
:102A80003083EA89FB89208319A2EE89FF8940817E
:102A900081E090E09C010C8C02C0220F331F0A944D
:102AA000E2F7422B4083EE89FF8940819C010D8C27
:102AB00002C0220F331F0A94E2F7422B4083EE89B3
:102AC000FF8940819C010E8C02C0220F331F0A94A3
:102AD000E2F7422B4083EE89FF8920810F8C02C0F0
:102AE000880F991F0A94E2F7809582238083DF91F3
:102AF000CF91FF90EF90DF90CF900895CF931092F9
:102B0000A7051092A60588EE93E0A0E0B0E08093C0
:102B1000A8059093A905A093AA05B093AB0527E556
:102B200032E03093A5052093A40542EA57E0509384
:102B3000B1054093B0054EE557E05093B30540937F
:102B4000B20545EC50E05093B5054093B40544EC14
:102B500050E05093B7054093B60540EC50E05093D9
:102B6000B9054093B80541EC50E05093BB05409344
:102B7000BA0542EC50E05093BD054093BC0546ECCD
:102B800050E05093BF054093BE05C4E0C093C0051C
:102B9000F3E0F093C105E7E0E093C20575E07093C0
:102BA000C30561E06093C405109285051092840509
:102BB0008093860590938705A0938805B093890537
:102BC00030938305209382054AE157E050938F05A7
:102BD00040938E0546ED56E0509391054093900545
:102BE0004DEC50E050939305409392054CEC50E02F
:102BF000509395054093940548EC50E05093970509
:102C00004093960549EC50E0509399054093980500
:102C10004AEC50E050939B0540939A054EEC50E0EF
:102C200050939D0540939C05C0939E05F0939F058E
:102C3000E093A0057093A1056093A205109263052F
:102C4000109262058093640590936505A0936605D4
:102C5000B0936705309361052093600542E956E023
:102C600050936D0540936C054EE456E050936F050C
:102C700040936E0545ED50E050937105409370050B
:102C800044ED50E0509373054093720540ED50E0E1
:102C9000509375054093740541ED50E050937705CE
:102CA0004093760542ED50E05093790540937805C6
:102CB00046ED50E050937B0540937A05C0937C0528
:102CC000F0937D05E0937E0570937F05609380050A
:102CD0001092410510924005809342059093430560
:102CE000A0934405B093450530933F0520933E05DE
:102CF0008AE096E090934B0580934A0586EC95E038
:102D000090934D0580934C0585E391E090934F059A
:102D100080934E0584E391E0909351058093500594
:102D200080E391E0909353058093520581E391E015
:102D3000909355058093540582E391E09093570555
:102D40008093560586E391E090935905809358054A
:102D5000C0935A05F0935B05E0935C0570935D05A5
:102D600060935E05CF9108950895CF92DF92EF9220
:102D7000FF920F931F93CF93DF936C017A01EB01C6
:102D8000E60EF71E00E010E0CE15DF0561F0699158
:102D9000D601ED91FC910190F081E02DC6011995CD
:102DA000080F191FF1CFC801DF91CF911F910F912B
:102DB000FF90EF90DF90CF900895A1E21A2EAA1B0A
:102DC000BB1BFD010DC0AA1FBB1FEE1FFF1FA217DB
:102DD000B307E407F50720F0A21BB30BE40BF50BD8
:102DE000661F771F881F991F1A9469F76095709561
:102DF000809590959B01AC01BD01CF010895EE0F28
:102E0000FF1F0590F491E02D19940790F691E02DA5
:102E10001994FB01DC0105900D920020E1F7089563
:102E2000FC0105900020E9F7809590958E0F9F1F7B
:102E30000895DC01CB01FC01F999FECF06C0F2BD7B
:102E4000E1BDF89A319600B40D9241505040B8F768
:102E50000895DC01A40FB51F4150504048F0CB014C
:102E6000840F951F2E910E943A1741505040D0F781
:102E70000895262FF999FECF92BD81BDF89A01974A
:102E800000B4021639F01FBA20BD0FB6F894FA9AB2
:0A2E9000F99A0FBE0895F894FFCFE1
:102E9A000000EA0720000100000000B4160000004C
:102EAA0000B41600000000B416000000007602B458
:102EBA0016000000007602FC08000000007B02C435
:102ECA0004000000005B02FEFF00006502FCFF0038
:102EDA0000680200000000CC0B9F0B450B4D0B60F5
:102EEA000B6F0B00000000BB12B51661128E127335
:042EFA0012B0120000
:00000001FF
