:100000000C94B7000C94DF000C94DF000C94DF001C
:100010000C94DF000C94DF000C94DF000C94DF00E4
:100020000C94DF000C94DF000C94DF000C94DF00D4
:100030000C94DF000C94DF000C94DF000C94DF00C4
:100040000C944A0F0C94DF000C94C6100C94091108
:100050000C94DF000C94DF000C94DF000C94DF00A4
:100060000C9499080C94DF001F0C330C490C650CA0
:10007000890CB70CD60C0D0DB40B470DDE0B010C23
:10008000680D820D090C0D0C270C3D0C590C770CDA
:10009000AB0CCA0CF20D260D3B0D470DF50B5C0D9C
:1000A0008D0D687474703A2F2F6769746875622EAD
:1000B000636F6D2F776865656C65722D6D6963720E
:1000C0006F666C7569646963732F626173655F6ED7
:1000D0006F64655F7270632E67697400302E313112
:1000E0002E706F7374313300576865656C657220CC
:1000F0004C616200626173655F6E6F64655F727010
:100100006300302E31312E706F7374313300000074
:1001100000070002010000030406000000000000C8
:100120000000010204081020408001020408102091
:10013000010204081020040404040404040402025C
:100140000202020203030303030300000000230072
:100150002600290000000000250028002B000000D8
:100160000000240027002A004802DE0AC5111124DD
:100170001FBECFEFD8E0DEBFCDBF11E0A0E0B1E001
:10018000E0E6F5E202C005900D92A436B107D9F77A
:1001900014E0A4E6B1E001C01D92A431B107E1F77B
:1001A00011E0CEE6D1E004C02297FE010E94681261
:1001B000C836D107C9F70E9474070C94AE120C948C
:1001C000000040E850E060E070E0BC016D547F4FFB
:1001D000CB01BA01089502970C94E10004970C94A6
:1001E000E100E0911402F09115020280F381E02D0C
:1001F000BC0184E192E00994FC01828193810C941A
:10020000FB0ACF93DF93EC010E94FC001C82DF917C
:10021000CF9108950F931F93CF93DF938C01EB0140
:10022000BC01CE010E946C12C8010E947312AC0185
:10023000BE01CB01BA01DF91CF911F910F910895BB
:100240000F931F93CF93DF93EC011A86198600E07A
:1002500010E02B813C8189859A850217130760F491
:10026000EF81F885E00FF11F60810E94E20A9A8712
:1002700089870F5F1F4FEDCF0E94FA0A9A878987FF
:10028000DF91CF911F910F91089540E052EC61E012
:1002900070E086E693E00E9444118CE08093B80001
:1002A00061EF70E087E093E00C94D90ADC01ED91F6
:1002B000FC910280F381E02D41E050E009940F931E
:1002C0001F93CF93DF93EC018B01E881F9816F5F7E
:1002D0007F4F0280F381E02D41E050E00995E881F5
:1002E000F9810280F381E02D41E050E0B801CE01B8
:1002F000DF91CF911F910F910994FC01E95AFF4FB3
:100300000190F081E02D2189222359F08B5A9F4FD3
:10031000DC01ED91FC910190F081E02D099580E0E8
:10032000089580890895FC01E15BFF4F0190F08101
:10033000E02D2189222331F0835B9F4F0E94010130
:1003400080E00895808908950F931F93CF93DF93E2
:10035000EC018B01E881F9816F5F7F4F0280F381AF
:10036000E02D41E050E00995E881F9810280F381B8
:10037000E02D41E050E0B801CE01DF91CF911F9117
:100380000F910994EF92FF920F931F93CF93DF93F6
:10039000CDB7DEB762970FB6F894DEBF0FBECDBF04
:1003A0007C012A8B8FEF9FEF9B878A871A830983B3
:1003B0002B835F834E83798768875D834C83CE016F
:1003C00001960E9420018CE79CE7ACE7B0E08C87A7
:1003D0009D87AE87BF87D7018D919C91DC01ED9100
:1003E000FC910280F381E02D43E050E0BE01645FA8
:1003F0007F4F0995BE016F5F7F4FF701808191812B
:100400000E94A401D7018D919C91DC01ED91FC919A
:100410000280F381E02D41E050E0BE016E5E7F4F2F
:1004200009958B81843611F0833729F58C819D8164
:10043000998B888BBE01605F7F4FD7018D919C9116
:100440000E94A4014C815D814115510561F0F701C5
:1004500080819181DC01ED91FC9168857985028034
:10046000F381E02D0995BE01665F7F4FF701808122
:1004700091810E94A40162960FB6F894DEBF0FBE70
:10048000CDBFDF91CF911F910F91FF90EF90089515
:100490006F927F928F929F92AF92BF92CF92DF9294
:1004A000EF92FF920F931F93CF93DF93C6E6D1E0B5
:1004B0008BE091E09983888388E6E82E81E0F82E2E
:1004C00081E191E0D7018D939C930AE611E087E1E9
:1004D00091E0F80191838083E4E9F1E011821082D8
:1004E00010929601109298011092970166246A94D6
:1004F000762C70929E0160929D0188E290E090932C
:100500009A01809399018CE691E090939C018093ED
:100510009B012FE9A22E21E0B22ED5011C92109250
:10052000A0011092AC011092AB011092AE0110929A
:10053000AD011092B2011092B1011092C00110925F
:10054000BF01F093B401E093B301C5010E94FB0A1F
:1005500031ECC32E31E0D32E4DE1842E41E0942EB8
:10056000F60191828082B092C401A092C301C601BB
:100570000E94FC0085E291E0D6018D939C9386E673
:1005800093E09093C6018093C501E7EEF1E01182FC
:1005900010821092E9011092EB011092EA01709220
:1005A000F1016092F00180E290E09093ED01809380
:1005B000EC0187EC91E09093EF018093EE0152EF14
:1005C000A52E51E0B52ED5011C921092F301109288
:1005D000FF011092FE01109201021092000210928F
:1005E0000502109204021092130210921202F0936C
:1005F0000702E0930602C5010E94FB0A64E1C62ED1
:1006000062E0D62EF60191828082B0921702A0920B
:100610001602C6010E94FC008DE291E0D6018D9386
:100620009C9310921802C6010E94010185E391E09B
:10063000998388838BE391E0F7019183808381E440
:1006400091E0D8018D939C93D0936501C093640190
:10065000DF91CF911F910F91FF90EF90DF90CF909E
:10066000BF90AF909F908F907F906F900895CF93A1
:10067000DF93E091C101F091C201C281D38186E68E
:1006800093E00E942F10BC0181EC91E0FE01DF910C
:10069000CF910994BF92CF92DF92EF92FF920F9386
:1006A0001F93CF93DF931F92CDB7DEB78C017B01F1
:1006B00087E093E00E94CE09B82E81E0E81AF108A5
:1006C000F8018481811101C0B482C12CD12CCE14D7
:1006D000DF04A4F487E093E00E94CE098983F80147
:1006E0008481B81207C0BE016F5F7F4F8281938102
:1006F0000E941A0BFFEFCF1ADF0AE9CF0F90DF91AC
:10070000CF911F910F91FF90EF90DF90CF90BF900E
:100710000895EF92FF920F931F93CF93DF93CDB77E
:10072000DEB763970FB6F894DEBF0FBECDBF8C0166
:100730002B8B1A8219828FEF9FEF9B878A872B83DF
:100740005F834E83798768875D834C83CE010196F2
:100750000E9420018CE79CE7ACE7B0E08C879D8786
:10076000AE87BF878091BA0086958A8BF801608139
:1007700087E093E00E94B90ABE016E5E7F4F87E07A
:1007800093E00E94560143E050E0BE01645F7F4F5A
:1007900087E093E00E94200ABE016F5F7F4F87E0F1
:1007A00093E00E945F01BE016D5E7F4F87E093E0A2
:1007B0000E9456018C819D81998B888BBE01605F60
:1007C0007F4F87E093E00E945F0187E093E00E9403
:1007D000D60AEC80FD80E114F10461F1F0E2EF163D
:1007E000F10418F07FE1E72EF12CF801608187E039
:1007F00093E00E94B90ABE016E5E7F4F87E093E0EE
:100800000E94560168857985A70187E093E00E94E0
:10081000200A87E093E00E94D60A888599858E0D8C
:100820009F1D998788878C819D818E199F099D8343
:100830008C83CFCFF801608187E093E00E94B90AF2
:10084000BE016E5E7F4F87E093E00E945601BE01BD
:10085000665F7F4F87E093E00E945F0187E093E04F
:100860000E94D60A63960FB6F894DEBF0FBECDBFC6
:10087000DF91CF911F910F91FF90EF9008958F928C
:100880009F92AF92BF92CF92DF92EF92FF920F931F
:100890001F93CF93DF9300D000D0CDB7DEB7DC013C
:1008A000FB0169012081203209F45DC108F055C0C7
:1008B000283009F408C110F5233009F4D1C090F4B0
:1008C0008D919C91213009F4B1C008F0BEC0DC01CB
:1008D000ED91FC910190F081E02D0995BC0182E041
:1008E00091E0AEC0253009F4D5C008F4C6C026306A
:1008F00009F4D8C0273009F4DEC057C22D3009F4FE
:1009000009C180F42A3009F4FCC008F4E7C02B3098
:1009100009F4FCC02C3009F048C2628181810E9438
:100920006F0E48C22F3009F4FFC008F4F7C0203121
:1009300009F406C1213109F038C29B012F5F3F4FF6
:1009400083819481820F931F948383838181928119
:10095000A381B4818C016D012FC2263609F46FC1C9
:10096000D8F5213609F422C128F5213409F400C153
:10097000A8F4203409F019C29B012F5F3F4F8581F5
:100980009681820F931F9683858361817281438153
:100990005481F8940E948C1278940CC2223409F489
:1009A00000C1203609F001C2618187E093E00E9416
:1009B000960A00C2233609F403C108F4FBC02436AA
:1009C00009F433C1253609F0F0C187E093E00E94B5
:1009D000CE09F60180833BC1203809F48AC178F43E
:1009E000283609F466C108F435C1293609F47BC1FB
:1009F0002A3609F0DAC18091BA008E7F77C1223899
:100A000009F4C2C108F481C1203A09F4C4C1213AF1
:100A100009F0CBC140E052EC61E070E086E693E083
:100A20000E9444118CE08093B800C4C1DC01ED91B8
:100A3000FC910190F081E02D0995BC0184EF90E0DC
:100A40000E940A018B016C01B7C1DC01ED91FC91A0
:100A50000190F081E02D0995BC0188EE90E0F0CF87
:100A60008D919C91DC01ED91FC910190F081E02D44
:100A70000995BC018CED90E0E3CF8D919C91DC0158
:100A8000ED91FC910190F081E02D0995BC0182EA85
:100A900090E0D6CF0E94A00FF6016083718382831D
:100AA000938330C10E94940FD6016D937D938D93F3
:100AB0009C93139727C181819281009709F47AC191
:100AC0000E94E90F77C1618172816115710509F496
:100AD00071C180E090E00E94C30F6CC120911004AE
:100AE000309111048DB79EB72115310519F4845149
:100AF000944002C0821B930BAA2797FDA095BA2FA2
:100B0000FCC0628181810E94360E54C181810E94A5
:100B1000A50E9BC081810E94CE0E4EC0628170E006
:100B200081810E94EB0E46C19B012F5F3F4F838165
:100B30009481820F931F948383838181928179C0F2
:100B40009B012F5F3F4F83819481820F931F94837A
:100B5000838301811281238134816901000F111F78
:100B6000000F111F29C181E290E0A0E0B0E0C5C0F4
:100B700003811481E180F2808D919C91DC011296B9
:100B8000ED91FC9113970190F081E02D029609956B
:100B9000DC01CB016D01A801B701CD010E947C12DF
:100BA0000BC18FEF93E0A0E0B0E0A7C08091BA0046
:100BB00086954BC080E290E0F601918380833CC033
:100BC0008D919C91DC011496ED91FC91159701900B
:100BD000F081E02D049609957B016C01E8E09E2EE2
:100BE00000E010E00E151F0508F0E6C0692D87E053
:100BF00093E00E94B90A87E093E00E94D60A81112F
:100C00000FC05801BFEFAB1ABB0AF601E00FF11F8E
:100C1000908261E070E080E090E00E94C30F850167
:100C20009394E8E79E12DECFC7C087E093E00E946E
:100C3000C609D6018D939C9302E010E0BDC04281AD
:100C4000618187E093E00E94B60AD6018C9301E0AF
:100C500010E0B2C0B280F1808D919C91DC011496BD
:100C6000ED91FC9115970190F081E02D0496099586
:100C7000182F092FC82ED92E4B2D6F2D87E093E00A
:100C80000E94B60AA12EE12EF02E0E2D0A1987E041
:100C900093E00E94C609892B31F087E093E00E941F
:100CA000CE090B1510F010E087C0F70181937F018A
:100CB000ECCFCB01019604811581080F191F158314
:100CC0000483E280F380618187E093E00E94B90AA7
:100CD000A701B80187E093E00E94200A87E093E033
:100CE0000E94D60A67C08091BA0081608093BA00E2
:100CF00061C089E190E0A0E0B0E0F60180839183DB
:100D0000A283B38304E010E057C09B012F5F3F4FE5
:100D100084819581820F931F958384831181CD9067
:100D2000DC9042815381648175817601FEEAEF0E89
:100D3000F11CC70149835A836B837C830E940101A4
:100D4000C6018E549F4FDC011C9324E649815A81D1
:100D50006B817C810E9489030E94940F4B015C018E
:100D600086010F591F4F0E94940F681979098A094B
:100D70009B09683873418105910588F5C8010E9477
:100D8000930181112CC0EFCF8D919C9182559F4F83
:100D90000E9401010FC08D919C91DC01ED91FC91AD
:100DA0000190F081E02D09954DCEC12CD12C0FEF93
:100DB0001FEF02C000E010E0B801C6010F900F90D5
:100DC0000F900F90DF91CF911F910F91FF90EF90B7
:100DD000DF90CF90BF90AF909F908F900895F601D5
:100DE000EF57FF4FC780D08403811481083111056C
:100DF00010F007E110E0C7010E940101DDCF0F9361
:100E00001F93CF93DF93FC01CB01C381D481228157
:100E1000243611F4209759F420E030E04FEF5FEFD3
:100E2000BA01C901DF91CF911F910F910895A78158
:100E3000B0859D0105811681AE01BD010E943F0470
:100E4000AB019C01EDCF0F931F938CE691E00E94C4
:100E50007D01882301F18CE691E00E947D018823C9
:100E6000D1F064E671E084E991E00E94FF06AB01F5
:100E7000BC01CA016115710511F480E090E0AC017C
:100E800000E010E024E685EC91E00E94C20181ECD4
:100E900091E00E94FC0087EC91E00E94930188237E
:100EA00001F187EC91E00E9493018823D1F064E680
:100EB00071E087EE91E00E94FF06AB01BC01CA0120
:100EC0006115710511F480E090E0AC0124E688E141
:100ED00092E00E94890384E192E01F910F910C94AB
:100EE00001011F910F9108950E94F40F0E94450186
:100EF000C0E0D1E10E9423072097E1F30E94001196
:100F0000F9CFCF92DF92EF92FF920F931F93CF937F
:100F1000DF931F92CDB7DEB77C016B0100E010E0DC
:100F20000C151D0584F486E693E00E945C1089830D
:100F3000BE016F5F7F4FF701828193810E941A0B80
:100F40000F5F1F4FEDCF0F90DF91CF911F910F914A
:100F5000FF90EF90DF90CF9008951092060381E00C
:100F6000809304031092030361E082E10E946F0EFC
:100F700061E083E10E946F0EE9EBF0E080818E7FFB
:100F8000808380818D7F808388E48093B80085E4AE
:100F90008093BC000895880F8093BA000895413271
:100FA00008F03FC0909106039111FCCF91E090931F
:100FB0000603209304032FEF209399021092DE0280
:100FC000240F2093DD029093050390910503880F71
:100FD000892B8093050380910303813041F41092A3
:100FE0000303809105038093BB0085EC01C085EE6F
:100FF0008093BC00809106038130E1F38091DE0292
:10100000841710F44091DE022FED32E0FB01D9018C
:101010008A2F821B841718F48D918193F9CF842F26
:10102000089580E008950F93413208F046C09091F2
:1010300006039111FCCF92E0909306030093040302
:101040009FEF909399021092DE024093DD02FB0124
:101050006FED72E0DB019A2F961B941718F49191B3
:101060009D93F9CF1092050390910503880F892B6A
:101070008093050380910303813041F410920303B0
:10108000809105038093BB0085EC01C085EE8093C1
:10109000BC00222321F0809106038230E1F380918D
:1010A00099028F3F61F080919902803251F08091D6
:1010B0009902803341F483E007C081E005C080E0FD
:1010C00003C082E001C084E00F910895613298F47A
:1010D00020910603243089F46093BB02FC018DEB60
:1010E00092E0DC012A2F281B261718F421912D935A
:1010F000F9CF80E0089581E0089582E0089590930B
:1011000000038093FF0208959093020380930103EC
:10111000089585ED8093BC008091BC0084FDFCCFD8
:1011200010920603089585EC8093BC00109206038C
:1011300008951F920F920FB60F9211242F933F9391
:101140004F935F936F937F938F939F93AF93BF93CF
:10115000EF93FF938091B900887F803609F49CC09B
:1011600068F5883209F45BC090F4803109F454C00A
:1011700038F4882309F4F5C0883009F44DC0F5C06F
:10118000883109F44CC0803209F45DC0EEC080346F
:1011900009F468C048F4803309F455C0883309F075
:1011A000E4C080939902A8C0803509F44FC0883507
:1011B00009F45DC0883409F0D8C0D5C0883909F475
:1011C000C6C0A8F4883709F467C038F4883609F433
:1011D00063C0803709F460C0C8C0883809F4B7C05C
:1011E000803909F45FC0803809F0BFC05BC0803B24
:1011F00009F485C038F4803A09F466C0883A09F4E5
:101200007EC0B3C0803C09F4A6C0883C09F4A3C0EA
:10121000883B09F489C0A9C08091050310C0909152
:10122000DE028091DD02981770F5E091DE0281E028
:101230008E0F8093DE02F0E0E152FD4F80818093BB
:10124000BB0085EC85C0809399028DC0E091DE02E1
:1012500081E08E0F8093DE028091BB00F0E0E152CE
:10126000FD4F80839091DE028091DD026DC0E091A0
:10127000DE0281E08E0F8093DE028091BB00F0E001
:10128000E152FD4F80838091040381116CC081E0A5
:101290008093030384EA60C083E080930603109286
:1012A0009A02CFCF80919A02803208F050C0E0912C
:1012B0009A0281E08E0F80939A028091BB00F0E049
:1012C000E556FD4F8083BDCF80919A02803230F485
:1012D000E0919A02F0E0E556FD4F10820E948908E5
:1012E00060919A0270E0E091FF02F09100038BE9B7
:1012F00092E0099510929A020E94930836C084E009
:10130000809306031092BC021092BB02E09101038D
:10131000F091020309958091BB02811105C081E023
:101320008093BB021092BD02E091BC0281E08E0F5F
:101330008093BC02F0E0E354FD4F80818093BB00BA
:101340009091BC028091BB02981708F47ACF85E88F
:101350008093BC000AC085EC8093BC001092060309
:1013600004C0109299020E948908FF91EF91BF91E9
:10137000AF919F918F917F916F915F914F913F912D
:101380002F910F900FBE0F901F90189580913B03E7
:1013900090E020913C03821B9109089520913C0329
:1013A00080913B03281750F4E22FF0E0E35CFC4F00
:1013B000808190E02F5F20933C0308958FEF9FEF93
:1013C0000895E0913C0380913B03E81730F4F0E08E
:1013D000E35CFC4F808190E008958FEF9FEF0895CC
:1013E0000895E0911303F09114033097E1F03091E8
:1013F0003C0320913B033217B0F040E0242F30E053
:101400002617370754F4DC01A20FB31F5C91D901F2
:10141000A35CBC4F5C934F5FF1CF10923C03609391
:101420003B03CB0109940895E0911503F091160355
:10143000309729F010921903109218030994089517
:10144000CF92DF92EF92FF920F931F93CF93DF9390
:101450007C01CB018A0120911703222389F0EB0143
:101460006B01C40ED51ECC15DD0569F06991D7015D
:10147000ED91FC910190F081E02DC7010995F3CF2A
:10148000642F0E946608C801DF91CF911F910F91D0
:10149000FF90EF90DF90CF900895CF93DF931F924E
:1014A000CDB7DEB76983209117032223D1F02091B5
:1014B0001803203240F021E030E0FC013383228326
:1014C00080E090E015C080911903E82FF0E0E65E1F
:1014D000FC4F998190838F5F809319038093180349
:1014E00005C061E0CE0101960E94660881E090E0AF
:1014F0000F90DF91CF910895FC011382128248EE84
:1015000053E060E070E0448355836683778387E42B
:1015100091E091838083089510923C0310923B03E5
:1015200010921903109218030C94AD07CF93DF9318
:10153000EC01862F0E94CB0784E19AE00E94840888
:1015400081EF99E00E947F08CE01DF91CF910C944A
:101550008C0A862F413208F040E26DE373E00E946E
:10156000CF0710923C0380933B03089521E00C9435
:10157000A90A81E08093170360933A03109219033C
:101580001092180308950F93062F21E0409118033D
:101590006AE173E080913A030E94130810921903E4
:1015A00010921803109217030F91089561E00C94A4
:1015B000C30A7093140360931303089587E093E0C4
:1015C0000C947C0A8627682F62956827062E6695FC
:1015D00066956025062E669560256770082E892F12
:1015E000669507946795902D8627069467959025B4
:1015F000862708950895FC01A489B58912961C9246
:10160000129714961C921E9213978FEF9FEF1A96C3
:101610009C938E931997138A128A108A118A1786BF
:10162000168611A210A28CE090E093838283178E1D
:10163000168E0895AF92BF92CF92DF92EF92FF92F3
:101640000F931F93CF93DF931F92CDB7DEB78C011B
:101650006115710581F4CE010196D80115969C9310
:101660008E93149717969C938E93169719969C9326
:101670008E93189707C0FC01758364836F5F7F4F5B
:1016800077836683D80114962D913C911597169611
:101690008D919C9117972817390709F057C071C28F
:1016A000608180E090E00E94E20AF801938B828BD7
:1016B0000488F589E02D0780F085E02DD8011E967D
:1016C0008D919C911F979C012F5F3F4F1F963C93DC
:1016D0002E931E9714962D913C911597D9012C911C
:1016E000E80FF91F2083F8012685378584859585C5
:1016F0002817390709F011C2068CF78DE02DCF01AC
:101700000197D8015F969C938E935E973A96EE0F61
:10171000FF1FE00FF11F8081918113969C938E93A0
:101720001297D8011296ED91FC911397EF30F105C5
:1017300008F454C2F80184819581019695838483CD
:10174000268137818217930709F41BC2D8011296AC
:10175000ED91FC9113973197EE30F10508F0EBC154
:10176000EC5CFF4F0C946612D8015496ED91FC91FD
:101770005597F184E12CF286E18614968D919C9127
:101780001597DC018C919701280F311DC901328713
:101790002187D80152962D913C9153978217930738
:1017A00049F481E050968C9350971E968D919C91B0
:1017B0001F9719C081E0F801818B17C0D8011C96D2
:1017C0008D919C911D975496ED91FC915597258193
:1017D00036812817390718F421E051962C9321E01F
:1017E000D80150962C9394838383F801848195814A
:1017F000019695838483268137818217930709F4A4
:101800009AC1D8011496ED91FC91159780818C377F
:1018100021F0F80113821282F4C1D80114968D913F
:101820009C911597019615969C938E9314971696F6
:101830002D913C9117978217930709F47FC1D80126
:101840001496ED91FC91159780818C3711F7F80172
:1018500084819581019695838483268137818217BF
:10186000930709F46EC1D8011496ED91FC91159778
:1018700080818C3771F650961C92F8018481958195
:10188000019695838483268137818217930709F413
:1018900060C1D8015496ED91FC9155971182108248
:1018A00014968D919C911597DC018C9190E0918319
:1018B0008083F801848195810196958384832681B4
:1018C00037818217930709F447C1D8015496ED91E7
:1018D000FC91559714968D919C911597DC018C91F4
:1018E000B080A12C9501282BC90191838083D80158
:1018F00014968D919C911597019615969C938E93B5
:10190000149716962D913C9117978217930709F417
:1019100026C1D8011496ED91FC91159780818436EB
:10192000A1F068F4813609F074CFD8015496ED9196
:10193000FC915597828381E050968C9356CF8E36DA
:1019400009F493C0833709F064CFD8015496ED9120
:10195000FC9155978283F801848195810196958346
:101960008483268137818217930709F4FBC0D8014D
:1019700091961C921E9290971D961C921E921C97F7
:101980001496ED91FC911597808190E01D969C93A3
:101990008E931C97F80184819581019695838483A9
:1019A000268137818217930709F4DFC0D8011C967E
:1019B000DC901C97C12C1D96DC92CE921C9714963D
:1019C000ED91FC9115978081F601E80FF11DCF0193
:1019D0001D96FC93EE931C975496ED91FC915597B0
:1019E000258136812817390718F481E051968C93A8
:1019F000D8015E96ED91FC915F97CF0101965F96BD
:101A00009C938E935E973B96EE0FFF1FE00FF11FA6
:101A100088E090E0918380834FC0D80152968D91E9
:101A20009C9153970E94FA0AF801938B828B048849
:101A3000F589E02D12861186D80114968D919C911E
:101A40001597DC018C9190E092878187F801848161
:101A50009581019695838483268137818217930728
:101A600009F082CE89E090E089C0D8015496ED91CA
:101A7000FC9155978283F801848195810196958325
:101A80008483268137818217930709F471C0D801B6
:101A900014968D919C911597019615969C938E9313
:101AA000149716962D913C9117978217930709F07A
:101AB00085CE8BE090E062C0F8018481958101962B
:101AC00095838483268137818217930709F453C055
:101AD000D8011F961C921E921E9753961C921E921E
:101AE00052971C968D919C911D971496ED91FC91A7
:101AF0001597892B09F0D4CD31971596FC93EE9369
:101B0000149765C0D8011496ED91FC9115976081EA
:101B100052968D919C915397C6CDF8018481958101
:101B2000019695838483268137818217930751F725
:101B30008EE090E023C08CE090E005C081E090E072
:101B40001DC082E090E0D80113969C938E9312976B
:101B500018C083E090E012C084E090E0F4CF85E00C
:101B600090E00CC086E090E0EECF87E090E006C009
:101B70008AE090E0E8CF8DE090E0E5CFF801938334
:101B80008283D80114968D919C91159718962D916A
:101B90003C91199782179307A1F512962D913C91CC
:101BA00013972D30310569F51F961C921E921E97D2
:101BB00053961C921E9252971C962D913C911D9704
:101BC000232BF9F4019715969C938E9314975E96A8
:101BD000ED91FC915F97CF01019794CDEE5BFF4FA4
:101BE0000C946612F8018481958101969583848313
:101BF000268137818217930709F00FCF88E090E0A4
:101C0000A2CF0F90DF91CF911F910F91FF90EF9096
:101C1000DF90CF90BF90AF900895833081F028F48B
:101C2000813099F08230A1F008958630A9F0873094
:101C3000B9F08430D1F4809180008F7D03C0809111
:101C400080008F7780938000089584B58F7702C0DD
:101C500084B58F7D84BD08958091B0008F7703C0D7
:101C60008091B0008F7D8093B0000895CF93DF9373
:101C700090E0FC01EE5DFE4F2491FC01EA5CFE4F1A
:101C80008491882349F190E0880F991FFC01E25A62
:101C9000FE4FA591B4918C5A9E4FFC01C591D491F1
:101CA0009FB7611108C0F8948C91209582238C9382
:101CB000888182230AC0623051F4F8948C91322FCB
:101CC000309583238C938881822B888304C0F89479
:101CD0008C91822B8C939FBFDF91CF9108950F93AE
:101CE0001F93CF93DF931F92CDB7DEB7282F30E03D
:101CF000F901E25FFE4F8491F901EE5DFE4F149110
:101D0000F901EA5CFE4F04910023C9F0882321F019
:101D100069830E940D0E6981E02FF0E0EE0FFF1F36
:101D2000EC5AFE4FA591B4919FB7F8948C91611134
:101D300003C01095812301C0812B8C939FBF0F900E
:101D4000DF91CF911F910F910895CF93DF93282FAB
:101D500030E0F901E25FFE4F8491F901EE5DFE4F44
:101D6000D491F901EA5CFE4FC491CC2391F081112A
:101D70000E940D0EEC2FF0E0EE0FFF1FE65BFE4F12
:101D8000A591B4912C912D2381E090E021F480E085
:101D900002C080E090E0DF91CF9108958E3008F08E
:101DA0008E5087702091060190E4299F90011124A4
:101DB000822B80937C0080917A00806480937A00EB
:101DC00080917A0086FDFCCF809178002091790087
:101DD00090E0922B08951F93CF93DF93182FEB0180
:101DE00061E00E94360E209711F460E004C0CF3FFE
:101DF000D10539F461E0812FDF91CF911F910C94CF
:101E00006F0EE12FF0E0E25FFE4FE491E330F9F076
:101E100048F4E130B9F0E230A1F584B5806284BDC8
:101E2000C8BD34C0E630E9F0E73019F1E43049F5D7
:101E300080918000806280938000D0938B00C0935B
:101E40008A0024C084B5806884BDC7BD1FC080914E
:101E50008000806880938000D0938900C0938800C0
:101E600015C08091B00080688093B000C093B3002B
:101E70000DC08091B00080628093B000C093B40028
:101E800005C0C038D1050CF0B5CFAFCFDF91CF91F1
:101E90001F9108951F920F920FB60F9211242F9346
:101EA0003F938F939F93AF93BF9380915E039091E5
:101EB0005F03A0916003B091610330915D0323E063
:101EC000230F2D3720F40196A11DB11D05C026E872
:101ED000230F0296A11DB11D20935D0380935E0325
:101EE00090935F03A0936003B093610380916203BA
:101EF00090916303A0916403B09165030196A11DC5
:101F0000B11D8093620390936303A0936403B09325
:101F10006503BF91AF919F918F913F912F910F904A
:101F20000FBE0F901F9018952FB7F89460915E0325
:101F300070915F0380916003909161032FBF0895BA
:101F40003FB7F8948091620390916303A09164037A
:101F5000B091650326B5A89B05C02F3F19F00196E7
:101F6000A11DB11D3FBF6627782F892F9A2F620FC1
:101F7000711D811D911D42E0660F771F881F991FFB
:101F80004A95D1F70895CF92DF92EF92FF92CF93C7
:101F9000DF936B017C010E94A00FEB01C114D104FF
:101FA000E104F10479F00E94A00F6C1B7D0B683EE8
:101FB0007340A0F381E0C81AD108E108F108C851C4
:101FC000DC4FECCFDF91CF91FF90EF90DF90CF907F
:101FD00008950197009739F0880F991F880F991F6E
:101FE00002970197F1F70895789484B5826084BDD3
:101FF00084B5816084BD85B5826085BD85B581600D
:1020000085BDEEE6F0E0808181608083E1E8F0E06C
:102010001082808182608083808181608083E0E89B
:10202000F0E0808181608083E1EBF0E0808184607A
:102030008083E0EBF0E0808181608083EAE7F0E07C
:1020400080818460808380818260808380818160E0
:1020500080838081806880831092C1000895FC0194
:1020600024853585F901E05CFF4F80819181F9017C
:10207000EE5BFF4F20813181821B930B8F73992779
:102080000895FC0184859585FC01E05CFF4F40814B
:102090005181FC01EE5BFF4F2081318142175307D4
:1020A00041F00190F081E02DE80FF91F808190E070
:1020B00008958FEF9FEF0895FC0184859585FC01BD
:1020C000E05CFF4F40815181FC01EE5BFF4F2081BE
:1020D00031814217530779F0A081B181A80FB91F50
:1020E0008C91208131812F5F3F4F2F7333273183B4
:1020F000208390E008958FEF9FEF0895FC0181A168
:10210000882329F0A489B5898C9186FFFBCF11A281
:102110000895CF93DF93FC0126853785D901A05C14
:10212000BF4F8D919C91119701968F739927E9016B
:10213000CE5BDF4F4881598184179507D9F30D9005
:10214000BC91A02DA20FB31F6C93A685B785A05C90
:10215000BF4F11969C938E93A689B7892C9181E0ED
:1021600090E0078C02C0880F991F0A94E2F7282B91
:102170002C9381E081A30488F589E02D808180641F
:10218000808381E090E0DF91CF9108951F920F92BC
:102190000FB60F9211242F933F934F938F939F93DA
:1021A000EF93FF938091C00082FD1CC04091C60058
:1021B00080910C0490910D0401968F7399272091C2
:1021C0000E0430910F048217930771F0E0910C0414
:1021D000F0910D04E453FC4F408390930D048093E1
:1021E0000C0402C08091C600FF91EF919F918F91E6
:1021F0004F913F912F910F900FBE0F901F90189508
:1022000086E693E00E942F10892B11F00C9437037F
:1022100008951F920F920FB60F9211242F933F93A0
:102220008F939F93EF93FF932091C8033091C9033D
:102230008091CA039091CB032817390731F480911C
:10224000C1008F7D8093C10014C0E091CA03F0915A
:10225000CB03E857FC4F20818091CA039091CB03B8
:1022600001968F7399279093CB038093CA03209391
:10227000C600FF91EF919F918F913F912F910F9009
:102280000FBE0F901F901895CF92DF92EF92FF92A2
:10229000CF93DF93EC016A017B01411581EE580772
:1022A00061057105F9F0EC89FD8981E090E008A0F5
:1022B00002C0880F991F0A94E2F7808360E079E0FA
:1022C0008DE390E0A70196010E944412215031094C
:1022D000410951095695479537952795211580E174
:1022E000380798F0EC89FD89108260E874E88EE187
:1022F00090E0A70196010E94441221503109410942
:1023000051095695479537952795E889F98930837E
:10231000EA89FB89208319A2EE89FF89408181E047
:1023200090E09C010C8C02C0220F331F0A94E2F74C
:10233000422B4083EE89FF8940819C010D8C02C0B5
:10234000220F331F0A94E2F7422B4083EE89FF8964
:1023500040819C010E8C02C0220F331F0A94E2F7C9
:10236000422B4083EE89FF8920810F8C02C0880FA9
:10237000991F0A94E2F7809582238083DF91CF91A1
:10238000FF90EF90DF90CF90089510926903109224
:10239000680388EE93E0A0E0B0E080936A03909336
:1023A0006B03A0936C03B0936D0387E591E090936A
:1023B0006703809366038CEC93E0909373038093A0
:1023C000720388E893E0909375038093740385EC1F
:1023D00090E0909377038093760384EC90E0909361
:1023E00079038093780380EC90E090937B03809353
:1023F0007A0381EC90E090937D0380937C0382ECE0
:1024000090E090937F0380937E0386EC90E090931E
:1024100081038093800384E08093820383E0809330
:10242000830387E08093840385E08093850381E0C4
:102430008093860308950895CF92DF92EF92FF92E2
:102440000F931F93CF93DF936C017A01EB01E60E9C
:10245000F71E00E010E0CE15DF0561F06991D601AE
:10246000ED91FC910190F081E02DC6010995080FD6
:10247000191FF1CFC801DF91CF911F910F91FF90EC
:10248000EF90DF90CF900895A1E21A2EAA1BBB1BFC
:10249000FD010DC0AA1FBB1FEE1FFF1FA217B30730
:1024A000E407F50720F0A21BB30BE40BF50B661F46
:1024B000771F881F991F1A9469F76095709580950A
:1024C00090959B01AC01BD01CF010895EE0FFF1F58
:1024D0000590F491E02D0994FB01DC0105900D922B
:1024E0000020E1F70895FC0105900020E9F78095B0
:1024F00090958E0F9F1F0895DC01CB01FC01F99987
:10250000FECF06C0F2BDE1BDF89A319600B40D923F
:1025100041505040B8F70895DC01A40FB51F415059
:10252000504048F0CB01840F951F2E910E949D12C0
:1025300041505040D0F70895262FF999FECF92BD13
:1025400081BDF89A019700B4021639F01FBA20BD78
:102550000FB6F894FA9AF99A0FBE0895F894FFCF3F
:1025600000001404200001000000001B1200000005
:10257000001B12000000001B1200000000FC001BEA
:102580001200000000FC0081070000000001014A69
:102590000300000000E100FEFF0000EB00FCFF0074
:1025A00000EE00000000004D0A200AC609CE09E135
:1025B00009F0090000000089101C122F105C104166
:0425C000107E100079
:00000001FF
