:100000000C94B2000C94DA000C94DA000C94DA0030
:100010000C94DA000C94DA000C94DA000C94DA00F8
:100020000C94DA000C94DA000C94DA000C94DA00E8
:100030000C94DA000C94DA000C94DA000C94DA00D8
:100040000C9406270C94DA000C94702A0C94A22AC3
:100050000C94DA000C94DA000C94DA000C94DA00B8
:100060000C94AC100C94DA003C14501466148214F6
:10007000A614D014EF142615D1136015FB131E140B
:1000800081159B1526142A1444145A1476149414BA
:10009000C414E3140B163F1554156015121475158E
:1000A000A615687474703A2F2F6769746875622E8C
:1000B000636F6D2F776865656C65722D6D6963720E
:1000C0006F666C7569646963732F6F70656E2D64FC
:1000D000726F702E67697400302E322E706F7374D9
:1000E00031360047617564694C616273006F7065F9
:1000F0006E5F64726F7000302E31302E706F7374CB
:10010000313900000000080002010000030407006C
:1001100000000000000000010204081020408001DF
:10012000020408102001020408102004040404043E
:100130000404040202020202020303030303030095
:1001400000000023002600290000000000250028F0
:10015000002B0000000000240027002A00000808EF
:10016000BC0FD22A11241FBECFEFD8E0DEBFCDBF17
:1001700013E0A0E0B1E0EEE6F8E502C005900D92D4
:10018000A23AB107D9F727E0A2EAB3E001C01D9275
:10019000A732B207E1F711E0C4E6D1E004C022972C
:1001A000FE010E948E2BCE35D107C9F70E94690E41
:1001B0000C94352C0C94000040E850E060E070E0B6
:1001C000BC0160577E4FCB01BA01089502970C9491
:1001D000DC0004970C94DC00E0912F05F0913005D1
:1001E0000280F381E02DBC018FE295E00994FC01CF
:1001F0008789908D892B39F0818D928D892B79F4A7
:1002000081E090E002C080E090E0DC01AA0FBB1F1B
:10021000AE0FBF1F58967C936E93579708958FEF3C
:100220000895FC018789908D892B59F0818D928DDD
:10023000892B51F0838D948D892B91F482E090E08D
:1002400005C080E090E002C081E090E0DC01AA0FF0
:10025000BB1FAE0FBF1F58967C936E9357970895A0
:100260008FEF08957F928F929F92AF92BF92CF921D
:10027000DF92EF92FF920F931F93CF93DF937C0156
:10028000EB01942E8C016C0184E0C80ED11C712C02
:10029000812C5701A2E0AA0EB11C9920A1F0F8010F
:1002A0008789908D009779F0DC01ED91FC91D70161
:1002B00056964C9150E00480F581E02D9E01B501E9
:1002C0000995811113C00E5F1F4F0C151D0529F7ED
:1002D000711023C0EA81FB8181818F708730E9F042
:1002E00088248394911019C0812C17C0F801878944
:1002F000908DDC01ED91FC91AA81BB8114962C912B
:1003000030E04C895D89688579850280F381E02D34
:100310000995882E77247394D6CF882DDF91CF91BD
:100320001F910F91FF90EF90DF90CF90BF90AF9013
:100330009F908F907F900895623030F4FC01E60F1B
:10034000F11D428380E008958FEF08957F928F9290
:100350009F92AF92BF92CF92DF92EF92FF920F9354
:100360001F93CF93DF937C01EB01942E8C016C01E2
:1003700086E0C80ED11C712C812C5701A2E0AA0E78
:10038000B11C9920A1F0F8018789908D009779F030
:10039000DC01ED91FC91D70156964C9150E0048020
:1003A000F581E02D9E01B5010995811113C00E5F05
:1003B0001F4F0C151D0529F7711023C0EA81FB8121
:1003C00081818F708730E9F088248394911019C05F
:1003D000812C17C0F8018789908DDC01ED91FC918B
:1003E000AA81BB8114962C9130E04C895D89688587
:1003F00079850280F381E02D0995882E7724739406
:10040000D6CF882DDF91CF911F910F91FF90EF9064
:10041000DF90CF90BF90AF909F908F907F90089586
:10042000623030F4FC01E60FF11D428380E0089554
:100430008FEF0895FC0183819481892B51F081E035
:10044000FB014081518162817381452B462B472BF3
:1004500009F480E00895FC01828193810C941813C3
:10046000CF93DF93EC010E942B021C82DF91CF918E
:1004700008952430310561F4DC01ED91FC91DA013D
:100480002D913D914D915C910680F781E02D09946D
:1004900080E00895CF93DF93FC01452B39F4E90107
:1004A000AA81BB8181E022819C91291380E0DF91A8
:1004B000CF9108952430310561F4DC01ED91FC9178
:1004C000DA012D913D914D915C910680F781E02DEF
:1004D000099480E00895CF93DF93FC01452B39F414
:1004E000E901AA81BB8181E022819C91291380E0EE
:1004F000DF91CF9108950F931F93CF93DF938C01DA
:10050000EB01BC01CE010E94E32BC8010E94EA2B43
:10051000AC01BE01CB01BA01DF91CF911F910F91C8
:100520000895603428E372078105910509F44CC0F1
:1005300030F5603B24E072078105910509F444C061
:1005400060F46C3221E0720781059105E9F16835AC
:10055000724081059105D1F537C0603C22E17207F8
:100560008105910589F1603825E2720781059105C1
:1005700059F1603679408105910541F525C0623118
:100580002AE7720781059105F9F060F461152BE403
:10059000720781059105C1F06038704781059105AA
:1005A000A9F412C0611521EE72078105910561F071
:1005B000611522EC720721E08207910529F061158F
:1005C00076498105910511F481E0089580E0089550
:1005D000FC0183819481892B39F0FB016081718159
:1005E000828193810C94910280E00895CF92DF92F2
:1005F000EF92FF921F93CF93DF93FC01C381D481CD
:100600002097E9F0FB01C080D180E280F380A70150
:1006100096016B8D7C8D8D8D9E8D0E943E2B1816C4
:100620005CF011E028A139A14AA15BA1C701B60184
:100630000E943E2B18160CF410E0812F01C080E0C0
:10064000DF91CF911F91FF90EF90DF90CF900895B1
:10065000CF92DF92EF92FF921F93CF93DF93FC0133
:10066000C381D4812097E1F0FB01C080D180E2807A
:10067000F38020E030E0A901C701B6010E94662B9B
:1006800087FD0BC011E02E893F89488D598DC70128
:10069000B6010E943E2B18160CF410E0812F01C009
:1006A00080E0DF91CF911F91FF90EF90DF90CF908E
:1006B00008950F931F93FC0183819481892BB1F0DE
:1006C000FB0160817181828193818B019C010850C3
:1006D000110921093109003711052105310530F4CF
:1006E00089EB95E00E94740F81E001C080E01F91CA
:1006F0000F91089508950F931F93CF93DF93EC010B
:100700001A86198600E010E02B813C8189859A8544
:100710000217130760F4EF81F885E00FF11F608185
:100720000E94FF129A8789870F5F1F4FEDCF0E94AB
:1007300017139A878987DF91CF911F910F910895A1
:1007400084EA93E00E94A7126CEE70E089EB95E0DA
:100750000C94B70FDC01ED91FC910280F381E02D48
:1007600041E050E009940F931F93CF93DF93EC0186
:100770008B01E881F9816F5F7F4F0280F381E02D6B
:1007800041E050E00995E881F9810280F381E02D94
:1007900041E050E0B801CE01DF91CF911F910F9160
:1007A0000994FC01E158FF4F0190F081E02D21896F
:1007B000222359F083589F4FDC01ED91FC91019069
:1007C000F081E02D099580E0089580890895FC016D
:1007D000E158FF4F0190F081E02D2189222331F073
:1007E00083589F4F0E94300280E0089580890895C9
:1007F0000F931F93CF93DF93EC018B01E881F98175
:100800006F5F7F4F0280F381E02D41E050E009955A
:10081000E881F9810280F381E02D41E050E0B801E8
:10082000CE01DF91CF911F910F9109940F931F93E8
:10083000CF93DF93CDB7DEB762970FB6F894DEBFE4
:100840000FBECDBF8C012A8B1A8219828FEF9FEFCA
:100850009B878A872B835F834E83798768875D8335
:100860004C83CE0101960E947B038CE79CE7ACE7AA
:10087000B0E08C879D87AE87BF87D8018D919C9112
:10088000DC01ED91FC910280F381E02D43E050E02A
:10089000BE01645F7F4F0995BE016F5F7F4FF80116
:1008A000808191810E94F803D8018D919C91DC0197
:1008B000ED91FC910280F381E02D41E050E0BE011A
:1008C0006E5E7F4F09958B81843629F58C819D81E1
:1008D000998B888BBE01605F7F4FF8018081918189
:1008E0000E94F8034C815D814115510561F0D801EA
:1008F0008D919C91DC01ED91FC9168857985028058
:10090000F381E02D0995BE01665F7F4FF80180817C
:1009100091810E94F80362960FB6F894DEBF0FBE75
:10092000CDBFDF91CF911F910F910895CF93DF93AA
:10093000EC011E8A188E1F8A1A8E198E1C8E1B8E31
:1009400081E591E0998388838DE291E09E8F8D8F80
:1009500019A218A282E08F8F89E391E09BA38AA35A
:100960001EA21DA283E08CA385E491E098A78FA32B
:100970001BA61AA681E089A7BE01635E7F4FCE0148
:100980000E941101E881F981BE016E5D7F4F0280F6
:10099000F381E02DCE010995E881F981BE01695D01
:1009A0007F4F0280F381E02DCE01DF91CF9109943A
:1009B0008F929F92AF92BF92CF92DF92EF92FF926F
:1009C0000F931F93CF93DF93EC018BE091E099831A
:1009D000888381E191E09B838A8387E191E09D8315
:1009E0008C83CE0184960E949604FE01E05BFF4F4B
:1009F0001182108213821282349687EB91E09183E8
:100A000080838E01005A1F4FB2961082D8015896EB
:100A10001C921E9257975A961C921E92599781E7E4
:100A200091E08D939C93359689E591E09183808345
:100A30001482138282E08283359685E691E0918369
:100A400080831482138281E08283B801655E7F4FC8
:100A5000C8010E94F700D801ED91FC91B801605ED9
:100A60007F4F0280F381E02DC8010995FE01EB570D
:100A7000FF4F1182108213821282BF978FE991E09B
:100A800094AB83ABEB57FF4F11821082128214821A
:100A9000138288248A94982C9286818640E5A42E1D
:100AA000B12CB682A582CE0185579F4F9087878350
:100AB0000A571F4FD8011C9211961C9211971D9630
:100AC0001C921E921C971F961C921E921E97539664
:100AD0001C921E92529791961C921E929097559638
:100AE000FC93EE935497C8010E9418137E01B8EF4F
:100AF000EB1ABEEFFB0A5DE1C52E51E0D52EF701E2
:100B0000D182C08213830283C7010E942B0285E237
:100B100091E0D7018D939C93FE01E45FFE4F86E840
:100B200096E091838083EE5AFF4F118210821282E9
:100B30001482138292868186B682A582CE01825F5C
:100B40009E4F908787830D571F4FD8011C92119697
:100B50001C9211971D961C921E921C971F961C9218
:100B60001E921E9753961C921E92529791961C921B
:100B70001E9290975596FC93EE935497C8010E944D
:100B800018137E01B5E7EB1ABEEFFB0AF701D1821D
:100B9000C08213830283C7010E942B0289E791E080
:100BA000D7018D939C93FE01E157FE4F1082C70140
:100BB0000E94300281E891E09983888387E891E080
:100BC0009B838A838DE891E09D838C83DF91CF9115
:100BD0001F910F91FF90EF90DF90CF90BF90AF905B
:100BE0009F908F900895EF92FF920F931F93CF9352
:100BF000DF93CDB7DEB72A970FB6F894DEBF0FBEEE
:100C0000CDBF8C01FC01E45BFF4FE080F1803297A7
:100C100040815181B701CE0101960E948621F801E1
:100C2000E25BFF4F60817181A801CE0101960E94B5
:100C30007025882319F02F81388504C0E12CF12C10
:100C400020E030E0B901C7012A960FB6F894DEBF64
:100C50000FBECDBFDF91CF911F910F91FF90EF900D
:100C60000895CF92DF92EF92FF920F93CF93DF938D
:100C7000CDB7DEB728970FB6F894DEBF0FBECDBF55
:100C8000DC01CB016A017901BC01CD010E949719F9
:100C900029833A834B835C836D837E838F8398871C
:100CA000F60160817181A701CE010196002319F040
:100CB0000E94A71F02C00E94231E28960FB6F89418
:100CC000DEBF0FBECDBFDF91CF910F91FF90EF90B0
:100CD000DF90CF900895EF92FF920F93CF93DF9321
:100CE000CDB7DEB7A0970FB6F894DEBF0FBECDBF6D
:100CF0007C01FC01E25BFF4F8081918198A38F8F83
:100D000001E09E012F5F3F4FAE01415E5F4F60E00B
:100D100070E0CB010E9431068EE1FE013196D701D1
:100D200001900D928A95E1F7A0960FB6F894DEBF78
:100D30000FBECDBFDF91CF910F91FF90EF9008953F
:100D4000CF92DF92EF92FF920F931F93CF93DF9397
:100D5000CDB7DEB769970FB6F894DEBF0FBECDBF33
:100D60008C017B016901CE0101960E942616882321
:100D700009F4ADC0A601B701CE010D960E9426165A
:100D8000882309F4A4C0EB81FC812181822F807C1F
:100D900009F092C02073203131F4EB85FC8580810D
:100DA000882339F00CC0203221F4EB85FC85C0800B
:100DB00008C0CC24C394222321F0C12C02C0CC242F
:100DC000C394D801ED91FC910190F081E02D4C2D60
:100DD000BE016F5F7F4FC801298F09958823D9F025
:100DE000EB81FC81448150E069857A858D899E89FB
:100DF0000E94F32B298D203131F4EB85FC85808115
:100E0000EF89F88D07C0203231F4EF89F88DAB857A
:100E1000BC858C918083CC2009F44EC0AB81BC8111
:100E200011968C9111978F70873009F045C0EB8532
:100E3000FC858081EF89F88D8083F8012689822FD7
:100E400090E0FC013196EE0FFF1FEE0FFF1FE00F49
:100E5000F11FB183A083FC01EE0FFF1FEE0FFF1FF8
:100E6000E00FF11F89819A81938382832F5FD801DC
:100E700056962C93E12CF12CD12CEC14FD04C4F4E7
:100E8000EB81FC8184818E9D802D112490E02D8941
:100E90003E89280F391F49855A85480F591F668199
:100EA0007781C8010E94A006BFEFEB1AFB0AE5CFCD
:100EB000F80186898150868BCE0101960E944616E4
:100EC000882329F0CE010D960E94461659CF6996C7
:100ED0000FB6F894DEBF0FBECDBFDF91CF911F914B
:100EE0000F91FF90EF90DF90CF9008954F925F9217
:100EF0006F927F928F929F92AF92BF92CF92DF922A
:100F0000EF92FF920F931F93CF93DF93CDB7DEB78E
:100F1000A0970FB6F894DEBF0FBECDBF7C016C0169
:100F20008EE4C80ED11CF701E65BFF4F80809180F4
:100F30005701ECE4AE0EB11CF5010081118142E0D5
:100F400050E060E070E0CE0101960E94032C4981E0
:100F50005A818416950640F062E070E0C8010E9454
:100F6000032C89819A8104C000E010E080E090E0C9
:100F70000115110521F4C7010E946B060BC02C015D
:100F8000380100E09701A601C301B2010E943106B9
:100F9000882389F3F501A080B180F60180819181D9
:100FA00098A38F8F01E09E012F5F3F4FAE01415EFE
:100FB0005F4F60E070E0CB010E9431068EE1FE01E0
:100FC0003196D50101900D928A95E1F7F601608185
:100FD0007181F70114AA9501A701C7014E960E94DD
:100FE000A006A0960FB6F894DEBF0FBECDBFDF916E
:100FF000CF911F910F91FF90EF90DF90CF90BF9016
:10100000AF909F908F907F906F905F904F900895DA
:1010100084EA93E00E94D80484EA93E09093A303C7
:101020008093A2030895CF93DF93E091AC04F091F5
:10103000AD04C281D38186E896E00E942B29BC01D1
:101040008CEA94E0FE01DF91CF910994BF92CF9298
:10105000DF92EF92FF920F931F93CF93DF931F9234
:10106000CDB7DEB78C017B0189EB95E00E94AC0E19
:10107000B82E81E0E81AF108F8018481811101C0DD
:10108000B482C12CD12CCE14DF04A4F489EB95E0FA
:101090000E94AC0E8983F8018481B81207C0BE019A
:1010A0006F5F7F4F828193810E943713FFEFCF1ACA
:1010B000DF0AE9CF0F90DF91CF911F910F91FF9041
:1010C000EF90DF90CF90BF900895EF92FF920F9333
:1010D0001F93CF93DF93CDB7DEB763970FB6F89426
:1010E000DEBF0FBECDBF8C012B8B1A8219828FEF12
:1010F0009FEF9B878A872B835F834E8379876887DF
:101100005D834C83CE0101960E947B038CE79CE7B4
:10111000ACE7B0E08C879D87AE87BF878091BA002F
:1011200086958A8BF801608189EB95E00E94970F84
:10113000BE016E5E7F4F89EB95E00E94AA0343E0FB
:1011400050E0BE01645F7F4F89EB95E00E94FE0E88
:10115000BE016F5F7F4F89EB95E00E94B303BE0134
:101160006D5E7F4F89EB95E00E94AA038C819D8183
:10117000998B888BBE01605F7F4F89EB95E00E9461
:10118000B30389EB95E00E94B40FEC80FD80E1147D
:10119000F10461F1F0E2EF16F10418F0EFE1EE2E48
:1011A000F12CF801608189EB95E00E94970FBE0158
:1011B0006E5E7F4F89EB95E00E94AA036885798572
:1011C000A70189EB95E00E94FE0E89EB95E00E9455
:1011D000B40F888599858E0D9F1D998788878C818E
:1011E0009D818E199F099D838C83CFCFF8016081EB
:1011F00089EB95E00E94970FBE016E5E7F4F89EBF1
:1012000095E00E94AA03BE01665F7F4F89EB95E0DF
:101210000E94B30389EB95E00E94B40F63960FB66A
:10122000F894DEBF0FBECDBFDF91CF911F910F911C
:10123000FF90EF9008954F925F926F927F928F92FE
:101240009F92AF92BF92EF92FF920F931F93CF9313
:10125000DF93CDB7DEB766970FB6F894DEBF0FBE4B
:10126000CDBFFC01DB0179018C91853609F44AC2BE
:1012700008F07BC08C3009F481C108F03FC0853094
:1012800009F432C150F5823009F410C198F4882372
:1012900009F4FFC0813009F081C480819181DC01B3
:1012A000ED91FC910190F081E02D0995BC018DEE4E
:1012B00090E008C1833009F40AC1843009F06EC49B
:1012C00080819181DC01ED91FC910190F081E02D14
:1012D0000995BC0182EA90E0F5C0883009F421C18B
:1012E00038F4863009F408C1873009F410C156C4B7
:1012F0008A3009F436C108F421C13BC1803409F4B5
:101300008BC1E0F48F3009F446C178F48D3009F4D4
:101310003DC18E3009F042C412966C91129770E074
:1013200011968C910E9409283EC4813109F45EC156
:1013300008F443C1803209F432C230C4813609F462
:101340009FC158F4813409F47EC1823409F026C467
:101350008FEF93E0A0E0B0E026C2833609F498C195
:1013600008F0CBC180E290E08FC1853A09F4CDC28C
:1013700008F052C0813809F41CC290F5883609F48F
:10138000E3C128F5863609F4C2C1873609F006C4E0
:1013900012961C9112971196BC9080819181DC016C
:1013A0001496ED91FC9115970190F081E02D049633
:1013B0000995082F992EE82EF92E412F6B2D89EBD8
:1013C00095E00E94940F802EA02EB92CB3C18A36CE
:1013D00009F4DFC108F4D9C1803809F4E0C1DEC3E3
:1013E000813A09F438C260F4823809F42DC2803A97
:1013F00009F0D4C38081918106960E947607D3C3F9
:10140000A080B180833A09F445C208F048C2C50102
:1014100006960E946B06C7C3813E09F436C3E8F402
:10142000803C09F4A3C238F4863A09F47DC2873AB5
:1014300009F485C2B3C3823C09F4E3C208F4BEC216
:10144000803E09F0ABC380819181DC01ED91FC917C
:101450000190F081E02D099537C0843E09F421C345
:1014600078F4823E09F416C3833E09F097C3E08006
:10147000F180B0EFEB1ABDEFFB0A05E010E095C379
:10148000863E09F441C308F437C3873E09F45EC3BE
:1014900085C380819181DC01ED91FC910190F08107
:1014A000E02D0995BC0187EF90E00CC0808191810F
:1014B000DC01ED91FC910190F081E02D0995BC01DA
:1014C00083EE90E00E947B028B017C016EC38081E1
:1014D0009181DC01ED91FC910190F081E02D099565
:1014E000BC0188ED90E0EECF0E945C27F70160839D
:1014F00071838283938308C00E945027D7016D9324
:101500007D938D939C93139704E010E04EC3119646
:101510008D919C911297009709F445C30E94A727CB
:1015200042C311966D917C9112976115710509F472
:101530003AC380E090E00E947F2735C320912307C3
:10154000309124078DB79EB72115310519F48752C4
:10155000974002C0821B930BAA2797FDA095BA2F34
:1015600022C112966C91129711968C910E9491282B
:101570001AC311968C910E940029DEC112966C91BB
:10158000129711968C910E94CA280DC311968C91C6
:101590000E94EC2779C09B012F5F3F4F13968D91DE
:1015A0009C911497820F931F14969C938E9313977C
:1015B00011968D919C911297A1C29B012F5F3F4F75
:1015C00013968D919C911497820F931F14969C9360
:1015D0008E93139711960D911D912D913C91149717
:1015E0007901000F111F000F111FDFC29B012F5F38
:1015F0003F4F13968D919C911497820F931F1496D1
:101600009C938E93139711968D919D910D90BC9103
:10161000A02D8C017D01C9C29B012F5F3F4F159604
:101620008D919C911697820F931F16969C938E9383
:10163000159711966D917C91129713964D915C912F
:101640001497F89423C113960D911C911497119639
:10165000AD90BC90129780819181DC011296ED9142
:10166000FC9113970190F081E02D02960995DC0121
:10167000CB017D01A801B501CD010E94032C95C2CB
:101680008091BA00869558C1F7019183808339C251
:1016900080819181DC011496ED91FC911597019068
:1016A000F081E02D049609955B017C01F8E07F2E26
:1016B00000E010E00A151B0508F077C2672D89EBE2
:1016C00095E00E94970F89EB95E00E94B40F81117D
:1016D0000FC04801BFEF8B1A9B0AF701E00FF11F03
:1016E000708261E070E080E090E00E947F278401DA
:1016F0007394E8E77E12DECF58C289EB95E00E9432
:10170000A40EFCC189EB95E00E94AC0EF2C11296CA
:101710004C91129711966C9189EB95E00E94940F71
:101720000BC189EB95E00E94AC0E011758F4F5014E
:1017300081935F010A2D081989EB95E00E94A40EA0
:10174000892B79F710E031C2CB01019614960D91E7
:101750001C911597080F191F15961C930E9314973B
:101760001296AD90BC90139711966C9189EB95E011
:101770000E94970FA501B80189EB95E00E94FE0E2B
:1017800089EB95E00E94B40F0EC28091BA0081608F
:1017900003C08091BA008E7F8093BA0004C289E4AE
:1017A00090E0A0E0B0E0F70180839183A283B3834F
:1017B000ABCE9B012F5F3F4F14968D919C91159757
:1017C000820F931F15969C938E9314971196FC90FD
:1017D00011970081118112964D915D916D917C91CF
:1017E00015975801F5E7AF1AFEEFBF0AC5014B8BFD
:1017F0005C8B6D8B7E8B0E943002C80181579E4F9F
:10180000DC01FC9224E64B895C896D897E890E940B
:1018100065080E9450272B013C017801B2EFEB1ABA
:10182000BEEFFB0A0E9450276419750986099709C3
:10183000683873418105910508F0CEC1C7010E9447
:10184000E7038111C9C1EECF8081918185579E4FF9
:101850000E943002A8C18081918106960E94F30502
:10186000009709F4A0C16B877C878D879E87F894C9
:1018700042E050E060E070E0CE010B960E94132C35
:101880004B855C8562E070E08D859E850E94132CFF
:10189000789489C1C50106960E94F30515CE9B0177
:1018A0002F5F3F4F13968D919C911497820F931F3A
:1018B00014969C938E93139711966D917D918D91B3
:1018C0009C911497F501EE5AFF4F8080918025017D
:1018D000F6E04F0E511C350124E5620E711C01E04B
:1018E0009401A3010E943106182F882359F0D301D7
:1018F0006D917C91F50112AE9201A401C50184960F
:101900000E94A006D7011C9346C121E011968D913B
:101910009D910D90BC91A02D892B8A2B8B2B09F4C6
:1019200020E0F701208337C111966D917D918D9153
:101930009C9114970E949102D7018C932CC111960F
:101940006D917D918D919C9114978B019C01085014
:10195000110921093109003711052105310508F068
:10196000C5C089EB95E00E94740FC2C0008111814F
:101970000A5A1F4FD801D396AD90BC90D49760E01F
:1019800070E080E090E00E9497192B873C874D879C
:101990005E876F87788B898B9A8BAE014F5F5F4F25
:1019A000B501CE010B960E94A71F8AE0FE01319679
:1019B000D80101900D928A95E1F7F5C0008111815F
:1019C000F801E957FF4FE080F18032974081518163
:1019D000B701CE0101960E948621A8014A5A5F4FA5
:1019E000F801E757FF4F60817181CE0101960E9497
:1019F0007025882319F00F811885D7C0E12CF12CB0
:101A0000D2C09B012F5F3F4F13964D915C9114976D
:101A1000420F531F14965C934E931397A080B1808E
:101A200011966D917D918D919C91149785010A5A23
:101A30001F4FF80181A892A8CA010E949719298313
:101A40003A834B835C836D837E838F839887F50114
:101A5000E757FF4F60817181A401CE0101960E947A
:101A6000A71F782E882309F494C0D801D3966D91CE
:101A70007C91D497F501EA58FF4F10829801A40198
:101A8000C8010A960E94A00684C0808191810E94AC
:101A9000A71289C011966C91808191810E94D91101
:101AA00082C09B012F5F3F4F13968D919C9114979D
:101AB000820F931F14969C938E93139720813181EC
:101AC00011964D915C9112974530510579F4FC01C6
:101AD00080E090E04191D901A80FB91FA05FBD4FF0
:101AE0004C93019685309105A9F702C080E001C0B2
:101AF00081E0F70180834FC088E290E0D7018D93A9
:101B00009C9302E010E051C015968D909D90AD9091
:101B1000BC9018970081118120E030E0A901C50137
:101B2000B4010E94662B87FD0DC077247394F801E1
:101B300026893789408D518DC501B4010E943E2B05
:101B400018160CF4712CD7017C9225C011968D903B
:101B50009D90AD90BC90149700811181A5019401D6
:101B6000F801638D748D858D968D0E943E2B18161D
:101B70007CF077247394D80190962D913D914D91EE
:101B80005C919397C501B4010E943E2B18160CF48A
:101B9000712CF701708201E010E007C0E12CF12CFC
:101BA0000FEF1FEF02C000E010E0B801C70166961A
:101BB0000FB6F894DEBF0FBECDBFDF91CF911F915E
:101BC0000F91FF90EF90BF90AF909F908F907F907C
:101BD0006F905F904F900895F801E25AFE4FE780B2
:101BE000F084038114810834110510F007E410E03B
:101BF000C5010E943002D9CF0F931F93CF93DF937B
:101C0000FC01CB01C381D4812281243611F42097B9
:101C100059F420E030E04FEF5FEFBA01C901DF91E6
:101C2000CF911F910F910895A781B0859D010581E6
:101C30001681AE01BD010E941B09AB019C01EDCFD5
:101C40008FE294E00E94D1038823F1F08FE294E0C8
:101C50000E94D1038823C1F062EA73E08FE794E029
:101C60000E94FC0DAB01BC01CA016115710511F4A4
:101C700080E090E0AC0124E680EB94E00E94160442
:101C80008CEA94E00E942B0282EB94E00E94E7032E
:101C90008823F1F082EB94E00E94E7038823C1F0EF
:101CA00062EA73E082E095E00E94FC0DAB01BC01AA
:101CB000CA016115710511F480E090E0AC0124E6E1
:101CC00083E395E00E9465088FE295E00C94300272
:101CD00008950E94B1270E947A030E94A003C8E5DC
:101CE000D9E20E94200E2097E1F30E945829F9CFF3
:101CF000CF92DF92EF92FF920F931F93CF93DF93D8
:101D00001F92CDB7DEB77C016B0100E010E00C152F
:101D10001D0584F486E896E00E9444298983BE016B
:101D20006F5F7F4FF701828193810E9437130F5FAE
:101D30001F4FEDCF0F90DF91CF911F910F91FF902B
:101D4000EF90DF90CF9008958091ED0590E0209185
:101D5000EE05821B910908952091EE058091ED0515
:101D6000281750F4E22FF0E0E151FA4F808190E023
:101D70002F5F2093EE0508958FEF9FEF0895E09178
:101D8000EE058091ED05E81730F4F0E0E151FA4FEF
:101D9000808190E008958FEF9FEF08950895E0917E
:101DA000C505F091C6053097E1F03091EE05209120
:101DB000ED053217B0F040E0242F30E0261737074A
:101DC00054F4DC01A20FB31F5C91D901A151BA4FA9
:101DD0005C934F5FF1CF1092EE056093ED05CB0160
:101DE00009940895E091C705F091C805309729F04E
:101DF0001092CB051092CA0509940895CF92DF92F4
:101E0000EF92FF920F931F93CF93DF937C01CB014F
:101E10008A012091C905222389F0EB016B01C40ED0
:101E2000D51ECC15DD0569F06991D701ED91FC91C6
:101E30000190F081E02DC7010995F3CF642F0E9436
:101E40007910C801DF91CF911F910F91FF90EF9012
:101E5000DF90CF900895CF93DF931F92CDB7DEB779
:101E600069832091C9052223D1F02091CA0520322F
:101E700040F021E030E0FC013383228380E090E0F9
:101E800015C08091CB05E82FF0E0E453FA4F99811B
:101E900090838F5F8093CB058093CA0505C061E076
:101EA000CE0101960E94791081E090E00F90DF91C1
:101EB000CF910895FC011382128248EE53E060E056
:101EC00070E0448355836683778383E991E091834F
:101ED000808308951092EE051092ED051092CB05C7
:101EE0001092CA050C94C00FCF93DF93EC01862F9C
:101EF0000E94DE0F82EF9EE00E9497108FEC9EE022
:101F00000E949210CE01DF91CF910C946A0F862F20
:101F1000413208F040E26FEE75E00E94E20F10924D
:101F2000EE058093ED05089521E00C94870F81E084
:101F30008093C9056093EC051092CB051092CA05F9
:101F400008950F93062F21E04091CA056CEC75E0CF
:101F50008091EC050E9426101092CB051092CA05C4
:101F60001092C9050F91089561E00C94A10F709330
:101F7000C6056093C505089589EB95E00C945A0F4A
:101F800010927C0681E080937A061092790661E0D7
:101F900082E10E94CA2861E083E10E94CA28E9EB3D
:101FA000F0E080818E7F808380818D7F808388E4D4
:101FB0008093B80085E48093BC000895880F8093D7
:101FC000BA000895413208F03FC090917C0691110B
:101FD000FCCF91E090937C0620937A062FEF20931C
:101FE0000F0610925406240F2093530690937B06FD
:101FF00090917B06880F892B80937B0680917906D0
:10200000813041F41092790680917B068093BB0069
:1020100085EC01C085EE8093BC0080917C06813008
:10202000E1F380915406841710F44091540625E59D
:1020300036E0FB01D9018A2F821B841718F48D9199
:102040008193F9CF842F089580E008950F93413252
:1020500008F046C090917C069111FCCF92E09093DD
:102060007C0600937A069FEF90930F061092540619
:1020700040935306FB0165E576E0DB019A2F961B42
:10208000941718F491919D93F9CF10927B0690913B
:102090007B06880F892B80937B068091790681309F
:1020A00041F41092790680917B068093BB0085EC09
:1020B00001C085EE8093BC00222321F080917C0634
:1020C0008230E1F380910F068F3F61F080910F061F
:1020D000803251F080910F06803341F483E007C0D5
:1020E00081E005C080E003C082E001C084E00F9180
:1020F0000895613298F420917C06243089F460932D
:102100003106FC0183E396E0DC012A2F281B261709
:1021100018F421912D93F9CF80E0089581E008957E
:1021200082E00895909376068093750608959093C3
:10213000780680937706089585ED8093BC008091A2
:10214000BC0084FDFCCF10927C06089585EC809342
:10215000BC0010927C0608951F920F920FB60F924A
:1021600011242F933F934F935F936F937F938F939C
:102170009F93AF93BF93EF93FF938091B900887FB4
:10218000803609F49CC068F5883209F45BC090F48D
:10219000803109F454C038F4882309F4F5C088303C
:1021A00009F44DC0F5C0883109F44CC0803209F4FF
:1021B0005DC0EEC0803409F468C048F4803309F48F
:1021C00055C0883309F0E4C080930F06A8C080355D
:1021D00009F44FC0883509F45DC0883409F0D8C0CF
:1021E000D5C0883909F4C6C0A8F4883709F467C097
:1021F00038F4883609F463C0803709F460C0C8C079
:10220000883809F4B7C0803909F45FC0803809F014
:10221000BFC05BC0803B09F485C038F4803A09F444
:1022200066C0883A09F47EC0B3C0803C09F4A6C0F9
:10223000883C09F4A3C0883B09F489C0A9C08091F7
:102240007B0610C09091540680915306981770F544
:10225000E091540681E08E0F80935406F0E0EB5A33
:10226000F94F80818093BB0085EC85C080930F0679
:102270008DC0E091540681E08E0F809354068091CA
:10228000BB00F0E0EB5AF94F8083909154068091A7
:1022900053066DC0E091540681E08E0F8093540682
:1022A0008091BB00F0E0EB5AF94F808380917A0671
:1022B00081116CC081E08093790684EA60C083E07C
:1022C00080937C0610921006CFCF8091100680324A
:1022D00008F050C0E091100681E08E0F8093100648
:1022E0008091BB00F0E0EF5EF94F8083BDCF80911D
:1022F0001006803230F4E0911006F0E0EF5EF94F06
:1023000010820E949C106091100670E0E0917506AA
:10231000F091760681E196E00995109210060E94F0
:10232000A61036C084E080937C061092320610928C
:102330003106E0917706F091780609958091310693
:10234000811105C081E08093310610923306E0913F
:10235000320681E08E0F80933206F0E0ED5CF94F9B
:1023600080818093BB00909132068091310698174E
:1023700008F47ACF85E88093BC000AC085EC80938E
:10238000BC0010927C0604C010920F060E949C10A4
:10239000FF91EF91BF91AF919F918F917F916F913D
:1023A0005F914F913F912F910F900FBE0F901F9013
:1023B0001895CF92DF92EF92FF92CF93DF93EC01CB
:1023C000262FC62ED12CE12CF12CFC01EA5BFF4F0D
:1023D00083819481892B81F0B701A601485051096E
:1023E00061097109403751056105710528F4622FB3
:1023F00089EB95E00E94740FC98ADA8AEB8AFC8A1D
:10240000DF91CF91FF90EF90DF90CF9008954F92A2
:102410005F926F927F92AF92BF92CF92DF92EF92D4
:10242000FF920F931F93CF93DF93CDB7DEB7A6979D
:102430000FB6F894DEBF0FBECDBF8C01C62ED12CD7
:10244000FC01E65BFF4F4080518062807380730126
:1024500042E050E0B601CE0101960E94032C498172
:102460005A814416550648F0B6016E5F7F4FC3018E
:102470000E94032C69817A8104C0E12CF12C60E078
:1024800070E0C801825B9F4F6C01E114F10421F4FC
:10249000C8010E946B0615C0C7010E9497192983C5
:1024A0003A834B835C836D837E838F839887F601A9
:1024B00060817181A801CE0101960E94231E8823AC
:1024C00039F3F801E45BFF4FE080F180F601A08072
:1024D000B18060E070E080E090E00E9497192F8F5B
:1024E00038A349A35AA36BA37CA38DA39EA3AE01DB
:1024F0004F5F5F4FB501CE014F960E94A71F8EE13F
:10250000FE013196D70101900D928A95E1F7F6010F
:1025100060817181F80114AA9701A801C8014E9643
:102520000E94A006A6960FB6F894DEBF0FBECDBFE0
:10253000DF91CF911F910F91FF90EF90DF90CF909F
:10254000BF90AF907F906F905F904F9008950F93E2
:102550001F93CF93DF93EC01E881F9810190F08123
:10256000E02D0995FE01E05BFF4F6083718382835C
:1025700093833C97D183C0833596D183C0833596AE
:10258000D183C0838E010A5F1F4FC8010E946B0672
:1025900060E0C8010E940712E881F9810190F08192
:1025A000E02DCE010995FE01EB57FF4F608371834B
:1025B000828393833797D183C0833596D183C08339
:1025C000BC97108211821282138235968B8D9C8D5E
:1025D000AD8DBE8D80839183A283B38326E040E0DE
:1025E00052EC61E070E086E896E00E940E2A8CE0F2
:1025F0008093B800DF91CF911F910F9108958627A6
:10260000682F62956827062E669566956025062ECA
:10261000669560256770082E892F669507946795E3
:10262000902D86270694679590258627089508950E
:10263000FC01A489B58912961C92129714961C92DB
:102640001E9213978FEF9FEF1A969C938E93199774
:10265000138A128A108A118A1786168611A210A26E
:102660008CE090E093838283178E168E0895AF924C
:10267000BF92CF92DF92EF92FF920F931F93CF936F
:10268000DF931F92CDB7DEB78C016115710581F420
:10269000CE010196D80115969C938E9314971796A8
:1026A0009C938E93169719969C938E93189707C0B8
:1026B000FC01758364836F5F7F4F77836683D801E6
:1026C00014962D913C91159716968D919C91179784
:1026D0002817390709F057C06DC2608180E090E08B
:1026E0000E94FF12F801938B828B0488F589E02DFC
:1026F0000780F085E02DD8011E968D919C911F9743
:102700009C012F5F3F4F1F963C932E931E9714966C
:102710002D913C911597D9012C91E80FF91F208339
:10272000F80126853785848595852817390709F0AE
:102730000DC2068CF78DE02DCF010197D8015F9671
:102740009C938E935E973A96EE0FFF1FE00FF11F5A
:102750008081918113969C938E931297D801129643
:10276000ED91FC911397EF30F10508F450C2F80198
:102770008481958101969583848326813781821790
:10278000930709F417C2D8011296ED91FC911397A3
:102790003197EE30F10508F0E7C1EC5CFF4F0C9487
:1027A0008C2BD8015496ED91FC915597F184E12C36
:1027B000F286E18614968D919C911597DC018C919F
:1027C0009701280F311DC90132872187D801529600
:1027D0002D913C9153978217930749F481E05096CD
:1027E0008C9350971E968D919C911F9719C081E0F4
:1027F000F801818B17C0D8011C968D919C911D9773
:102800005496ED91FC91559725813681281739070B
:1028100018F421E051962C9321E0D80150962C9386
:1028200094838383F80184819581019695838483C1
:10283000268137818217930709F496C1D80114962F
:10284000ED91FC91159780818C3721F0F80113826E
:102850001282F0C1D80114968D919C911597019622
:1028600015969C938E93149716962D913C911797DD
:102870008217930709F47BC1D8011496ED91FC915E
:10288000159780818C3711F7F80184819581019625
:1028900095838483268137818217930709F46AC15F
:1028A000D8011496ED91FC91159780818C3771F6C3
:1028B00050961C92F80184819581019695838483BA
:1028C000268137818217930709F45CC1D801549699
:1028D000ED91FC9155971182108214968D919C91E7
:1028E0001597DC018C9190E091838083F8018481BD
:1028F000958101969583848326813781821793077A
:1029000009F443C1D8015496ED91FC915597149662
:102910008D919C911597DC018C91B080A12C950133
:10292000282BC90191838083D80114968D919C91A5
:102930001597019615969C938E93149716962D9144
:102940003C9117978217930709F422C1D801149676
:10295000ED91FC9115978081843681F08E3609F4D3
:102960009DC0813609F072CFD8015496ED91FC914B
:102970005597828381E050968C9354CFD80154961A
:10298000ED91FC9155978283F801848195810196A0
:1029900095838483268137818217930709F4FBC0CE
:1029A000D80191961C921E9290971D961C921E9291
:1029B0001C971496ED91FC911597808190E01D96DF
:1029C0009C938E931C97F801848195810196958341
:1029D0008483268137818217930709F4DFC0D801E9
:1029E0001C96DC901C97C12C1D96DC92CE921C97F5
:1029F0001496ED91FC9115978081F601E80FF11D79
:102A0000CF011D96FC93EE931C975496ED91FC918B
:102A10005597258136812817390718F481E051969A
:102A20008C93D8015E96ED91FC915F97CF01019652
:102A30005F969C938E935E973B96EE0FFF1FE00F81
:102A4000F11F88E090E0918380834FC0D8015296B7
:102A50008D919C9153970E941713F801938B828B51
:102A60000488F589E02D12861186D80114968D917F
:102A70009C911597DC018C9190E092878187F801F9
:102A8000848195810196958384832681378182177D
:102A9000930709F086CE89E090E089C0D80154966A
:102AA000ED91FC9155978283F8018481958101967F
:102AB00095838483268137818217930709F471C037
:102AC000D80114968D919C911597019615969C931B
:102AD0008E93149716962D913C9117978217930712
:102AE00009F089CE8BE090E062C0F8018481958185
:102AF000019695838483268137818217930709F491
:102B000053C0D8011F961C921E921E9753961C927A
:102B10001E9252971C968D919C911D971496ED9143
:102B2000FC911597892B09F0D8CD31971596FC9318
:102B3000EE93149765C0D8011496ED91FC9115970A
:102B4000608152968D919C915397CACDF8018481F2
:102B50009581019695838483268137818217930717
:102B600051F78EE090E023C08CE090E005C081E05A
:102B700090E01DC082E090E0D80113969C938E9364
:102B8000129718C083E090E012C084E090E0F4CF88
:102B900085E090E00CC086E090E0EECF87E090E02A
:102BA00006C08AE090E0E8CF8DE090E0E5CFF80144
:102BB00093838283D80114968D919C9115971896D2
:102BC0002D913C91199782179307A1F512962D919B
:102BD0003C9113972D30310569F51F961C921E927A
:102BE0001E9753961C921E9252971C962D913C91C3
:102BF0001D97232BF9F4019715969C938E931497A8
:102C00005E96ED91FC915F97CF01019798CDEE5BB9
:102C1000FF4F0C948C2BF80184819581019695834C
:102C20008483268137818217930709F00FCF88E0CC
:102C300090E0A2CF0F90DF91CF911F910F91FF9065
:102C4000EF90DF90CF90BF90AF900895FC01DB0133
:102C500071836083738362831582148257834683F2
:102C600012968C911297480F511D518740871396E9
:102C70008C911397480F511D87FD5A9553874287B2
:102C800081E09C91911101C080E00895FC01A28136
:102C9000B3818C91882309F460C0CD010896938399
:102CA000828318968C911897811108C046815781AC
:102CB00060817181CF010E9426164FC014963C910D
:102CC0001497832F90E011965C911197452F4073D4
:102CD000403391F419962C9119972073203361F4A5
:102CE00012962C91129780859185821B910991876C
:102CF000808780E090E010C0252F207C49F440328E
:102D000059F415968C911597839FC001112404C026
:102D1000203811F482E090E011962C9111972073E5
:102D200031F4248135812F5F3F4F358324831A96F8
:102D30002C911A97AC01420F511D80859185840F0B
:102D4000951F918780871B962C91820F911D27FDDF
:102D50009A959387828781E0089580E00895EF92A5
:102D6000FF920F931F93CF93DF9300D01F92CDB7A5
:102D7000DEB77C01DC0112960D911C911397D701EF
:102D80001296ED91FC911397808190E0A0E0B0E065
:102D900084179507A607B70721F481818F708830C3
:102DA00099F4C70149835A836B837C830E9446163A
:102DB000F7018281938149815A816B817C818017DF
:102DC0009107E9F680E001C081E00F900F900F902D
:102DD0000F90DF91CF911F910F91FF90EF90089589
:102DE000DC011296ED91FC9113974E0F5F1F139625
:102DF0005C934E9312976115710539F0DB01E4176E
:102E0000F50719F081918D93FACF81E00895CF9362
:102E1000DF93EC018C819D81892B51F48E819F8100
:102E2000009711F48BEF91E09F838E8380E018C0B0
:102E3000E881F98141E050E0CE01199581110AC085
:102E40002E813F812115310511F429E032E03F83C5
:102E50002E8306C02C813D81215031093D832C8376
:102E6000DF91CF9108957F928F929F92AF92BF9200
:102E7000CF92DF92EF92FF920F931F93CF93DF9346
:102E80001F92CDB7DEB78C014B01BE016F5F7F4F44
:102E90000E940717782E8823E9F1898187FD05C0F4
:102EA000C82ED12CE12CF12C37C08F77C82ED12C15
:102EB000E12CF12C87E0A82EB12CBE016F5F7F4F73
:102EC000C8010E940717882329F18981482F4F776D
:102ED00050E060E070E00A2C04C0440F551F661FEC
:102EE000771F0A94D2F7C42AD52AE62AF72A87FF41
:102EF00013C087E0A80EB11CE3E2AE16B104E9F6F8
:102F0000F80186819781009711F482E192E0F8013F
:102F100097838683712C05C0F401C082D182E2823E
:102F2000F382872D0F90DF91CF911F910F91FF902A
:102F3000EF90DF90CF90BF90AF909F908F907F9059
:102F40000895EF92FF920F931F93CF93DF93CDB726
:102F5000DEB72C970FB6F894DEBF0FBECDBFFC01D5
:102F600062817381DB0111968C91982F9F7098304C
:102F7000A9F50084F185E02D00811181011511056D
:102F800009F468C0F80116820190F081E02DE48018
:102F9000F580D80112964D915C911397B701CE013F
:102FA00001960E942616F801828193819A8789876B
:102FB000C80106969C878B87D70111968C91807CDF
:102FC000803821F4C80102969A878987CE0101963C
:102FD0000E94A117F80104811581D0CF982F907C11
:102FE00061F4982F9073903129F482859385DC01E8
:102FF0001C9210C085FF0EC008C0903859F5A085FE
:10300000B1851D921C9285FF25C00284F385E02DB9
:10301000108220C0DB0111964C9111974F70808572
:10302000918516962D913C911797473029F4BC0154
:10303000C9010E9437180EC0FB01448150E02115E0
:10304000310521F0B9010E94F32B04C060E070E06B
:103050000E94FC2B2C960FB6F894DEBF0FBECDBF9E
:10306000DF91CF911F910F91FF90EF900895CF9333
:10307000DF93CDB7DEB72C970FB6F894DEBF0FBE47
:10308000CDBFAB01BC01CE0101960E94261688235C
:1030900049F0CE0101960E94A117CE0101960E942F
:1030A0004616F5CF2C960FB6F894DEBF0FBECDBFF7
:1030B000DF91CF910895EF92FF920F931F93CF93DB
:1030C000DF93CDB7DEB760970FB6F894DEBF0FBEC3
:1030D000CDBF8C017A016115710501F5DC018D917F
:1030E0009C91805F9641D1F0F1E1EF16F10470F010
:1030F00040E150E0BE016F5F7F4FC8010E945B1846
:103100008823E9F1E0E1EE1AF108EECFA701BE0154
:103110006F5F7F4FC8010E945B1831C0D8011496C1
:103120008D919C9115978E159F0568F416968D913B
:103130009C911797009711F48BEF91E0F80197831A
:10314000868380E01CC0D801ED91FC91A701C801E5
:103150001995F80181110DC026813781211531059E
:1031600011F429E032E0D80117963C932E9316977C
:1031700006C0248135812E193F093583248360964A
:103180000FB6F894DEBF0FBECDBFDF91CF911F9178
:103190000F91FF90EF900895CF92DF92EF92FF9200
:1031A0000F931F93CF93DF9300D01F92CDB7DEB75D
:1031B0008C016B017A01BE016F5F7F4F0E94331754
:1031C000882309F43FC049815A816B817C819A012F
:1031D0002F5F3F4FC901A0E0B0E084179507A60715
:1031E000B70740F4F801868197810097E9F482E2FD
:1031F00092E01AC0F6018181807C803841F4F801A8
:1032000086819781009781F481E392E00DC0F601F9
:10321000848190E08217930760F4F801868197819A
:10322000009711F483E492E0F8019783868380E0AD
:1032300009C0B701C8010E945B18E981FA81EE0D4F
:10324000FF1D10820F900F900F900F90DF91CF9184
:103250001F910F91FF90EF90DF90CF900895CF9244
:10326000DF92EF92FF920F931F93CF93DF9300D0E3
:103270001F92CDB7DEB78C017B01D42EC52EBE01C7
:103280006F5F7F4F0E943317882309F443C0498141
:103290005A816B817C814F3F51056105710509F0B1
:1032A00030F59A012F5F3F4FC901A0E0B0E08417CD
:1032B0009507A607B70740F4F80186819781009724
:1032C000E9F482E292E01AC0F7018181807C8038C3
:1032D00041F4F80186819781009781F481E392E0BF
:1032E0000DC0F701848190E08217930760F4F80124
:1032F00086819781009711F483E592E0F801978326
:10330000868380E007C0ED2DFC2D4193BF01C801ED
:103310000E945B180F900F900F900F90DF91CF914C
:103320001F910F91FF90EF90DF90CF900895CF9372
:10333000DF93CDB7DEB728970FB6F894DEBF0FBE88
:10334000CDBF20EF36E13A8329838B839C836D8345
:103350007E8318861F823A81AC0180E0988528968A
:103360000FB6F894DEBF0FBECDBFDF91CF910895A9
:103370003F924F925F926F927F928F929F92AF9205
:10338000BF92CF92DF92EF92FF920F931F93CF9352
:10339000DF931F92CDB7DEB75C017B01C12CD12C2E
:1033A000312C412C512C612C712C812C912C10E052
:1033B000BE016F5F7F4FC5010E940717E82F88236A
:1033C00009F442C0F9812F2F2F7730E040E050E020
:1033D00060E070E080E090E00C2D0E94922B322A99
:1033E000432A542A652A762A872A982A192BF7FF16
:1033F00015C087E0C80ED11CA6E4CA16D104C1F6D8
:10340000F50186819781009711F482E192E0D50160
:1034100017969C938E931697E0E016C0D7013C92C6
:1034200011964C92119712965C92129713966C9289
:10343000139714967C92149715968C92159716965E
:103440009C92169717961C938E2F0F90DF91CF9119
:103450001F910F91FF90EF90DF90CF90BF90AF90B2
:103460009F908F907F906F905F904F903F900895C6
:103470008F929F92AF92BF92CF92DF92EF92FF9284
:103480000F931F93CF93DF93CDB7DEB728970FB677
:10349000F894DEBF0FBECDBF4C017B018A01BE0197
:1034A0006F5F7F4F0E94B819F82F882309F46DC011
:1034B000D70114968C91823061F140F4813009F08B
:1034C00044C02981D8012C9330E029C0843051F1C7
:1034D0008830D9F529813A814B815C816D817E816B
:1034E0008F819885D8012C9311963C931197129651
:1034F0004C93129713965C93139714966C931497AE
:1035000015967C93159716968C93169717969C9301
:1035100024C029813A81D8012C9311963C9340E034
:1035200050E00EC029813A814B815C81D8012C93F7
:1035300011963C93119712964C93129713965C93A5
:1035400060E070E080E090E008C0F401868197813F
:103550000097A9F482E692E012C0A980BA80CB80DD
:10356000DC80ED80FE800F8118850E94C92B69F0F8
:10357000F40186819781009711F484E792E0D401E9
:1035800017969C938E931697F0E08F2F28960FB680
:10359000F894DEBF0FBECDBFDF91CF911F910F9189
:1035A000FF90EF90DF90CF90BF90AF909F908F9063
:1035B00008954F925F926F927F928F929F92AF92F7
:1035C000BF92CF92DF92EF92FF920F931F93CF9310
:1035D000DF93CDB7DEB728970FB6F894DEBF0FBEE6
:1035E000CDBF4C018B017A01BE016F5F7F4F0E94FE
:1035F000B819E82F882309F474C0D80114964C91A7
:1036000089819A815B81DC804830D9F4D7018C9321
:1036100011969C93119712965C9312971396DC92D5
:1036200013978D8114968C9314978E8115968C9395
:1036300015978F8116968C931697888517968C937D
:1036400050C08C01252F3D2D5801C52E2801390170
:10365000770C4408542C3201423089F04430F1F0A8
:10366000413019F5D7018C93282F382F330F330BA6
:10367000432F532F632F732F832F932F1EC0D701F8
:103680008C9311969C93282F392F492F440F440B6C
:10369000542F642F742F842F942F0FC0D7010D93B4
:1036A0001D932D933C9313971CC0F4018681978141
:1036B000009789F482E692E00EC0E42CF42C042DED
:1036C000142D0E94C92B69F0F4018681978100971F
:1036D00011F484E792E0D40117969C938E93169789
:1036E000E0E08E2F28960FB6F894DEBF0FBECDBF58
:1036F000DF91CF911F910F91FF90EF90DF90CF90CE
:10370000BF90AF909F908F907F906F905F904F9001
:103710000895AF92BF92CF92DF92EF92FF920F93F4
:103720001F93CF93DF9300D01F92CDB7DEB78C01EC
:103730007B016A015901F9011082FB011082FA0133
:103740001082118212821382BE016F5F7F4F0E942E
:10375000331781110AC0F80124813581232BF9F434
:1037600081E0F501808380E01AC009811A812B81F4
:103770003C81011511052105310591F3B901A8011D
:10378000E3E07695679557954795EA95D1F7F60169
:1037900040835183628373830770F70100830F9026
:1037A0000F900F900F90DF91CF911F910F91FF908D
:1037B000EF90DF90CF90BF90AF9008950F931F933D
:1037C000CF93DF9300D01F92CDB7DEB78C0161306D
:1037D000B1F050F06230B1F0653019F544E050E0DE
:1037E0001AC0998197FF28C041E050E0BE016F5F89
:1037F0007F4FC8010E945B188111F3CF1DC048E0C4
:1038000050E009C0BE016F5F7F4F0E9433178823CD
:1038100099F049815A8160E070E0C8010E945B180C
:103820000BC0FC0186819781009711F486E892E035
:10383000F8019783868380E00F900F900F900F9090
:10384000DF91CF911F910F9108958F929F92AF9228
:10385000BF92EF92FF920F931F93CF93DF9300D00D
:103860001F92CDB7DEB78C017B01BE016F5F7F4F2A
:103870000E943317882359F198E0F801D70101908D
:103880000D929A95E1F749815A816B817C81F7010C
:1038900084809580A12CB12C84169506A606B706C7
:1038A00060F4F80186819781009711F488E992E02D
:1038B000F8019783868380E00AC0F701558344832B
:1038C000F80124813581241B350B358324830F9027
:1038D0000F900F900F90DF91CF911F910F91FF905C
:1038E000EF90BF90AF909F908F9008954F925F920E
:1038F0006F927F928F929F92AF92BF92CF92DF9200
:10390000EF92FF920F931F93CF93DF93CDB7DEB764
:1039100062970FB6F894DEBF0FBECDBF8C017A015F
:10392000FA01A281B38111962C911197822F807C8C
:10393000803409F4BDC0803809F4AFC081115FC183
:10394000822F8F7090E0FC01EE0FFF1FEE5EFC4FA8
:10395000C080D1802073203191F018F42223A9F087
:1039600091C02032C9F0203309F08CC0FA012285C1
:1039700033858C91D9018C934085518580C0FA01A3
:103980002285338581E0F9018083F70140855185E7
:10399000BD01C801F60131C1FA01A284B3846230CD
:1039A00009F04EC005970CF04BC0BE016F5F7F4F12
:1039B000C8010E94251C882309F42EC18D819E8197
:1039C000892B11F1F5018081D70112966D917C91BF
:1039D0001397FB0195818917B8F4DB0114969C912C
:1039E000F70140855185989F400D511D1124CE014E
:1039F0000196F6011995882329F0D5018C918F5FE6
:103A00008C93DCCF80E001C081E02B813C81D80128
:103A100013963C932E9312972F81388517963C93DB
:103A20002E9316974D815E81452B09F4F5C0211523
:103A3000310511F420EB32E0F80137832683EBC027
:103A4000F7014085518514969C911497F50180816A
:103A500015962C91821758F0D80116968D919C914D
:103A60001797009709F0ADC080EB92E0AAC021E063
:103A7000280F2083989F400D511D1124F70162816A
:103A8000738187CFD80116968D919C9117970097D7
:103A900009F097C08FEB92E094C0D80116968D91F3
:103AA0009C911797009709F08CC081E392E089C040
:103AB000408451845201B2E0AB0EB11CF20180810E
:103AC0009181892B21F4C8010E94DE1BA5C06230C0
:103AD00099F5BE016F5F7F4FC8010E94251C8823A6
:103AE00009F49AC0D70112966D917C911397D20177
:103AF000ED91FC91A501CE010196199581110EC0A1
:103B0000F801268137812115310511F422ED32E0CB
:103B1000D80117963C932E9316977EC02D813E8137
:103B2000232B01F72B813C81F801338322832F81E2
:103B300038853783268370C0613071F170F065304D
:103B4000B9F544E050E0BE016F5F7F4FC8010E94AD
:103B50005B18F4E0CF2ED12C38C0CE0101963C0189
:103B6000C12CD12C43019FEFC91AD90AABE0CA1668
:103B7000D10409F450C041E050E0B301C8010E94F3
:103B80005B18882309F447C0BFEF6B1A7B0AF40166
:103B9000808187FDE7CF1BC048E050E0BE016F5F2A
:103BA0007F4FC8010E945B18A8E0CA2ED12C0DC01F
:103BB000D80116968D919C911797009711F486E87D
:103BC00092E0F8019783868326C0882329F180EF4D
:103BD00096E19C878B87CE0101969E878D87D88A38
:103BE000CF861A8A198AD70112966D917C91139704
:103BF000D201ED91FC91A5010A9619950DC0F8012D
:103C000086819781009711F48FEB92E0D801179687
:103C10009C938E93169780E062960FB6F894DEBF61
:103C20000FBECDBFDF91CF911F910F91FF90EF900D
:103C3000DF90CF90BF90AF909F908F907F906F90CC
:103C40005F904F9008952F923F924F925F926F92A4
:103C50007F928F929F92AF92BF92CF92DF92EF921C
:103C6000FF920F931F93CF93DF93CDB7DEB7AB9740
:103C70000FB6F894DEBF0FBECDBF7C015E0129E117
:103C8000A20EB11C88E0D5011D928A95E9F7CE01FC
:103C90000D960E942616412C512C32012224239489
:103CA000312CD70114968D919C911597892B09F48D
:103CB000E4C09E012B5D3F4FAE014F5D5F4FBE01E3
:103CC0006A5D7F4FC7010E94891B811104C08DA1CD
:103CD0008111D3C0D0C049A15AA16BA17CA1CE0152
:103CE0000D960E94AF1681119FC089A19AA1ABA128
:103CF000BCA184159505A605B70508F490C0CF842E
:103D0000D888EF85F88981818F70883009F401C1E6
:103D1000CE010D960E9446168F8598898C159D05BB
:103D200081F744244A94542C320129A13AA14BA191
:103D30005CA12FA338A749A75AA724153505460526
:103D4000570508F46CC0D70114968D909C90159778
:103D5000BEA1BBA7ED89FE89C080D180F701848117
:103D60009581C114D10409F456C08816990609F04A
:103D700052C0F601A081B181ED91FC91119730976D
:103D800049F00BA52FA138A549A55AA5B601C70131
:103D9000199539C014960D911C911597D8018C91E5
:103DA00090E0A0E0B0E02FA138A549A55AA5821760
:103DB0009307A407B50749F5D60112964D915C917A
:103DC0001397B801CE0101960E942616F601828152
:103DD00093819A878987C60106969C878B87D8012D
:103DE00011968C91807C803821F4C60102969A87C6
:103DF000898721E0F6012683AE014F5F5F4F6BA5F7
:103E0000C7010E94761C8823B1F1D6011496CD908B
:103E1000DC901597A3CF8816990609F042CF6EA1C2
:103E2000C7010E94DE1B25C0EF85F8898181807360
:103E3000C9F489899A8980349105A0F4FC0153E082
:103E4000F695E7955A95E1F7EA0DFB1D87709927DE
:103E5000910102C0220F331F8A95E2F7C9019081B8
:103E6000982B9083AE01435F5F4F6EA1C7010E9404
:103E7000761C811116CF80E051C0C988DA88EF85A1
:103E8000F8891181CE010D960E9446168111F5CF59
:103E9000107341F4EF85F8899081992319F0BFEFF1
:103EA000CB1ADB0A960143E0369527954A95E1F750
:103EB000F501A501420F531FE417F50721F0919179
:103EC0009F3FD1F316C0F501E20FF31F608170E050
:103ED000B7E0CB22DD2448E050E04C195D092FEF1C
:103EE00030E002C0359527954A95E2F762177307CF
:103EF00071F0F701268137812115310511F422EE89
:103F000032E0D70117963C932E93169707C081E0B5
:103F100005C04080512C612C712C07CFAB960FB699
:103F2000F894DEBF0FBECDBFDF91CF911F910F91EF
:103F3000FF90EF90DF90CF90BF90AF909F908F90C9
:103F40007F906F905F904F903F902F900895EF92E9
:103F5000FF920F931F93CF93DF931F921F92CDB7C2
:103F6000DEB78C017B01BA01C70149835A830E94E5
:103F7000371849815A81B701C8010F900F90DF911E
:103F8000CF911F910F91FF90EF900C94231ECF9231
:103F9000DF92EF92FF920F931F93CF93DF93CDB7F2
:103FA000DEB72A970FB6F894DEBF0FBECDBF8C01E7
:103FB0007B01FB01C680D780BE016F5F7F4F4987C1
:103FC0005A870E94251C49855A85882349F1F701A3
:103FD00086819781892B61F4F8018681978100970A
:103FE00011F489EF92E0F8019783868380E018C08E
:103FF000F70181818073B601803229F4CE010196E8
:104000000E94A71F04C0CE0101960E94231E2B818F
:104010003C81F801338322832F81388537832683BF
:104020002A960FB6F894DEBF0FBECDBFDF91CF91B9
:104030001F910F91FF90EF90DF90CF900895AF9276
:10404000BF92CF92DF92EF92FF920F931F93CF9385
:10405000DF93CDB7DEB728970FB6F894DEBF0FBE5B
:10406000CDBF7B01BE016F5F7F4F0E94B819F82F53
:10407000882309F45EC0E981AA80BB80CC80DD8002
:104080000E811F81B8852E2F217030E040E050E076
:1040900060E070E080E090E0A0E00E94D22B41F16F
:1040A0002E2F3A2D4B2D5C2D6D2D702F812F9B2F98
:1040B00001E00E94AD2B2095D7012C9330951196ED
:1040C0003C931197409512964C93129750951396E6
:1040D0005C931397609514966C931497709515964E
:1040E0007C931597809516968C93169790951FC084
:1040F0002E2F3A2D4B2D5C2D6D2D702F812F9B2F48
:1041000001E00E94AD2BD7012C9311963C9311979F
:1041100012964C93129713965C93139714966C9384
:10412000149715967C93159716968C931697179659
:104130009C938F2F28960FB6F894DEBF0FBECDBF8D
:10414000DF91CF911F910F91FF90EF90DF90CF9073
:10415000BF90AF9008957F928F929F92AF92BF923F
:10416000CF92DF92EF92FF920F931F93CF93DF9343
:10417000CDB7DEB728970FB6F894DEBF0FBECDBF20
:104180004C018B017A01BE016F5F7F4F0E941F209F
:10419000F82F882309F484C0D80114968C918230BA
:1041A000B1F188F4813009F058C08981D7018C932E
:1041B000782EE82FEE0FEE0B4E2F5E2F6E2F7E2FF8
:1041C0008E2F9E2F52C0843091F1883009F045C067
:1041D0007980EA814B815C816D817E818F819885B8
:1041E000D7017C921196EC93119712964C931297EB
:1041F00013965C93139714966C93149715967C936F
:10420000159716968C93169717969C932EC08981B6
:10421000EA81D7018C931196EC93782E4E2F440FA0
:10422000440B542F642F742F842F942F1EC00981A8
:104230001A812B813C81D7010D931D932D933C93C3
:104240001397702EE12FA901330F000B102F980147
:10425000602F702F802F902F08C0F40186819781E6
:104260000097C1F482E692E015C0A980BA80CB80A5
:10427000DC80ED80FE80BF811885272D3E2F0B2F1F
:104280000E94C92B69F0F40186819781009711F48F
:1042900084E792E0D40117969C938E931697F0E0F2
:1042A0008F2F28960FB6F894DEBF0FBECDBFDF91DB
:1042B000CF911F910F91FF90EF90DF90CF90BF9023
:1042C000AF909F908F907F90089544E050E00C94C1
:1042D0005B18BA010C94652148E050E00C945B181F
:1042E000BA010C946C21FC01A281B3819D01240FC1
:1042F000351F33832283FB01460F571FE417F50751
:1043000019F081918D93FACF81E00895FC0183E744
:1043100091E2918380837383628355834483178200
:10432000168211861086CF0108950F931F93CF93A5
:10433000DF93EC018A01E881F981309709F12E8140
:104340003F81240F351F8C819D818217930750F484
:1043500088859985009711F484E293E0998788878E
:1043600080E015C0CE01199581110AC028853985D4
:104370002115310511F429E032E03987288707C07B
:104380008E819F81800F911F9F838E8381E0DF91BB
:10439000CF911F910F9108955F926F927F928F92AC
:1043A0009F92AF92BF92CF92DF92EF92FF920F93C4
:1043B0001F93CF93DF93CDB7DEB762970FB6F89414
:1043C000DEBF0FBECDBF6C01802F0B87912F1C87E6
:1043D000522E2D87632E3E87742E4F87852E588B45
:1043E000962E698BB72F7A8B8C019801452D562D0F
:1043F000672D782D892D9B2FA0E00E94D22B21F0D4
:10440000FE0131967F0106C041E050E0BE01655FCC
:104410007F4F34C05F01AE18BF089801452D562D5F
:10442000672D782D892D9B2FA0E00E94D22BA9F01B
:10443000802F806881939801452D562D672D782D0A
:10444000892D9B2F07E00E94AD2B8901542E652EEC
:10445000762E872E982EB92FDDCF1B861C861D86C3
:104460001E861F86188A198A1A8AF5013197EE0D61
:10447000FF1D80818F778083A501B701C6010E944F
:10448000952162960FB6F894DEBF0FBECDBFDF91C7
:10449000CF911F910F91FF90EF90DF90CF90BF9041
:1044A000AF909F908F907F906F905F9008958F92C4
:1044B0009F92AF92BF92CF92DF92EF92FF920F93B3
:1044C0001F93FA01DB0114962C91223099F028F405
:1044D0002130E9F48080912C0FC0243081F0283005
:1044E000B1F480809180A280B380C480D580E680C2
:1044F000F7801CC080809180A12CB12C04C08080EA
:104500009180A280B380C12CD12C76010FC0FC0118
:10451000208531852115310511F422E632E0DC01D8
:1045200019963C932E93189780E006C0840195015C
:10453000A601B7010E94CC211F910F91FF90EF902F
:10454000DF90CF90BF90AF909F908F9008950F9382
:104550001F93CF93FA01DB0114962C912230D9F0EE
:1045600068F4213091F50081102F110F110B212FCC
:10457000312FC12FB12FA12F712F36C02430B1F0B0
:10458000283019F50081118122813381C481B581E0
:10459000A681778129C011810081212F220F220B52
:1045A000322FC22FB22FA22F722F1EC040815181F5
:1045B000628173818A019B01770F440B542FBA01EA
:1045C000C42FB42FA42F742F0FC0FC012085318578
:1045D0002115310511F422E632E0DC0119963C93F5
:1045E0002E93189780E005C04C2F5B2F6A2F0E94F6
:1045F000CC21CF911F910F910895DF92EF92FF92FE
:104600000F931F93CF93DF93FC01D22EE32EF42E52
:10461000D52FC62FB72F98014D2D5E2D6F2D7D2FD5
:104620008C2F9B2FA0E00E94D22B64F401E00E940B
:10463000922B20953095409550956095709580957A
:1046400090950AC098014D2D5E2D6F2D7D2F8C2FDA
:104650009B2F01E00E94922B89019A01AB01BC01C2
:10466000CF010E94CC21DF91CF911F910F91FF903C
:10467000EF90DF9008950F931F93CF93FA01DB0122
:1046800014962C912230D9F068F4213091F50081F4
:10469000102F110F110B212F312FC12FB12FA12F4F
:1046A000712F36C02430B1F0283019F50081118106
:1046B00022813381C481B581A681778129C011818E
:1046C0000081212F220F220B322FC22FB22FA22FB7
:1046D000722F1EC040815181628173818A019B01CA
:1046E000770F440B542FBA01C42FB42FA42F742F6B
:1046F0000FC0FC01208531852115310511F422E61A
:1047000032E0DC0119963C932E93189780E005C0A7
:104710004C2F5B2F6A2F0E94FD22CF911F910F918A
:10472000089544E050E00C949521BA010C94912333
:1047300048E050E00C949521BA010C9498238F9294
:104740009F92AF92BF92CF92DF92EF92FF920F9320
:104750001F93FC01A62F49015A01A50160E070E0FA
:1047600080E090E003E00E94922B022F242F0A2B7E
:10477000132F352FAB01BC01CF010E94CC211F911B
:104780000F91FF90EF90DF90CF90BF90AF909F90F0
:104790008F900895FB0121812F702330A1F088F0C4
:1047A000243021F0283020F462E00EC061E00CC01B
:1047B000FC01208531852115310561F42FEB32E0B4
:1047C00009C060E001C065E0208130E040E050E0D9
:1047D0000C949F23FC013187208780E008952F925D
:1047E0003F924F925F926F927F928F929F92AF9281
:1047F000BF92CF92DF92EF92FF920F931F93CF93CE
:10480000DF93CDB7DEB72B970FB6F894DEBF0FBEA0
:10481000CDBF7C016B015A01DB0111963C91232F26
:10482000207C203409F41CC1203811F0211132C140
:1048300081E08B87832F8F7090E0FC01EE0FFF1FCC
:10484000E158FC4F40805180F6014381442331F010
:10485000F501E40FF11D47FDFA9502C0FE013B96FC
:10486000203849F4D501AD90BC9041E0A114B104C9
:1048700009F440E04B8730733031B9F018F433233A
:1048800039F0E1C03032B1F0303309F4CBC0DBC0D5
:10489000A114B10409F0CBC0F70180859185009780
:1048A00009F0FFC082EE92E0FCC08081882309F409
:1048B000DEC0BDC08080912C8114910409F4D7C062
:1048C000203881F0D60115962C9130E02815390555
:1048D00048F4F70180859185009709F0E2C080E3F4
:1048E00093E0DFC005970CF072C0F601208130E044
:1048F00040E050E062E0C7010E949F23882309F452
:10490000D5C0D60111968C918F70833031F434016B
:10491000660C771C660C771C29C0843039F434018E
:10492000A3E0660C771CAA95E1F720C0FE01319642
:104930001F018AE0DF011D928A95E9F78501612C4C
:10494000712CA801B601C101F2011995882309F45F
:10495000ADC0D60114968C91080F111DBFEF6B1AD4
:104960007B0A6814790468F36F807884830120E0FF
:1049700030E040E050E060E070E0C7010E94CC21F0
:10498000882309F493C0F70180819181892B51F428
:10499000A30160E070E0C7010E949521882309F41B
:1049A00085C065C000E010E0A501B601C701F201B5
:1049B0001995882309F47AC0D60114968C91A80E13
:1049C000B11C0F5F1F4F0815190570F350C000E0B0
:1049D00010E0B601C7010E94CA23882309F466C00B
:1049E000F6018181982F907C9038D1F48F7090E0FF
:1049F00005970297A8F4D5014D915C91B601C701C6
:104A0000F2011995882309F451C0D60114968C91AE
:104A1000A80EB11C0F5F1F4F08151905D0F227C053
:104A2000A501ECCF9081D6018C91981320C0B601DE
:104A3000C7010E94CA238823C9F1A501B601C70195
:104A4000F201199534C0D70118968D919C91199750
:104A5000009711F48FEB92E0F7019187808726C0D1
:104A60004E5F5F4FD501ED91FC91309711F481E0DD
:104A70001EC019958111FBCFF701208531852115C5
:104A8000310511F428E433E0D70119963C932E93B5
:104A900018970DC0FC0180859185009711F48FEB6C
:104AA00092E0D70119969C938E93189780E02B96ED
:104AB0000FB6F894DEBF0FBECDBFDF91CF911F912F
:104AC0000F91FF90EF90DF90CF90BF90AF909F90AD
:104AD0008F907F906F905F904F903F902F900895B0
:104AE000EF92FF920F931F93CF93DF93CDB7DEB773
:104AF0002C970FB6F894DEBF0FBECDBF7C01CE0160
:104B000001960E942616811102C081E041C06B818E
:104B10007C81FB0181818F7049855A85883071F5D0
:104B2000FA01008111810115110569F1F801A081D7
:104B3000B1811296ED91FC911397309721F0B80155
:104B4000C701199513C014966D917C911597FB01BF
:104B50008181807C803821F4A8014E5F5F4F03C0C3
:104B6000F80142815381C7010E94EF23811102C0E5
:104B700080E00EC0F80104811581D5CFC7010E94E5
:104B8000EF238823A9F3CE0101960E944616BBCFDE
:104B90002C960FB6F894DEBF0FBECDBFDF91CF913C
:104BA0001F910F91FF90EF900895CF92DF92EF92B7
:104BB000FF920F931F93CF93DF93EC016B017A0168
:104BC0008A0120E030E040E050E060E070E00E94C8
:104BD000CC21882369F0A701B601CE01DF91CF91E6
:104BE0001F910F91FF90EF90DF90CF900C94952143
:104BF00080E0DF91CF911F910F91FF90EF90DF90B8
:104C0000CF900895FB01BA0144812181207C203896
:104C100011F050E002C04FEF5FEF6115710561F0D8
:104C2000FB0120E030E02417350741F0A191AA23D1
:104C300029F02F5F3F4FF7CF20E030E0A9010C941F
:104C4000D525FA01309729F440E050E060E070E0AB
:104C50001FC0DB0111962C911197207C40812111FE
:104C600013C0242F30E02F5F3F4F14966C9170E0FB
:104C70006217730748F4FC01208531852115310541
:104C800049F427E533E006C050E0BF016F5F7F4F76
:104C90000C94D525DC0119963C932E93189780E04F
:104CA00008956F927F928F929F92AF92BF92CF9210
:104CB000DF92EF92FF920F931F93CF93DF93CDB7C5
:104CC000DEB72A970FB6F894DEBF0FBECDBF7C01CA
:104CD0004B013A01CE0101965C018AE0F501119287
:104CE0008A95E9F7C5010E947025811104C02985C4
:104CF0003A85F70154C0CF80D884860120E030E0A7
:104D000040E050E060E070E0C7010E94CC218823C1
:104D100009F451C0F701208131812115310539F4A1
:104D2000A60160E070E0C7010E94952144C0F70130
:104D3000868197818C0D9D1D4481558148175907A7
:104D400050F480859185009711F484E293E0F70197
:104D5000918780872FC03A832983F70182819381CD
:104D60009C838B83DE82CD8218861F821A861986E9
:104D7000A301B401C5010E9470254F815885F70138
:104D800026813781240F351F378326832B813C8171
:104D90003383228329853A854C155D0519F43187C3
:104DA000208709C02115310511F42BE633E0F70106
:104DB0003187208780E02A960FB6F894DEBF0FBEB9
:104DC000CDBFDF91CF911F910F91FF90EF90DF90BA
:104DD000CF90BF90AF909F908F907F906F900895ED
:104DE000FB01668177816115710549F4FC0120851D
:104DF00031852115310529F429EF32E002C00C94E8
:104E00005126FC013187208780E008951F920F9280
:104E10000FB60F9211242F933F938F939F93AF93CD
:104E2000BF9380917E0690917F06A0918006B091FD
:104E3000810630917D0623E0230F2D3720F4019663
:104E4000A11DB11D05C026E8230F0296A11DB11DAD
:104E500020937D0680937E0690937F06A093800624
:104E6000B09381068091820690918306A09184067A
:104E7000B09185060196A11DB11D80938206909385
:104E80008306A0938406B0938506BF91AF919F914E
:104E90008F913F912F910F900FBE0F901F901895FB
:104EA0002FB7F89460917E0670917F0680918006FE
:104EB000909181062FBF08953FB7F89480918206A4
:104EC00090918306A0918406B091850626B5A89B93
:104ED00005C02F3F19F00196A11DB11D3FBF6627E8
:104EE000782F892F9A2F620F711D811D911D42E02D
:104EF000660F771F881F991F4A95D1F70895CF92A3
:104F0000DF92EF92FF92CF93DF936B017C010E94BF
:104F10005C27EB01C114D104E104F10489F00E9483
:104F20003D2B0E945C276C1B7D0B683E734090F309
:104F300081E0C81AD108E108F108C851DC4FEACF76
:104F4000DF91CF91FF90EF90DF90CF900895019780
:104F500039F0880F991F880F991F02970197F1F771
:104F60000895789484B5826084BD84B5816084BDE1
:104F700085B5826085BD85B5816085BDEEE6F0E0D2
:104F8000808181608083E1E8F0E01082808182602E
:104F90008083808181608083E0E8F0E080818160AF
:104FA0008083E1EBF0E0808184608083E0EBF0E0DF
:104FB000808181608083EAE7F0E080818460808383
:104FC000808182608083808181608083808180682D
:104FD00080831092C10008958E3008F08E50877043
:104FE0002091060190E4299F90011124822B809347
:104FF0007C0080917A00806480937A0080917A00AE
:1050000086FDFCCF809178002091790090E0922B72
:1050100008951F93CF93DF93182FEB0161E00E9457
:105020009128209711F460E004C0CF3FD10539F4F6
:1050300061E0812FDF91CF911F910C94CA28E12F5D
:10504000F0E0ED5FFE4FE491E330F9F048F4E13039
:10505000B9F0E230A1F584B5806284BDC8BD34C02A
:10506000E730E9F0E83019F1E43049F5809180004B
:10507000806280938000D0938B00C0938A0024C00C
:1050800084B5806884BDC7BD1FC0809180008068E2
:1050900080938000D0938900C093880015C08091D0
:1050A000B00080688093B000C093B3000DC08091C1
:1050B000B00080628093B000C093B40005C0C038D7
:1050C000D1050CF0B5CFAFCFDF91CF911F910895EF
:1050D000833081F028F4813099F08230A1F0089576
:1050E0008730A9F08830B9F08430D1F48091800005
:1050F0008F7D03C0809180008F778093800008951A
:1051000084B58F7702C084B58F7D84BD089580916A
:10511000B0008F7703C08091B0008F7D8093B00086
:105120000895CF93DF9390E0FC01E95EFE4F249158
:10513000FC01E55DFE4F8491882349F190E0880FE2
:10514000991FFC01ED5AFE4FA591B491875B9E4FCC
:10515000FC01C591D4919FB7611108C0F8948C915E
:10516000209582238C93888182230AC0623051F477
:10517000F8948C91322F309583238C938881822BE5
:10518000888304C0F8948C91822B8C939FBFDF910D
:10519000CF9108950F931F93CF93DF931F92CDB7B5
:1051A000DEB7282F30E0F901ED5FFE4F8491F90161
:1051B000E95EFE4F1491F901E55DFE4F0491002375
:1051C000C9F0882321F069830E9468286981E02F53
:1051D000F0E0EE0FFF1FE75BFE4FA591B4919FB784
:1051E000F8948C91611103C01095812301C0812B2B
:1051F0008C939FBF0F90DF91CF911F910F910895D6
:10520000CF93DF93282F30E0F901ED5FFE4F8491BB
:10521000F901E95EFE4FD491F901E55DFE4FC491BD
:10522000CC2391F081110E946828EC2FF0E0EE0F62
:10523000FF1FE15CFE4FA591B4912C912D2381E0DD
:1052400090E021F480E002C080E090E0DF91CF9117
:1052500008950E94DE2BFC01818D228D90E0805C00
:105260009F4F821B91098F7399270895FC01918D9F
:10527000828D981731F0828DE80FF11D858D90E0B9
:1052800008958FEF9FEF0895FC01918D828D9817FF
:1052900061F0828DDF01A80FB11D5D968C91928D1A
:1052A0009F5F9F73928F90E008958FEF9FEF089517
:1052B00088EC9AE2892B49F083E198E0892B29F068
:1052C0000E94C82A81110C9413080895FC01848D52
:1052D000DF01A80FB11DA35ABF4F2C91848D90E020
:1052E00001968F739927848FA689B7892C93A089FB
:1052F000B1898C9180648C93938D848D981306C0B2
:105300000288F389E02D80818F7D80830895CF937B
:10531000DF93EC01888D8823C9F0EA89FB898081BD
:1053200085FD05C0A889B9898C9186FD0FC00FB68F
:1053300007FCF5CF808185FFF2CFA889B9898C91D0
:1053400085FFEDCFCE010E946629E7CFDF91CF9197
:105350000895CF92DF92FF920F931F93CF93DF9325
:105360001F92CDB7DEB76C01DC015B969C915B9719
:105370005C968C915C97981307C05096ED91FC91C8
:105380005197808185FD32C0F601038D10E00F5FDB
:105390001F4F0F731127F02EF601848DF81211C0E4
:1053A0000FB607FCF9CFD6015096ED91FC915197BD
:1053B000808185FFF1CFC60169830E9466296981DA
:1053C000EBCF838DE80FF11DE35AFF4F6083D601C9
:1053D0005B960C935B975296ED91FC91539780816D
:1053E0008062808381E058968C930DC0D6015696DA
:1053F000ED91FC91579760835096ED91FC915197F8
:1054000080818064808381E090E00F90DF91CF9174
:105410001F910F91FF90DF90CF900895BF92CF9290
:10542000DF92EF92FF92CF93DF93EC016A017B0151
:10543000B22EE889F98982E08083411581EE580710
:1054400061057105A1F060E079E08DE390E0A701CE
:1054500096010E946A2B2150310941095109569544
:10546000479537952795211580E1380798F0E88909
:10547000F989108260E874E88EE190E0A701960156
:105480000E946A2B215031094109510956954795CF
:1054900037952795EC85FD853083EE85FF85208344
:1054A000188EEC89FD89B082EA89FB898081806150
:1054B0008083EA89FB89808188608083EA89FB890F
:1054C000808180688083EA89FB8980818F7D8083E9
:1054D000DF91CF91FF90EF90DF90CF90BF90089534
:1054E0001F920F920FB60F9211242F938F939F93B9
:1054F000EF93FF93E0919606F09197068081E091FB
:105500009C06F0919D0682FD12C0908180919F06BD
:105510008F5F8F732091A006821751F0E0919F0654
:10552000F0E0EA57F94F958F80939F0601C0808184
:10553000FF91EF919F918F912F910F900FBE0F9040
:105540001F9018951F920F920FB60F9211242F9350
:105550003F934F935F936F937F938F939F93AF93FB
:10556000BF93EF93FF9386E896E00E946629FF9130
:10557000EF91BF91AF919F918F917F916F915F91CB
:105580004F913F912F910F900FBE0F901F90189544
:1055900086E896E00E942B2921E0892B09F420E07F
:1055A000822F0895109289061092880688EE93E063
:1055B000A0E0B0E080938A0690938B06A0938C06BF
:1055C000B0938D0685E993E09093870680938606D5
:1055D00085EC90E0909393068093920684EC90E0A3
:1055E000909395068093940680EC90E090939706B4
:1055F0008093960681EC90E09093990680939806AC
:1056000082EC90E090939B0680939A0686EC90E063
:1056100090939D0680939C0610929F061092A00680
:105620001092A1061092A2060895CF92DF92EF92F7
:10563000FF920F931F93CF93DF936C017A01EB01DD
:10564000E60EF71E00E010E0CE15DF0561F069916F
:10565000D601ED91FC910190F081E02DC6010995F4
:10566000080F191FF1CFC801DF91CF911F910F9142
:10567000FF90EF90DF90CF900895089503D008F445
:1056800081E00895990F0008550FAA0BE0E8FEEF9E
:1056900016161706E807F907C0F012161306E407F6
:1056A000F50798F0621B730B840B950B39F40A26EF
:1056B00061F0232B242B252B21F408950A2609F4CD
:1056C000A140A6958FEF811D811D0895DBDF08F4B1
:1056D0008FEF0895A1E21A2EAA1BBB1BFD010DC07E
:1056E000AA1FBB1FEE1FFF1FA217B307E407F50792
:1056F00020F0A21BB30BE40BF50B661F771F881F6E
:10570000991F1A9469F760957095809590959B0103
:10571000AC01BD01CF010895EE0FFF1F0590F4917C
:10572000E02D09940F93083090F0982F872F762F53
:10573000652F542F432F322F22270850F4CF220FEA
:10574000331F441F551F661F771F881F991F0A9517
:10575000B2F70F91089597FB10F8169400080F9375
:10576000083098F00850232F342F452F562F672FDD
:10577000782F892F902DF4CF05949795879577955D
:10578000679557954795379527950A95AAF70F91ED
:1057900008952A153B054C055D056E057F058007BC
:1057A000910708950024A7FD00942A1730054005AD
:1057B00050056005700580059005089581E090E032
:1057C000F8940C94352CFB01DC0105900D9200201F
:1057D000E1F70895FC0105900020E9F78095909588
:1057E0008E0F9F1F0895FB01DC0102C001900D92F6
:1057F00041505040D8F70895DC0101C06D934150ED
:105800005040E0F70895DC01CB01FC01F999FECF8F
:1058100006C0F2BDE1BDF89A319600B40D92415038
:105820005040B8F70895DC01A40FB51F4150504017
:1058300048F0CB01840F951F2E910E94242C4150DB
:105840005040D0F70895262FF999FECF92BD81BD23
:10585000F89A019700B4021639F01FBA20BD0FB6AE
:0E586000F894FA9AF99A0FBE0895F894FFCFC3
:10586E000000270780000100000000292900000029
:10587E00002929000000002929000000002B022920
:10588E0029000000002B02780E0000000010025AC2
:10589E00026B02E8020000000010025A026B02596D
:1058AE00030000000010025A026B021A02000000F0
:1058BE0000A6011101000000009C0139024A02F607
:1058CE0002000000009C0139024A02280300000079
:1058DE00003201F700000000003002260800000030
:1058EE0000DC00FEFF0000E600FCFF0000E9000007
:1058FE000000002B0FFE0EA40EAC0EBF0ECE0E013E
:10590E001301FF04000000021301FF040000000059
:10591E0000000000000000011101FF040000000261
:10592E001101FF0400F701031101FF040000003212
:10593E001301FF0400F301331301FF0400000034D0
:10594E001301FF0400EF0100000000000000000042
:10595E00401C460000484300C20100656E642D6F76
:10596E00662D73747265616D00696F206572726F5A
:10597E007200766172696E74206F766572666C6FF6
:10598E00770073697A6520746F6F206C617267653A
:10599E00006E6F206D616C6C6F6320737570706F2D
:1059AE00727400737472696E67206F766572666CBE
:1059BE006F77006279746573206F766572666C6FAF
:1059CE007700696E76616C696420646174615F73DF
:1059DE00697A6500696E746567657220746F6F20F1
:1059EE006C6172676500696E76616C6964207769B7
:1059FE0072655F7479706500706172656E74207384
:105A0E00747265616D20746F6F2073686F727400AD
:105A1E006172726179206F766572666C6F7700695C
:105A2E006E76616C6964206669656C642074797049
:105A3E00650063616C6C6261636B206661696C65A5
:105A4E0064006D697373696E672072657175697232
:105A5E006564206669656C6400696E76616C696464
:105A6E00206669656C642064657363726970746F17
:105A7E007200D91A381AAB20692170212F19CC184F
:105A8E00C71F000073747265616D2066756C6C00C3
:105A9E006172726179206D61782073697A65206513
:105AAE00786365656465640063616C6C6261636BE9
:105ABE00206572726F720062797465732073697AF1
:105ACE0065206578636565646564007375626D73E2
